:10048700759850538EFE53890F438E40758DFD75B9
:050497008B8FD28E22C4
:080525008F993099FDC2992263
:08038B008F0B8E0A8D098C080E
:10039300E4FBEBC3950C501DAF0B120525AF0BAE61
:1003A3000AAD09AC0878081202CE8F0B8E0A8D09AC
:0503B3008C080B80DD49
:0103B8002222
:0F04AF0043BA3090FE8074E0F090FE82E4F022B9
:0F04BE0090FE82E030E6F990FE82E054BFF0221B
:0905130090FE817401F00204BEA7
:0E04EB0090FE86EFF090FE817402F00204BED7
:10043A001205137FA01204EB120450E4FF1204EB1E
:06044A001204501204EB45
:0904500090FE817403F00204BE69
:0F04CD0090FE817404F01204BE90FE87E0FF22BF
:0E04F90090FE82E4F090FE817405F00204BED5
:0F04DC0090FE827401F090FE817405F00204BE60
:09051C0090FE817406F00204BE99
:10049C00E4FFFE000000000FBF00010EBE0BF4BF16
:0204AC00B8F1A5
:0104AE00222B
:1003540012043A7F121204EB12045012051C120408
:100364009C12043A1205137FA11204EB12045012DA
:1003740004CD8F801204F91204CD8FA01204DC1274
:07038400051CE4F5BA80FE40
:0603E600D2947F0A7E00A4
:1003EC00EF1FAC0670011E4C601A000000000000EC
:1003FC0000000000000000000000000000000000F1
:05040C00000080DC226D
:100459001203E6C2947F207E031203ECD2947F58E4
:080469007E021203EC7F012268
:02041100AD0735
:10041300E4FBED5401F515C2947F0F7E001203EC4B
:10042300ED1392947F2D7E001203EC1203E6EDC3CD
:0604330013FD0BBB08DC09
:0104390022A0
:1003B900E4FBEDC313FDC2947F027E001203ECD26D
:1003C900947F047E001203EC309404ED4480FD7F99
:0C03D9001E7E001203EC0BBB08D8AF0521
:0103E50022F5
:10047100120459EF600D7FCC1204117F4412041154
:050481007F01227F0055
:010486002253
:1002E100E4F510F50FF50EF50D120459EF60167FC8
:1002F100CC1204117FBE1204111203B98F13120321
:10030100B98F14D294751100851412E5127512007B
:10031100F511E5134212AC11AD12EC120206E4FB29
:10032100FA7980783D1200FB8F108E0F8D0E8C0DA7
:10033100E4FFFE7D207C41AB10AA0FA90EA80D128F
:1003410000FBE4FBFAF9783F12000A12023F8E111A
:020351008F1209
:010353002287
:0105350022A3
:0205330080FE48
:06052D0012053502053342
:100003000202ABE86480F8E933E83360110460F07E
:10001300ED33EC337009E8FCE9FDEAFEEBFF220463
:1000230060DED3EB9FEA9EE99DE8C2E78CF0C2F75E
:1000330095F0400CE8CCF8E9CDF9EACEFAEBCFFB2A
:1000430012027685D0F05804700320D5B3E804700B
:10005300075002B2D50202B592D5EC0460F7E4CCA6
:10006300C0E0C398F8603B94186008400DD0E0FBF3
:1000730002028DE4FBFAC9FC8028E830E406E4C9F7
:10008300FBE4CAFCE830E305E4C9CACBFCE8540747
:100093006010F8C3E913F9EA13FAEB13FBEC13FC52
:1000A300D8F130F52FC3E49CFCEF9BFFEE9AFEEDF5
:1000B30099FDD0E0FBEF4E4D4C701222DB030202A0
:1000C300B2EC2CFCEF33FFEE33FEED33FDED30E706
:1000D300EB02028DEF2BFFEE3AFEED39FDD0E0FB94
:1000E30050130BBB00030202B5ED13FDEE13FEEF3D
:0800F30013FFEC13FC02028D67
:1000FB00EC4D6011E8497017ED33EC3304600DE4FF
:10010B00FCFFFEFD22E933E8330470F80202AB1268
:10011B00027658046009E4CC248150062850090269
:10012B0002B52840030202B2C0E0EB4A7044B9802A
:10013B0006D0E0FB0202A1EF4E701CBD8008EBFF66
:10014B00EAFEE9FD80EBE98DF0A4FEE5F00201E4A7
:10015B00E9CDF9EAFEEBFFEF89F0A4FCE5F0CE89DF
:10016B00F0A42EFFE435F0CD89F0A42DFEE435F09C
:10017B008067EF4E7005BD80D780C3EF8BF0A4ACCA
:10018B00F0EE8BF0A42CFCE435F0F8EF8AF0A42C05
:10019B00E5F038FCE433CB8DF0A42CFCE5F03BF818
:1001AB00EE8AF0A42CFCE5F038F8E433CF89F0A408
:1001BB002CFCE5F038CF3400CE89F0A42FFFE5F00E
:1001CB003EFEE433C98DF0A42EFEE5F039CD8AF066
:1001DB00A42FFFE5F03EFEE43DFD33D0E0FB5007DE
:1001EB000BBB000F0202B5EC2CFCEF33FFEE33FE22
:0601FB00ED33FD02028D50
:1002010075F020800E75F010800575F0087D007E78
:10021100007F003392D530D5031202C0EC33401079
:10022100EF33FFEE33FEED33FDEC33FCD5F0ED2281
:0E023100E5F0247EA2D513CC92E7CDCEFF22BD
:10023F00EDD2E7CD33EC3392D524814006E4FFFEB7
:10024F00FDFC22FCE4CFCECDCC24E0501174FF8016
:10025F00EDC3CC13CCCD13CDCE13CECF13CF0470B3
:07026F00F030D5DE0202C0F1
:10027600E9D2E7C933E833F892D5EDD2E7CD33ECCE
:0702860033FC5002B2D52247
:10028D00EC30E7100FBF000C0EBE00080DBD0004D2
:10029D000BEB6014A2D5EB13FCED92E7FD2274FF7E
:1002AD00FCFDFEFF22E480F8A2D574FF13FC7D80D7
:0302BD00E480EFEB
:03000000020507EF
:0C050700787FE4F6D8FD75811502052D03
:0E02C000C3E49FFFE49EFEE49DFDE49CFC224F
:1002CE00E8600FECC313FCED13FDEE13FEEF13FF0E
:0302DE00D8F12232
:00000001FF
