:1029F2009002FFEFF0A3EDF0122D9F7F1A122D47E8
:102A0200122DA89002FFE0FF122D47122DA890036D
:0C2A120000E0FF122D47122DA8022DB18C
:102A6D00900300EFF0122D9F7F1A122D47122DA803
:102A7D007FB0122D47122DA8900300E0FF122D47B5
:062A8D00122DA8022DB17C
:102B2600122A6D122D9F7F1B122D47122DA8122DD2
:102B36001A9002FFEFF0122D29122DB19002FFE03C
:012B4600FF8F
:012B4700226B
:101355004103980041039B004103970041039C0012
:0813650041039A0041039900C5
:062DED00759850022C99BC
:082DDE008F993099FDC2992282
:0627ED009002FF12084DEE
:1027F300E4FB900303E0FFEBC39F50289002FFA389
:10280300A3A3E0FAFF122DDE9002FFE0FCA3E0FD9C
:10281300A3E0FEA3E0FF78081207E99002FF120885
:042823004D0B80CE0B
:01282700228E
:102C6000120657FF600C122DDE740129F9E43AFABE
:032C700080EE22D1
:062DF300759A50022D95B7
:0F2CDE008F9B90039B7401F090039BE070FA2290
:102C7300120657FF600C122CDE740129F9E43AFAAC
:032C830080EE22BE
:10293600900397E06027E4F0A3E59BF0E012069D84
:10294600120657600D9003977401F029F9E43AFADC
:1029560080DEE4900397F012069D7F01227F00221D
:062DF90043AC40022CCEA9
:0F2CED008FAD90039C7401F090039CE070FA226D
:1028D1009003A6EBF0A3EAF0A3E9F09003A6E0FBD6
:1028E100A3E0FAA3E0F912065760179003A6A3E448
:1028F10075F0011206F7A9F0FA120657FF122CED36
:0329010080D92258
:1029040090039AE06029E4F0900399E5ADF0E012B9
:10291400069D120657600D90039A7401F029F9E49C
:102924003AFA80DCE490039AF012069D7F01227F3C
:0229340000227F
:0F2CFC0075BAB090FE8074E0F090FE82E4F02292
:0F2D0B0090FE82E030E6F990FE82E054BFF022A5
:092D9F0090FE817401F0022D0B7D
:0E2D470090FE86EFF090FE817402F0022D0BDC
:092DA80090FE817403F0022D0B72
:0F2D1A0090FE817404F0122D0B90FE87E0FF22D3
:0E2D550090FE82E4F090FE817405F0022D0BDA
:0F2D290090FE827401F090FE817405F0022D0B74
:092DB10090FE817406F0022D0B66
:102C9900538EFE53890F438E40758DFD758B8FD2F0
:022CA9008E2279
:0A2D9500438E1475D6FD75D78E220B
:102CCE0075AC1043D10275D58F75D4FD43D1082252
:0C2D63007F867E0C7D49DDFEDEFADFF687
:012D6F002241
:102AB900EF1FAC0670011E4C601A000000000000F8
:102AC90000000000000000000000000000000000FD
:052AD900000080DC227A
:102CAB007FCD7EE67DFDDDFEDEFADFF67F0EDFFEFD
:012CBB000018
:012CBC0022F5
:082DBA007F78AE071FEE70FAEE
:012DC20022EE
:102B4800E4FDFCC3ED9FEC9E5015E4FBFA0BBB00C3
:0F2B5800010ABA5DF8BBC0F50DBD00010C80E4A9
:012B6700224B
:102C8600AD071FED600CE4FEEEC3941150F2000E8A
:022C960080F6C6
:012C98002219
:072DE600759124E4F592222F
:102ADE0075DE2FEF4480F5BC43BC400000E5BC30F2
:102AEE00E5FB53BCDFAFBDEFFEADBE7C00E42DFFBA
:032AFE00EC3EFEAD
:012B010022B1
:062DFF0075AF09D2AF22FE
:0300430002272C65
:10272C00C0E0C0F0C083C082C0D075D008E59A303C
:10273C00E108539AFD90039BE4F0E59A30E01853BE
:10274C009AFE9003977401F09001DAE0FEA3E0AAE0
:10275C000EF97B01122936D0D0D082D083D0F0D0A4
:02276C00E03259
:03008B000229C483
:1029C400C0E0C083C082E5AC30E10853ACFD9003A5
:1029D4009CE4F0E5AC30E00F53ACFE90039A740134
:0E29E400F0900399E5ADF0D082D083D0E032C0
:0D2D7000E4F5C7F5C5F5C675C380F5C422AE
:102BD80075C78375C5018FC4EEFF8FC375C65A7557
:082BE800C6A500AFC2122D705A
:012BF00022C2
:102BBE0075C78375C5028FC4EEFF8FC3AF058FC275
:0A2BCE0075C65A75C6A500022D70E9
:102C090075C78375C5038FC4EEFF8FC375C65A7523
:062C1900C6A500022D70AB
:0C2D7D00AB07AA06122C09AF03022BBE04
:102B6800D2947F0A7E00122AB9C2947F207E031273
:0E2B78002AB9D2947F587E02122AB97F012218
:05004600900303EFF040
:10004B00E4A3F0900303E05401900305F0C2947F06
:10005B000F7E00122AB9900303E01392947F2D7E3A
:10006B0000122AB9D2947F0A7E00122AB990030398
:0E007B00E0C313F0A3E004F0E0C3940840C516
:010089002254
:10276E00E4900303F0900304E0C313F0C2947F02DD
:10277E007E00122AB9D2947F047E00122AB93094B8
:10278E0008900304E04480F0F07F1E7E00122AB908
:10279E00900303E004F0E0C3940840C9900304E002
:0127AE00FF2B
:0127AF002207
:102C1F00122B68EF600D7FCC1200467F44120046E6
:052C2F007F01227F007F
:012C3400227D
:10218E009002FF12085900000000122B68EF601C2D
:10219E007FCC1200467FBE12004612276E9003A41B
:1021AE00EFF012276E9003A5EFF0D2949003A5E006
:1021BE00FF9003A2E4F0A3EFF0E07F00FE9003A2F5
:1021CE00F0A3EFF0A3E0FDEDFF9003A2EEF0A3EF7E
:1021DE00F0AC06EC120331E4FBFA7980783D120183
:1021EE00869002FF12084DE4FFFE7D207C41900296
:1021FE00FFE0F8A3E0F9A3E0FAA3E0FB120186E406
:10220E00FBFAF9783F12009512036A9003A2EEF0E2
:03221E00A3EFF03B
:01222100229A
:102481007D0E7F821229F27DA67F831229F2E4FD5F
:102491007F841229F2E4FD7F851229F27D7D7F86FA
:1024A1001229F27D027F871229F27D037F8812298A
:1024B100F27DE87F891229F2E4FD7F8A1229F27DFB
:1024C100647F8B1229F27DB17F801229F2E4FD7FB6
:1024D100811229F27D117F801229F2122D637D2153
:0524E1007F800229F2DA
:1024E6007D937F801229F27F8F122B26EF30E0F743
:1024F6007F92122B26EF7F00FEC006C0077F931245
:102506002B26EFFDD0E02DFFD0E03400FEEF780261
:10251600C333CE33CED8F9FF90033BEEF0A3EFF0F2
:1025260090033BE0FEA3E07802CEA2E713CE13D8D9
:10253600F8FF7C007D201206C190033BEEF0A3EF6E
:01254600F0A4
:012547002271
:101042001224817F8F122B26EF30E1F77F94122B2F
:1010520026EF7F00FEC006C0077F95122B26EFFD0C
:10106200D0E02DFED0E03400900335F0A3CEF07F27
:1010720096122B26EF7F00FEC006C0077F97122B29
:1010820026EFFDD0E02DFFD0E03400FE900349F0C2
:10109200A3EFF0FDAC06EC120331C004C005C0069C
:1010A200C007900349E0FCA3E0FDEC120331D0033A
:1010B200D002D001D000120186C004C005C006C013
:1010C20007900335E0FCA3E0FDEC120331C004C03D
:1010D20005C006C007900335E0FCA3E0FDEC120357
:1010E20031D003D002D001D000120186D003D00249
:1010F200D001D000120095121E6F90034112084DCC
:10110200D3900336E09400900335E06480948040ED
:1011120053900349E0FCA3E0FDD39400EC64809477
:10112200804041EC120331C004C005C006C00790E4
:101132000335E0FCA3E0FDEC120331900303120837
:101142004DD007D006D005D00412205CE4FBFA791A
:101152003478431201867BDA7A0F79497840120299
:101162008F02129AC3900335E064809480505C90A1
:101172000349E0FCA3E0FD9400EC64809480404BC2
:10118200EC120331C004C005C006C007900335E06D
:10119200FCA3E0FDEC12033190030312084DD007CB
:1011A200D006D005D00412205CE4FBFA79347843EF
:1011B2001201867BDA7A0F7949784012028FE4FBBA
:1011C200FA7934784312009502129AC3900335E0FB
:1011D20064809480505A900349E0FCA3E0FDC3EC84
:1011E20064809480504AEC120331C004C005C006EA
:1011F200C007900335E0FCA3E0FDEC12033190033D
:101202000312084DD007D006D005D00412205CE4AA
:10121200FBFA793478431201867BDA7A0F794978BE
:101222004012028FE4FBFA79347843120095806809
:10123200D3900336E09400900335E06480948040BC
:101242005D900349E0FCA3E0FDEC64809480504E85
:10125200EC120331C004C005C006C007900335E09C
:10126200FCA3E0FDEC12033190030312084DD007FA
:10127200D006D005D00412205CE4FBFA793478431E
:101282001201867BDA7A0F7949784012028FE4FBE9
:10129200FA79B4784312009590033712084D9003FF
:1012A20041E0F8A3E0F9A3E0FAA3E0FB7F407E6807
:1012B2007D557C4A12028F90034512084D7FB87EFD
:1012C2009E7D917CC3900337E0F8A3E0F9A3E0FA96
:1012D200A3E0FB1200957BDA7A0F7949784012017C
:1012E20086E4FBFA7934784312028F12167E900359
:1012F20045E0F8A3E0F9A3E0FAA3E0FB1201867B44
:101302005C7A8F79D278C0120095A804A905AA0642
:10131200AB077F7F7EAF7D7C7C4912028F90033DBD
:1013220012084D7DA17F801229F290033DE0FCA3BB
:10133200E0FDA3E0FEA3E0FF12036A900303740240
:10134200F01227ED90033DE0FCA3E0FDA3E0FEA335
:02135200E0FFBA
:011354002276
:0F2D3800D286D287122DBAC286122DBAC2872236
:102CBD00C286D287122DBAD286122DBAC287022DA4
:012CCD00BA4C
:102C3500EF30E004D2868002C286D287122DBAC256
:062C450087D286022DBAC1
:102B0200E4900306F0D286D287122DBA900306E033
:102B1200FFA286E433FEEF4EF0122DBAC287900375
:032B220006E0FFCB
:012B2500228D
:05289A00900304EFF0C3
:10289F00E4A3F0900304E030E704D2868002C286FE
:1028AF00122DBAD287122DBAC287122DBA900304F5
:1028BF00E0FF25E0F0A3E004F0E0C3940840D40269
:0228CF002B02DA
:1027B000E4900304F0A3F0D286900304F0D28712D1
:1027C0002DBA900305E0FFA286E433FEEF4EF0C27F
:1027D00087122DBA900305E025E0F0900304E00491
:0C27E000F0E0C3940840D6900305E0FF31
:0127EC0022CA
:102BF100900303EFF0122D387F4612289A900303B9
:082C0100E0FF12289A022CBD2D
:1026E900122D387F4712289AE4900303F01227B07D
:1026F900900303E0FE2480F582E43403F583EFF0D0
:10270900EEB403047F018002E4FF122C3590030329
:10271900E004F0E0C3940340D4122CBD7F057E0091
:03272900022B4838
:052E0B007F01022BF124
:1023A6007F01122BF17F10122BF17FC87E00122BBA
:1023B600481226E9E4FF122BF1900380E0FF900318
:1023C6007EE4F0A3EFF0E0FE900381E07C002400C1
:1023D600FFEC3EFE90037EF0A3EFF0FDAC06E412A8
:1023E60003317B9A7A997999783F12028F9002FF8E
:1023F60012084D7F337E337DB37C3F9002FFE0F8B9
:0F240600A3E0F9A3E0FAA3E0FB12018612036A38
:0124150022A4
:102B86007F02122ADEAD07AC06E41203317BE67A39
:0B2B96003F791C784012018612036A90
:012BA1002211
:10136D00021D00000419C126C083041546DDC9778E
:101BEA009003887407F0A37432F090038C7423F086
:101BFA00A374DCF090038A7409F0A37425F09003AF
:101C0A008E740FF0A374A0F0743264257004740704
:101C1A0064097003021CEF90038EE0FEA3E0FFD379
:101C2A0090038DE09FEE6480F890038CE0648098C6
:101C3A004033900388E0FEA3E0FF90038BE09FFD12
:101C4A0090038AE09EFC120331C004C005C006C09E
:101C5A000790038CE0FEA3E0FFC390038FE09FFD93
:101C6A0090038E803290038AE0FEA3E0FFC39003C4
:101C7A0089E09FFD900388E09EFC120331C004C0F6
:101C8A0005C006C00790038EE0FEA3E0FFC39003E1
:101C9A008DE09FFD90038CE09EFC120331D003D0AF
:101CAA0002D001D00012028F7819120841900388DD
:101CBA00E0FCA3E0FDEC12033178191208181201B6
:101CCA0086C004C005C006C00790038CE0FCA3E0F0
:101CDA00FDEC120331D003D002D001D000120091E2
:061CEA00781512084122EA
:0522AE009002FFEFF0BB
:1022B30090030112085900000000E4900300F0901D
:1022C3000301E0F8A3E0F9A3E0FAA3E0FBC000C038
:1022D30001C002C0039002FFE0FF122ADEE4FCFD0E
:1022E300D003D002D001D000EB2FFFEA3EFEED3940
:1022F300FDEC38FC90030112084DE4FFFE0FBF0014
:10230300010EBE03F8BFE8F5900300E004F0E0C35C
:10231300946440ABE47B64FAF9F8900301E0FCA316
:0B232300E0FDA3E0FEA3E0FF1207496D
:01232E00228C
:100003007F051222AEAD07AC06E412033178191254
:100013000818120186781512081812009512036A3F
:10002300781DEEF608EFF6EE3395E0FDFC90030342
:0D0033007402F01227ED781DE6FE08E6FFCE
:01004000229D
:032E150025640031
:10137D00606E016C7B2274223A20312C22646576DA
:10138D00696365223A2022426C75654265727279F5
:10139D00222C226B6579223A226439623864353405
:1013AD003936373765343264393839663335343048
:1013BD00316236633037393066222C2276657222DF
:1013CD003A2276312E30227D000000000000000010
:1013DD000000000000000000000000000000000000
:1013ED000000612C00007B2274223A332C226461B0
:1013FD00746174797065223A312C22646174617361
:10140D00223A7B225068000000000000000000001E
:10141D0000000000000000000000000000000000BF
:10142D0000000000000000000000000000000000AF
:10143D00000000000000000000000000000000009F
:10144D00000000000000000000000000000000008F
:10145D00000000000000000000000000000000007F
:10146D00000000000000000000000000000000006F
:10147D00000000000000000000000000000000005F
:10148D00000000000000000000000000000000004F
:10149D00000000000000000000000000000000003F
:1014AD00000000000000000000000000000000002F
:1014BD00000000000000000000000000000000001F
:1014CD00000000000000000000000000000000000F
:1014DD0000000000000000000000000000000000FF
:1014ED0000000000000000000000000000000000EF
:1014FD0000000000000000000000000000000000DF
:10150D0000000000000000000000000000000000CE
:10151D0000004A0229223A30000000000000004A73
:10152D0002332C2200000000000000004E023D7D21
:10153D002C226D73676964223A317D000047021BCE
:10154D0024234154230D00603F01DC50680000004E
:10155D00000000004C697175696454000048756D98
:10156D006964697479004C757800000000000054BE
:10157D00656D700000000000454300000000000094
:10158D0000434F320000000000004702220207080E
:09159D00030402034201DA012CEF
:10265200E49003A9F0A3F07B017A01792C122936C8
:10266200EF70229003AAE004F070069003A9E00440
:10267200F0D39003AAE0942C9003A9E064809481A3
:1026820040DE7F00229001DAE0FCA3E0F5828C8339
:10269200EFF09001DAE475F0011206F745F070F2FE
:0226A2007F01B6
:0126A4002213
:0B1DAF0090035BEBF0A3EAF0A3E9F067
:101DBA009001DAE0FEA3E0AA06F97B01C002C001A5
:101DCA0090035BE0F9A3E0FAA3E090036AC9F0A3E9
:101DDA00EAF0A3E9F0D001D002121CF0900361EB03
:101DEA00F0A3EAF0A3E9F090035BE0FBA3E0FAA317
:101DFA00E0F9122C4B900361E0FBA3E0FAA3E0F9AF
:101E0A00EF3395E0FEE92FF9EA3EFAA3EBF0A3EAF5
:101E1A00F0A3E9F0900361A3E0FAA3E0F94A603580
:101E2A0090FFFF120670B4222C900364E0FBA3E03B
:101E3A00FAA3E0F9120657B4221B900001120670A9
:101E4A00B43A12E92402F9E43AFA90035EEBF0A3F9
:101E5A00EAF0A3E9F090035EA3E0FAA3E0AE02FF82
:011E6A002255
:092DC3007B017A01796C022C738A
:092DCC007B017A02791B022C73D1
:1017BE00E49002FFF0A3F0A3F0A3F0A37400F0A353
:1017CE00741EF0E4900302F0900302E0FFC3648005
:1017DE0094874003021929EF3395E0FE7C007D09C2
:1017EE001206AF74DC2FF974013EFA7B01C002A31E
:1017FE00E0FEA3E0AA06F8AC027D01D002120B3780
:10180E00900302E0FFFD3395E0FC74222DF5827407
:10181E00023CF583E0FD3395E0FC900304E02DF0EF
:10182E00900303E03CF0E0FCA3E0F5828C83E4F04F
:10183E00EFB40700504B90184BF82828730218602D
:10184E0002186502186A02186F02187602187B02D7
:10185E00188090034F801E90035580199003598075
:10186E0014900351A3A3800D90034B800890034D59
:10187E008003900357E0FFA3E0900300CFF0A3EFA7
:10188E00F090030874FFF0A3742EF0A37415F0907B
:10189E000300E0FFA3E090030BCFF0A3EFF07B017A
:1018AE007A02792B120C249002FFEFF09003087449
:1018BE0001F0A37402F0A37429F07B017A00790081
:1018CE001224169002FFE0FF900304E02FFF900316
:1018DE0003E03400CF2402CF3400FEF0A3EFF0F586
:1018EE00828E83E4F0900302E06406602590030884
:1018FE007401F0A37402F0A37433F07B017A0079C3
:10190E0000122416900304E02402F0900303E03446
:10191E0000F0900302E004F00217D6900308740161
:10192E00F0A37402F0A3743DF07B017A00790012EB
:06193E0024167E007F006C
:011944002280
:0C2D89001217BE7B017A007900022C7347
:1015A6004402B10000000044024E00000000410267
:1015B600B6004102B50041025201605A0253436F20
:1015C6006E74726F6C50680000000000000000002E
:1015D6000000000000000000000000000000000005
:1015E60000000000000000000000000000000000F5
:1015F600000000000000000000006461746100004B
:10160600000000000000000000617069746167005E
:10161600000000000000000041024B0042024C00A6
:0116260000C3
:102A9300EF14601014601314601624037017ED24F0
:102AA300FF92A322ED24FF92A022ED24FF92A22203
:062AB300ED24FF92A122B8
:021F1700AE0713
:101F19009002B6E0FC70047F0180027F009002B558
:101F2900E0FB5F6038AF06744E2EF582E43402F5AB
:101F390083E0FD122A93E49002B5F0744E2EF582E7
:101F4900E43402F583E0FF74B12EF582E43402F53E
:101F590083EFF0744E2EF582E43402804AEC5B6024
:101F69004BAF0674B12EF582E43402F583E0FD121D
:101F79002A93E49002B5F074B12EF582E43402F5A7
:101F890083E0FF744E2EF582E43402F583EFF0907E
:101F9900024BE004F0E0B40206E4F09002B6F074FB
:101FA900B12EF582E43402F583E0FF229002B5E018
:021FB9007FFFA8
:011FBB002203
:10194500900399E0FF605C24EF602024F16021148E
:10195500602524F1602614602A24F1602B14602F81
:1019650024317031E49002B1F0802A9002B18022D6
:10197500E49002B2F0801E9002B28016E49002B3A9
:10198500F080129002B3800AE49002B4F0800690D1
:1019950002B47401F0E4900399F09002B604F0905B
:1019A50002B5F0900398E07003021AC77B017A0232
:1019B500799E121DAF900376EEF0A3EFF0900376BB
:1019C500E0FBA3E0FAA3E0F8AC02AD037B017A02E9
:1019D5007953120A4EEF70047F0180027F00900355
:1019E50079EFF0900376E0FBA3E0FAA3E0F8AC0210
:1019F500AD037B017A027962120A4EEF70047F0112
:101A050080027F0090037AEFF0900376E0FBA3E07D
:101A1500FAA3E0F8AC02AD037B017A027971120AF0
:101A25004EEF70047F0180027F0090037BEFF09002
:101A35000376E0FBA3E0FAA3E0F8AC02AD037B017B
:101A45007A027980120A4EEF70047F0180027F00CE
:101A550090037CEFF0E4A3F090037DE0FFC3648086
:101A650094845059EF3395E0FE74792FF582740311
:101A75003EF583E0603F7B017A02798F121DAF90BE
:101A85000373EEF0A3EFF0900373E0FBA3E0FAA37A
:101A9500E0F9120657FF90037DE0FD3395E0FC74F5
:101AA500B12DF58274023CF583EFF09002B6740116
:101AB500F09002B5F090037DE004F0809BE4900384
:021AC50098F097
:011AC70022FC
:1026A5007F027E01122BD8EF3395E09002ADF0A3A7
:1026B500EFF0E0F8E4F0E89002ADF07401FFFE12EF
:1026C5002BD8EF3395E0FE9002ADE04EF0A3E04F3E
:1026D500F07F007E01122BD8EF3395E09002AFF02A
:0426E500A3EFF0224D
:102548009002AFE0FEA3E0FFD3900350E09F90031A
:102558004FE09E401990024CE004F0E0D364809470
:1025680084400BE4F090024E04F09002B5F0900223
:10257800ADE0FEA3E0FFC390034EE09F90034DE063
:102588009E501890024DE004F0E064809484400B63
:0B259800E4F090024F04F09002B5F058
:0125A3002215
:102A1E00900252E060081226A5E4900252F01225B0
:102A2E0048121945E4FF121F177F01121F177F026C
:082A3E00121F177F03021F178E
:102BA200C2937F067E00122B48D2937F03122C869B
:0C2BB200D293E4900396F0900395F0227B
:10282800E4FF900300F0E4FE2093070EEEC394C883
:1028380040F67F04122C86A293E433FFE4FE209333
:10284800070EEEC394C840F6EF25E0FF900300E0C2
:0828580004F0E0C3940840CE37
:012860002255
:10296600900391E0FF900390E02FFFE433FE900385
:1029760092E07C002FFFEC3EFEA3E02FFFEC3EFE34
:0F298600A3E0B50707ECB506037F01227F00220F
:10299500120657FF900300E4F0A3EFF0E0F8E4F02F
:1029A500E8900300F0900001120670FF900300E02C
:0E29B500FEA3E04FFF900300EEF0FEA3EFF054
:0129C30022F1
:1020F900122BA22093569003967401F0E4FF2093CB
:102109000D0FEFD3942C7480948140F28010E4FF7A
:102119003093140FEFD3942C7480948140F2900380
:10212900957401F07F0022E49002FFF012282890B4
:1021390002FFE02490F582E43403F583EFF0900286
:10214900FFE004F0E0C3940540E28007E4900396C1
:10215900F0FF22900396E06029122966EF60237B45
:10216900017A037990122995900359EEF0A3EFF0C3
:102179007A03799212299590034BEEF0A3EFF07F41
:0421890001227F00B0
:01218D00222F
:052E1000252E316600D3
:0E1627004502FA00000000004302F70102FA3B
:10232F0090039DEFF07FEE122CED7FB1122CED7F1D
:10233F0010122CEDE4FF122CEDE4FF122CEDE4FF54
:10234F00122CED90039DE0FF122CED90030874FF0B
:10235F00F0A3742EF0A37410F090039EE0FCA3E0A2
:10236F00FDA3E0FEA3E0FFE412032C90030B120881
:10237F004D7B017A0279B7120C247B017A0279B76F
:10238F001228D17FFF122CED7FFC122CED7FFF1254
:07239F002CED7FFF022CED85
:1025A400E49003ABF0A3F07B017A0279FA122904D8
:1025B400EF70229003ACE004F070069003ABE004EB
:1025C400F0D39003ACE0942C9003ABE0648094814E
:1025D40040DE7F00229002F7E0FBA3E0FAA3E0F9DB
:1025E400EF12069D9002F7E0FBA3E475F0011206DA
:0825F400F745F04B70EE7F018A
:0125FC0022BC
:10286100122CFC122E0B122DE6121BEA122BA212B5
:102871002DED122DF3122DF9122DFF7D087F007E13
:1028810001122D7D7D087401FFFE122D7D7D077FD4
:09289100027E01122D7D022DC30F
:1025FD00122C1F1224E612104212036A90034DEEA4
:10260D00F0A3EFF012218E900355EEF0A3EFF01230
:10261D0023A690035112084D122B86900357EEF00E
:10262D00A3EFF09003037402F07F007E007D007C29
:10263D00001227ED12000390034FEEF0A3EFF012FE
:05264D0020F9022D89B7
:101FBC00900355E0FEA3E0FFE4FCFD90039E1208A5
:101FCC004D7F2A12232F900357E0FEA3E0FFE4FC81
:101FDC00FD90039E12084D7F0A12232F90034FE0B1
:101FEC00FEA3E0FFE4FCFD90039E12084D7F0B1254
:101FFC00232F900359E0FEA3E0FFE4FCFD90039E29
:10200C0012084D7F0812232F90034BE0FEA3E0FF34
:10201C00E4FCFD90039E12084D7F0712232F9003C2
:10202C004DE0FEA3E0FFEE3395E0FDFC90039E1225
:10203C00084D7F0C12232F900351E0FCA3E0FDA36D
:10204C00E0FEA3E0FF90039E12084D7F0902232FB0
:092DD500C2A61225FDB2A680F988
:062E0500122861022DD528
:10008E000203D6E86480F8E933E83360110460F0C7
:10009E00ED33EC337009E8FCE9FDEAFEEBFF2204D8
:1000AE0060DED3EB9FEA9EE99DE8C2E78CF0C2F7D3
:1000BE0095F0400CE8CCF8E9CDF9EACEFAEBCFFB9F
:1000CE001203A185D0F05804700320D5B3E8047054
:1000DE00075002B2D50203E092D5EC0460F7E4CCEF
:1000EE00C0E0C398F8603B94186008400DD0E0FB68
:1000FE000203B8E4FBFAC9FC8028E830E406E4C940
:10010E00FBE4CAFCE830E305E4C9CACBFCE85407BB
:10011E006010F8C3E913F9EA13FAEB13FBEC13FCC6
:10012E00D8F130F52FC3E49CFCEF9BFFEE9AFEED69
:10013E0099FDD0E0FBEF4E4D4C701222DB03020313
:10014E00DDEC2CFCEF33FFEE33FEED33FDED30E74F
:10015E00EB0203B8EF2BFFEE3AFEED39FDD0E0FBDC
:10016E0050130BBB00030203E0ED13FDEE13FEEF85
:08017E0013FFEC13FC0203B8AF
:10018600EC4D6011E8497017ED33EC3304600DE473
:10019600FCFFFEFD22E933E8330470F80203D612B1
:1001A60003A158046009E4CC2481500628500902B2
:1001B60003E02840030203DDC0E0EB4A7044B98047
:1001C60006D0E0FB0203CCEF4E701CBD8008EBFFAF
:1001D600EAFEE9FD80EBE98DF0A4FEE5F002026F90
:1001E600E9CDF9EAFEEBFFEF89F0A4FCE5F0CE8954
:1001F600F0A42EFFE435F0CD89F0A42DFEE435F011
:100206008067EF4E7005BD80D780C3EF8BF0A4AC3E
:10021600F0EE8BF0A42CFCE435F0F8EF8AF0A42C79
:10022600E5F038FCE433CB8DF0A42CFCE5F03BF88C
:10023600EE8AF0A42CFCE5F038F8E433CF89F0A47C
:100246002CFCE5F038CF3400CE89F0A42FFFE5F082
:100256003EFEE433C98DF0A42EFEE5F039CD8AF0DA
:10026600A42FFFE5F03EFEE43DFD33D0E0FB500752
:100276000BBB000F0203E0EC2CFCEF33FFEE33FE6A
:06028600ED33FD0203B898
:10028C000203E0EC5D046005E8590470030203D638
:10029C001203A1580460F6EC4860F2EC7004FDFE09
:1002AC00FF22C860DB2481C85009C3986002500645
:1002BC000203DD9850CAF582E9294B4A7005AB82DE
:1002CC000203CC75F0007C1A7880C3EF9BEE9AED9C
:1002DC0099400DC3EF9BFFEE9AFEED99FDE842F0BD
:1002EC00DC23ACF0D0E0FFD0E0FED0E0FDAB822010
:1002FC00E7101BEB60BAEC2CFCEF33FFEE33FEED9A
:10030C0033FD0203B8E803F830E705C0F075F000E0
:10031C00EF2FFFEE33FEED33FD40B830E7C280AA7D
:10032C0075F020800E75F010800575F0087D007E4C
:10033C00007F003392D530D5031207DBEC3340102D
:10034C00EF33FFEE33FEED33FDEC33FCD5F0ED2255
:0E035C00E5F0247EA2D513CC92E7CDCEFF2291
:10036A00EDD2E7CD33EC3392D524814006E4FFFE8B
:10037A00FDFC22FCE4CFCECDCC24E0501174FF80EA
:10038A00EDC3CC13CCCD13CDCE13CECF13CF047087
:07039A00F030D5DE0207DBA5
:100BBF00E5102408F582E43403F583E00510229054
:100BCF000305300703900308E475F00112088A0249
:100BDF0006572000E97F2ED2008018EF540F249083
:100BEF00D43440D4FF30040BEF24BFB41A005003A9
:100BFF002461FFE511600215110514E5147002055B
:100C0F001330070E900305E475F00112088AEF0206
:100C1F00069D022A467403D2078003E4C207F5102B
:100C2F009003051208A1E4F511F513F514E5116011
:100C3F00077F20120C0280F57512FFC201C200C29D
:100C4F0002C203C205C206C208120BCEFF700D30DE
:100C5F0007057F00120C13AF14AE1322B4255FC229
:100C6F00D5C204120BCEFF24D0B40A00501A75F06F
:100C7F000A781130D50508B6FF0106C6A426F6205E
:100C8F00D5047002D20380D924CFB41A00EF5004D8
:100C9F00C2E5D204020F05D20180C6D20080C0D2B5
:100CAF000280BCD2D580BAD20580B47F20120C024C
:100CBF002002077401B5110040F1120BBFFF120C97
:100CCF0002020C3CD208D2068095120BBFFB120B0E
:100CDF00BFFA120BBFF94A4B700679037A107BFFEC
:100CEF0020022EE511602A7E008E82758300120687
:100CFF007060060EEE651270F0C2D5EBC0E0EAC070
:100D0F00E0E9C0E0EE120F66D0E0F9D0E0FAD0E0F3
:100D1F00FB120657FF60AAEBC0E0EAC0E0E9C0E0B3
:100D2F00120C02D0E02401F9D0E03400FAD0E0FB3D
:100D3F00E5120460DCD512D98087D20280A2120F8F
:100D4F004860F7E512700104120458A912600DE50E
:100D5F0012600914F512120FF0EF60F3EA30E70298
:100D6F00F404C3995079EAF425120430E701E4043E
:100D7F00F512800D120F4860C1EA051225121204F8
:100D8F0058EA900334F030E701E4251204D5120439
:100D9F0020050114120F66E4C0E0120FF090033427
:100DAF00E0601320E70714F0120BEA802204F0D062
:100DBF00E014C0E07F00120BEAE5126007120BE1AE
:100DCF001512800B300503120BE1D0E0020C3CD062
:100DDF00E00480C4120F48609EE51204120458907C
:100DEF000334EAF0E5122005026001042404120F17
:010DFF00668D
:100E000074FF04C0E0120FF0120BEAE51220050295
:100E10006003120BE1D0E0B512E87F45120BF490AD
:100E20000334E07F2B30E7047F2DF404C0E0120C84
:100E300002D0E075F00A84C0F0120BEBD0E0120B88
:100E4000EB020C3C791080027908C206C2088008C7
:100E5000D2D5790A8004790AC2D5E512047002F568
:100E600012E4FAFDFEFF120BBFFC7B0820011312F7
:100E70000BBFFD7B1030000A120BBFFE120BBFFF31
:100E80007B20EC3382D592D55013C3E43000069F0B
:100E9000FFE49EFEE42001039DFDE49CFCE4CBF80E
:100EA000C201EC700CCFCECDCCE824F8F870F38002
:100EB00017C3EF33FFEE33FEED33FDEC33FCEB33C2
:100EC000FB994002FB0FD8E9EB300105F8D0E0C4F4
:100ED00048B201C0E00AEC4D4E4F78207B0070C252
:100EE000EAB5120040BCC0E0120F68D0F0D0E0209C
:100EF0000104C4C0E0C4B201C0F0120BEBD0F0D5C5
:100F0000F0EB020C3C1208AA0CD9530E44580CAA60
:100F10004C0CA6420E484F0E50440E50490CBF4395
:100F20000E56550D83460DE3450D4D471023500CCD
:100F3000AE2D0CB22E0CD52B0CB6230CD320100CDE
:100F40002A0C6E4800000CCDE512B4FF03751206A2
:100F5000120BBFFC120BBFFD120BBFFE120BBFFF2B
:100F600090032D020495790AA2D5200314300509B7
:100F7000B910020404B9080104A2D52006025001E8
:100F8000042002689202B511005034C0E07F203086
:100F900003197F30A20272067205500F120FBFC2F2
:100FA00002C206C205C2087F30800F300503E9C0C7
:100FB000E0120C02300503D0E0F9D0E0B511CC30DE
:100FC00005177F30B9100C120C027F583004077FD0
:100FD000788003B90803120C023002057F2D020C41
:100FE000027F202008F87F2B2006F322920280CF78
:100FF0007F00B40700500B242DF582E43403F58301
:10100000E0FF22286E756C6C2900D201120BBF30F4
:1010100001F8C201781130D50108F6020C6E2D508E
:10102000434958120BBF2403B405004001E490105B
:101030001E93120BF3743A120BF3D20375110402D0
:021040000E445C
:101E6B000203D622EDA2E7D2E7F9EC3340F260F39E
:101E7B00B4FF08ED547F70E80203E0F82481C2E060
:101E8B00C0E0F40428FAC313FCED92E7FD9002FFC7
:101E9B0012084DEEA2E7E9BA7F02C3133400940097
:101EAB00FA75F091A4E5F013F494FE8AF0A433E5EF
:101EBB00F033248CD313FDE492E7FE7F007C3F7557
:101ECB008302ECC0E0F8EDC0E0F9EEC0E0FAEFC041
:101EDB00E0FB8583F09002FF1207FC85F083120272
:101EEB008FD0E0FBD0E0FAD0E0F9D0E0F81200950B
:101EFB00ED6480FD30E7011CD583C7ED33CC33F89F
:0C1F0B00D0E0A2E71328C313CC13FD2282
:10205C009002FF12084D900303E0F8A3E0F9A3E00F
:10206C00FAA3E0FB9002FFE0FCA3E0FDA3E0FEA3DB
:10207C00E0FF12028F121AE89002FF12084D900333
:10208C0003E030E7599002FFE0FCA3E0FDA3E0FE83
:10209C00A3E0FFECC0E0EDC0E0EEC0E0EFC0E0E498
:1020AC00FFFEFDFC9002FFE0F8A3E0F9A3E0FAA329
:1020BC00E0FB1203EB7BDB600250087A0F79497866
:1020CC004080067A0F794978C0D0E0FFD0E0FED08E
:1020DC00E0FDD0E0FC1200959002FF12084D90023A
:0D20EC00FFE0FCA3E0FDA3E0FEA3E0FF2267
:101636003A70FA83BCAAE9E43E81E0F8BF9DE9E688
:101646003F80000039283C1ABB9969663DA335E303
:10165600BF255DE73FC90FDB418DDBCCC44936EEC4
:1016660045C9913FC5B0F83D3F800000C317F5342A
:10167600452FFA73C60AFDDD12173F04A2E1920058
:101686001420E015901636740412059A803012174D
:101696003F30E102B20020E0EBA883A9829002FF6E
:1016A60012084D8982888390164A740412059A8519
:1016B60082F09002FF12082585F082120186ED4C19
:1016C6006007300004EC6480FC2212173FC0E0A8DB
:1016D60083A9829002FF12084D8982888390166E34
:1016E600740312059A8582F09002FF12082585F090
:1016F600821201869002FFE0CCF0A3E0CDF0A3E0D9
:10170600CEF0A3E0CFF090165E740312059AD08255
:101716008582F09002FF12082585F082E58230E08E
:101726000712028FB2008096EFCBFFEECAFEEDC91C
:10173600FDECC8FC12028F8085ED33EC547FCC3370
:10174600920024605007D0E0D0E00203D67B837A73
:10175600F97922783E120186EDF933ECF8332481CB
:101766005011EFFBEEFA12036A12032CECB2E7FCFF
:10177600120095ED33EC33602F2403F8C313FCED10
:1017860092E7FDE82481E4501FECF8EDF9EEFAEF5C
:10179600FB12036AEF04C2E0FCF582120336ECB2D8
:1017A600E7FC120095E58203FAED33EC336007148B
:0817B60013FCED92E7FDEA22AD
:1003A100E9D2E7C933E833F892D5EDD2E7CD33ECA2
:0703B10033FC5002B2D5221B
:1003B800EC30E7100FBF000C0EBE00080DBD0004A6
:1003C8000BEB6014A2D5EB13FCED92E7FD2274FF52
:1003D800FCFDFEFF22E480F8A2D574FF13FC7D80AB
:0303E800E480EFBF
:1003EB0074F8CC6480CCC86480C8F582046043C3C5
:1003FB00EB9FF5F0EA9E42F0E99D42F0E89C45F058
:10040B0060305018E5825FFFE582F42B5582FB507C
:10041B00210ABA001D09B90019088016E5825BFB99
:10042B00E582F42F5582FF50090EBE00050DBD006D
:10043B00010CC3EB9FF5F0EA9E42F0E99D42F0E818
:0D044B009C45F06007CC4820E701B3EC228F
:10045800F920E73624F950037907E4F42402FBE590
:1004680082158270021583DBF6E024FB501BE960DD
:1004780014E4F0E582158270021583E004F0B40AF2
:0D04880008E4F0D9EE7401F00A22C2D5227A
:10049500ED33EC3392D5FA602AB4FF33EDC2E77B36
:1004A500FF60067A0479BAE4227A0479C320D50478
:1004B5007A0479BE224E614E002B494E46002D49E5
:1004C5004E4600E47A08F0A3DAFC7B00740722C0EC
:1004D50083C082ECC0E0EDC0E0EEC0E0EFC0E0EA32
:1004E50075F010A4CAABF075F04DA42BFBE435F004
:1004F500FCEA2410FAEB34C5FBEC34D9FCEDC2E779
:10050500FF75F056A4F42411C5F0F434C58FF0A49A
:100515002AE5F03BE43CF020E714120617D0E0FF93
:10052500D0E0FED0E0FDD0E0FC12028F8014F40490
:10053500120617D0E0FFD0E0FED0E0FDD0E0FC12BF
:100545000186D082D083E0FAEDD2E7CD33EC3324B7
:1005550082FBE4C3CF33CFCE33CECD33CD33DBF304
:100565007B0775F00A846004F0A31B0AE5F0F0A38D
:100575008FF0740AA4FFACF08EF0740AA42CFEACC4
:10058500F050010C8DF0740AA42CFDE435F0F0A3B5
:05059500DBDE7407220B
:10059A00C0E0EFFBEEFAEDF9ECF8120186D0E0F5D7
:1005AA00F0EFFBEEFAEDF9ECF8120808A3A3A3A307
:1005BA00E8C0E0E9C0E0EAC0E0EBC0E0C0F0120148
:1005CA0086120831A3A3A3A3120095D0F0D0E0FBB2
:0D05DA00D0E0FAD0E0F9D0E0F8D5F0D4225E
:101AC800BE1249253E4CCCCDBEAAAAAB3F80000031
:101AD8003E7ADBB03EED63383F24BC7D3F490FDBE7
:101AE800ED33ECC2E7CC339200B4FF13ED547F60C2
:101AF800030203D67FDB7E0F7DC97C3F021BDDC25C
:101B080001C3947F401E7007EDD2E794904015EF13
:101B1800FBEEFAEDF9ECF87F007E007D807C3F1249
:101B2800028FD201ED33EC33248430E705E4C0E0C2
:101B3800806B04FAEDD2E754F0C333DAFD5407346E
:101B4800002323C0E0CCC0E0F8EDC0E0F9EEC0E02F
:101B5800FAEFC0E0FBE4120336EC24FEFC90030726
:101B680012084D1201867B007A007980783F1200B6
:101B780095900307E0B2E7CCF0A3E0CDF0A3E0CE68
:101B8800F0A3E0CFF0D0E0FBD0E0FAD0E0F9D0E06D
:101B9800F812009590030712082512028F90030788
:101BA80012084D901AC8740312059A900307120878
:101BB80025120186D0E0600F24D4F582E4341AF5AA
:101BC8008312083112009530010B7BDB7A0F79C93B
:101BD80078BF120095ED33EC336006ECA20092E773
:021BE800FC22DD
:1005E7003F8000004120000042C80000447A00001C
:1005F700461C400047C35000497424004B1896809E
:100607004CBEBC205A0E1BCA6753C21C749DC5AE94
:10061700FB60065407601C2323120645EB54386021
:1006270009120631120640120186ECF8EDF9EEFACE
:10063700EFCB22EB12064080F1543803241C9005BF
:10064700E7FE93FC0EEE93FD0EEE930ECE93FF2284
:03000000022222B7
:0C222200787FE4F6D8FD75812102226966
:10065700BB010689828A83E0225002E722BBFE02A1
:09066700E32289828A83E49322D4
:10067000BB010CE58229F582E5833AF583E022503F
:1006800006E92582F8E622BBFE06E92582F8E22289
:0D069000E58229F582E5833AF583E49322A3
:10069D00BB010689828A83F0225002F722BBFE013C
:0206AD00F32236
:1006AF00EF8DF0A4A8F0CF8CF0A428CE8DF0A42E5F
:0206BF00FE2219
:1006C100C2D5EC30E709B2D5E4C39DFDE49CFCEE54
:1006D10030E715B2D5E4C39FFFE49EFE120B54C36D
:1006E100E49DFDE49CFC8003120B5430D507C3E468
:0606F1009FFFE49EFE22C3
:1006F700A3F8E0C5F025F0F0E582158270021583B6
:06070700E0C838F0E82212
:10070D0075F008758200EF2FFFEE33FECD33CDCCA3
:10071D0033CCC58233C5829BED9AEC99E582984026
:10072D000CF582EE9BFEED9AFDEC99FC0FD5F0D603
:10073D00E4CEFBE4CDFAE4CCF9A88222B800C1B92D
:10074D000059BA002DEC8BF084CFCECDFCE5F0CB6B
:10075D00F97818EF2FFFEE33FEED33FDEC33FCEBA4
:10076D0033FB10D703994004EB99FB0FD8E5E4F95F
:10077D00FA227818EF2FFFEE33FEED33FDEC33FC4C
:10078D00C933C910D7059BE99A4007EC9BFCE99A40
:10079D00F90FD8E0E4C9FAE4CCFB2275F010EF2F85
:1007AD00FFEE33FEED33FDCC33CCC833C810D70785
:1007BD009BEC9AE899400AED9BFDEC9AFCE899F8C0
:0E07CD000FD5F0DAE4CDFBE4CCFAE4C8F92253
:0E07DB00C3E49FFFE49EFEE49DFDE49CFC222F
:1007E900E8600FECC313FCED13FDEE13FEEF13FFEE
:0307F900D8F12212
:0C07FC00E0FCA3E0FDA3E0FEA3E0FF2270
:10080800E493FC740193FD740293FE740393FF2236
:0D081800E6FB08E6F908E6FA08E6CBF82250
:0C082500E0F8A3E0F9A3E0FAA3E0FB2256
:10083100E493F8740193F9740293FA740393FB221D
:0C084100ECF608EDF608EEF608EFF622E3
:0C084D00ECF0A3EDF0A3EEF0A3EFF0221E
:10085900A8828583F0D083D08212087012087012A2
:100869000870120870E473E493A3C583C5F0C583C7
:10087900C8C582C8F0A3C583C5F0C583C8C582C8E9
:01088900224C
:10088A00F8E0FBA3A3E0F925F0F0E58215827002F7
:07089A001583E0FA38F0229B
:0908A100EBF0A3EAF0A3E9F02258
:1008AA00D083D082F8E4937012740193700DA3A3DD
:1008BA0093F8740193F5828883E4737402936860F1
:0608CA00EFA3A3A380DFF1
:102A4600EFB40A07740D122A51740A309811A89926
:102A5600B8130CC2983098FDA899C298B811F630F0
:072A660099FDC299F59922C8
:10241600900305EBF0A3EAF0A3E9F090030BEBF0D1
:10242600A3EAF0A3E9F0900305E0FBA3E475F0014D
:102436001206F7A9F0FA12065770EB90030674FF1E
:10244600F5F0120BA9900308E0FBA3E475F0011266
:1024560006F7A9F0FA120657FF900305E0FBA3E47E
:1024660075F0011206F7A9F0FAEF12069D70D690E4
:0B247600030BE0FBA3E0FAA3E0F92257
:1008D000E3F5F009E208B5F06D606B80F3E3F5F045
:1008E00009E608B5F060605E80F387F009E608B5B8
:1008F000F054605280F487F009E208B5F048604691
:1009000080F488828C8387F009E0A3B5F0386036E4
:1009100080F488828C8387F009E493A3B5F0276084
:100920002580F388828C83E3F5F009E0A3B5F01607
:10093000601480F388828C83E3F5F009E493A3B517
:10094000F004600280F20209FB808580E7808E80DF
:10095000D2803C8015806C807E809B80B5808B80AF
:10096000A1804F8070803A020A0789828A83ECFA5C
:10097000E493F5F0A3C8C582C8CCC583CCE493A3A7
:10098000C8C582C8CCC583CCB5F070606E80E189E3
:10099000828A83E493F5F0A3E208B5F05E605C80A0
:1009A000F289828A83E0F5F0A3E608B5F04D604B4A
:1009B00080F389828A83E0F5F0A3E208B5F03C6019
:1009C0003A80F389828A83E493F5F0A3E608B5F0D0
:1009D0002A602880F2805389828A83ECFAE493F5B6
:1009E000F0A3C8C582C8CCC583CCE0A3C8C582C863
:1009F000CCC583CCB5F004600280E27FFFB5F00285
:100A00000F2240027F012289828A83ECFAE0F5F00E
:100A1000A3C8C582C8CCC583CCE0A3C8C582C8CC56
:100A2000C583CCB5F0D560D380E389828A83ECFAA4
:100A3000E0F5F0A3C8C582C8CCC583CCE493A3C8B5
:100A4000C582C8CCC583CCB5F0B160AF80E288F078
:100A5000ED2402B4040050A3F582EB2402B4040098
:0B0A600050992323458223900949731D
:100A6B00E709F60870FA8046E709F20870FA803E4B
:100A7B0088828C83E709F0A370FA807EE309F6087D
:100A8B0070FA8076E309F20870FA806E88828C83A4
:100A9B00E309F0A370FA806289828A83E0A3F608E7
:100AAB0070FA805689828A83E0A3F20870FA804A32
:100ABB0080D280FA80C680D4806580F2803180102D
:100ACB0080A680EA809A80A880DA80E280CA803192
:100ADB0089828A83ECFAE493A3C8C582C8CCC58308
:100AEB00CCF0A3C8C582C8CCC583CC70E9800D8976
:100AFB00828A83E493A3F60870F9ECFAA9F0EDFB74
:100B0B002289828A83ECFAE0A3C8C582C8CCC5834C
:100B1B00CCF0A3C8C582C8CCC583CC70EA80DD8974
:100B2B00828A83E493A3F20870F980CE88F0ED24D7
:100B3B0002B4040050C4F582EB2402B4040050BA92
:090B4B002323458223900ABB73A9
:102C4B00E4FFFE120657600C0FEF70010E09E970DE
:052C5B00F20A80EF22E7
:101CF000900367EBF0A3EAF0A3E9F0A3E0FBA3E015
:101D0000FAA3E0F91206577003021D9C900367E0E6
:101D1000FBA3E0FAA3E0F91206577003021DA89096
:101D2000036AE0F9A3E0FAA3E0A3C9F0A3EAF0A3F1
:101D3000E9F0900367A3E0FAA3E0F9900370EBF0F9
:101D4000A3EAF0A3E9F090036DE0FBA3E0FAA3E0BF
:101D5000F9120657FF6026900370E0FBA3E0FAA398
:101D6000E0F91206576F701590036E75F001120BB3
:101D7000A9900371E475F001120BA980C990036D5D
:101D8000E0FBA3E0FAA3E0F91206577002800D9081
:101D90000368E475F001120BA9021D0C900367E0C3
:0F1DA000FBA3E0FAA3E0F9227B007A007900228E
:10222E00022E05E493A3F8E493A34003F68001F293
:10223E0008DFF48029E493A3F85407240CC8C333B1
:10224E00C4540F4420C8834004F456800146F6DF80
:10225E00E4800B0102040810204080901355E47EA8
:10226E00019360BCA3FF543F30E509541FFEE49375
:10227E00A360010ECF54C025E060A840B8E493A33C
:10228E00FAE493A3F8E493A3C8C582C8CAC583CA67
:10229E00F0A3C8C582C8CAC583CADFE9DEE780BE1F
:0116350000B4
:100B5400BC000BBE0029EF8DF084FFADF022E4CC85
:100B6400F875F008EF2FFFEE33FEEC33FCEE9DEC4E
:100B7400984005FCEE9DFE0FD5F0E9E4CEFD22ED94
:100B8400F8F5F0EE8420D21CFEADF075F008EF2FDE
:100B9400FFED33FD4007985006D5F0F222C398FDCF
:050BA4000FD5F0EA226C
:100BA900C5F0F8A3E028F0C5F0F8E58215827002D7
:060BB9001583E038F02274
:00000001FF
