:1011DC008F278D281213E57F1A1213A81213EEAF66
:1011EC00271213A81213EEAF281213A81213EE0233
:0211FC0013F7E7
:1011FE008F281213E57F1A1213A81213EE7FB01266
:10120E0013A81213EEAF281213A81213EE0213F73F
:10125C001211FE1213E57F1B1213A81213EE1213B8
:0B126C007B8F2712138A1213F7AF27A5
:011277002254
:061411007598500213045F
:081409008F993099FDC2992270
:0810ED008F2A8E298D288C2723
:1010F500E4FBEBC3952B501DAF2A121409AF2AAEA2
:1011050029AD28AC2778081205888F2A8E298D28C5
:051115008C270B80DDBA
:01111A0022B2
:06141700759A100213DBC0
:0A13D100E51F70FC751F018F9B22C1
:10116E008B4B8A4C894DAB4BAA4CA94D12045D603A
:10117E0013054DE54D7002054C14F912045DFF1276
:05118E0013D180E222F4
:0F135D0075BAB090FE8074E0F090FE82E4F0224A
:0F136C0090FE82E030E6F990FE82E054BFF0225E
:0913E50090FE817401F002136C0A
:0E13A80090FE86EFF090FE817402F002136C4E
:0913EE0090FE817403F002136CFF
:0F137B0090FE817404F012136C90FE87E0FF2245
:0E13B60090FE82E4F090FE817405F002136C4C
:0F138A0090FE827401F090FE817405F002136CE6
:0913F70090FE817406F002136CF3
:10130400538EFE53890F438E40758DFD758B8FD29E
:021314008E2227
:0A13DB00538EEF75D6FD75D78F22F3
:0C13C4007F867E0C7D49DDFEDEFADFF640
:0113D00022FA
:10119300EF1FAC0670011E4C601A00000000000037
:1011A300000000000000000000000000000000003C
:0511B300000080DC22B9
:101316007FCD7EE67DFDDDFEDEFADFF67F0EDFFEAB
:0113260000C6
:0113270022A3
:081400007F78AE071FEE70FAC1
:0114080022C1
:10121E00E4FDFCC3ED9FEC9E5015E4FBFA0BBB0006
:0F122E00010ABA5DF8BBC0F50DBD00010C80E4EC
:01123D00228E
:07003C00759124E4F5922206
:1011B80075DE2FEF4480F5BC43BC400000E5BC3031
:1011C800E5FB53BCDFAFBDEFFEADBE7C00E42DFFF9
:0311D800EC3EFEEC
:0111DB0022F1
:0312F000011F00DB
:06141D0075AF01D2AF2201
:0300430002129412
:10129400C0E0E59A30E103539AFDE59A30E0065345
:0812A4009AFE859B1ED0E0328A
:10123E00D2947F0A7E00121193C2947F207E0312F5
:0E124E001193D2947F587E021211937F0122D9
:020003008F2B41
:10000500E4F52CE52B5401F52DC2947F0F7E0012EB
:100015001193E52B1392947F2D7E00121193D294A8
:100025007F0A7E00121193E52BC313F52B052CE5F2
:060035002CC3940840CD2D
:01003B0022A2
:10104F00E4F52BE52CC313F52CC2947F027E00121E
:10105F001193D2947F047E00121193309408E52CE3
:10106F004480F52CF52C7F1E7E00121193052BE585
:08107F002BC3940840CDAF2CF7
:011087002246
:1012C40012123EEF600D7FCC1200037F4412000324
:0512D4007F01227F00F4
:0112D90022F2
:100DB200E4F52AF529F528F52712123EEF60167F91
:100DC200CC1200037FBE12000312104F8F45121087
:100DD2004F8F46D294754300854644E544754400DE
:100DE200F543E5454244AC43AD44EC1202E9E4FB71
:100DF200FA7980783D12013E8F2A8E298D288C2720
:100E0200E4FFFE7D207C41AB2AAA29A928A827124B
:100E1200013EE4FBFAF9783F12004D1203228E43A1
:020E22008F44FB
:010E240022AB
:100E98007D0E7F821211DC7DA67F831211DCE4FDBA
:100EA8007F841211DCE4FD7F851211DCE4FD7F866E
:100EB8001211DC7D647F871211DCE4FD7F8812113A
:100EC800DC7D647F891211DCE4FD7F8A1211DC7DF0
:100ED800647F8B1211DC7DB17F801211DCE4FD7F11
:100EE800811211DC7D117F801211DC1213C47D2167
:050EF8007F800211DC07
:100F5B007D937F801211DC7F8F12125CEF30E0F7F4
:100F6B007F9212125CEF7F00FEC006C0077F9312C8
:100F7B00125CEFFDD0E02DFFD0E03400FEEF7802E5
:100F8B00C333CE33CED8F98E0EF50F7802CEA2E74F
:100F9B0013CE13D8F8FF7C007D201204768E0E8FB3
:010FAB000F36
:010FAC002222
:10062900120E987F8F12125CEF30E1F77F9412124D
:100639005CEF7F00FEC006C0077F9512125CEFFDDC
:10064900D0E02DF509D0E03400F5087F9612125C50
:10065900EF7F00FEC006C0077F9712125CEFFDD046
:10066900E02DF51DD0E03400F51CFCAD1D1202E9AA
:10067900C004C005C006C007AC1CAD1DEC1202E9E0
:10068900D003D002D001D00012013EC004C005C081
:1006990006C007AC08AD09EC1202E9C004C005C0E8
:1006A90006C007AC08AD09EC1202E9D003D002D0AC
:1006B90001D00012013ED003D002D001D0001200B7
:1006C9004D120C808F178E168D158C14D3E5099455
:1006D90000E508648094804050D3E51D9400E51C32
:1006E900648094804043AC1CAD1DEC1202E9C00447
:1006F900C005C006C007AC08AD09EC1202E98F2E8F
:100709008E2D8D2C8C2BD007D006D005D004120E3F
:1007190025E4FBFA7934784312013E7BDA7A0F79C2
:10072900497840120247020851C3E5086480948061
:100739005059E51D9400E51C64809480404DAC1C23
:10074900AD1DEC1202E9C004C005C006C007AC0823
:10075900AD09EC1202E98F2E8E2D8D2C8C2BD00732
:10076900D006D005D004120E25E4FBFA793478437B
:1007790012013E7BDA7A0F79497840120247E4FB8D
:10078900FA7934784312004D020851C3E5086480B0
:1007990094805055C3E51C64809480504CAC1CADCA
:1007A9001DEC1202E9C004C005C006C007AC08ADC3
:1007B90009EC1202E98F2E8E2D8D2C8C2BD007D0AF
:1007C90006D005D004120E25E4FBFA7934784312D9
:1007D900013E7BDA7A0F79497840120247E4FBFA45
:1007E9007934784312004D805FD3E5099400E50818
:1007F90064809480405AE51C648094805052AC1CFB
:10080900AD1DEC1202E9C004C005C006C007AC0862
:10081900AD09EC1202E98F2E8E2D8D2C8C2BD00771
:10082900D006D005D004120E25E4FBFA79347843BA
:1008390012013E7BDA7A0F79497840120247E4FBCC
:10084900FA79B4784312004D8F0D8E0C8D0B8C0AFA
:10085900AB17AA16A915A8147FF87E137D647C4AE4
:100869001202478F1B8E1A8D198C187FB87E9E7DB8
:10087900917CC3AB0DAA0CA90BA80A12004D7BDA17
:100889007A0F7949784012013EE4FBFA79347843CA
:10089900120247120928AB1BAA1AA919A818120192
:1008A9003E7B5C7A8F79D278C012004DA804A905E5
:1008B900AA06AB077F807E1A7D837C491202478F87
:1008C900138E128D118C107DA17F801211DCAF1354
:0608D900AE12AD11AC10DF
:0108DF0022F6
:0F139900D286D287121400C286121400C2872295
:10134C00C286D287121400D286121400C2870214ED
:01135C000090
:1012DA00EF30E004D2868002C286D287121400C29E
:0612EA0087D28602140009
:1012AC00E4F524D286D287121400A286E4334224B9
:0712BC00121400C287AF24E9
:0112C3002208
:0210BE008F227F
:1010C000E4F523E52230E704D2868002C2861214BA
:1010D00000D287121400C287121400E52225E0F521
:0D10E000220523E523C3940840D90212AC79
:10111B00E4F54EF54FD286F54ED287121400A28617
:10112B00E433424FC287121400E54F25E0F54F051B
:0A113B004EE54EC3940840E1AF4FAB
:011145002287
:101328008F211213997F461210BEAF211210BE02F0
:02133800134C54
:101088001213997F471210BEE4F55012111B7435E4
:101098002550F8A607E550B403047F018002E4FF59
:1010A8001212DA0550E550C3940340DF12134C7F47
:0610B800057E0002121E7D
:051429007F0102132801
:100EFD007F011213287F101213287FC87E00121253
:100F0D001E121088E4FF121328753300853534E561
:100F1D0034FE7C00E42536F534EC3EF533FCAD347F
:100F2D00E41202E97B9A7A997999783F1202478FF8
:100F3D004A8E498D488C477F337E337DB37C3FABE2
:0D0F4D004AAA49A948A84712013E120322F2
:010F5A002274
:101278007F021211B8AD07AC06E41202E97BE67AE8
:0B1288003F791C784012013E12032247
:011293002238
:1012F300025900000455C126C083045146DDC97755
:100B76009000007407F0A37432F09000047423F020
:100B8600A374DCF09000027409F0A37425F09000C1
:100B960006740FF0A374A0F0743264257004740711
:100BA60064097003020C7B900006E0FEA3E0FFD30D
:100BB600900005E09FEE6480F8900004E064809861
:100BC6004033900000E0FEA3E0FF900003E09FFDAD
:100BD600900002E09EFC1202E9C004C005C006C0F7
:100BE60007900004E0FEA3E0FFC3900007E09FFD2E
:100BF6009000068032900002E0FEA3E0FFC3900062
:100C060001E09FFD900000E09EFC1202E9C004C0D6
:100C160005C006C007900006E0FEA3E0FFC39000F3
:100C260005E09FFD900004E09EFC1202E9D003D08F
:100C360002D001D00012024778551205C890000074
:100C4600E0FCA3E0FDEC1202E978551205AB1201B7
:100C56003EC004C005C006C007900004E0FCA3E047
:100C6600FDEC1202E9D003D002D001D000120049F7
:060C760078511205C822AE
:020FAD008F3D76
:100FAF00E4F542F541F540F53FF53EAF3D1211B87E
:100FBF00E4FCFDE5422FF542E5413EF541ED3540BC
:100FCF00F540EC353FF53FE4FFFE0FBF00010EBECD
:100FDF0003F8BFE8F5053EE53EC3946440CDE47BDE
:0F0FEF0064FAF9F8AF42AE41AD40AC3F1204E8EE
:010FFE0022D0
:101146007F05120FADAD07AC06E41202E978551221
:1011560005AB12013E78511205AB12004D12032267
:071166007859EEF608EFF6E0
:01116D00225F
:10133A0012135D12141112142912003C120B7602B8
:02134A00141776
:100FFF00E4F526F525F524F523C2A61213161213D0
:10100F00161212C4120F5B121316121316120629A0
:10101F008F268E258D248C23120DB28E218F22EEDA
:10102F003395E0FDFC752B021210EDAF26AE25AD0A
:10103F0024AC23120322752B041210EDB2A680C725
:0614230012133A020FFF54
:1000460002038EE86480F8E933E83360110460F057
:10005600ED33EC337009E8FCE9FDEAFEEBFF220420
:1000660060DED3EB9FEA9EE99DE8C2E78CF0C2F71B
:1000760095F0400CE8CCF8E9CDF9EACEFAEBCFFBE7
:1000860012035985D0F05804700320D5B3E80470E4
:10009600075002B2D502039892D5EC0460F7E4CC7F
:1000A600C0E0C398F8603B94186008400DD0E0FBB0
:1000B600020370E4FBFAC9FC8028E830E406E4C9D0
:1000C600FBE4CAFCE830E305E4C9CACBFCE8540704
:1000D6006010F8C3E913F9EA13FAEB13FBEC13FC0F
:1000E600D8F130F52FC3E49CFCEF9BFFEE9AFEEDB2
:1000F60099FDD0E0FBEF4E4D4C701222DB0302035C
:1001060095EC2CFCEF33FFEE33FEED33FDED30E7DF
:10011600EB020370EF2BFFEE3AFEED39FDD0E0FB6C
:1001260050130BBB0003020398ED13FDEE13FEEF15
:0801360013FFEC13FC0203703F
:10013E00EC4D6011E8497017ED33EC3304600DE4BB
:10014E00FCFFFEFD22E933E8330470F802038E1241
:10015E00035958046009E4CC248150062850090242
:10016E000398284003020395C0E0EB4A7044B9801F
:10017E0006D0E0FB020384EF4E701CBD8008EBFF3F
:10018E00EAFEE9FD80EBE98DF0A4FEE5F002022720
:10019E00E9CDF9EAFEEBFFEF89F0A4FCE5F0CE899C
:1001AE00F0A42EFFE435F0CD89F0A42DFEE435F059
:1001BE008067EF4E7005BD80D780C3EF8BF0A4AC87
:1001CE00F0EE8BF0A42CFCE435F0F8EF8AF0A42CC2
:1001DE00E5F038FCE433CB8DF0A42CFCE5F03BF8D5
:1001EE00EE8AF0A42CFCE5F038F8E433CF89F0A4C5
:1001FE002CFCE5F038CF3400CE89F0A42FFFE5F0CB
:10020E003EFEE433C98DF0A42EFEE5F039CD8AF022
:10021E00A42FFFE5F03EFEE43DFD33D0E0FB50079A
:10022E000BBB000F020398EC2CFCEF33FFEE33FEFA
:06023E00ED33FD02037028
:10024400020398EC5D046005E85904700302038E10
:10025400120359580460F6EC4860F2EC7004FDFE99
:10026400FF22C860DB2481C85009C398600250068D
:100274000203959850CAF582E9294B4A7005AB826E
:1002840002038475F0007C1A7880C3EF9BEE9AED2C
:1002940099400DC3EF9BFFEE9AFEED99FDE842F005
:1002A400DC23ACF0D0E0FFD0E0FED0E0FDAB822058
:1002B400E7101BEB60BAEC2CFCEF33FFEE33FEEDE2
:1002C40033FD020370E803F830E705C0F075F00071
:1002D400EF2FFFEE33FEED33FD40B830E7C280AAC6
:1002E40075F020800E75F010800575F0087D007E95
:1002F400007F003392D530D50312057AEC334010D9
:10030400EF33FFEE33FEED33FDEC33FCD5F0ED229D
:0E031400E5F0247EA2D513CC92E7CDCEFF22D9
:10032200EDD2E7CD33EC3392D524814006E4FFFED3
:10033200FDFC22FCE4CFCECDCC24E0501174FF8032
:10034200EDC3CC13CCCD13CDCE13CECF13CF0470CF
:07035200F030D5DE02057A50
:100C7C0002038E22EDA2E7D2E7F9EC3340F260F3E7
:100C8C00B4FF08ED547F70E8020398F82481C2E0A9
:100C9C00C0E0F40428FAC313FCED92E7FD8C278D19
:100CAC00288E298F2AEEA2E7E9BA7F02C3133400FB
:100CBC009400FA75F091A4E5F013F494FE8AF0A474
:100CCC0033E5F033248CD313FDE492E7FE7F007CF4
:100CDC003F758302ECC0E0F8EDC0E0F9EEC0E0FA3D
:100CEC00EFC0E0FBAC27AD28AE29AF2A120247D0EB
:100CFC00E0FBD0E0FAD0E0F9D0E0F812004DED6462
:100D0C0080FD30E7011CD583CBED33CC33F8D0E03C
:0A0D1C00A2E71328C313CC13FD2235
:100E25008F2A8E298D288C27AB2EAA2DA92CA82B8D
:100E3500120247120A6E8F2A8E298D288C27E52BE0
:100E450030E747ECC0E0EDC0E0EEC0E0EFC0E0E425
:100E5500FFFEFDFCAB2AAA29A928A8271203A37B1C
:100E6500DB600250087A0F7949784080067A0F795D
:100E75004978C0D0E0FFD0E0FED0E0FDD0E0FC1224
:100E8500004D8F2A8E298D288C27AF2AAE29AD28B3
:030E9500AC272265
:1008E0003A70FA83BCAAE9E43E81E0F8BF9DE9E6EC
:1008F0003F80000039283C1ABB9969663DA335E367
:10090000BF255DE73FC90FDB418DDBCCC44936EE27
:1009100045C9913FC5B0F83D3F800000C317F5348D
:10092000452FFA73C60AFDDD1209CF04A2E1920039
:100930001420E0159008E0740412041080261209B7
:10094000CF30E102B20020E0EB8C278D288E298F7A
:100950002A9008F47404120410A827A928AA29AB25
:100960002A12013EED4C6007300004EC6480FC224A
:100970001209CFC0E08C278D288E298F2A90091864
:100980007403120410A827A928AA29AB2A12013E31
:10099000ECC527FCEDC528FDEEC529FEEFC52AFFF5
:1009A0009009087403120410D082A827A928AA2944
:1009B000AB2AE58230E007120247B20080A6EFCBF7
:1009C000FFEECAFEEDC9FDECC8FC1202478095EDB2
:1009D00033EC547FCC33920024605007D0E0D0E059
:1009E00002038E7B837AF97922783E12013EEDF97B
:1009F00033ECF83324815011EFFBEEFA120322128C
:100A000002E4ECB2E7FC12004DED33EC33602F242E
:100A100003F8C313FCED92E7FDE82481E4501FECDA
:100A2000F8EDF9EEFAEFFB120322EF04C2E0FCF559
:100A3000821202EEECB2E7FC12004DE58203FAED01
:0E0A400033EC3360071413FCED92E7FDEA225D
:10035900E9D2E7C933E833F892D5EDD2E7CD33ECEA
:0703690033FC5002B2D52263
:10037000EC30E7100FBF000C0EBE00080DBD0004EE
:100380000BEB6014A2D5EB13FCED92E7FD2274FF9A
:10039000FCFDFEFF22E480F8A2D574FF13FC7D80F3
:0303A000E480EF07
:1003A30074F8CC6480CCC86480C8F582046043C30D
:1003B300EB9FF5F0EA9E42F0E99D42F0E89C45F0A0
:1003C30060305018E5825FFFE582F42B5582FB50C5
:1003D300210ABA001D09B90019088016E5825BFBE2
:1003E300E582F42F5582FF50090EBE00050DBD00B6
:1003F300010CC3EB9FF5F0EA9E42F0E99D42F0E861
:0D0403009C45F06007CC4820E701B3EC22D7
:10041000C0E0EFFBEEFAEDF9ECF812013ED0E0F5AA
:10042000F0EFFBEEFAEDF9ECF812059BA3A3A3A302
:10043000E8C0E0E9C0E0EAC0E0EBC0E0C0F01201D3
:100440003E1205B8A3A3A3A312004DD0F0D0E0FB49
:0D045000D0E0FAD0E0F9D0E0F8D5F0D422E9
:100A4E00BE1249253E4CCCCDBEAAAAAB3F800000BB
:100A5E003E7ADBB03EED63383F24BC7D3F490FDB71
:100A6E00ED33ECC2E7CC339200B4FF13ED547F604C
:100A7E000302038E7FDB7E0F7DC97C3F020B69C2B2
:100A8E0001C3947F401E7007EDD2E794904015EF9E
:100A9E00FBEEFAEDF9ECF87F007E007D807C3F12D4
:100AAE000247D201ED33EC33248430E705E4C0E095
:100ABE00806D04FAEDD2E754F0C333DAFD540734F7
:100ACE00002323C0E0CCC0E0F8EDC0E0F9EEC0E0BA
:100ADE00FAEFC0E0FBE41202EEEC24FEFC8C2F8D4C
:100AEE00308E318F3212013E7B007A007980783F52
:100AFE0012004DECC52FB2E7FCEDC530FDEEC53151
:100B0E00FEEFC532FFD0E0FBD0E0FAD0E0F9D0E046
:100B1E00F812004DA82FA930AA31AB321202478C21
:100B2E002F8D308E318F32900A4E7403120410A81E
:100B3E002FA930AA31AB3212013ED0E0600F245AF9
:100B4E00F582E4340AF5831205B812004D30010B1C
:100B5E007BDB7A0F79C978BF12004DED33EC336031
:080B6E0006ECA20092E7FC2254
:03000000020D26C8
:0C0D2600787FE4F6D8FD75815A020D6D4F
:10045D00BB010689828A83E0225002E722BBFE029D
:09046D00E32289828A83E49322D0
:10047600C2D5EC30E709B2D5E4C39DFDE49CFCEEA1
:1004860030E715B2D5E4C39FFFE49EFE1205D4C340
:10049600E49DFDE49CFC80031205D430D507C3E43B
:0604A6009FFFE49EFE2210
:1004AC0075F008758200EF2FFFEE33FECD33CDCC07
:1004BC0033CCC58233C5829BED9AEC99E58298408A
:1004CC000CF582EE9BFEED9AFDEC99FC0FD5F0D667
:1004DC00E4CEFBE4CDFAE4CCF9A88222B800C1B991
:1004EC000059BA002DEC8BF084CFCECDFCE5F0CBCF
:1004FC00F97818EF2FFFEE33FEED33FDEC33FCEB08
:10050C0033FB10D703994004EB99FB0FD8E5E4F9C2
:10051C00FA227818EF2FFFEE33FEED33FDEC33FCAF
:10052C00C933C910D7059BE99A4007EC9BFCE99AA3
:10053C00F90FD8E0E4C9FAE4CCFB2275F010EF2FE8
:10054C00FFEE33FEED33FDCC33CCC833C810D707E8
:10055C009BEC9AE899400AED9BFDEC9AFCE899F823
:0E056C000FD5F0DAE4CDFBE4CCFAE4C8F922B6
:0E057A00C3E49FFFE49EFEE49DFDE49CFC2292
:10058800E8600FECC313FCED13FDEE13FEEF13FF51
:03059800D8F12275
:10059B00E493FC740193FD740293FE740393FF22A6
:0D05AB00E6FB08E6F908E6FA08E6CBF822C0
:1005B800E493F8740193F9740293FA740393FB2299
:0C05C800ECF608EDF608EEF608EFF6225F
:100D3200021423E493A3F8E493A34003F68001F2A0
:100D420008DFF48029E493A3F85407240CC8C333C2
:100D5200C4540F4420C8834004F456800146F6DF91
:100D6200E4800B01020408102040809012F0E47E1F
:100D7200019360BCA3FF543F30E509541FFEE49386
:100D8200A360010ECF54C025E060A840B8E493A34D
:100D9200FAE493A3F8E493A3C8C582C8CAC583CA78
:100DA200F0A3C8C582C8CAC583CADFE9DEE780BE30
:0113030000E9
:1005D400BC000BBE0029EF8DF084FFADF022E4CC0B
:1005E400F875F008EF2FFFEE33FEEC33FCEE9DECD4
:1005F400984005FCEE9DFE0FD5F0E9E4CEFD22ED1A
:10060400F8F5F0EE8420D21CFEADF075F008EF2F63
:10061400FFED33FD4007985006D5F0F222C398FD54
:050624000FD5F0EA22F1
:00000001FF
