:0613A4007598500212933F
:081395008F993099FDC29922E5
:0810AD008F248E238D228C217B
:1010B500E4FBEBC39525501DAF24121395AF24AE69
:1010C50023AD22AC21780812053E8F248E238D2274
:0510D5008C210B80DD01
:0110DA0022F3
:101177008F218D221213717F1A12134812137AAF1F
:101187002112134812137AAF2212134812137A024C
:021197001383C0
:101199008F221213717F1A12134812137A7FB01219
:1011A900134812137AAF2212134812137A021383C7
:101217001211991213717F1B12134812137A1213AA
:0B1227001B8F2112132A121383AF212A
:011232002299
:0F12FD0043BA3090FE8074E0F090FE82E4F0225D
:0F130C0090FE82E030E6F990FE82E054BFF022BE
:0913710090FE817401F002130CDE
:0E13480090FE86EFF090FE817402F002130C0E
:09137A0090FE817403F002130CD3
:0F131B0090FE817404F012130C90FE87E0FF2205
:0E13560090FE82E4F090FE817405F002130C0C
:0F132A0090FE827401F090FE817405F002130CA6
:0913830090FE817406F002130CC7
:10129300538EFE53890F438E40758DFD758B8FD210
:0212A3008E2299
:0C1364007F867E0C7D49DDFEDEFADFF6A0
:01137000225A
:10112E00EF1FAC0670011E4C601A0000000000009C
:10113E0000000000000000000000000000000000A1
:05114E00000080DC221E
:1012A5007FCD7EE67DFDDDFEDEFADFF67F0EDFFE1D
:0112B5000038
:0112B6002215
:08138C007F78AE071FEE70FA36
:011394002236
:1011B900E4FDFCC3ED9FEC9E5015E4FBFA0BBB006C
:0F11C900010ABA5DF8BBC0F50DBD00010C80E452
:0111D80022F4
:07139D00759124E4F5922292
:1011530075DE2FEF4480F5BC43BC400000E5BC3096
:10116300E5FB53BCDFAFBDEFFEADBE7C00E42DFF5E
:03117300EC3EFE51
:011176002256
:1011F900D2947F0A7E0012112EC2947F207E0312A0
:0E120900112ED2947F587E0212112E7F0122E8
:020FD6008F4D3D
:100FD800E4F54EE54D5401F54FC2947F0F7E0012A3
:100FE800112EE54D1392947F2D7E0012112ED2946E
:100FF8007F0A7E0012112EE54DC313F54D054EE50F
:061008004EC3940840CD28
:01100E0022BF
:10100F00E4F51EE51FC313F51FC2947F027E001285
:10101F00112ED2947F047E0012112E309408E51FFA
:10102F004480F51FF51F7F1E7E0012112E051EE551
:08103F001EC3940840CDAF1F51
:011047002286
:101267001211F9EF600D7FCC120FD67F44120FD603
:051277007F01227F0051
:01127C00224F
:100D8900E4F540F53FF53EF53D1211F9EF60167FA8
:100D9900CC120FD67FBE120FD612100F8F4312102E
:100DA9000F8F44D294754100854442E54275420053
:100DB900F541E5434242AC41AD42EC1202A6E4FBE7
:100DC900FA7980783D1200FB8F408E3F8D3E8C3D35
:100DD900E4FFFE7D207C41AB40AA3FA93EA83D121D
:100DE90000FBE4FBFAF9783F12000A1202DF8E4198
:020DF9008F4227
:010DFB0022D5
:100E6F007D0E7F821211777DA67F83121177E4FDAD
:100E7F007F84121177E4FD7F85121177E4FD7F8661
:100E8F001211777D647F87121177E4FD7F8812112D
:100E9F00777D647F89121177E4FD7F8A1211777D48
:100EAF00647F8B1211777DB17F80121177E4FD7F04
:100EBF00811211777D117F801211771213647D21BA
:050ECF007F8002117795
:100F32007D937F801211777F8F121217EF30E0F7C7
:100F42007F92121217EF7F00FEC006C0077F931236
:100F52001217EFFDD0E02DFFD0E03400FEEF780253
:100F6200C333CE33CED8F98E0EF50F7802CEA2E778
:100F720013CE13D8F8FF7C007D2012042C8E0E8F26
:010F82000F5F
:010F8300224B
:1005DF007F8F121217EF30E1F77F94121217EF7F10
:1005EF0000FEC006C0077F95121217EFFDD0E02D59
:1005FF00F509D0E03400F5087F96121217EF7F004F
:10060F00FEC006C0077F97121217EFFDD0E02DF541
:10061F001DD0E03400F51CFCAD1D1202A6C004C0B5
:10062F0005C006C007AC1CAD1DEC1202A6D003D04E
:10063F0002D001D0001200FBC004C005C006C007E5
:10064F00AC08AD09EC1202A6C004C005C006C00775
:10065F00AC08AD09EC1202A6D003D002D001D00035
:10066F001200FBD003D002D001D00012000A120CEE
:10067F00578F178E168D158C14D3E5099400E50846
:10068F00648094804050D3E51D9400E51C648094F1
:10069F00804043AC1CAD1DEC1202A6C004C005C0C7
:1006AF0006C007AC08AD09EC1202A68F288E278D65
:1006BF00268C25D007D006D005D004120DFCE4FB04
:1006CF00FA793478431200FB7BDA7A0F7949784054
:1006DF00120204020804C3E508648094805059E5AF
:1006EF001D9400E51C64809480404DAC1CAD1DEC46
:1006FF001202A6C004C005C006C007AC08AD09ECC5
:10070F001202A68F288E278D268C25D007D006D0D3
:10071F0005D004120DFCE4FBFA793478431200FB88
:10072F007BDA7A0F79497840120204E4FBFA7934C4
:10073F00784312000A020804C3E5086480948050CD
:10074F0055C3E51C64809480504CAC1CAD1DEC125D
:10075F0002A6C004C005C006C007AC08AD09EC1264
:10076F0002A68F288E278D268C25D007D006D00580
:10077F00D004120DFCE4FBFA793478431200FB7BB2
:10078F00DA7A0F79497840120204E4FBFA79347867
:10079F004312000A805FD3E5099400E50864809452
:1007AF0080405AE51C648094805052AC1CAD1DEC07
:1007BF001202A6C004C005C006C007AC08AD09EC04
:1007CF001202A68F288E278D268C25D007D006D013
:1007DF0005D004120DFCE4FBFA793478431200FBC8
:1007EF007BDA7A0F79497840120204E4FBFA79B484
:1007FF00784312000A8F0D8E0C8D0B8C0AE50F2497
:10080F00EAFFE50E34FFFE7C017D9D12041AEE33E4
:10081F0095E0FDFCEF24FEFFEE3404FEED3439FDD0
:10082F00E43CFC1202A1AB17AA16A915A8141202D8
:10083F00048F1B8E1A8D198C187FB87E9E7D917C2C
:10084F00C3AB0DAA0CA90BA80A12000A7BDA7A0F08
:10085F00794978401200FBE4FBFA793478431202AD
:10086F00041208FFAB1BAA1AA919A8181200FB7BC8
:10087F005C7A8F79D278C012000AA804A905AA065B
:10088F00AB077F007E957D767C491202048F138E15
:10089F00128D118C107DA17F80121177120E6FAF08
:0708AF0013AE12AD11AC10F5
:0108B600221F
:0F133900D286D28712138CC28612138CC28722DF
:1012DB00C286D28712138CD28612138CC28702134A
:0112EB008C76
:10127D00EF30E004D2868002C286D28712138CC270
:06128D0087D28602138CDB
:10124F00E4F524D286D28712138CA286E43342248B
:07125F0012138CC287AF24BB
:011266002265
:02107E008F22BF
:10108000E4F523E52230E704D2868002C2861213FB
:101090008CD28712138CC28712138CE52225E0F5BF
:0D10A000220523E523C3940840D902124F16
:1010DB00E4F550F551D286F550D28712138CA286C7
:1010EB00E4334251C28712138CE55125E0F55105CB
:0A10FB0050E550C3940840E1AF51E6
:0111050022C7
:1012B7008F211213397F4612107EAF2112107E0242
:0212C70012DB38
:101048001213397F4712107EE4F5521210DB742F09
:101058002552F8A607E552B403047F018002E4FF95
:1010680012127D0552E552C3940340DF1212DB7F52
:06107800057E000211B923
:0513B0007F010212B7ED
:100ED4007F011212B77F101212B77FC87E00121161
:100EE400B9121048E4FF1212B7752D00852F2EE5B4
:100EF4002EFE7C00E42530F52EEC3EF52DFCAD2EC7
:100F0400E41202A67B9A7A997999783F1202048FA7
:100F1400488E478D468C457F337E337DB37C3FAB13
:0D0F240048AA47A946A8451200FB1202DFAB
:010F3100229D
:101233007F02121153AD07AC06E41202A67BE67AD5
:0B1243003F791C78401200FB1202DF14
:01124E00227D
:1012EC00025B00000457C126C083045346DDC97756
:100B4D009000007407F0A37432F09000047423F049
:100B5D00A374DCF09000027409F0A37425F09000EA
:100B6D0006740FF0A374A0F074326425700474073A
:100B7D0064097003020C52900006E0FEA3E0FFD35F
:100B8D00900005E09FEE6480F8900004E06480988A
:100B9D004033900000E0FEA3E0FF900003E09FFDD6
:100BAD00900002E09EFC1202A6C004C005C006C063
:100BBD0007900004E0FEA3E0FFC3900007E09FFD57
:100BCD009000068032900002E0FEA3E0FFC390008B
:100BDD0001E09FFD900000E09EFC1202A6C004C043
:100BED0005C006C007900006E0FEA3E0FFC390001D
:100BFD0005E09FFD900004E09EFC1202A6D003D0FC
:100C0D0002D001D000120204785712057E90000028
:100C1D00E0FCA3E0FDEC1202A6785712056112006C
:100C2D00FBC004C005C006C007900004E0FCA3E0B3
:100C3D00FDEC1202A6D003D002D001D000120006A6
:060C4D00785312057E221F
:020F84008F37A5
:100F8600E4F53CF53BF53AF539F538AF3712115330
:100F9600E4FCFDE53C2FF53CE53B3EF53BED353A03
:100FA600F53AEC3539F539E4FFFE0FBF00010EBE08
:100FB60003F8BFE8F50538E538C3946440CDE47B13
:0F0FC60064FAF9F8AF3CAE3BAD3AAC3912049E79
:010FD50022F9
:101106007F05120F84AD07AC06E41202A6785712CB
:1011160005611200FB785312056112000A1202DF04
:07112600785BEEF608EFF61E
:01112D00229F
:1012C9001212FD1213A41213B012139D120B4D0228
:0212D9000E6F96
:1011D900D2A6120F321212A51205DF8F4C8E4B8D3B
:1011E9004A8C49B2A61202DF7525041210AD80E5BA
:0613AA001212C90211D964
:1000030002034BE86480F8E933E83360110460F0DD
:10001300ED33EC337009E8FCE9FDEAFEEBFF220463
:1000230060DED3EB9FEA9EE99DE8C2E78CF0C2F75E
:1000330095F0400CE8CCF8E9CDF9EACEFAEBCFFB2A
:1000430012031685D0F05804700320D5B3E804706A
:10005300075002B2D502035592D5EC0460F7E4CC05
:10006300C0E0C398F8603B94186008400DD0E0FBF3
:1000730002032DE4FBFAC9FC8028E830E406E4C956
:10008300FBE4CAFCE830E305E4C9CACBFCE8540747
:100093006010F8C3E913F9EA13FAEB13FBEC13FC52
:1000A300D8F130F52FC3E49CFCEF9BFFEE9AFEEDF5
:1000B30099FDD0E0FBEF4E4D4C701222DB0302039F
:1000C30052EC2CFCEF33FFEE33FEED33FDED30E766
:1000D300EB02032DEF2BFFEE3AFEED39FDD0E0FBF3
:1000E30050130BBB0003020355ED13FDEE13FEEF9C
:0800F30013FFEC13FC02032DC6
:1000FB00EC4D6011E8497017ED33EC3304600DE4FF
:10010B00FCFFFEFD22E933E8330470F802034B12C7
:10011B00031658046009E4CC2481500628500902C8
:10012B000355284003020352C0E0EB4A7044B980E8
:10013B0006D0E0FB020341EF4E701CBD8008EBFFC5
:10014B00EAFEE9FD80EBE98DF0A4FEE5F00201E4A7
:10015B00E9CDF9EAFEEBFFEF89F0A4FCE5F0CE89DF
:10016B00F0A42EFFE435F0CD89F0A42DFEE435F09C
:10017B008067EF4E7005BD80D780C3EF8BF0A4ACCA
:10018B00F0EE8BF0A42CFCE435F0F8EF8AF0A42C05
:10019B00E5F038FCE433CB8DF0A42CFCE5F03BF818
:1001AB00EE8AF0A42CFCE5F038F8E433CF89F0A408
:1001BB002CFCE5F038CF3400CE89F0A42FFFE5F00E
:1001CB003EFEE433C98DF0A42EFEE5F039CD8AF066
:1001DB00A42FFFE5F03EFEE43DFD33D0E0FB5007DE
:1001EB000BBB000F020355EC2CFCEF33FFEE33FE81
:0601FB00ED33FD02032DAF
:10020100020355EC5D046005E85904700302034BD9
:10021100120316580460F6EC4860F2EC7004FDFE1F
:10022100FF22C860DB2481C85009C39860025006D0
:100231000203529850CAF582E9294B4A7005AB82F4
:1002410002034175F0007C1A7880C3EF9BEE9AEDB2
:1002510099400DC3EF9BFFEE9AFEED99FDE842F048
:10026100DC23ACF0D0E0FFD0E0FED0E0FDAB82209B
:10027100E7101BEB60BAEC2CFCEF33FFEE33FEED25
:1002810033FD02032DE803F830E705C0F075F000F7
:10029100EF2FFFEE33FEED33FD40B830E7C280AA09
:1002A10075F020800E75F010800575F0087D007ED8
:1002B100007F003392D530D503120530EC33401066
:1002C100EF33FFEE33FEED33FDEC33FCD5F0ED22E1
:0E02D100E5F0247EA2D513CC92E7CDCEFF221D
:1002DF00EDD2E7CD33EC3392D524814006E4FFFE17
:1002EF00FDFC22FCE4CFCECDCC24E0501174FF8076
:1002FF00EDC3CC13CCCD13CDCE13CECF13CF047013
:07030F00F030D5DE020530DD
:100C530002034B22EDA2E7D2E7F9EC3340F260F353
:100C6300B4FF08ED547F70E8020355F82481C2E015
:100C7300C0E0F40428FAC313FCED92E7FD8C218D48
:100C8300228E238F24EEA2E7E9BA7F02C313340036
:100C93009400FA75F091A4E5F013F494FE8AF0A49D
:100CA30033E5F033248CD313FDE492E7FE7F007C1D
:100CB3003F758302ECC0E0F8EDC0E0F9EEC0E0FA66
:100CC300EFC0E0FBAC21AD22AE23AF24120204D06F
:100CD300E0FBD0E0FAD0E0F9D0E0F812000AED64CE
:100CE30080FD30E7011CD583CBED33CC33F8D0E066
:0A0CF300A2E71328C313CC13FD225F
:100DFC008F248E238D228C21AB28AA27A926A825E7
:100E0C00120204120A458F248E238D228C21E52593
:100E1C0030E747ECC0E0EDC0E0EEC0E0EFC0E0E44E
:100E2C00FFFEFDFCAB24AA23A922A8211203607BA0
:100E3C00DB600250087A0F7949784080067A0F7986
:100E4C004978C0D0E0FFD0E0FED0E0FDD0E0FC124D
:100E5C00000A8F248E238D228C21AF24AE23AD2249
:030E6C00AC212294
:1008B7003A70FA83BCAAE9E43E81E0F8BF9DE9E615
:1008C7003F80000039283C1ABB9969663DA335E390
:1008D700BF255DE73FC90FDB418DDBCCC44936EE51
:1008E70045C9913FC5B0F83D3F800000C317F534B7
:1008F700452FFA73C60AFDDD1209A604A2E192008C
:100907001420E0159008B774041203CD802612094D
:10091700A630E102B20020E0EB8C218D228E238FDE
:10092700249008CB74041203CDA821A922AA23ABD3
:10093700241200FBED4C6007300004EC6480FC22BD
:100947001209A6C0E08C218D228E238F249008EFF8
:1009570074031203CDA821A922AA23AB241200FBFA
:10096700ECC521FCEDC522FDEEC523FEEFC524FF36
:100977009008DF74031203CDD082A821A922AA23ED
:10098700AB24E58230E007120204B20080A6EFCB69
:10099700FFEECAFEEDC9FDECC8FC1202048095ED1E
:1009A70033EC547FCC33920024605007D0E0D0E082
:1009B70002034B7B837AF97922783E1200FBEDF92B
:1009C70033ECF83324815011EFFBEEFA1202DF12F9
:1009D70002A1ECB2E7FC12000AED33EC33602F24DE
:1009E70003F8C313FCED92E7FDE82481E4501FEC04
:1009F700F8EDF9EEFAEFFB1202DFEF04C2E0FCF5C7
:100A0700821202ABECB2E7FC12000AE58203FAEDB0
:0E0A170033EC3360071413FCED92E7FDEA2286
:10031600E9D2E7C933E833F892D5EDD2E7CD33EC2D
:0703260033FC5002B2D522A6
:10032D00EC30E7100FBF000C0EBE00080DBD000431
:10033D000BEB6014A2D5EB13FCED92E7FD2274FFDD
:10034D00FCFDFEFF22E480F8A2D574FF13FC7D8036
:03035D00E480EF4A
:1003600074F8CC6480CCC86480C8F582046043C350
:10037000EB9FF5F0EA9E42F0E99D42F0E89C45F0E3
:1003800060305018E5825FFFE582F42B5582FB5008
:10039000210ABA001D09B90019088016E5825BFB25
:1003A000E582F42F5582FF50090EBE00050DBD00F9
:1003B000010CC3EB9FF5F0EA9E42F0E99D42F0E8A4
:0D03C0009C45F06007CC4820E701B3EC221B
:1003CD00C0E0EFFBEEFAEDF9ECF81200FBD0E0F532
:1003DD00F0EFFBEEFAEDF9ECF8120551A3A3A3A390
:1003ED00E8C0E0E9C0E0EAC0E0EBC0E0C0F0120018
:1003FD00FB12056EA3A3A3A312000AD0F0D0E0FB5D
:0D040D00D0E0FAD0E0F9D0E0F8D5F0D4222C
:100A2500BE1249253E4CCCCDBEAAAAAB3F800000E4
:100A35003E7ADBB03EED63383F24BC7D3F490FDB9A
:100A4500ED33ECC2E7CC339200B4FF13ED547F6075
:100A55000302034B7FDB7E0F7DC97C3F020B40C247
:100A650001C3947F401E7007EDD2E794904015EFC7
:100A7500FBEEFAEDF9ECF87F007E007D807C3F12FD
:100A85000204D201ED33EC33248430E705E4C0E001
:100A9500806D04FAEDD2E754F0C333DAFD54073420
:100AA500002323C0E0CCC0E0F8EDC0E0F9EEC0E0E3
:100AB500FAEFC0E0FBE41202ABEC24FEFC8C298DBE
:100AC5002A8E2B8F2C1200FB7B007A007980783FD1
:100AD50012000AECC529B2E7FCEDC52AFDEEC52BCF
:100AE500FEEFC52CFFD0E0FBD0E0FAD0E0F9D0E076
:100AF500F812000AA829A92AAA2BAB2C1202048CE9
:100B0500298D2A8E2B8F2C900A2574031203CDA8CC
:100B150029A92AAA2BAB2C1200FBD0E0600F2431A7
:100B2500F582E4340AF58312056E12000A30010BD2
:100B35007BDB7A0F79C978BF12000AED33EC33609D
:080B450006ECA20092E7FC227D
:03000000020CFDF2
:0C0CFD00787FE4F6D8FD75815C020D44A0
:10041A00EF8DF0A4A8F0CF8CF0A428CE8DF0A42EF6
:02042A00FE22B0
:10042C00C2D5EC30E709B2D5E4C39DFDE49CFCEEEB
:10043C0030E715B2D5E4C39FFFE49EFE12058AC3D4
:10044C00E49DFDE49CFC800312058A30D507C3E4CF
:06045C009FFFE49EFE225A
:1004620075F008758200EF2FFFEE33FECD33CDCC51
:1004720033CCC58233C5829BED9AEC99E5829840D4
:100482000CF582EE9BFEED9AFDEC99FC0FD5F0D6B1
:10049200E4CEFBE4CDFAE4CCF9A88222B800C1B9DB
:1004A2000059BA002DEC8BF084CFCECDFCE5F0CB19
:1004B200F97818EF2FFFEE33FEED33FDEC33FCEB52
:1004C20033FB10D703994004EB99FB0FD8E5E4F90D
:1004D200FA227818EF2FFFEE33FEED33FDEC33FCFA
:1004E200C933C910D7059BE99A4007EC9BFCE99AEE
:1004F200F90FD8E0E4C9FAE4CCFB2275F010EF2F33
:10050200FFEE33FEED33FDCC33CCC833C810D70732
:100512009BEC9AE899400AED9BFDEC9AFCE899F86D
:0E0522000FD5F0DAE4CDFBE4CCFAE4C8F92200
:0E053000C3E49FFFE49EFEE49DFDE49CFC22DC
:10053E00E8600FECC313FCED13FDEE13FEEF13FF9B
:03054E00D8F122BF
:10055100E493FC740193FD740293FE740393FF22F0
:0D056100E6FB08E6F908E6FA08E6CBF8220A
:10056E00E493F8740193F9740293FA740393FB22E3
:0C057E00ECF608EDF608EEF608EFF622A9
:100D09000213AAE493A3F8E493A34003F68001F243
:100D190008DFF48029E493A3F85407240CC8C333EB
:100D2900C4540F4420C8834004F456800146F6DFBA
:100D3900E4800B01020408102040809012ECE47E4C
:100D4900019360BCA3FF543F30E509541FFEE493AF
:100D5900A360010ECF54C025E060A840B8E493A376
:100D6900FAE493A3F8E493A3C8C582C8CAC583CAA1
:100D7900F0A3C8C582C8CAC583CADFE9DEE780BE59
:0112FC0000F1
:10058A00BC000BBE0029EF8DF084FFADF022E4CC55
:10059A00F875F008EF2FFFEE33FEEC33FCEE9DEC1E
:1005AA00984005FCEE9DFE0FD5F0E9E4CEFD22ED64
:1005BA00F8F5F0EE8420D21CFEADF075F008EF2FAE
:1005CA00FFED33FD4007985006D5F0F222C398FD9F
:0505DA000FD5F0EA223C
:00000001FF
