:10298A009002FFEFF0A3EDF0122D827F1A122D2A8A
:10299A00122D8B9002FFE0FF122D2A122D8B90032D
:0C29AA0000E0FF122D2A122D8B022D944C
:102A2D00900300EFF0122D827F1A122D2A122D8B9A
:102A3D007FB0122D2A122D8B900300E0FF122D2A4C
:062A4D00122D8B022D94F6
:102B0900122A2D122D827F1B122D2A122D8B122C87
:102B1900FD9002FFEFF0122D0C122D949002FFE0B0
:012B2900FFAC
:012B2A002288
:10133B0041037500410378004103740041037900B8
:08134B00410377004103760025
:062DC700759850022C7CFF
:082DB8008F993099FDC29922A8
:062785009002FF12084D56
:10278B00E4FB900303E0FFEBC39F50289002FFA3F1
:10279B00A3A3E0FAFF122DB89002FFE0FCA3E0FD2B
:1027AB00A3E0FEA3E0FF78081207E99002FF1208EE
:0427BB004D0B80CE74
:0127BF0022F7
:102C4300120657FF600C122DB8740129F9E43AFA01
:032C530080EE22EE
:062DCD00759A50022D78FA
:0F2CC1008F9B9003787401F0900378E070FA22F3
:102C5600120657FF600C122CC1740129F9E43AFAE6
:032C660080EE22DB
:1028CE00900374E06027E4F0A3E59BF0E012069D10
:1028DE00120657600D9003747401F029F9E43AFA68
:1028EE0080DEE4900374F012069D7F01227F0022A9
:062DD30043AC40022CB1EC
:0F2CD0008FAD9003797401F0900379E070FA22D0
:10286900900304EBF0A3EAF0A3E9F0900304E0FB82
:10287900A3E0FAA3E0F91206576017900304A3E452
:1028890075F0011206F7A9F0FA120657FF122CD0BB
:0328990080D922C1
:10289C00900377E06029E4F0900376E5ADF0E01268
:1028AC00069D120657600D9003777401F029F9E428
:1028BC003AFA80DCE4900377F012069D7F01227FC8
:0228CC000022E8
:0F2CDF0075BAB090FE8074E0F090FE82E4F022AF
:0F2CEE0090FE82E030E6F990FE82E054BFF022C3
:092D820090FE817401F0022CEEB8
:0E2D2A0090FE86EFF090FE817402F0022CEE17
:092D8B0090FE817403F0022CEEAD
:0F2CFD0090FE817404F0122CEE90FE87E0FF220F
:0E2D380090FE82E4F090FE817405F0022CEE15
:0F2D0C0090FE827401F090FE817405F0022CEEAF
:092D940090FE817406F0022CEEA1
:102C7C00538EFE53890F438E40758DFD758B8FD20D
:022C8C008E2296
:0A2D7800438E1475D6FD75D78E2228
:102CB10075AC1043D10275D58F75D4FD43D108226F
:0C2D46007F867E0C7D49DDFEDEFADFF6A4
:012D5200225E
:102A7900EF1FAC0670011E4C601A00000000000038
:102A8900000000000000000000000000000000003D
:052A9900000080DC22BA
:102C8E007FCD7EE67DFDDDFEDEFADFF67F0EDFFE1A
:012C9E000035
:012C9F002212
:082D9D007F78AE071FEE70FA0B
:012DA500220B
:102B2B00E4FDFCC3ED9FEC9E5015E4FBFA0BBB00E0
:0F2B3B00010ABA5DF8BBC0F50DBD00010C80E4C6
:012B4A002268
:102C6900AD071FED600CE4FEEEC3941150F2000EA7
:022C790080F6E3
:012C7B002236
:072DC000759124E4F5922255
:102A9E0075DE2FEF4480F5BC43BC400000E5BC3032
:102AAE00E5FB53BCDFAFBDEFFEADBE7C00E42DFFFA
:032ABE00EC3EFEED
:012AC10022F2
:062DD90075AF09D2AF2224
:0300430002270190
:10270100C0E0C0F0C083C082C0D075D008E59A3067
:10271100E108539AFD900378E4F0E59A30E018530C
:102721009AFE9003747401F09001DAE0FEA3E0AA2E
:102731000EF97B011228CED0D0D082D083D0F0D038
:02274100E03284
:03008B0002295CEB
:10295C00C0E0C083C082E5AC30E10853ACFD90030D
:10296C0079E4F0E5AC30E00F53ACFE9003777401E2
:0E297C00F0900376E5ADF0D082D083D0E0324B
:0D2D5300E4F5C7F5C5F5C675C380F5C422CB
:102BBB0075C78375C5018FC4EEFF8FC375C65A7574
:082BCB00C6A500AFC2122D5394
:012BD30022DF
:102BA10075C78375C5028FC4EEFF8FC3AF058FC292
:0A2BB10075C65A75C6A500022D5323
:102BEC0075C78375C5038FC4EEFF8FC375C65A7541
:062BFC00C6A500022D53E6
:0C2D6000AB07AA06122BECAF03022BA15C
:102B4B00D2947F0A7E00122A79C2947F207E0312D0
:0E2B5B002A79D2947F587E02122A797F0122B5
:05004600900303EFF040
:10004B00E4A3F0900303E05401900305F0C2947F06
:10005B000F7E00122A79900303E01392947F2D7E7A
:10006B0000122A79D2947F0A7E00122A7990030318
:0E007B00E0C313F0A3E004F0E0C3940840C516
:010089002254
:10274300E4900303F0900304E0C313F0C2947F0208
:102753007E00122A79D2947F047E00122A79309463
:1027630008900304E04480F0F07F1E7E00122A7973
:10277300900303E004F0E0C3940840C9900304E02D
:01278300FF56
:012784002232
:102C0200122B4BEF600D7FCC1200467F4412004620
:052C12007F01227F009C
:012C1700229A
:102174009002FF12085900000000122B4BEF601C64
:102184007FCC1200467FBE12004612274390037C88
:10219400EFF012274390037DEFF0D29490037DE09B
:1021A400FF90037AE4F0A3EFF0E07F00FE90037A5F
:1021B400F0A3EFF0A3E0FDEDFF90037AEEF0A3EFC0
:1021C400F0AC06EC120331E4FBFA7980783D12019D
:1021D400869002FF12084DE4FFFE7D207C419002B0
:1021E400FFE0F8A3E0F9A3E0FAA3E0FB120186E420
:1021F400FBFAF9783F12009512036A90037AEEF025
:03220400A3EFF055
:0122070022B4
:102467007D0E7F8212298A7DA67F8312298AE4FD49
:102477007F8412298AE4FD7F8512298AE4FD7F86FD
:1024870012298A7D647F8712298AE4FD7F881229B1
:102497008A7D647F8912298AE4FD7F8A12298A7DD1
:1024A700647F8B12298A7DB17F8012298AE4FD7FA0
:1024B7008112298A7D117F8012298A122D467D215A
:0524C7007F8002298A5C
:1024CC007D937F8012298A7F8F122B09EF30E0F7E2
:1024DC007F92122B09EF7F00FEC006C0077F93127C
:1024EC002B09EFFDD0E02DFFD0E03400FEEF780299
:1024FC00C333CE33CED8F9FF90033BEEF0A3EFF00D
:10250C0090033BE0FEA3E07802CEA2E713CE13D8F3
:10251C00F8FF7C007D201206C190033BEEF0A3EF88
:01252C00F0BE
:01252D00228B
:101042001224677F8F122B09EF30E1F77F94122B66
:1010520009EF7F00FEC006C0077F95122B09EFFD46
:10106200D0E02DFED0E03400900335F0A3CEF07F27
:1010720096122B09EF7F00FEC006C0077F97122B46
:1010820009EFFDD0E02DFFD0E03400FE900349F0DF
:10109200A3EFF0FDAC06EC120331C004C005C0069C
:1010A200C007900349E0FCA3E0FDEC120331D0033A
:1010B200D002D001D000120186C004C005C006C013
:1010C20007900335E0FCA3E0FDEC120331C004C03D
:1010D20005C006C007900335E0FCA3E0FDEC120357
:1010E20031D003D002D001D000120186D003D00249
:1010F200D001D000120095121E5590034112084DE6
:10110200D3900336E09400900335E06480948040ED
:1011120053900349E0FCA3E0FDD39400EC64809477
:10112200804041EC120331C004C005C006C00790E4
:101132000335E0FCA3E0FDEC120331900303120837
:101142004DD007D006D005D004122042E4FBFA7934
:101152003478431201867BDA7A0F79497840120299
:101162008F02129AC3900335E064809480505C90A1
:101172000349E0FCA3E0FD9400EC64809480404BC2
:10118200EC120331C004C005C006C007900335E06D
:10119200FCA3E0FDEC12033190030312084DD007CB
:1011A200D006D005D004122042E4FBFA7934784309
:1011B2001201867BDA7A0F7949784012028FE4FBBA
:1011C200FA7934784312009502129AC3900335E0FB
:1011D20064809480505A900349E0FCA3E0FDC3EC84
:1011E20064809480504AEC120331C004C005C006EA
:1011F200C007900335E0FCA3E0FDEC12033190033D
:101202000312084DD007D006D005D004122042E4C4
:10121200FBFA793478431201867BDA7A0F794978BE
:101222004012028FE4FBFA79347843120095806809
:10123200D3900336E09400900335E06480948040BC
:101242005D900349E0FCA3E0FDEC64809480504E85
:10125200EC120331C004C005C006C007900335E09C
:10126200FCA3E0FDEC12033190030312084DD007FA
:10127200D006D005D004122042E4FBFA7934784338
:101282001201867BDA7A0F7949784012028FE4FBE9
:10129200FA79B4784312009590033712084D9003FF
:1012A20041E0F8A3E0F9A3E0FAA3E0FB7FF87E13A4
:1012B2007D647C4A12028F90034512084D7FB87EEE
:1012C2009E7D917CC3900337E0F8A3E0F9A3E0FA96
:1012D200A3E0FB1200957BDA7A0F7949784012017C
:1012E20086E4FBFA7934784312028F121664900373
:1012F20045E0F8A3E0F9A3E0FAA3E0FB1201867B44
:101302005C7A8F79D278C0120095A804A905AA0642
:10131200AB077F807E1A7D837C4912028F90033D4A
:1013220012084D7DA17F8012298A90033DE0FCA323
:08133200E0FDA3E0FEA3E0FFD3
:01133A002290
:0F2D1B00D286D287122D9DC286122D9DC287228D
:102CA000C286D287122D9DD286122D9DC287022DFB
:012CB0009D86
:102C1800EF30E004D2868002C286D287122D9DC290
:062C280087D286022D9DFB
:102AC200E4900306F0D286D287122D9D900306E091
:102AD200FFA286E433FEEF4EF0122D9DC2879003D3
:032AE20006E0FF0C
:012AE50022CE
:05283200900304EFF02B
:10283700E4A3F0900304E030E704D2868002C28666
:10284700122D9DD287122D9DC287122D9D900304B4
:10285700E0FF25E0F0A3E004F0E0C3940840D402D1
:022867002AC283
:10000300E4900304F0A3F0D286900304F0D28712A5
:100013002D9D900305E0FFA286E433FEEF4EF0C270
:1000230087122D9D900305E025E0F0900304E00482
:0C003300F0E0C3940840D6900305E0FF05
:01003F00229E
:102BD400900303EFF0122D1B7F461228329003035B
:082BE400E0FF122832022CA0D0
:1026BE00122D1B7F47122832E4900303F012000301
:1026CE00900303E0FE245DF582E43403F583EFF01E
:1026DE00EEB403047F018002E4FF122C1890030372
:1026EE00E004F0E0C3940340D4122CA07F057E00DA
:0326FE00022B2B81
:052DE5007F01022BD468
:10238C007F01122BD47F10122BD47FC87E00122B0E
:10239C002B1226BEE4FF122BD490035DE0FF9003BA
:1023AC005BE4F0A3EFF0E0FE90035EE07C00240021
:1023BC00FFEC3EFE90035BF0A3EFF0FDAC06E412E5
:1023CC0003317B9A7A997999783F12028F9002FFA8
:1023DC0012084D7F337E337DB37C3F9002FFE0F8D3
:0F23EC00A3E0F9A3E0FAA3E0FB12018612036A53
:0123FB0022BF
:102B69007F02122A9EAD07AC06E41203317BE67A96
:0B2B79003F791C784012018612036AAD
:012B8400222E
:10135300021D00000419C126C083041546DDC977A8
:101BD0009003657407F0A37432F09003697423F0E6
:101BE000A374DCF09003677409F0A37425F09003EC
:101BF0006B740FF0A374A0F0743264257004740742
:101C000064097003021CD590036BE0FEA3E0FFD3D0
:101C100090036AE09FEE6480F8900369E064809826
:101C20004033900365E0FEA3E0FF900368E09FFD72
:101C3000900367E09EFC120331C004C005C006C0DB
:101C400007900369E0FEA3E0FFC390036CE09FFDF3
:101C500090036B8032900367E0FEA3E0FFC3900324
:101C600066E09FFD900365E09EFC120331C004C056
:101C700005C006C00790036BE0FEA3E0FFC390031E
:101C80006AE09FFD900369E09EFC120331D003D00F
:101C900002D001D00012028F78191208419003651A
:101CA000E0FCA3E0FDEC12033178191208181201D0
:101CB00086C004C005C006C007900369E0FCA3E02D
:101CC000FDEC120331D003D002D001D000120091FC
:061CD00078151208412204
:052294009002FFEFF0D5
:1022990090030112085900000000E4900300F09037
:1022A9000301E0F8A3E0F9A3E0FAA3E0FBC000C052
:1022B90001C002C0039002FFE0FF122A9EE4FCFD68
:1022C900D003D002D001D000EB2FFFEA3EFEED395A
:1022D900FDEC38FC90030112084DE4FFFE0FBF002E
:1022E900010EBE03F8BFE8F5900300E004F0E0C377
:1022F900946440ABE47B64FAF9F8900301E0FCA331
:0B230900E0FDA3E0FEA3E0FF12074987
:0123140022A6
:1029B6007F05122294AD07AC06E412033178191292
:1029C6000818120186781512081812009512036A63
:0729D600781DEEF608EFF694
:0129DD0022D7
:0300400025640034
:10136300606E016C7B2274223A20312C22646576F4
:10137300696365223A2022426C756542657272790F
:10138300222C226B6579223A22643962386435341F
:101393003936373765343264393839663335343062
:1013A300316236633037393066222C2276657222F9
:1013B3003A2276312E30227D00000000000000002A
:1013C300000000000000000000000000000000001A
:1013D3000000612C00007B2274223A332C226461CA
:1013E300746174797065223A312C2264617461737B
:1013F300223A7B2250680000000000000000000039
:1014030000000000000000000000000000000000D9
:1014130000000000000000000000000000000000C9
:1014230000000000000000000000000000000000B9
:1014330000000000000000000000000000000000A9
:101443000000000000000000000000000000000099
:101453000000000000000000000000000000000089
:101463000000000000000000000000000000000079
:101473000000000000000000000000000000000069
:101483000000000000000000000000000000000059
:101493000000000000000000000000000000000049
:1014A3000000000000000000000000000000000039
:1014B3000000000000000000000000000000000029
:1014C3000000000000000000000000000000000019
:1014D3000000000000000000000000000000000009
:1014E30000000000000000000000000000000000F9
:1014F30000000000000000000000000000000000E9
:1015030000004A0229223A30000000000000004A8D
:1015130002332C2200000000000000004E023D7D3B
:101523002C226D73676964223A317D000047021BE8
:1015330024234154230D00603F01DC506800000068
:10154300000000004C697175696454000048756DB2
:101553006964697479004C757800000000000054D8
:10156300656D7000000000004543000000000000AE
:1015730000434F3200000000000047022202070828
:09158300030402034201DA012C09
:1025E300E490037EF0A3F07B017A01792C1228CECC
:1025F300EF702290037FE004F0700690037EE00406
:10260300F0D390037FE0942C90037EE06480948168
:1026130040DE7F00229001DAE0FCA3E0F5828C83A8
:10262300EFF09001DAE475F0011206F745F070F26D
:022633007F0125
:012635002282
:0B1D950090030AEBF0A3EAF0A3E9F0D2
:101DA0009001DAE0FEA3E0AA06F97B01C002C001BF
:101DB00090030AE0F9A3E0FAA3E0900319C9F0A3A5
:101DC000EAF0A3E9F0D001D002121CD6900310EB88
:101DD000F0A3EAF0A3E9F090030AE0FBA3E0FAA382
:101DE000E0F9122C2E900310E0FBA3E0FAA3E0F937
:101DF000EF3395E0FEE92FF9EA3EFAA3EBF0A3EA10
:101E0000F0A3E9F0900310A3E0FAA3E0F94A6035EB
:101E100090FFFF120670B4222C900313E0FBA3E0A6
:101E2000FAA3E0F9120657B4221B900001120670C3
:101E3000B43A12E92402F9E43AFA90030DEBF0A364
:101E4000EAF0A3E9F090030DA3E0FAA3E0AE02FFED
:011E5000226F
:092DA6007B017A01796C022C56C4
:092DAF007B017A02791B022C560B
:1017A400E49002FFF0A3F0A3F0A3F0A37400F0A36D
:1017B400741EF0E4900302F0900302E0FFC364801F
:1017C4009487400302190FEF3395E0FE7C007D09F6
:1017D4001206AF74DC2FF974013EFA7B01C002A338
:1017E400E0FEA3E0AA06F8AC027D01D002120B379A
:1017F400900302E0FFFD3395E0FC74222DF5827422
:10180400023CF583E0FD3395E0FC900304E02DF009
:10181400900303E03CF0E0FCA3E0F5828C83E4F069
:10182400EFB40700504B901831F82828730218467B
:1018340002184B02185002185502185C0218610273
:10184400186690034F801E900355801990035980A9
:1018540014900351A3A3800D90034B800890034D73
:101864008003900357E0FFA3E0900300CFF0A3EFC1
:10187400F090030874FFF0A37400F0A37440F09098
:101884000300E0FFA3E090030BCFF0A3EFF07B0194
:101894007A02792B120C249002FFEFF09003087463
:1018A40001F0A37402F0A37429F07B017A0079009B
:1018B4001223FC9002FFE0FF900304E02FFF90034B
:1018C40003E03400CF2402CF3400FEF0A3EFF0F5A0
:1018D400828E83E4F0900302E0640660259003089E
:1018E4007401F0A37402F0A37433F07B017A0079DD
:1018F400001223FC900304E02402F0900303E0347C
:1019040000F0900302E004F00217BC900308740195
:10191400F0A37402F0A3743DF07B017A0079001205
:0619240023FC7E007F00A1
:01192A00229A
:0C2D6C001217A47B017A007900022C569B
:10158C004402B10000000044024E00000000410281
:10159C00B6004102B50041025201605A0253436F3A
:1015AC006E74726F6C506800000000000000000048
:1015BC00000000000000000000000000000000001F
:1015CC00000000000000000000000000000000000F
:1015DC000000000000000000000064617461000065
:1015EC000000000000000000006170697461670079
:1015FC00000000000000000041024B0042024C00C1
:01160C0000DD
:102A5300EF14601014601314601624037017ED2430
:102A6300FF92A322ED24FF92A022ED24FF92A22243
:062A7300ED24FF92A122F8
:021EFD00AE072E
:101EFF009002B6E0FC70047F0180027F009002B573
:101F0F00E0FB5F6038AF06744E2EF582E43402F5C5
:101F1F0083E0FD122A53E49002B5F0744E2EF58241
:101F2F00E43402F583E0FF74B12EF582E43402F558
:101F3F0083EFF0744E2EF582E43402804AEC5B603E
:101F4F004BAF0674B12EF582E43402F583E0FD1237
:101F5F002A53E49002B5F074B12EF582E43402F501
:101F6F0083E0FF744E2EF582E43402F583EFF09098
:101F7F00024BE004F0E0B40206E4F09002B6F07415
:101F8F00B12EF582E43402F583E0FF229002B5E032
:021F9F007FFFC2
:011FA100221D
:10192B00900376E0FF605C24EF602024F1602114CB
:10193B00602524F1602614602A24F1602B14602F9B
:10194B0024317031E49002B1F0802A9002B18022F0
:10195B00E49002B2F0801E9002B28016E49002B3C3
:10196B00F080129002B3800AE49002B4F0800690EB
:10197B0002B47401F0E4900376F09002B604F09098
:10198B0002B5F0900375E07003021AAD7B017A0289
:10199B00799E121D95900302EEF0A3EFF0900302D7
:1019AB00E0FBA3E0FAA3E0F8AC02AD037B017A0203
:1019BB007953120A4EEF70047F0180027F0090036F
:1019CB0005EFF0900302E0FBA3E0FAA3E0F8AC0212
:1019DB00AD037B017A027962120A4EEF70047F012C
:1019EB0080027F00900306EFF0900302E0FBA3E080
:1019FB00FAA3E0F8AC02AD037B017A027971120A0B
:101A0B004EEF70047F0180027F00900307EFF09090
:101A1B000302E0FBA3E0FAA3E0F8AC02AD037B0109
:101A2B007A027980120A4EEF70047F0180027F00E8
:101A3B00900308EFF0E4A3F0900309E0FFC3648088
:101A4B0094845059EF3395E0FE74052FF58274039F
:101A5B003EF583E0603F7B017A02798F121D9590F2
:101A6B0002FFEEF0A3EFF09002FFE0FBA3E0FAA37E
:101A7B00E0F9120657FF900309E0FD3395E0FC7483
:101A8B00B12DF58274023CF583EFF09002B6740130
:101A9B00F09002B5F0900309E004F0809BE4900312
:021AAB0075F0D4
:011AAD002216
:102636007F027E01122BBBEF3395E09002ADF0A333
:10264600EFF0E0F8E4F0E89002ADF07401FFFE125E
:102656002BBBEF3395E0FE9002ADE04EF0A3E04FCA
:10266600F07F007E01122BBBEF3395E09002AFF0B6
:04267600A3EFF022BC
:10252E009002AFE0FEA3E0FFD3900350E09F900334
:10253E004FE09E401990024CE004F0E0D36480948A
:10254E0084400BE4F090024E04F09002B5F090023D
:10255E00ADE0FEA3E0FFC390034EE09F90034DE07D
:10256E009E501890024DE004F0E064809484400B7D
:0B257E00E4F090024F04F09002B5F072
:01258900222F
:1029DE00900252E06008122636E4900252F0122560
:1029EE002E12192BE4FF121EFD7F01121EFD7F0217
:0829FE00121EFD7F03021EFD05
:102B8500C2937F067E00122B2BD2937F03122C69F2
:0C2B9500D293E4900373F0900372F022DE
:1027C000E4FF900300F0E4FE2093070EEEC394C8EC
:1027D00040F67F04122C69A293E433FFE4FE2093B9
:1027E000070EEEC394C840F6EF25E0FF900300E02B
:0827F00004F0E0C3940840CEA0
:0127F80022BE
:1028FE0090036EE0FF90036DE02FFFE433FE900334
:10290E006FE07C002FFFEC3EFEA3E02FFFEC3EFEBF
:0F291E00A3E0B50707ECB506037F01227F002277
:10292D00120657FF900300E4F0A3EFF0E0F8E4F097
:10293D00E8900300F0900001120670FF900300E094
:0E294D00FEA3E04FFF900300EEF0FEA3EFF0BC
:01295B002259
:1020DF00122B852093569003737401F0E4FF209325
:1020EF000D0FEFD3942C7480948140F28010E4FF95
:1020FF003093140FEFD3942C7480948140F290039B
:10210F00727401F07F0022E49002FFF01227C0905A
:10211F0002FFE0246DF582E43403F583EFF09002C3
:10212F00FFE004F0E0C3940540E28007E4900373FE
:10213F00F0FF22900373E060291228FEEF60237BEB
:10214F00017A03796D12292D900359EEF0A3EFF068
:10215F007A03796F12292D90034BEEF0A3EFF07FE6
:04216F0001227F00CA
:012173002249
:052DEA00252E316600FA
:0E160D004502FA00000000004302F70102FA55
:102315009002FFEFF07FEE122CD07FB1122CD07F10
:1023250010122CD0E4FF122CD0E4FF122CD0E4FFC5
:10233500122CD09002FFE0FF122CD090030874FFFE
:10234500F0A3742DF0A374EAF0900300E0FCA3E081
:10235500FDA3E0FEA3E0FFE412032C90030B12089B
:102365004D7B017A0279B7120C247B017A0279B789
:102375001228697FFF122CD07FFC122CD07FFF1210
:072385002CD07FFF022CD0D9
:10258A00E4900380F0A3F07B017A0279FA12289C86
:10259A00EF7022900381E004F07006900380E0045B
:1025AA00F0D3900381E0942C900380E064809481BE
:1025BA0040DE7F00229002F7E0FBA3E0FAA3E0F9F5
:1025CA00EF12069D9002F7E0FBA3E475F0011206F4
:0825DA00F745F04B70EE7F01A4
:0125E20022D6
:1027F900122CDF122DE5122DC0121BD0122B8512BF
:102809002DC7122DCD122DD3122DD97D087F007E13
:1028190001122D607D087401FFFE122D607D077F76
:09282900027E01122D60022DA6B1
:10267A00122C021224CC12104212036A90034DEE5D
:10268A00F0A3EFF0122174900355EEF0A3EFF012CD
:10269A00238C90035112084D122B69900357EEF0C8
:1026AA00A3EFF01229B690034FEEF0A3EFF0122039
:0426BA00DF022D6CA2
:101FA200900355E0FEA3E0FFE4FCFD90030012085D
:101FB2004D7F2A122315900357E0FEA3E0FFE4FCB5
:101FC200FD90030012084D7F0A12231590034FE083
:101FD200FEA3E0FFE4FCFD90030012084D7F0B120C
:101FE2002315900359E0FEA3E0FFE4FCFD900300FB
:101FF20012084D7F0812231590034BE0FEA3E0FF69
:10200200E4FCFD90030012084D7F07122315900394
:102012004DE0FEA3E0FFEE3395E0FDFC90030012DD
:10202200084D7F0C122315900351E0FCA3E0FDA3A1
:10203200E0FEA3E0FF90030012084D7F0902231582
:102AE600C2A612267A121FA21229DE122DAFB2A694
:102AF6009003037401F07F117E007D007C00122795
:032B06008580DFE8
:062DDF001227F9022AE6AA
:10008E000203D6E86480F8E933E83360110460F0C7
:10009E00ED33EC337009E8FCE9FDEAFEEBFF2204D8
:1000AE0060DED3EB9FEA9EE99DE8C2E78CF0C2F7D3
:1000BE0095F0400CE8CCF8E9CDF9EACEFAEBCFFB9F
:1000CE001203A185D0F05804700320D5B3E8047054
:1000DE00075002B2D50203E092D5EC0460F7E4CCEF
:1000EE00C0E0C398F8603B94186008400DD0E0FB68
:1000FE000203B8E4FBFAC9FC8028E830E406E4C940
:10010E00FBE4CAFCE830E305E4C9CACBFCE85407BB
:10011E006010F8C3E913F9EA13FAEB13FBEC13FCC6
:10012E00D8F130F52FC3E49CFCEF9BFFEE9AFEED69
:10013E0099FDD0E0FBEF4E4D4C701222DB03020313
:10014E00DDEC2CFCEF33FFEE33FEED33FDED30E74F
:10015E00EB0203B8EF2BFFEE3AFEED39FDD0E0FBDC
:10016E0050130BBB00030203E0ED13FDEE13FEEF85
:08017E0013FFEC13FC0203B8AF
:10018600EC4D6011E8497017ED33EC3304600DE473
:10019600FCFFFEFD22E933E8330470F80203D612B1
:1001A60003A158046009E4CC2481500628500902B2
:1001B60003E02840030203DDC0E0EB4A7044B98047
:1001C60006D0E0FB0203CCEF4E701CBD8008EBFFAF
:1001D600EAFEE9FD80EBE98DF0A4FEE5F002026F90
:1001E600E9CDF9EAFEEBFFEF89F0A4FCE5F0CE8954
:1001F600F0A42EFFE435F0CD89F0A42DFEE435F011
:100206008067EF4E7005BD80D780C3EF8BF0A4AC3E
:10021600F0EE8BF0A42CFCE435F0F8EF8AF0A42C79
:10022600E5F038FCE433CB8DF0A42CFCE5F03BF88C
:10023600EE8AF0A42CFCE5F038F8E433CF89F0A47C
:100246002CFCE5F038CF3400CE89F0A42FFFE5F082
:100256003EFEE433C98DF0A42EFEE5F039CD8AF0DA
:10026600A42FFFE5F03EFEE43DFD33D0E0FB500752
:100276000BBB000F0203E0EC2CFCEF33FFEE33FE6A
:06028600ED33FD0203B898
:10028C000203E0EC5D046005E8590470030203D638
:10029C001203A1580460F6EC4860F2EC7004FDFE09
:1002AC00FF22C860DB2481C85009C3986002500645
:1002BC000203DD9850CAF582E9294B4A7005AB82DE
:1002CC000203CC75F0007C1A7880C3EF9BEE9AED9C
:1002DC0099400DC3EF9BFFEE9AFEED99FDE842F0BD
:1002EC00DC23ACF0D0E0FFD0E0FED0E0FDAB822010
:1002FC00E7101BEB60BAEC2CFCEF33FFEE33FEED9A
:10030C0033FD0203B8E803F830E705C0F075F000E0
:10031C00EF2FFFEE33FEED33FD40B830E7C280AA7D
:10032C0075F020800E75F010800575F0087D007E4C
:10033C00007F003392D530D5031207DBEC3340102D
:10034C00EF33FFEE33FEED33FDEC33FCD5F0ED2255
:0E035C00E5F0247EA2D513CC92E7CDCEFF2291
:10036A00EDD2E7CD33EC3392D524814006E4FFFE8B
:10037A00FDFC22FCE4CFCECDCC24E0501174FF80EA
:10038A00EDC3CC13CCCD13CDCE13CECF13CF047087
:07039A00F030D5DE0207DBA5
:100BBF00E5102408F582E43403F583E00510229054
:100BCF000305300703900308E475F00112088A0249
:100BDF0006572000E97F2ED2008018EF540F249083
:100BEF00D43440D4FF30040BEF24BFB41A005003A9
:100BFF002461FFE511600215110514E5147002055B
:100C0F001330070E900305E475F00112088AEF0206
:100C1F00069D022A067403D2078003E4C207F5106B
:100C2F009003051208A1E4F511F513F514E5116011
:100C3F00077F20120C0280F57512FFC201C200C29D
:100C4F0002C203C205C206C208120BCEFF700D30DE
:100C5F0007057F00120C13AF14AE1322B4255FC229
:100C6F00D5C204120BCEFF24D0B40A00501A75F06F
:100C7F000A781130D50508B6FF0106C6A426F6205E
:100C8F00D5047002D20380D924CFB41A00EF5004D8
:100C9F00C2E5D204020F05D20180C6D20080C0D2B5
:100CAF000280BCD2D580BAD20580B47F20120C024C
:100CBF002002077401B5110040F1120BBFFF120C97
:100CCF0002020C3CD208D2068095120BBFFB120B0E
:100CDF00BFFA120BBFF94A4B700679037A107BFFEC
:100CEF0020022EE511602A7E008E82758300120687
:100CFF007060060EEE651270F0C2D5EBC0E0EAC070
:100D0F00E0E9C0E0EE120F66D0E0F9D0E0FAD0E0F3
:100D1F00FB120657FF60AAEBC0E0EAC0E0E9C0E0B3
:100D2F00120C02D0E02401F9D0E03400FAD0E0FB3D
:100D3F00E5120460DCD512D98087D20280A2120F8F
:100D4F004860F7E512700104120458A912600DE50E
:100D5F0012600914F512120FF0EF60F3EA30E70298
:100D6F00F404C3995079EAF425120430E701E4043E
:100D7F00F512800D120F4860C1EA051225121204F8
:100D8F0058EA900334F030E701E4251204D5120439
:100D9F0020050114120F66E4C0E0120FF090033427
:100DAF00E0601320E70714F0120BEA802204F0D062
:100DBF00E014C0E07F00120BEAE5126007120BE1AE
:100DCF001512800B300503120BE1D0E0020C3CD062
:100DDF00E00480C4120F48609EE51204120458907C
:100DEF000334EAF0E5122005026001042404120F17
:010DFF00668D
:100E000074FF04C0E0120FF0120BEAE51220050295
:100E10006003120BE1D0E0B512E87F45120BF490AD
:100E20000334E07F2B30E7047F2DF404C0E0120C84
:100E300002D0E075F00A84C0F0120BEBD0E0120B88
:100E4000EB020C3C791080027908C206C2088008C7
:100E5000D2D5790A8004790AC2D5E512047002F568
:100E600012E4FAFDFEFF120BBFFC7B0820011312F7
:100E70000BBFFD7B1030000A120BBFFE120BBFFF31
:100E80007B20EC3382D592D55013C3E43000069F0B
:100E9000FFE49EFEE42001039DFDE49CFCE4CBF80E
:100EA000C201EC700CCFCECDCCE824F8F870F38002
:100EB00017C3EF33FFEE33FEED33FDEC33FCEB33C2
:100EC000FB994002FB0FD8E9EB300105F8D0E0C4F4
:100ED00048B201C0E00AEC4D4E4F78207B0070C252
:100EE000EAB5120040BCC0E0120F68D0F0D0E0209C
:100EF0000104C4C0E0C4B201C0F0120BEBD0F0D5C5
:100F0000F0EB020C3C1208AA0CD9530E44580CAA60
:100F10004C0CA6420E484F0E50440E50490CBF4395
:100F20000E56550D83460DE3450D4D471023500CCD
:100F3000AE2D0CB22E0CD52B0CB6230CD320100CDE
:100F40002A0C6E4800000CCDE512B4FF03751206A2
:100F5000120BBFFC120BBFFD120BBFFE120BBFFF2B
:100F600090032D020495790AA2D5200314300509B7
:100F7000B910020404B9080104A2D52006025001E8
:100F8000042002689202B511005034C0E07F203086
:100F900003197F30A20272067205500F120FBFC2F2
:100FA00002C206C205C2087F30800F300503E9C0C7
:100FB000E0120C02300503D0E0F9D0E0B511CC30DE
:100FC00005177F30B9100C120C027F583004077FD0
:100FD000788003B90803120C023002057F2D020C41
:100FE000027F202008F87F2B2006F322920280CF78
:100FF0007F00B40700500B242DF582E43403F58301
:10100000E0FF22286E756C6C2900D201120BBF30F4
:1010100001F8C201781130D50108F6020C6E2D508E
:10102000434958120BBF2403B405004001E490105B
:101030001E93120BF3743A120BF3D20375110402D0
:021040000E445C
:101E51000203D622EDA2E7D2E7F9EC3340F260F3B8
:101E6100B4FF08ED547F70E80203E0F82481C2E07A
:101E7100C0E0F40428FAC313FCED92E7FD9002FFE1
:101E810012084DEEA2E7E9BA7F02C31334009400B1
:101E9100FA75F091A4E5F013F494FE8AF0A433E509
:101EA100F033248CD313FDE492E7FE7F007C3F7571
:101EB1008302ECC0E0F8EDC0E0F9EEC0E0FAEFC05B
:101EC100E0FB8583F09002FF1207FC85F08312028C
:101ED1008FD0E0FBD0E0FAD0E0F9D0E0F812009525
:101EE100ED6480FD30E7011CD583C7ED33CC33F8B9
:0C1EF100D0E0A2E71328C313CC13FD229D
:102042009002FF12084D900303E0F8A3E0F9A3E029
:10205200FAA3E0FB9002FFE0FCA3E0FDA3E0FEA3F5
:10206200E0FF12028F121ACE9002FF12084D900367
:1020720003E030E7599002FFE0FCA3E0FDA3E0FE9D
:10208200A3E0FFECC0E0EDC0E0EEC0E0EFC0E0E4B2
:10209200FFFEFDFC9002FFE0F8A3E0F9A3E0FAA343
:1020A200E0FB1203EB7BDB600250087A0F79497880
:1020B2004080067A0F794978C0D0E0FFD0E0FED0A8
:1020C200E0FDD0E0FC1200959002FF12084D900254
:0D20D200FFE0FCA3E0FDA3E0FEA3E0FF2281
:10161C003A70FA83BCAAE9E43E81E0F8BF9DE9E6A2
:10162C003F80000039283C1ABB9969663DA335E31D
:10163C00BF255DE73FC90FDB418DDBCCC44936EEDE
:10164C0045C9913FC5B0F83D3F800000C317F53444
:10165C00452FFA73C60AFDDD12172504A2E192008C
:10166C001420E01590161C740412059A8030121781
:10167C002530E102B20020E0EBA883A9829002FFA2
:10168C0012084D89828883901630740412059A854D
:10169C0082F09002FF12082585F082120186ED4C33
:1016AC006007300004EC6480FC22121725C0E0A80F
:1016BC0083A9829002FF12084D8982888390165468
:1016CC00740312059A8582F09002FF12082585F0AA
:1016DC00821201869002FFE0CCF0A3E0CDF0A3E0F3
:1016EC00CEF0A3E0CFF0901644740312059AD0828A
:1016FC008582F09002FF12082585F082E58230E0A9
:10170C000712028FB2008096EFCBFFEECAFEEDC936
:10171C00FDECC8FC12028F8085ED33EC547FCC338A
:10172C00920024605007D0E0D0E00203D67B837A8D
:10173C00F97922783E120186EDF933ECF8332481E5
:10174C005011EFFBEEFA12036A12032CECB2E7FC19
:10175C00120095ED33EC33602F2403F8C313FCED2A
:10176C0092E7FDE82481E4501FECF8EDF9EEFAEF76
:10177C00FB12036AEF04C2E0FCF582120336ECB2F2
:10178C00E7FC120095E58203FAED33EC33600714A5
:08179C0013FCED92E7FDEA22C7
:1003A100E9D2E7C933E833F892D5EDD2E7CD33ECA2
:0703B10033FC5002B2D5221B
:1003B800EC30E7100FBF000C0EBE00080DBD0004A6
:1003C8000BEB6014A2D5EB13FCED92E7FD2274FF52
:1003D800FCFDFEFF22E480F8A2D574FF13FC7D80AB
:0303E800E480EFBF
:1003EB0074F8CC6480CCC86480C8F582046043C3C5
:1003FB00EB9FF5F0EA9E42F0E99D42F0E89C45F058
:10040B0060305018E5825FFFE582F42B5582FB507C
:10041B00210ABA001D09B90019088016E5825BFB99
:10042B00E582F42F5582FF50090EBE00050DBD006D
:10043B00010CC3EB9FF5F0EA9E42F0E99D42F0E818
:0D044B009C45F06007CC4820E701B3EC228F
:10045800F920E73624F950037907E4F42402FBE590
:1004680082158270021583DBF6E024FB501BE960DD
:1004780014E4F0E582158270021583E004F0B40AF2
:0D04880008E4F0D9EE7401F00A22C2D5227A
:10049500ED33EC3392D5FA602AB4FF33EDC2E77B36
:1004A500FF60067A0479BAE4227A0479C320D50478
:1004B5007A0479BE224E614E002B494E46002D49E5
:1004C5004E4600E47A08F0A3DAFC7B00740722C0EC
:1004D50083C082ECC0E0EDC0E0EEC0E0EFC0E0EA32
:1004E50075F010A4CAABF075F04DA42BFBE435F004
:1004F500FCEA2410FAEB34C5FBEC34D9FCEDC2E779
:10050500FF75F056A4F42411C5F0F434C58FF0A49A
:100515002AE5F03BE43CF020E714120617D0E0FF93
:10052500D0E0FED0E0FDD0E0FC12028F8014F40490
:10053500120617D0E0FFD0E0FED0E0FDD0E0FC12BF
:100545000186D082D083E0FAEDD2E7CD33EC3324B7
:1005550082FBE4C3CF33CFCE33CECD33CD33DBF304
:100565007B0775F00A846004F0A31B0AE5F0F0A38D
:100575008FF0740AA4FFACF08EF0740AA42CFEACC4
:10058500F050010C8DF0740AA42CFDE435F0F0A3B5
:05059500DBDE7407220B
:10059A00C0E0EFFBEEFAEDF9ECF8120186D0E0F5D7
:1005AA00F0EFFBEEFAEDF9ECF8120808A3A3A3A307
:1005BA00E8C0E0E9C0E0EAC0E0EBC0E0C0F0120148
:1005CA0086120831A3A3A3A3120095D0F0D0E0FBB2
:0D05DA00D0E0FAD0E0F9D0E0F8D5F0D4225E
:101AAE00BE1249253E4CCCCDBEAAAAAB3F8000004B
:101ABE003E7ADBB03EED63383F24BC7D3F490FDB01
:101ACE00ED33ECC2E7CC339200B4FF13ED547F60DC
:101ADE00030203D67FDB7E0F7DC97C3F021BC3C290
:101AEE0001C3947F401E7007EDD2E794904015EF2E
:101AFE00FBEEFAEDF9ECF87F007E007D807C3F1264
:101B0E00028FD201ED33EC33248430E705E4C0E0DC
:101B1E00806B04FAEDD2E754F0C333DAFD54073488
:101B2E00002323C0E0CCC0E0F8EDC0E0F9EEC0E049
:101B3E00FAEFC0E0FBE4120336EC24FEFC90030740
:101B4E0012084D1201867B007A007980783F1200D0
:101B5E0095900307E0B2E7CCF0A3E0CDF0A3E0CE82
:101B6E00F0A3E0CFF0D0E0FBD0E0FAD0E0F9D0E087
:101B7E00F812009590030712082512028F900307A2
:101B8E0012084D901AAE740312059A9003071208AC
:101B9E0025120186D0E0600F24BAF582E4341AF5DE
:101BAE008312083112009530010B7BDB7A0F79C955
:101BBE0078BF120095ED33EC336006ECA20092E78D
:021BCE00FC22F7
:1005E7003F8000004120000042C80000447A00001C
:1005F700461C400047C35000497424004B1896809E
:100607004CBEBC205A0E1BCA6753C21C749DC5AE94
:10061700FB60065407601C2323120645EB54386021
:1006270009120631120640120186ECF8EDF9EEFACE
:10063700EFCB22EB12064080F1543803241C9005BF
:10064700E7FE93FC0EEE93FD0EEE930ECE93FF2284
:03000000022208D1
:0C220800787FE4F6D8FD75812102224F9A
:10065700BB010689828A83E0225002E722BBFE02A1
:09066700E32289828A83E49322D4
:10067000BB010CE58229F582E5833AF583E022503F
:1006800006E92582F8E622BBFE06E92582F8E22289
:0D069000E58229F582E5833AF583E49322A3
:10069D00BB010689828A83F0225002F722BBFE013C
:0206AD00F32236
:1006AF00EF8DF0A4A8F0CF8CF0A428CE8DF0A42E5F
:0206BF00FE2219
:1006C100C2D5EC30E709B2D5E4C39DFDE49CFCEE54
:1006D10030E715B2D5E4C39FFFE49EFE120B54C36D
:1006E100E49DFDE49CFC8003120B5430D507C3E468
:0606F1009FFFE49EFE22C3
:1006F700A3F8E0C5F025F0F0E582158270021583B6
:06070700E0C838F0E82212
:10070D0075F008758200EF2FFFEE33FECD33CDCCA3
:10071D0033CCC58233C5829BED9AEC99E582984026
:10072D000CF582EE9BFEED9AFDEC99FC0FD5F0D603
:10073D00E4CEFBE4CDFAE4CCF9A88222B800C1B92D
:10074D000059BA002DEC8BF084CFCECDFCE5F0CB6B
:10075D00F97818EF2FFFEE33FEED33FDEC33FCEBA4
:10076D0033FB10D703994004EB99FB0FD8E5E4F95F
:10077D00FA227818EF2FFFEE33FEED33FDEC33FC4C
:10078D00C933C910D7059BE99A4007EC9BFCE99A40
:10079D00F90FD8E0E4C9FAE4CCFB2275F010EF2F85
:1007AD00FFEE33FEED33FDCC33CCC833C810D70785
:1007BD009BEC9AE899400AED9BFDEC9AFCE899F8C0
:0E07CD000FD5F0DAE4CDFBE4CCFAE4C8F92253
:0E07DB00C3E49FFFE49EFEE49DFDE49CFC222F
:1007E900E8600FECC313FCED13FDEE13FEEF13FFEE
:0307F900D8F12212
:0C07FC00E0FCA3E0FDA3E0FEA3E0FF2270
:10080800E493FC740193FD740293FE740393FF2236
:0D081800E6FB08E6F908E6FA08E6CBF82250
:0C082500E0F8A3E0F9A3E0FAA3E0FB2256
:10083100E493F8740193F9740293FA740393FB221D
:0C084100ECF608EDF608EEF608EFF622E3
:0C084D00ECF0A3EDF0A3EEF0A3EFF0221E
:10085900A8828583F0D083D08212087012087012A2
:100869000870120870E473E493A3C583C5F0C583C7
:10087900C8C582C8F0A3C583C5F0C583C8C582C8E9
:01088900224C
:10088A00F8E0FBA3A3E0F925F0F0E58215827002F7
:07089A001583E0FA38F0229B
:0908A100EBF0A3EAF0A3E9F02258
:1008AA00D083D082F8E4937012740193700DA3A3DD
:1008BA0093F8740193F5828883E4737402936860F1
:0608CA00EFA3A3A380DFF1
:102A0600EFB40A07740D122A11740A309811A899A6
:102A1600B8130CC2983098FDA899C298B811F63030
:072A260099FDC299F5992208
:1023FC00900305EBF0A3EAF0A3E9F090030BEBF0EC
:10240C00A3EAF0A3E9F0900305E0FBA3E475F00167
:10241C001206F7A9F0FA12065770EB90030674FF38
:10242C00F5F0120BA9900308E0FBA3E475F0011280
:10243C0006F7A9F0FA120657FF900305E0FBA3E498
:10244C0075F0011206F7A9F0FAEF12069D70D690FE
:0B245C00030BE0FBA3E0FAA3E0F92271
:1008D000E3F5F009E208B5F06D606B80F3E3F5F045
:1008E00009E608B5F060605E80F387F009E608B5B8
:1008F000F054605280F487F009E208B5F048604691
:1009000080F488828C8387F009E0A3B5F0386036E4
:1009100080F488828C8387F009E493A3B5F0276084
:100920002580F388828C83E3F5F009E0A3B5F01607
:10093000601480F388828C83E3F5F009E493A3B517
:10094000F004600280F20209FB808580E7808E80DF
:10095000D2803C8015806C807E809B80B5808B80AF
:10096000A1804F8070803A020A0789828A83ECFA5C
:10097000E493F5F0A3C8C582C8CCC583CCE493A3A7
:10098000C8C582C8CCC583CCB5F070606E80E189E3
:10099000828A83E493F5F0A3E208B5F05E605C80A0
:1009A000F289828A83E0F5F0A3E608B5F04D604B4A
:1009B00080F389828A83E0F5F0A3E208B5F03C6019
:1009C0003A80F389828A83E493F5F0A3E608B5F0D0
:1009D0002A602880F2805389828A83ECFAE493F5B6
:1009E000F0A3C8C582C8CCC583CCE0A3C8C582C863
:1009F000CCC583CCB5F004600280E27FFFB5F00285
:100A00000F2240027F012289828A83ECFAE0F5F00E
:100A1000A3C8C582C8CCC583CCE0A3C8C582C8CC56
:100A2000C583CCB5F0D560D380E389828A83ECFAA4
:100A3000E0F5F0A3C8C582C8CCC583CCE493A3C8B5
:100A4000C582C8CCC583CCB5F0B160AF80E288F078
:100A5000ED2402B4040050A3F582EB2402B4040098
:0B0A600050992323458223900949731D
:100A6B00E709F60870FA8046E709F20870FA803E4B
:100A7B0088828C83E709F0A370FA807EE309F6087D
:100A8B0070FA8076E309F20870FA806E88828C83A4
:100A9B00E309F0A370FA806289828A83E0A3F608E7
:100AAB0070FA805689828A83E0A3F20870FA804A32
:100ABB0080D280FA80C680D4806580F2803180102D
:100ACB0080A680EA809A80A880DA80E280CA803192
:100ADB0089828A83ECFAE493A3C8C582C8CCC58308
:100AEB00CCF0A3C8C582C8CCC583CC70E9800D8976
:100AFB00828A83E493A3F60870F9ECFAA9F0EDFB74
:100B0B002289828A83ECFAE0A3C8C582C8CCC5834C
:100B1B00CCF0A3C8C582C8CCC583CC70EA80DD8974
:100B2B00828A83E493A3F20870F980CE88F0ED24D7
:100B3B0002B4040050C4F582EB2402B4040050BA92
:090B4B002323458223900ABB73A9
:102C2E00E4FFFE120657600C0FEF70010E09E970FB
:052C3E00F20A80EF2204
:101CD600900316EBF0A3EAF0A3E9F0A3E0FBA3E080
:101CE600FAA3E0F91206577003021D82900316E06C
:101CF600FBA3E0FAA3E0F91206577003021D8E90CB
:101D06000319E0F9A3E0FAA3E0A3C9F0A3EAF0A35C
:101D1600E9F0900316A3E0FAA3E0F990031FEBF0B5
:101D2600A3EAF0A3E9F090031CE0FBA3E0FAA3E02A
:101D3600F9120657FF602690031FE0FBA3E0FAA303
:101D4600E0F91206576F701590031D75F001120B1E
:101D5600A9900320E475F001120BA980C990031C19
:101D6600E0FBA3E0FAA3E0F91206577002800D909B
:101D76000317E475F001120BA9021CF2900316E09A
:0F1D8600FBA3E0FAA3E0F9227B007A00790022A8
:10221400022DDFE493A3F8E493A34003F68001F2D4
:1022240008DFF48029E493A3F85407240CC8C333CB
:10223400C4540F4420C8834004F456800146F6DF9A
:10224400E4800B010204081020408090133BE47EDC
:10225400019360BCA3FF543F30E509541FFEE4938F
:10226400A360010ECF54C025E060A840B8E493A356
:10227400FAE493A3F8E493A3C8C582C8CAC583CA81
:10228400F0A3C8C582C8CAC583CADFE9DEE780BE39
:01161B0000CE
:100B5400BC000BBE0029EF8DF084FFADF022E4CC85
:100B6400F875F008EF2FFFEE33FEEC33FCEE9DEC4E
:100B7400984005FCEE9DFE0FD5F0E9E4CEFD22ED94
:100B8400F8F5F0EE8420D21CFEADF075F008EF2FDE
:100B9400FFED33FD4007985006D5F0F222C398FDCF
:050BA4000FD5F0EA226C
:100BA900C5F0F8A3E028F0C5F0F8E58215827002D7
:060BB9001583E038F02274
:00000001FF
