:101F1300900218EFF0A3EDF012220C7F1A1221C2E7
:101F2300122215900218E0FF1221C212221590020C
:0C1F330019E0FF1221C212221502221E2A
:101F8E00900222EFF012220C7F1A1221C212221599
:101F9E007FB01221C2122215900222E0FF1221C23E
:061FAE0012221502221EA2
:10202100121F8E12220C7F1B1221C21222151221A5
:1020310095900223EFF01221A412221E900223E0B8
:01204100FF9F
:01204200227B
:04128B0041021B0001
:06225100759850022130D7
:082242008F993099FDC2992229
:061EA1009001F81207B0E9
:101EA700E4FB9001FCE0FFEBC39F50289001F8A3EF
:101EB700A3A3E0FAFF1222429001F8E0FCA3E0FDA1
:101EC700A3E0FEA3E0FF780812074C9001F8120781
:041ED700B00B80CEFE
:011EDB0022E4
:10210A001205CCFF600C122242740129F9E43AFA52
:03211A0080EE2232
:06225700759A50022202FC
:0B21F7008F9BE59A30E1FB539AFD221C
:10211D001205CCFF600C1221F7740129F9E43AFA8B
:03212D0080EE221F
:1020F600E59A30E00C539AFE90021AE59BF0E0FF59
:04210600227F002212
:0F21770075BAB090FE8074E0F090FE82E4F02222
:0F21860090FE82E030E6F990FE82E054BFF02236
:09220C0090FE817401F0022186AC
:0E21C20090FE86EFF090FE817402F0022186FE
:0922150090FE817403F0022186A1
:0F21950090FE817404F012218690FE87E0FF22F5
:0E21D00090FE82E4F090FE817405F0022186FC
:0F21A40090FE827401F090FE817405F002218696
:09221E0090FE817406F002218695
:10213000538EFE53890F438E40758DFD758B8FD264
:022140008E22ED
:0A220200438E1475D6FD75D78E22A9
:0C21DE007F867E0C7D49DDFEDEFADFF618
:0121EA0022D2
:101FB400EF1FAC0670011E4C601A00000000000008
:101FC400000000000000000000000000000000000D
:051FD400000080DC228A
:102142007FCD7EE67DFDDDFEDEFADFF67F0EDFFE71
:01215200008C
:012153002269
:082227007F78AE071FEE70FA8C
:01222F00228C
:10204300E4FDFCC3ED9FEC9E5015E4FBFA0BBB00D3
:0F205300010ABA5DF8BBC0F50DBD00010C80E4B9
:01206200225B
:07224A00759124E4F59222D6
:101FD90075DE2FEF4480F5BC43BC400000E5BC3002
:101FE900E5FB53BCDFAFBDEFFEADBE7C00E42DFFCA
:031FF900EC3EFEBD
:011FFC0022C2
:06225D0075AF01D2AF22B3
:10206300D2947F0A7E00121FB4C2947F207E031293
:0E2073001FB4D2947F587E02121FB47F012248
:051D5C00900215EFF0FC
:101D6100E4A3F0900215E05401900217F0C2947FB1
:101D71000F7E00121FB4900215E01392947F2D7E06
:101D810000121FB4D2947F0A7E00121FB490021574
:0E1D9100E0C313F0A3E004F0E0C3940840C5E3
:011D9F002221
:101DE300E490021CF090021DE0C313F0C2947F0242
:101DF3007E00121FB4D2947F047E00121FB430946D
:101E03000890021DE04480F0F07F1E7E00121FB494
:101E130090021CE004F0E0C3940840C990021DE066
:011E2300FFBF
:011E2400229B
:1020B500122063EF600D7FCC121D5C7F44121D5C06
:0520C5007F01227F00F5
:0120CA0022F3
:1019C6009001FD1207BC00000000122063EF601CAE
:1019D6007FCC121D5C7FBE121D5C121DE3900203BC
:1019E600EFF0121DE3900204EFF0D294900204E0AF
:1019F600FF900201E4F0A3EFF0E07F00FE90020109
:101A0600F0A3EFF0A3E0FDEDFF900201EEF0A3EFEF
:101A1600F0AC06EC1202A6E4FBFA7980783D1200DF
:101A2600FB9001FD1207B0E4FFFE7D207C41900192
:101A3600FDE0F8A3E0F9A3E0FAA3E0FB1200FBE463
:101A4600FBFAF9783F12000A1202DF900201EEF06B
:031A5600A3EFF00B
:011A5900226A
:101C42007D0E7F82121F137DA67F83121F13E4FD78
:101C52007F84121F13E4FD7F85121F13E4FD7F862C
:101C6200121F137D647F87121F13E4FD7F88121FEA
:101C7200137D647F89121F13E4FD7F8A121F137D77
:101C8200647F8B121F137DB17F80121F13E4FD7FCF
:101C920081121F137D117F80121F131221DE7D21FD
:051CA2007F80021F130A
:101CA7007D937F80121F137F8F122021EF30E0F783
:101CB7007F92122021EF7F00FEC006C0077F93129C
:101CC7002021EFFDD0E02DFFD0E03400FEEF7802B9
:101CD700C333CE33CED8F9FF9001B0EEF0A3EFF0C7
:101CE7009001B0E0FEA3E07802CEA2E713CE13D8AE
:101CF700F8FF7C007D201206249001B0EEF0A3EFE0
:011D0700F0EB
:011D080022B8
:100E0A00121C427F8F122021EF30E1F77F941220CB
:100E1A0021EF7F00FEC006C0077F95122021EFFD5B
:100E2A00D0E02DFED0E034009001AAF0A3CEF07FEE
:100E3A0096122021EF7F00FEC006C0077F9712207E
:100E4A0021EFFDD0E02DFFD0E03400FE9001BEF08E
:100E5A00A3EFF0FDAC06EC1202A6C004C005C00662
:100E6A00C0079001BEE0FCA3E0FDEC1202A6D0038D
:100E7A00D002D001D0001200FBC004C005C006C0D9
:100E8A00079001AAE0FCA3E0FDEC1202A6C004C090
:100E9A0005C006C0079001AAE0FCA3E0FDEC12021F
:100EAA00A6D003D002D001D0001200FBD003D0029A
:100EBA00D001D00012000A1218819001B61207B0B0
:100ECA00D39001ABE094009001AAE0648094804042
:100EDA00539001BEE0FCA3E0FDD39400EC6480943F
:100EEA00804041EC1202A6C004C005C006C00790AB
:100EFA0001AAE0FCA3E0FDEC1202A69001EE1207A3
:100F0A00B0D007D006D005D004121929E4FBFA792B
:100F1A003478431200FB7BDA7A0F7949784012025F
:100F2A0004021062C39001AAE064809480505C902D
:100F3A0001BEE0FCA3E0FD9400EC64809480404B89
:100F4A00EC1202A6C004C005C006C0079001AAE0C0
:100F5A00FCA3E0FDEC1202A69001EE1207B0D00746
:100F6A00D006D005D004121929E4FBFA7934784363
:100F7A001200FB7BDA7A0F79497840120204E4FB0B
:100F8A00FA7934784312000A021062C39001AAE087
:100F9A0064809480505A9001BEE0FCA3E0FDC3EC4B
:100FAA0064809480504AEC1202A6C004C005C006B0
:100FBA00C0079001AAE0FCA3E0FDEC1202A6900192
:100FCA00EE1207B0D007D006D005D004121929E4D2
:100FDA00FBFA793478431200FB7BDA7A0F79497885
:100FEA0040120204E4FBFA7934784312000A80685A
:100FFA00D39001ABE094009001AAE0648094804011
:10100A005D9001BEE0FCA3E0FDEC64809480504E4C
:10101A00EC1202A6C004C005C006C0079001AAE0EF
:10102A00FCA3E0FDEC1202A69001EE1207B0D00775
:10103A00D006D005D004121929E4FBFA7934784392
:10104A001200FB7BDA7A0F79497840120204E4FB3A
:10105A00FA79B4784312000A9001AC1207B09001F1
:10106A00B6E0F8A3E0F9A3E0FAA3E0FB7FF87E1369
:10107A007D647C4A1202049001BA1207B07FB87EDE
:10108A009E7D917CC39001ACE0F8A3E0F9A3E0FA5D
:10109A00A3E0FB12000A7BDA7A0F79497840120042
:1010AA00FBE4FBFA7934784312020412114B9001E3
:1010BA00BAE0F8A3E0F9A3E0FAA3E0FB1200FB7B95
:1010CA005C7A8F79D278C012000AA804A905AA0608
:1010DA00AB077F807E1A7D837C491202049001B29D
:1010EA001207B07DA17F80121F139001B2E0FCA30A
:0810FA00E0FDA3E0FEA3E0FF0E
:0111020022CA
:0F21B300D286D287122227C286122227C2872203
:10216600C286D287122227D286122227C28702224D
:012176002741
:1020CB00EF30E004D2868002C286D287122227C26A
:0620DB0087D286022227D5
:101FFD00E4900176F0D286D287122227900176E006
:10200D00FFA286E433FEEF4EF0122227C287900125
:03201D0076E0FF6B
:01202000229D
:051EDC00900174EFF01D
:101EE100E4A3F0900174E030E704D2868002C28658
:101EF100122227D287122227C28712222790017429
:101F0100E0FF25E0F0A3E004F0E0C3940840D40230
:021F11001FFDB2
:101E6400E490021EF0A3F0D28690021EF0D28712F4
:101E7400222790021FE0FFA286E433FEEF4EF0C259
:101E84008712222790021FE025E0F090021EE00452
:0C1E9400F0E0C3940840D690021FE0FF6D
:011EA000221F
:10209D00900173EFF01221B37F46121EDC90017395
:0820AD00E0FF121EDC022166B7
:101DA0001221B37F47121EDCE4900224F0121E645D
:101DB000900224E0FE24DAF582E43401F583EFF0AA
:101DC000EEB403047F018002E4FF1220CB900224D2
:101DD000E004F0E0C3940340D41221667F057E0046
:031DE0000220439B
:052269007F0102209D31
:101B67007F0112209D7F1012209D7FC87E001220CA
:101B770043121DA0E4FF12209D9001DAE0FF9001BF
:101B8700D8E4F0A3EFF0E0FE9001DBE07C00240056
:101B9700FFEC3EFE9001D8F0A3EFF0FDAC06E41297
:101BA70002A67B9A7A997999783F120204900205E6
:101BB7001207B07F337E337DB37C3F900205E0F898
:0F1BC700A3E0F9A3E0FAA3E0FB1200FB1202DF98
:011BD60022EC
:102081007F02121FD9AD07AC06E41202A67BE67AE5
:0B2091003F791C78401200FB1202DFB8
:01209C002221
:10128F00021500000411C126C083040D46DDC97785
:10150D009001E27407F0A37432F09001E67423F0B9
:10151D00A374DCF09001E47409F0A37425F090013C
:10152D00E8740FF0A374A0F074326425700474078E
:10153D00640970030216129001E8E0FEA3E0FFD3E8
:10154D009001E7E09FEE6480F89001E6E0648098FA
:10155D0040339001E2E0FEA3E0FF9001E5E09FFD46
:10156D009001E4E09EFC1202A6C004C005C006C0B6
:10157D00079001E6E0FEA3E0FFC39001E9E09FFDC7
:10158D009001E880329001E4E0FEA3E0FFC39001FA
:10159D00E3E09FFD9001E2E09EFC1202A6C004C0B4
:1015AD0005C006C0079001E8E0FEA3E0FFC390016F
:1015BD00E7E09FFD9001E6E09EFC1202A6D003D06D
:1015CD0002D001D00012020478111207A49001E29A
:1015DD00E0FCA3E0FDEC1202A6781112077B1200CD
:1015ED00FBC004C005C006C0079001E6E0FCA3E007
:1015FD00FDEC1202A6D003D002D001D000120006DD
:06160D00780D1207A42273
:051AE6009001F2EFF099
:101AEB009001F41207BC00000000E49001F3F090A9
:101AFB0001F4E0F8A3E0F9A3E0FAA3E0FBC000C017
:101B0B0001C002C0039001F2E0FF121FD9E4FCFDFB
:101B1B00D003D002D001D000EB2FFFEA3EFEED390F
:101B2B00FDEC38FC9001F41207B0E4FFFE0FBF0090
:101B3B00010EBE03F8BFE8F59001F3E004F0E0C33B
:101B4B00946440ABE47B64FAF9F89001F4E0FCA3F5
:0B1B5B00E0FDA3E0FEA3E0FF1206ACDB
:011B6600225C
:101F3F007F05121AE6AD07AC06E41202A67811125D
:101F4F00077B1200FB780D12077B12000A1202DFCB
:071F5F007815EEF608EFF61D
:011F66002258
:03226E00256400E4
:10129F00606E00A47B2274223A20312C2264657682
:1012AF00696365223A2022426C75654265727279D4
:1012BF00222C226B6579223A2264396238643534E4
:1012CF003936373765343264393839663335343027
:1012DF00316236633037393066222C2276657222BE
:1012EF003A2276312E30227D0000000000000000EF
:1012FF0000000000000000000000000000000000DF
:10130F000000606400007B2274223A332C22646157
:10131F00746174797065223A312C2264617461733F
:10132F00223A7B22506800000000000000000000FD
:10133F00000000000000000000000000000000009E
:10134F00000000000000000000000000000000008E
:10135F00000000000000000000000000000000007E
:10136F00000000000000000000004A0112223A3184
:10137F00390000000000004E01657D2C226D73675F
:10138F006964223A317D000047015E2423415423D2
:10139F000D00603F011F5068000000000000004C6E
:1013AF00697175696454000048756D696469747971
:1013BF00004C757800000000000054656D7000004F
:1013CF00000000454300000000000000434F3200C2
:0B13DF00000000000043011C0100643E
:101D0900E4900220F0A3F01220F6EF702290022155
:101D1900E004F07006900220E004F0D3900221E084
:101D2900942C900220E06480948140DE7F00229010
:101D3900011CE0FBA3E0FAA3E0F9EF1206129001FF
:101D49001CE0FBA3E475F00112065A45F04B70EE56
:021D59007F0108
:011D5B002265
:0B17C0009001C0EBF0A3EAF0A3E9F0F9
:1017CB009001C0E0F9A3E0FAA3E09001CFC9F0A328
:1017DB00EAF0A3E9F090011CE0FBA3E0FAA3E0F927
:1017EB001217019001C6EBF0A3EAF0A3E9F0900108
:1017FB00C0E0FBA3E0FAA3E0F91220E19001C6E000
:10180B00FBA3E0FAA3E0F9EF3395E0FEE92FF9EA49
:10181B003EFAA3EBF0A3EAF0A3E9F09001C6A3E034
:10182B00FAA3E0F94A603F90FFFF1205E5642270CE
:10183B00359001C9E0FBA3E0FAA3E0F91205CCB4A3
:10184B0022249000011205E5B43A1B900002120508
:10185B00E5B42212E92402F9E43AFA9001C3EBF061
:10186B00A3EAF0A3E9F09001C3A3E0FAA3E0AE0270
:01187B00FF6D
:01187C002249
:092230007B017A0079A402211D52
:092239007B017A01795E02211D8E
:08161300900177ECF0A3EDF06B
:10161B00EFB4070040030216A390162BF82828738B
:10162B0002164002164E02165C02166A0216780269
:10163B001686021694781E7C007D017B017A017957
:10164B001F8052781E7C007D017B017A01792880F6
:10165B0044781E7C007D017B017A017931803678DC
:10166B001E7C007D017B017A01793A8028781E7CF3
:10167B00007D017B017A017943801A781E7C007D05
:10168B00017B017A01794C800C781E7C007D017BFB
:10169B00017A0179551208FF90017D74FFF0A37454
:1016AB0022F0A3746EF0900177E0FFA3E09001802D
:1016BB00CFF0A3EFF07B017A0179141209EC9001C2
:1016CB0079EFF090017D7401F0A37401F0A3741213
:1016DB00F07B017A007900121BD790017D7401F029
:1016EB00A37401F0A37465F07B017A007900121BDF
:0516FB00D77E007F0016
:0117000022C6
:0C21EB001216137B017A00790002211DFE
:1021540012217712225112226912224A12150D02FB
:02216400225700
:101E25009001731207BC00000000C2A612214212E5
:101E35002142122142122230122142122142E4FD96
:101E4500FC7F011221EB1221427D017C007F0512EE
:0F1E550021EB122142122239122142B2A680D370
:06226300122154021E25A9
:1000030002034BE86480F8E933E83360110460F0DD
:10001300ED33EC337009E8FCE9FDEAFEEBFF220463
:1000230060DED3EB9FEA9EE99DE8C2E78CF0C2F75E
:1000330095F0400CE8CCF8E9CDF9EACEFAEBCFFB2A
:1000430012031685D0F05804700320D5B3E804706A
:10005300075002B2D502035592D5EC0460F7E4CC05
:10006300C0E0C398F8603B94186008400DD0E0FBF3
:1000730002032DE4FBFAC9FC8028E830E406E4C956
:10008300FBE4CAFCE830E305E4C9CACBFCE8540747
:100093006010F8C3E913F9EA13FAEB13FBEC13FC52
:1000A300D8F130F52FC3E49CFCEF9BFFEE9AFEEDF5
:1000B30099FDD0E0FBEF4E4D4C701222DB0302039F
:1000C30052EC2CFCEF33FFEE33FEED33FDED30E766
:1000D300EB02032DEF2BFFEE3AFEED39FDD0E0FBF3
:1000E30050130BBB0003020355ED13FDEE13FEEF9C
:0800F30013FFEC13FC02032DC6
:1000FB00EC4D6011E8497017ED33EC3304600DE4FF
:10010B00FCFFFEFD22E933E8330470F802034B12C7
:10011B00031658046009E4CC2481500628500902C8
:10012B000355284003020352C0E0EB4A7044B980E8
:10013B0006D0E0FB020341EF4E701CBD8008EBFFC5
:10014B00EAFEE9FD80EBE98DF0A4FEE5F00201E4A7
:10015B00E9CDF9EAFEEBFFEF89F0A4FCE5F0CE89DF
:10016B00F0A42EFFE435F0CD89F0A42DFEE435F09C
:10017B008067EF4E7005BD80D780C3EF8BF0A4ACCA
:10018B00F0EE8BF0A42CFCE435F0F8EF8AF0A42C05
:10019B00E5F038FCE433CB8DF0A42CFCE5F03BF818
:1001AB00EE8AF0A42CFCE5F038F8E433CF89F0A408
:1001BB002CFCE5F038CF3400CE89F0A42FFFE5F00E
:1001CB003EFEE433C98DF0A42EFEE5F039CD8AF066
:1001DB00A42FFFE5F03EFEE43DFD33D0E0FB5007DE
:1001EB000BBB000F020355EC2CFCEF33FFEE33FE81
:0601FB00ED33FD02032DAF
:10020100020355EC5D046005E85904700302034BD9
:10021100120316580460F6EC4860F2EC7004FDFE1F
:10022100FF22C860DB2481C85009C39860025006D0
:100231000203529850CAF582E9294B4A7005AB82F4
:1002410002034175F0007C1A7880C3EF9BEE9AEDB2
:1002510099400DC3EF9BFFEE9AFEED99FDE842F048
:10026100DC23ACF0D0E0FFD0E0FED0E0FDAB82209B
:10027100E7101BEB60BAEC2CFCEF33FFEE33FEED25
:1002810033FD02032DE803F830E705C0F075F000F7
:10029100EF2FFFEE33FEED33FD40B830E7C280AA09
:1002A10075F020800E75F010800575F0087D007ED8
:1002B100007F003392D530D50312073EEC33401056
:1002C100EF33FFEE33FEED33FDEC33FCD5F0ED22E1
:0E02D100E5F0247EA2D513CC92E7CDCEFF221D
:1002DF00EDD2E7CD33EC3392D524814006E4FFFE17
:1002EF00FDFC22FCE4CFCECDCC24E0501174FF8076
:1002FF00EDC3CC13CCCD13CDCE13CECF13CF047013
:07030F00F030D5DE02073ECD
:10098700E508247DF582E43401F583E0050822902B
:10099700017A30070390017DE475F0011207ED023B
:1009A70005CC2000E97F2ED2008018EF540F249049
:1009B700D43440D4FF30040BEF24BFB41A005003E3
:1009C7002461FFE50960021509050CE50C700205B5
:1009D7000B30070E90017AE475F0011207EDEF0274
:1009E7000612021F677403D2078003E4C207F508E3
:1009F70090017A120804E4F509F50BF50CE5096096
:100A0700077F201209CA80F5750AFFC201C200C21A
:100A170002C203C205C206C208120996FF700D3052
:100A270007057F001209DBAF0CAE0B22B4255FC2AE
:100A3700D5C204120996FF24D0B40A00501A75F0E3
:100A47000A780930D50508B6FF0106C6A426F620A0
:100A5700D5047002D20380D924CFB41A00EF500412
:100A6700C2E5D204020CCDD20180C6D20080C0D22A
:100A77000280BCD2D580BAD20580B47F201209CAC1
:100A87002002077401B5090040F1120987FF120916
:100A9700CA020A04D208D2068095120987FB1209F6
:100AA70087FA120987F94A4B700679CB7A0D7BFFD3
:100AB70020022EE509602A7E008E827583001205CA
:100AC700E560060EEE650A70F0C2D5EBC0E0EAC03D
:100AD700E0E9C0E0EE120D2ED0E0F9D0E0FAD0E068
:100AE700FB1205CCFF60AAEBC0E0EAC0E0E9C0E07A
:100AF7001209CAD0E02401F9D0E03400FAD0E0FBB3
:100B0700E50A0460DCD50AD98087D20280A2120DDB
:100B17001060F7E50A7001041203CDA90A600DE51C
:100B27000A600914F50A120DB8EF60F3EA30E7021C
:100B3700F404C3995079EAF4250A0430E701E40480
:100B4700F50A800D120D1060C1EA050A250A120385
:100B5700CDEA9001A9F030E701E4250A04D50A049B
:100B670020050114120D2EE4C0E0120DB89001A962
:100B7700E0601320E70714F01209B2802204F0D0D6
:100B8700E014C0E07F001209B2E50A60071209A964
:100B9700150A800B3005031209A9D0E0020A04D018
:100BA700E00480C4120D10609EE50A041203CD9084
:100BB70001A9EAF0E50A2005026001042404120DE8
:010BC7002EFF
:100BC80074FF04C0E0120DB81209B2E50A2005024C
:100BD80060031209A9D0E0B50AE87F451209BC9064
:100BE80001A9E07F2B30E7047F2DF404C0E012094F
:100BF800CAD0E075F00A84C0F01209B3D0E0120937
:100C0800B3020A04791080027908C206C208800873
:100C1800D2D5790A8004790AC2D5E50A047002F5AA
:100C28000AE4FAFDFEFF120987FC7B082001131273
:100C38000987FD7B1030000A120987FE120987FF19
:100C48007B20EC3382D592D55013C3E43000069F45
:100C5800FFE49EFEE42001039DFDE49CFCE4CBF848
:100C6800C201EC700CCFCECDCCE824F8F870F3803C
:100C780017C3EF33FFEE33FEED33FDEC33FCEB33FC
:100C8800FB994002FB0FD8E9EB300105F8D0E0C42E
:100C980048B201C0E00AEC4D4E4F78207B0070C28C
:100CA800EAB50A0040BCC0E0120D30D0F0D0E02018
:100CB8000104C4C0E0C4B201C0F01209B3D0F0D539
:100CC800F0EB020A0412080D0AA1530C0C580A7220
:100CD8004C0A6E420C104F0C18440C18490A8743F2
:100CE8000C1E550B4B460BAB450B15470DEB500A2D
:100CF800762D0A7A2E0A9D2B0A7E230A9B200DD474
:100D08002A0A364800000A95E50AB4FF03750A0660
:100D1800120987FC120987FD120987FE120987FF4D
:100D28009001A202040A790AA2D520031430050909
:100D3800B910020404B9080104A2D5200602500122
:100D4800042002689202B509005034C0E07F2030C8
:100D580003197F30A20272067205500F120D87C266
:100D680002C206C205C2087F30800F300503E9C001
:100D7800E01209CA300503D0E0F9D0E0B509CC305B
:100D880005177F30B9100C1209CA7F583004077F45
:100D9800788003B908031209CA3002057F2D0209B9
:100DA800CA7F202008F87F2B2006F322920280CFEA
:100DB8007F00B40700500B24A2F582E43401F583C8
:100DC800E0FF22286E756C6C2900D2011209873069
:100DD80001F8C201780930D50108F6020A362D500B
:100DE8004349581209872403B405004001E4900DD3
:100DF800E6931209BB743A1209BBD20375090402BF
:020E08000C0CD0
:10187D0002034B22EDA2E7D2E7F9EC3340F260F31D
:10188D00B4FF08ED547F70E8020355F82481C2E0DF
:10189D00C0E0F40428FAC313FCED92E7FD900209B1
:1018AD001207B0EEA2E7E9BA7F02C3133400940029
:1018BD00FA75F091A4E5F013F494FE8AF0A433E5E3
:1018CD00F033248CD313FDE492E7FE7F007C3F754B
:1018DD008302ECC0E0F8EDC0E0F9EEC0E0FAEFC035
:1018ED00E0FB8583F090020912075F85F0831202F9
:1018FD0004D0E0FBD0E0FAD0E0F9D0E0F812000A15
:10190D00ED6480FD30E7011CD583C7ED33CC33F892
:0C191D00D0E0A2E71328C313CC13FD2276
:101929009001EA1207B09001EEE0F8A3E0F9A3E014
:10193900FAA3E0FB9001EAE0FCA3E0FDA3E0FEA32B
:10194900E0FF12020412140B9001EA1207B0900191
:10195900EEE030E7599001EAE0FCA3E0FDA3E0FEE8
:10196900A3E0FFECC0E0EDC0E0EEC0E0EFC0E0E4D2
:10197900FFFEFDFC9001EAE0F8A3E0F9A3E0FAA379
:10198900E0FB1203607BDB600250087A0F7949782B
:101999004080067A0F794978C0D0E0FFD0E0FED0C8
:1019A900E0FDD0E0FC12000A9001EA1207B09001B4
:0D19B900EAE0FCA3E0FDA3E0FEA3E0FF22B6
:101103003A70FA83BCAAE9E43E81E0F8BF9DE9E6C0
:101113003F80000039283C1ABB9969663DA335E33B
:10112300BF255DE73FC90FDB418DDBCCC44936EEFC
:1011330045C9913FC5B0F83D3F800000C317F53462
:10114300452FFA73C60AFDDD12120C04A2E1920BBD
:101153001420E015901103740412050F803012124D
:101163000C30E102B20B20E0EBA883A98290020DC0
:101173001207B089828883901117740412050F85B2
:1011830082F090020D12078885F0821200FBED4C6D
:101193006007300B04EC6480FC2212120CC0E0A840
:1011A30083A98290020D1207B08982888390113B34
:1011B300740312050F8582F090020D12078885F0E3
:1011C300821200FB90020DE0CCF0A3E0CDF0A3E08F
:1011D300CEF0A3E0CFF090112B740312050FD08251
:1011E3008582F090020D12078885F082E58230E057
:1011F30007120204B20B8096EFCBFFEECAFEEDC9D5
:10120300FDECC8FC1202048085ED33EC547FCC3333
:10121300920B24605007D0E0D0E002034B7B837A2B
:10122300F97922783E1200FBEDF933ECF83324818F
:101233005011EFFBEEFA1202DF1202A1ECB2E7FC4F
:1012430012000AED33EC33602F2403F8C313FCEDD3
:1012530092E7FDE82481E4501FECF8EDF9EEFAEF94
:10126300FB1202DFEF04C2E0FCF5821202ABECB228
:10127300E7FC12000AE58203FAED33EC336007144E
:0812830013FCED92E7FDEA22E5
:10031600E9D2E7C933E833F892D5EDD2E7CD33EC2D
:0703260033FC5002B2D522A6
:10032D00EC30E7100FBF000C0EBE00080DBD000431
:10033D000BEB6014A2D5EB13FCED92E7FD2274FFDD
:10034D00FCFDFEFF22E480F8A2D574FF13FC7D8036
:03035D00E480EF4A
:1003600074F8CC6480CCC86480C8F582046043C350
:10037000EB9FF5F0EA9E42F0E99D42F0E89C45F0E3
:1003800060305018E5825FFFE582F42B5582FB5008
:10039000210ABA001D09B90019088016E5825BFB25
:1003A000E582F42F5582FF50090EBE00050DBD00F9
:1003B000010CC3EB9FF5F0EA9E42F0E99D42F0E8A4
:0D03C0009C45F06007CC4820E701B3EC221B
:1003CD00F920E73624F950037907E4F42402FBE51C
:1003DD0082158270021583DBF6E024FB501BE96069
:1003ED0014E4F0E582158270021583E004F0B40A7E
:0D03FD0008E4F0D9EE7401F00A22C2D52206
:10040A00ED33EC3392D5FA602AB4FF33EDC2E77BC1
:10041A00FF60067A04792FE4227A04793820D50419
:10042A007A047933224E614E002B494E46002D49FB
:10043A004E4600E47A08F0A3DAFC7B00740722C077
:10044A0083C082ECC0E0EDC0E0EEC0E0EFC0E0EABD
:10045A0075F010A4CAABF075F04DA42BFBE435F08F
:10046A00FCEA2410FAEB34C5FBEC34D9FCEDC2E704
:10047A00FF75F056A4F42411C5F0F434C58FF0A426
:10048A002AE5F03BE43CF020E71412058CD0E0FFAB
:10049A00D0E0FED0E0FDD0E0FC1202048014F404A7
:1004AA0012058CD0E0FFD0E0FED0E0FDD0E0FC12D7
:1004BA0000FBD082D083E0FAEDD2E7CD33EC3324CF
:1004CA0082FBE4C3CF33CFCE33CECD33CD33DBF390
:1004DA007B0775F00A846004F0A31B0AE5F0F0A319
:1004EA008FF0740AA4FFACF08EF0740AA42CFEAC50
:1004FA00F050010C8DF0740AA42CFDE435F0F0A341
:05050A00DBDE74072296
:10050F00C0E0EFFBEEFAEDF9ECF81200FBD0E0F5EE
:10051F00F0EFFBEEFAEDF9ECF812076BA3A3A3A330
:10052F00E8C0E0E9C0E0EAC0E0EBC0E0C0F01200D4
:10053F00FB120794A3A3A3A312000AD0F0D0E0FBF1
:0D054F00D0E0FAD0E0F9D0E0F8D5F0D422E9
:1013EB00BE1249253E4CCCCDBEAAAAAB3F80000015
:1013FB003E7ADBB03EED63383F24BC7D3F490FDBCB
:10140B00ED33ECC2E7CC339209B4FF13ED547F609C
:10141B000302034B7FDB7E0F7DC97C3F021500C2AD
:10142B000AC3947F401E7007EDD2E794904015EFEE
:10143B00FBEEFAEDF9ECF87F007E007D807C3F122D
:10144B000204D20AED33EC33248430E705E4C0E028
:10145B00806B04FAEDD2E754F0C333DAFD54073452
:10146B00002323C0E0CCC0E0F8EDC0E0F9EEC0E013
:10147B00FAEFC0E0FBE41202ABEC24FEFC9002118D
:10148B001207B01200FB7B007A007980783F1200C4
:10149B000A900211E0B2E7CCF0A3E0CDF0A3E0CECE
:1014AB00F0A3E0CFF0D0E0FBD0E0FAD0E0F9D0E051
:1014BB00F812000A9002111207881202049002110E
:1014CB001207B09013EB740312050F900211120761
:1014DB00881200FBD0E0600F24F7F582E43413F59B
:1014EB008312079412000A300A0B7BDB7A0F79C93F
:1014FB0078BF12000AED33EC336006ECA20992E7D9
:02150B00FC22C0
:10055C003F8000004120000042C80000447A0000A7
:10056C00461C400047C35000497424004B18968029
:10057C004CBEBC205A0E1BCA6753C21C749DC5AE20
:10058C00FB60065407601C23231205BAEB54386039
:10059C00091205A61205B51200FBECF8EDF9EEFAFE
:1005AC00EFCB22EB1205B580F1543803241C9005D7
:1005BC005CFE93FC0EEE93FD0EEE930ECE93FF229B
:03000000021A5A87
:0C1A5A00787FE4F6D8FD758121021AA106
:1005CC00BB010689828A83E0225002E722BBFE022D
:0905DC00E32289828A83E4932260
:1005E500BB010CE58229F582E5833AF583E02250CB
:1005F50006E92582F8E622BBFE06E92582F8E22215
:0D060500E58229F582E5833AF583E493222E
:10061200BB010689828A83F0225002F722BBFE01C7
:02062200F322C1
:10062400C2D5EC30E709B2D5E4C39DFDE49CFCEEF1
:1006340030E715B2D5E4C39FFFE49EFE12091CC344
:10064400E49DFDE49CFC800312091C30D507C3E43F
:060654009FFFE49EFE2260
:10065A00A3F8E0C5F025F0F0E58215827002158353
:06066A00E0C838F0E822B0
:1006700075F008758200EF2FFFEE33FECD33CDCC41
:1006800033CCC58233C5829BED9AEC99E5829840C4
:100690000CF582EE9BFEED9AFDEC99FC0FD5F0D6A1
:1006A000E4CEFBE4CDFAE4CCF9A88222B800C1B9CB
:1006B0000059BA002DEC8BF084CFCECDFCE5F0CB09
:1006C000F97818EF2FFFEE33FEED33FDEC33FCEB42
:1006D00033FB10D703994004EB99FB0FD8E5E4F9FD
:1006E000FA227818EF2FFFEE33FEED33FDEC33FCEA
:1006F000C933C910D7059BE99A4007EC9BFCE99ADE
:10070000F90FD8E0E4C9FAE4CCFB2275F010EF2F22
:10071000FFEE33FEED33FDCC33CCC833C810D70722
:100720009BEC9AE899400AED9BFDEC9AFCE899F85D
:0E0730000FD5F0DAE4CDFBE4CCFAE4C8F922F0
:0E073E00C3E49FFFE49EFEE49DFDE49CFC22CC
:10074C00E8600FECC313FCED13FDEE13FEEF13FF8B
:03075C00D8F122AF
:0C075F00E0FCA3E0FDA3E0FEA3E0FF220D
:10076B00E493FC740193FD740293FE740393FF22D4
:0D077B00E6FB08E6F908E6FA08E6CBF822EE
:0C078800E0F8A3E0F9A3E0FAA3E0FB22F4
:10079400E493F8740193F9740293FA740393FB22BB
:0C07A400ECF608EDF608EEF608EFF62281
:0C07B000ECF0A3EDF0A3EEF0A3EFF022BC
:1007BC00A8828583F0D083D0821207D31207D3127C
:1007CC0007D31207D3E473E493A3C583C5F0C583A1
:1007DC00C8C582C8F0A3C583C5F0C583C8C582C887
:0107EC0022EA
:1007ED00F8E0FBA3A3E0F925F0F0E5821582700295
:0707FD001583E0FA38F02239
:09080400EBF0A3EAF0A3E9F022F5
:10080D00D083D082F8E4937012740193700DA3A37A
:10081D0093F8740193F5828883E47374029368608E
:06082D00EFA3A3A380DF8E
:101F6700EFB40A07740D121F72740A309811A899FA
:101F7700B8130CC2983098FDA899C298B811F630DA
:071F870099FDC299F59922B2
:101BD70090017AEBF0A3EAF0A3E9F0900180EBF033
:101BE700A3EAF0A3E9F090017AE0FBA3E475F00122
:101BF70012065AA9F0FA1205CC70EB90017B74FF1C
:101C0700F5F012097190017DE0FBA3E475F0011274
:101C1700065AA9F0FA1205CCFF90017AE0FBA3E47B
:101C270075F00112065AA9F0FAEF12061270D69053
:0B1C37000180E0FBA3E0FAA3E0F9222B
:10083300E709F60870FA8046E709F20870FA803E85
:1008430088828C83E709F0A370FA807EE309F608B7
:1008530070FA8076E309F20870FA806E88828C83DE
:10086300E309F0A370FA806289828A83E0A3F60821
:1008730070FA805689828A83E0A3F20870FA804A6C
:1008830080D280FA80C680D4806580F28031801067
:1008930080A680EA809A80A880DA80E280CA8031CC
:1008A30089828A83ECFAE493A3C8C582C8CCC58342
:1008B300CCF0A3C8C582C8CCC583CC70E9800D89B0
:1008C300828A83E493A3F60870F9ECFAA9F0EDFBAE
:1008D3002289828A83ECFAE0A3C8C582C8CCC58387
:1008E300CCF0A3C8C582C8CCC583CC70EA80DD89AF
:1008F300828A83E493A3F20870F980CE88F0ED2412
:1009030002B4040050C4F582EB2402B4040050BACC
:090913002323458223900883731D
:1020E100E4FFFE1205CC600C0FEF70010E09E970E0
:0520F100F20A80EF225D
:101701009001CCEBF0A3EAF0A3E9F0A3E0FBA3E0A6
:10171100FAA3E0F91205CC70030217AD9001CCE0F9
:10172100FBA3E0FAA3E0F91205CC70030217B9900C
:1017310001CFE0F9A3E0FAA3E0A3C9F0A3EAF0A383
:10174100E9F09001CCA3E0FAA3E0F99001D5EBF028
:10175100A3EAF0A3E9F09001D2E0FBA3E0FAA3E051
:10176100F91205CCFF60269001D5E0FBA3E0FAA3B6
:10177100E0F91205CC6F70159001D375F0011209D3
:10178100719001D6E475F00112097180C99001D2FE
:10179100E0FBA3E0FAA3E0F91205CC7002800D9002
:1017A10001CDE475F00112097102171D9001CCE021
:0F17B100FBA3E0FAA3E0F9227B007A0079002283
:101A6600022263E493A3F8E493A34003F68001F211
:101A760008DFF48029E493A3F85407240CC8C33381
:101A8600C4540F4420C8834004F456800146F6DF50
:101A9600E4800B010204081020408090128BE47E43
:101AA600019360BCA3FF543F30E509541FFEE49345
:101AB600A360010ECF54C025E060A840B8E493A30C
:101AC600FAE493A3F8E493A3C8C582C8CAC583CA37
:101AD600F0A3C8C582C8CAC583CADFE9DEE780BEEF
:0113EA000002
:10091C00BC000BBE0029EF8DF084FFADF022E4CCBF
:10092C00F875F008EF2FFFEE33FEEC33FCEE9DEC88
:10093C00984005FCEE9DFE0FD5F0E9E4CEFD22EDCE
:10094C00F8F5F0EE8420D21CFEADF075F008EF2F18
:10095C00FFED33FD4007985006D5F0F222C398FD09
:05096C000FD5F0EA22A6
:10097100C5F0F8A3E028F0C5F0F8E5821582700211
:060981001583E038F022AE
:00000001FF
