:06107500759850020F6F98
:081066008F993099FDC2992217
:080D74008F368E358D348C336F
:100D7C00E4FBEBC39537501DAF36121066AF36AEA1
:100D8C0035AD34AC3378081204708F368E358D3413
:050D9C008C330B80DD2B
:010DA100222F
:100E3E008F1E8D1F1210427F1A12100112104BAF0F
:100E4E001E12100112104BAF1F12100112104B0286
:020E5E0010542E
:100E60008F541210427F1A12100112104B7FB012D1
:100E7000100112104BAF5412100112104B021054FB
:100EDE00120E601210427F1B12100112104B120FD5
:0B0EEE00D48F55120FE3121054AF55C3
:010EF90022D6
:0F0FB60043BA3090FE8074E0F090FE82E4F022A7
:0F0FC50090FE82E030E6F990FE82E054BFF02209
:0910420090FE817401F0020FC55B
:0E10010090FE86EFF090FE817402F0020FC5A3
:09104B0090FE817403F0020FC550
:0F0FD40090FE817404F0120FC590FE87E0FF229B
:0E100F0090FE82E4F090FE817405F0020FC5A1
:0F0FE30090FE827401F090FE817405F0020FC53C
:0910540090FE817406F0020FC544
:100F6F00538EFE53890F438E40758DFD758B8FD237
:020F7F008E22C0
:0C101D007F867E0C7D49DDFEDEFADFF6EA
:0110290022A4
:100DF500EF1FAC0670011E4C601A000000000000D9
:100E050000000000000000000000000000000000DD
:050E1500000080DC225A
:100F81007FCD7EE67DFDDDFEDEFADFF67F0EDFFE44
:010F9100005F
:010F9200223C
:07106E00759124E4F59222C4
:100E1A0075DE2FEF4480F5BC43BC400000E5BC30D2
:100E2A00E5FB53BCDFAFBDEFFEADBE7C00E42DFF9A
:030E3A00EC3EFE8D
:010E3D002292
:100EC000D2947F0A7E00120DF5C2947F207E031219
:0E0ED0000DF5D2947F587E02120DF57F01229F
:020D02008F332D
:100D0400E4F534E5335401F535C2947F0F7E0012C7
:100D14000DF5E5331392947F2D7E00120DF5D294D8
:100D24007F0A7E00120DF5E533C313F5330534E570
:060D340034C3940840CD19
:010D3A002296
:100D3B00E4F550E551C313F551C2947F027E0012C6
:100D4B000DF5D2947F047E00120DF5309408E55119
:100D5B004480F551F5517F1E7E00120DF50550E5CF
:080D6B0050C3940840CDAF51C4
:010D7300225D
:100F2D00120EC0EF600D7FCC120D027F44120D0228
:050F3D007F01227F008E
:010F4200228C
:100B0700E4F53BF53AF539F538120EC0EF60167F7C
:100B1700CC120D027FBE120D02120D3B8F3E120D3D
:100B27003B8F3FD294753C00853F3DE53D753D00C9
:100B3700F53CE53E423DAC3CAD3DEC1202A6E4FB84
:100B4700FA7980783D1200FB8F3B8E3A8D398C38CD
:100B5700E4FFFE7D207C41AB3BAA3AA939A83812B5
:100B670000FBE4FBFAF9783F12000A1202DF8E3C21
:020B77008F3DB0
:010B79002259
:100BED007D0E7F82120E3E7DA67F83120E3EE4FDAA
:100BFD007F84120E3EE4FD7F85120E3EE4FD7F865E
:100C0D00120E3E7D647F87120E3EE4FD7F88120E2C
:100C1D003E7D647F89120E3EE4FD7F8A120E3E7D7D
:100C2D00647F8B120E3E7DB17F80120E3EE4FD7F00
:100C3D0081120E3E7D117F80120E3E12101D7D2100
:050C4D007F80020E3E55
:100CB0007D937F80120E3E7F8F120EDEEF30E0F7C5
:100CC0007F92120EDEEF7F00FEC006C0077F9312F8
:100CD0000EDEEFFDD0E02DFFD0E03400FEEF780215
:100CE000C333CE33CED8F98E0EF50F7802CEA2E7FD
:100CF00013CE13D8F8FF7C007D2012042C8E0E8FAB
:010D00000FE3
:010D010022CF
:1004F800120BED7F8F120EDEEF30E1F77F94120EB4
:10050800DEEF7F00FEC006C0077F95120EDEEFFD0E
:10051800D0E02DF509D0E03400F5087F96120EDE04
:10052800EF7F00FEC006C0077F97120EDEEFFDD0FA
:10053800E02DF51DD0E03400F51CFCAD1D1202A61F
:10054800C004C005C006C007AC1CAD1DEC1202A655
:10055800D003D002D001D0001200FBC004C005C0F7
:1005680006C007AC08AD09EC1202A6C004C005C05D
:1005780006C007AC08AD09EC1202A6D003D002D021
:1005880001D0001200FBD003D002D001D00012002D
:100598000A120A618F178E168D158C14D3E50994EB
:1005A80000E508648094804050D3E51D9400E51C64
:1005B800648094804043AC1CAD1DEC1202A6C004BC
:1005C800C005C006C007AC08AD09EC1202A68F3200
:1005D8008E318D308C2FD007D006D005D004120B69
:1005E8007AE4FBFA793478431200FB7BDA7A0F79E4
:1005F800497840120204020720C3E5086480948009
:100608005059E51D9400E51C64809480404DAC1C55
:10061800AD1DEC1202A6C004C005C006C007AC0898
:10062800AD09EC1202A68F328E318D308C2FD00797
:10063800D006D005D004120B7AE4FBFA793478435B
:100648001200FB7BDA7A0F79497840120204E4FB46
:10065800FA7934784312000A020720C3E508648057
:1006680094805055C3E51C64809480504CAC1CADFC
:100678001DEC1202A6C004C005C006C007AC08AD38
:1006880009EC1202A68F328E318D308C2FD007D014
:1006980006D005D004120B7AE4FBFA7934784312B9
:1006A80000FB7BDA7A0F79497840120204E4FBFAFE
:1006B8007934784312000A805FD3E5099400E5088D
:1006C80064809480405AE51C648094805052AC1C2D
:1006D800AD1DEC1202A6C004C005C006C007AC08D8
:1006E800AD09EC1202A68F328E318D308C2FD007D7
:1006F800D006D005D004120B7AE4FBFA793478439B
:100708001200FB7BDA7A0F79497840120204E4FB85
:10071800FA79B4784312000A8F0D8E0C8D0B8C0A6F
:10072800E50F24EAFFE50E34FFFE7C017D9D1204EF
:100738001AEE3395E0FDFCEF24FEFFEE3404FEEDE7
:100748003439FDE43CFC1202A1AB17AA16A915A87E
:10075800141202048F1B8E1A8D198C187FB87E9E76
:100768007D917CC3AB0DAA0CA90BA80A12000A7BC9
:10077800DA7A0F794978401200FBE4FBFA79347889
:100788004312020412080FAB1BAA1AA919A81812BF
:1007980000FB7B5C7A8F79D278C012000AA804A982
:1007A80005AA06AB077F007E957D767C4912020478
:0F07B8008F138E128D118C107DA17F80020E3E4B
:08105D007F78AE071FEE70FA68
:011065002268
:100E8000E4FDFCC3ED9FEC9E5015E4FBFA0BBB00A8
:0F0E9000010ABA5DF8BBC0F50DBD00010C80E48E
:010E9F002230
:0F0FF200D286D28712105DC28612105DC287228E
:100FA500C286D28712105DD28612105DC2870210EA
:010FB5005DDE
:100F4300EF30E004D2868002C286D28712105DC2DF
:060F530087D28602105D4A
:100F5900E4FDD286D28712105DA286E433FD121019
:050F69005DC287AF0529
:010F6E002260
:020DCF00AD076E
:100DD100E4FCED30E704D2868002C28612105DD2B7
:100DE1008712105DC28712105DED25E0FD0CBC0875
:040DF100E1020F59B3
:100EA000E4FDFCD286D28712105DA286E4334204B0
:0F0EB000C28712105DEC25E0FC0DBD08E8AF0411
:010EBF002210
:100F9300AB07120FF27F46120DCFAF03120DCF0234
:020FA3000FA598
:100DA200120FF27F47120DCFE4FB120EA074232B19
:100DB200F8A607BB03047F018002E4FF120F430B76
:0D0DC200BB03E7120FA57F057E00020E8027
:051081007F01020F9346
:100C52007F01120F937F10120F937FC87E00120E36
:100C620080120DA2E4FF120F93752100852322E565
:100C720022FE7C00E42524F522EC3EF521FCAD2287
:100C8200E41202A67B9A7A997999783F1202048F2C
:100C9200438E428D418C407F337E337DB37C3FABAC
:0D0CA20043AA42A941A8401200FB1202DF44
:010CAF002222
:100EFA007F02120E1AAD07AC06E41202A67BE67A4E
:0B0F0A003F791C78401200FB1202DF50
:010F150022B9
:0C102A00120FB612107512108102106E29
:100F1600120F2D120F2D120F81120EFAE4FCFD7521
:070F26003702120D7480EC8C
:06107B0012102A020F16FC
:1000030002034BE86480F8E933E83360110460F0DD
:10001300ED33EC337009E8FCE9FDEAFEEBFF220463
:1000230060DED3EB9FEA9EE99DE8C2E78CF0C2F75E
:1000330095F0400CE8CCF8E9CDF9EACEFAEBCFFB2A
:1000430012031685D0F05804700320D5B3E804706A
:10005300075002B2D502035592D5EC0460F7E4CC05
:10006300C0E0C398F8603B94186008400DD0E0FBF3
:1000730002032DE4FBFAC9FC8028E830E406E4C956
:10008300FBE4CAFCE830E305E4C9CACBFCE8540747
:100093006010F8C3E913F9EA13FAEB13FBEC13FC52
:1000A300D8F130F52FC3E49CFCEF9BFFEE9AFEEDF5
:1000B30099FDD0E0FBEF4E4D4C701222DB0302039F
:1000C30052EC2CFCEF33FFEE33FEED33FDED30E766
:1000D300EB02032DEF2BFFEE3AFEED39FDD0E0FBF3
:1000E30050130BBB0003020355ED13FDEE13FEEF9C
:0800F30013FFEC13FC02032DC6
:1000FB00EC4D6011E8497017ED33EC3304600DE4FF
:10010B00FCFFFEFD22E933E8330470F802034B12C7
:10011B00031658046009E4CC2481500628500902C8
:10012B000355284003020352C0E0EB4A7044B980E8
:10013B0006D0E0FB020341EF4E701CBD8008EBFFC5
:10014B00EAFEE9FD80EBE98DF0A4FEE5F00201E4A7
:10015B00E9CDF9EAFEEBFFEF89F0A4FCE5F0CE89DF
:10016B00F0A42EFFE435F0CD89F0A42DFEE435F09C
:10017B008067EF4E7005BD80D780C3EF8BF0A4ACCA
:10018B00F0EE8BF0A42CFCE435F0F8EF8AF0A42C05
:10019B00E5F038FCE433CB8DF0A42CFCE5F03BF818
:1001AB00EE8AF0A42CFCE5F038F8E433CF89F0A408
:1001BB002CFCE5F038CF3400CE89F0A42FFFE5F00E
:1001CB003EFEE433C98DF0A42EFEE5F039CD8AF066
:1001DB00A42FFFE5F03EFEE43DFD33D0E0FB5007DE
:1001EB000BBB000F020355EC2CFCEF33FFEE33FE81
:0601FB00ED33FD02032DAF
:10020100020355EC5D046005E85904700302034BD9
:10021100120316580460F6EC4860F2EC7004FDFE1F
:10022100FF22C860DB2481C85009C39860025006D0
:100231000203529850CAF582E9294B4A7005AB82F4
:1002410002034175F0007C1A7880C3EF9BEE9AEDB2
:1002510099400DC3EF9BFFEE9AFEED99FDE842F048
:10026100DC23ACF0D0E0FFD0E0FED0E0FDAB82209B
:10027100E7101BEB60BAEC2CFCEF33FFEE33FEED25
:1002810033FD02032DE803F830E705C0F075F000F7
:10029100EF2FFFEE33FEED33FD40B830E7C280AA09
:1002A10075F020800E75F010800575F0087D007ED8
:1002B100007F003392D530D503120462EC33401035
:1002C100EF33FFEE33FEED33FDEC33FCD5F0ED22E1
:0E02D100E5F0247EA2D513CC92E7CDCEFF221D
:1002DF00EDD2E7CD33EC3392D524814006E4FFFE17
:1002EF00FDFC22FCE4CFCECDCC24E0501174FF8076
:1002FF00EDC3CC13CCCD13CDCE13CECF13CF047013
:07030F00F030D5DE020462AC
:100A5D0002034B22EDA2E7D2E7F9EC3340F260F34B
:100A6D00B4FF08ED547F70E8020355F82481C2E00D
:100A7D00C0E0F40428FAC313FCED92E7FD8C448D1D
:100A8D00458E468F47EEA2E7E9BA7F02C3133400C5
:100A9D009400FA75F091A4E5F013F494FE8AF0A495
:100AAD0033E5F033248CD313FDE492E7FE7F007C15
:100ABD003F758302ECC0E0F8EDC0E0F9EEC0E0FA5E
:100ACD00EFC0E0FBAC44AD45AE46AF47120204D0DB
:100ADD00E0FBD0E0FAD0E0F9D0E0F812000AED64C6
:100AED0080FD30E7011CD583CBED33CC33F8D0E05E
:0A0AFD00A2E71328C313CC13FD2257
:100B7A008F2E8E2D8D2C8C2BAB32AA31A930A82F1B
:100B8A001202041209558F2E8E2D8D2C8C2BE52FD7
:100B9A0030E747ECC0E0EDC0E0EEC0E0EFC0E0E4D3
:100BAA00FFFEFDFCAB2EAA2DA92CA82B1203607BFD
:100BBA00DB600250087A0F7949784080067A0F790B
:100BCA004978C0D0E0FFD0E0FED0E0FDD0E0FC12D2
:100BDA00000A8F2E8E2D8D2C8C2BAF2EAE2DAD2C88
:030BEA00AC2B220F
:1007C7003A70FA83BCAAE9E43E81E0F8BF9DE9E606
:1007D7003F80000039283C1ABB9969663DA335E381
:1007E700BF255DE73FC90FDB418DDBCCC44936EE42
:1007F70045C9913FC5B0F83D3F800000C317F534A8
:10080700452FFA73C60AFDDD1208B604A2E192026B
:100817001420E0159007C774041203CD8026120830
:10082700B630E102B20220E0EB8C488D498E4A8F48
:100837004B9007DB74041203CDA848A949AA4AAB19
:100847004B1200FBED4C6007300204EC6480FC2285
:100857001208B6C0E08C488D498E4A8F4B9007FF2F
:1008670074031203CDA848A949AA4AAB4B1200FB4F
:10087700ECC548FCEDC549FDEEC54AFEEFC54BFF8B
:100887009007EF74031203CDD082A848A949AA4A5A
:10089700AB4BE58230E007120204B20280A6EFCB31
:1008A700FFEECAFEEDC9FDECC8FC1202048095ED0F
:1008B70033EC547FCC33920224605007D0E0D0E071
:1008C70002034B7B837AF97922783E1200FBEDF91C
:1008D70033ECF83324815011EFFBEEFA1202DF12EA
:1008E70002A1ECB2E7FC12000AED33EC33602F24CF
:1008F70003F8C313FCED92E7FDE82481E4501FECF5
:10090700F8EDF9EEFAEFFB1202DFEF04C2E0FCF5B7
:10091700821202ABECB2E7FC12000AE58203FAEDA1
:0E09270033EC3360071413FCED92E7FDEA2277
:10031600E9D2E7C933E833F892D5EDD2E7CD33EC2D
:0703260033FC5002B2D522A6
:10032D00EC30E7100FBF000C0EBE00080DBD000431
:10033D000BEB6014A2D5EB13FCED92E7FD2274FFDD
:10034D00FCFDFEFF22E480F8A2D574FF13FC7D8036
:03035D00E480EF4A
:1003600074F8CC6480CCC86480C8F582046043C350
:10037000EB9FF5F0EA9E42F0E99D42F0E89C45F0E3
:1003800060305018E5825FFFE582F42B5582FB5008
:10039000210ABA001D09B90019088016E5825BFB25
:1003A000E582F42F5582FF50090EBE00050DBD00F9
:1003B000010CC3EB9FF5F0EA9E42F0E99D42F0E8A4
:0D03C0009C45F06007CC4820E701B3EC221B
:1003CD00C0E0EFFBEEFAEDF9ECF81200FBD0E0F532
:1003DD00F0EFFBEEFAEDF9ECF8120483A3A3A3A35F
:1003ED00E8C0E0E9C0E0EAC0E0EBC0E0C0F0120018
:1003FD00FB120493A3A3A3A312000AD0F0D0E0FB39
:0D040D00D0E0FAD0E0F9D0E0F8D5F0D4222C
:10093500BE1249253E4CCCCDBEAAAAAB3F800000D5
:100945003E7ADBB03EED63383F24BC7D3F490FDB8B
:10095500ED33ECC2E7CC339200B4FF13ED547F6066
:100965000302034B7FDB7E0F7DC97C3F020A50C229
:1009750001C3947F401E7007EDD2E794904015EFB8
:10098500FBEEFAEDF9ECF87F007E007D807C3F12EE
:100995000204D201ED33EC33248430E705E4C0E0F2
:1009A500806D04FAEDD2E754F0C333DAFD54073411
:1009B500002323C0E0CCC0E0F8EDC0E0F9EEC0E0D4
:1009C500FAEFC0E0FBE41202ABEC24FEFC8C4C8D8C
:1009D5004D8E4E8F4F1200FB7B007A007980783F59
:1009E50012000AECC54CB2E7FCEDC54DFDEEC54E57
:1009F500FEEFC54FFFD0E0FBD0E0FAD0E0F9D0E044
:100A0500F812000AA84CA94DAA4EAB4F1202048C4D
:100A15004C8D4D8E4E8F4F90093574031203CDA822
:100A25004CA94DAA4EAB4F1200FBD0E0600F2441FC
:100A3500F582E43409F58312049312000A30010BA0
:100A45007BDB7A0F79C978BF12000AED33EC33608E
:080A550006ECA20092E7FC226E
:03000000021036B5
:0C103600787FE4F6D8FD75815502107B30
:10041A00EF8DF0A4A8F0CF8CF0A428CE8DF0A42EF6
:02042A00FE22B0
:10042C00C2D5EC30E709B2D5E4C39DFDE49CFCEEEB
:10043C0030E715B2D5E4C39FFFE49EFE1204A3C3BC
:10044C00E49DFDE49CFC80031204A330D507C3E4B7
:06045C009FFFE49EFE225A
:0E046200C3E49FFFE49EFEE49DFDE49CFC22AB
:10047000E8600FECC313FCED13FDEE13FEEF13FF6A
:03048000D8F1228E
:10048300E493FC740193FD740293FE740393FF22BF
:10049300E493F8740193F9740293FA740393FB22BF
:1004A300BC000BBE0029EF8DF084FFADF022E4CC3D
:1004B300F875F008EF2FFFEE33FEEC33FCEE9DEC06
:1004C300984005FCEE9DFE0FD5F0E9E4CEFD22ED4C
:1004D300F8F5F0EE8420D21CFEADF075F008EF2F96
:1004E300FFED33FD4007985006D5F0F222C398FD87
:0504F3000FD5F0EA2224
:00000001FF
