:101194008F278D2812136B7F1A121342121374AF08
:1011A40027121342121374AF28121342121374023B
:0211B400137DA9
:1011B6008F2812136B7F1A1213421213747FB01208
:1011C6001342121374AF2812134212137402137DC2
:101214001211B612136B7F1B1213421213741213A2
:0B122400068F2712131512137DAF2751
:01122F00229C
:06139E0075985002129048
:08138F008F993099FDC29922EB
:0810CA008F2A8E298D288C2746
:1010D200E4FBEBC3952B501DAF2A12138FAF2AAE40
:1010E20029AD28AC27780812052C8F2A8E298D2845
:0510F2008C270B80DDDE
:0110F70022D6
:0F12E80075BAB090FE8074E0F090FE82E4F022C0
:0F12F70090FE82E030E6F990FE82E054BFF022D4
:09136B0090FE817401F00212F7FA
:0E13420090FE86EFF090FE817402F00212F72A
:0913740090FE817403F00212F7EF
:0F13060090FE817404F01212F790FE87E0FF2230
:0E13500090FE82E4F090FE817405F00212F728
:0F13150090FE827401F090FE817405F00212F7D1
:09137D0090FE817406F00212F7E3
:10129000538EFE53890F438E40758DFD758B8FD213
:0212A0008E229C
:0C135E007F867E0C7D49DDFEDEFADFF6A6
:01136A002260
:10114B00EF1FAC0670011E4C601A0000000000007F
:10115B000000000000000000000000000000000084
:05116B00000080DC2201
:1012A2007FCD7EE67DFDDDFEDEFADFF67F0EDFFE20
:0112B200003B
:0112B3002218
:081386007F78AE071FEE70FA3C
:01138E00223C
:1011D600E4FDFCC3ED9FEC9E5015E4FBFA0BBB004F
:0F11E600010ABA5DF8BBC0F50DBD00010C80E435
:0111F50022D7
:07139700759124E4F5922298
:1011700075DE2FEF4480F5BC43BC400000E5BC3079
:10118000E5FB53BCDFAFBDEFFEADBE7C00E42DFF41
:03119000EC3EFE34
:011193002239
:1011F600D2947F0A7E0012114BC2947F207E031286
:0E120600114BD2947F587E0212114B7F0122B1
:020FF3008F2B42
:100FF500E4F52CE52B5401F52DC2947F0F7E0012EC
:10100500114BE52B1392947F2D7E0012114BD29438
:101015007F0A7E0012114BE52BC313F52B052CE53A
:061025002CC3940840CD2D
:01102B0022A2
:10102C00E4F52BE52CC313F52CC2947F027E001241
:10103C00114BD2947F047E0012114B309408E52C96
:10104C004480F52CF52C7F1E7E0012114B052BE5F0
:08105C002BC3940840CDAF2C1A
:011064002269
:101264001211F6EF600D7FCC120FF37F44120FF3CF
:051274007F01227F0054
:011279002252
:100D5600E4F52AF529F528F5271211F6EF60167F36
:100D6600CC120FF37FBE120FF312102C8F45121008
:100D76002C8F46D294754300854644E5447544005D
:100D8600F543E5454244AC43AD44EC1202A6E4FB10
:100D9600FA7980783D1200FB8F2A8E298D288C27C0
:100DA600E4FFFE7D207C41AB2AAA29A928A82712A8
:100DB60000FBE4FBFAF9783F12000A1202DF8E43C9
:020DC6008F4458
:010DC8002208
:100E3C007D0E7F821211947DA67F83121194E4FDA6
:100E4C007F84121194E4FD7F85121194E4FD7F865A
:100E5C001211947D647F87121194E4FD7F88121126
:100E6C00947D647F89121194E4FD7F8A1211947D24
:100E7C00647F8B1211947DB17F80121194E4FD7FFD
:100E8C00811211947D117F8012119412135E7D21B9
:050E9C007F80021194AB
:100EFF007D937F801211947F8F121214EF30E0F7E1
:100F0F007F92121214EF7F00FEC006C0077F93126C
:100F1F001214EFFDD0E02DFFD0E03400FEEF780289
:100F2F00C333CE33CED8F98E0EF50F7802CEA2E7AB
:100F3F0013CE13D8F8FF7C007D2012041A8E0E8F6B
:010F4F000F92
:010F5000227E
:1005CD00120E3C7F8F121214EF30E1F77F9412124E
:1005DD0014EF7F00FEC006C0077F95121214EFFDC9
:1005ED00D0E02DF509D0E03400F5087F96121214F5
:1005FD00EF7F00FEC006C0077F97121214EFFDD0EB
:10060D00E02DF51DD0E03400F51CFCAD1D1202A649
:10061D00C004C005C006C007AC1CAD1DEC1202A67F
:10062D00D003D002D001D0001200FBC004C005C021
:10063D0006C007AC08AD09EC1202A6C004C005C087
:10064D0006C007AC08AD09EC1202A6D003D002D04B
:10065D0001D0001200FBD003D002D001D000120057
:10066D000A120C248F178E168D158C14D3E5099450
:10067D0000E508648094804050D3E51D9400E51C8E
:10068D00648094804043AC1CAD1DEC1202A6C004E6
:10069D00C005C006C007AC08AD09EC1202A68F2E2E
:1006AD008E2D8D2C8C2BD007D006D005D004120D9D
:1006BD00C9E4FBFA793478431200FB7BDA7A0F79BF
:1006CD004978401202040207F5C3E508648094805E
:1006DD005059E51D9400E51C64809480404DAC1C80
:1006ED00AD1DEC1202A6C004C005C006C007AC08C3
:1006FD00AD09EC1202A68F2E8E2D8D2C8C2BD007D2
:10070D00D006D005D004120DC9E4FBFA7934784334
:10071D001200FB7BDA7A0F79497840120204E4FB70
:10072D00FA7934784312000A0207F5C3E5086480AC
:10073D0094805055C3E51C64809480504CAC1CAD26
:10074D001DEC1202A6C004C005C006C007AC08AD62
:10075D0009EC1202A68F2E8E2D8D2C8C2BD007D04E
:10076D0006D005D004120DC9E4FBFA793478431292
:10077D0000FB7BDA7A0F79497840120204E4FBFA28
:10078D007934784312000A805FD3E5099400E508B7
:10079D0064809480405AE51C648094805052AC1C57
:1007AD00AD1DEC1202A6C004C005C006C007AC0802
:1007BD00AD09EC1202A68F2E8E2D8D2C8C2BD00711
:1007CD00D006D005D004120DC9E4FBFA7934784374
:1007DD001200FB7BDA7A0F79497840120204E4FBB0
:1007ED00FA79B4784312000A8F0D8E0C8D0B8C0A9A
:1007FD00AB17AA16A915A8147FF87E137D647C4A41
:10080D001202048F1B8E1A8D198C187FB87E9E7D57
:10081D00917CC3AB0DAA0CA90BA80A12000A7BDAB6
:10082D007A0F794978401200FBE4FBFA793478436A
:10083D001202041208CCAB1BAA1AA919A81812008F
:10084D00FB7B5C7A8F79D278C012000AA804A905C7
:10085D00AA06AB077F807E1A7D837C491202048F26
:10086D00138E128D118C107DA17F80121194AF13F8
:06087D00AE12AD11AC103B
:010883002252
:0F132400D286D287121386C286121386C2872200
:1012C600C286D287121386D286121386C28702136B
:0112D6008691
:10127A00EF30E004D2868002C286D287121386C279
:06128A0087D286021386E4
:10124C00E4F524D286D287121386A286E433422494
:07125C00121386C287AF24C4
:011263002268
:02109B008F22A2
:10109D00E4F523E52230E704D2868002C2861213DE
:1010AD0086D287121386C287121386E52225E0F5B4
:0D10BD00220523E523C3940840D902124CFC
:1010F800E4F51EF51FD286F51ED287121386A28646
:10110800E433421FC287121386E51F25E0F51F0549
:0A1118001EE51EC3940840E1AF1F5E
:0111220022AA
:1012B4008F211213247F4612109BAF2112109B0220
:0212C40012C650
:101065001213247F4712109BE4F54B1210F87435C8
:10107500254BF8A607E54BB403047F018002E4FF86
:1010850012127A054BE54BC3940340DF1212C67F5B
:06109500057E000211D6E9
:0513AA007F010212B4F6
:100EA1007F011212B47F101212B47FC87E0012119A
:100EB100D6121065E4FF1212B4753300853534E59E
:100EC10034FE7C00E42536F534EC3EF533FCAD34DC
:100ED100E41202A67B9A7A997999783F1202048FDB
:100EE1004A8E498D488C477F337E337DB37C3FAB3F
:0D0EF1004AAA49A948A8471200FB1202DFD7
:010EFE0022D1
:101230007F02121170AD07AC06E41202A67BE67ABB
:0B1240003F791C78401200FB1202DF17
:01124B002280
:1012D700025400000450C126C083044C46DDC97780
:100B1A009000007407F0A37432F09000047423F07C
:100B2A00A374DCF09000027409F0A37425F090001D
:100B3A0006740FF0A374A0F074326425700474076D
:100B4A0064097003020C1F900006E0FEA3E0FFD3C5
:100B5A00900005E09FEE6480F8900004E0648098BD
:100B6A004033900000E0FEA3E0FF900003E09FFD09
:100B7A00900002E09EFC1202A6C004C005C006C096
:100B8A0007900004E0FEA3E0FFC3900007E09FFD8A
:100B9A009000068032900002E0FEA3E0FFC39000BE
:100BAA0001E09FFD900000E09EFC1202A6C004C076
:100BBA0005C006C007900006E0FEA3E0FFC3900050
:100BCA0005E09FFD900004E09EFC1202A6D003D02F
:100BDA0002D001D000120204785012056C90000075
:100BEA00E0FCA3E0FDEC1202A6785012054F1200B9
:100BFA00FBC004C005C006C007900004E0FCA3E0E7
:100C0A00FDEC1202A6D003D002D001D000120006D9
:060C1A00784C12056C226B
:020F51008F3DD2
:100F5300E4F542F541F540F53FF53EAF3D12117022
:100F6300E4FCFDE5422FF542E5413EF541ED354018
:100F7300F540EC353FF53FE4FFFE0FBF00010EBE29
:100F830003F8BFE8F5053EE53EC3946440CDE47B3A
:0F0F930064FAF9F8AF42AE41AD40AC3F12048CA6
:010FA200222C
:101123007F05120F51AD07AC06E41202A6785012E8
:10113300054F1200FB784C12054F12000A1202DF12
:071143007854EEF608EFF608
:01114A002282
:0F1333001212E812139E1213AA121397020B1A2A
:100FA300E4F526F525F524F523C2A61212A21212A2
:100FB300A2121264120EFF1212A21212A21205CD75
:100FC3008F268E258D248C23120D568E218F22EE93
:100FD3003395E0FDFC752B021210CAAF26AE25AD8A
:100FE30024AC231202DF752B041210CAB2A680C7E9
:0613A400121333020FA337
:1000030002034BE86480F8E933E83360110460F0DD
:10001300ED33EC337009E8FCE9FDEAFEEBFF220463
:1000230060DED3EB9FEA9EE99DE8C2E78CF0C2F75E
:1000330095F0400CE8CCF8E9CDF9EACEFAEBCFFB2A
:1000430012031685D0F05804700320D5B3E804706A
:10005300075002B2D502035592D5EC0460F7E4CC05
:10006300C0E0C398F8603B94186008400DD0E0FBF3
:1000730002032DE4FBFAC9FC8028E830E406E4C956
:10008300FBE4CAFCE830E305E4C9CACBFCE8540747
:100093006010F8C3E913F9EA13FAEB13FBEC13FC52
:1000A300D8F130F52FC3E49CFCEF9BFFEE9AFEEDF5
:1000B30099FDD0E0FBEF4E4D4C701222DB0302039F
:1000C30052EC2CFCEF33FFEE33FEED33FDED30E766
:1000D300EB02032DEF2BFFEE3AFEED39FDD0E0FBF3
:1000E30050130BBB0003020355ED13FDEE13FEEF9C
:0800F30013FFEC13FC02032DC6
:1000FB00EC4D6011E8497017ED33EC3304600DE4FF
:10010B00FCFFFEFD22E933E8330470F802034B12C7
:10011B00031658046009E4CC2481500628500902C8
:10012B000355284003020352C0E0EB4A7044B980E8
:10013B0006D0E0FB020341EF4E701CBD8008EBFFC5
:10014B00EAFEE9FD80EBE98DF0A4FEE5F00201E4A7
:10015B00E9CDF9EAFEEBFFEF89F0A4FCE5F0CE89DF
:10016B00F0A42EFFE435F0CD89F0A42DFEE435F09C
:10017B008067EF4E7005BD80D780C3EF8BF0A4ACCA
:10018B00F0EE8BF0A42CFCE435F0F8EF8AF0A42C05
:10019B00E5F038FCE433CB8DF0A42CFCE5F03BF818
:1001AB00EE8AF0A42CFCE5F038F8E433CF89F0A408
:1001BB002CFCE5F038CF3400CE89F0A42FFFE5F00E
:1001CB003EFEE433C98DF0A42EFEE5F039CD8AF066
:1001DB00A42FFFE5F03EFEE43DFD33D0E0FB5007DE
:1001EB000BBB000F020355EC2CFCEF33FFEE33FE81
:0601FB00ED33FD02032DAF
:10020100020355EC5D046005E85904700302034BD9
:10021100120316580460F6EC4860F2EC7004FDFE1F
:10022100FF22C860DB2481C85009C39860025006D0
:100231000203529850CAF582E9294B4A7005AB82F4
:1002410002034175F0007C1A7880C3EF9BEE9AEDB2
:1002510099400DC3EF9BFFEE9AFEED99FDE842F048
:10026100DC23ACF0D0E0FFD0E0FED0E0FDAB82209B
:10027100E7101BEB60BAEC2CFCEF33FFEE33FEED25
:1002810033FD02032DE803F830E705C0F075F000F7
:10029100EF2FFFEE33FEED33FD40B830E7C280AA09
:1002A10075F020800E75F010800575F0087D007ED8
:1002B100007F003392D530D50312051EEC33401078
:1002C100EF33FFEE33FEED33FDEC33FCD5F0ED22E1
:0E02D100E5F0247EA2D513CC92E7CDCEFF221D
:1002DF00EDD2E7CD33EC3392D524814006E4FFFE17
:1002EF00FDFC22FCE4CFCECDCC24E0501174FF8076
:1002FF00EDC3CC13CCCD13CDCE13CECF13CF047013
:07030F00F030D5DE02051EEF
:100C200002034B22EDA2E7D2E7F9EC3340F260F386
:100C3000B4FF08ED547F70E8020355F82481C2E048
:100C4000C0E0F40428FAC313FCED92E7FD8C278D75
:100C5000288E298F2AEEA2E7E9BA7F02C313340057
:100C60009400FA75F091A4E5F013F494FE8AF0A4D0
:100C700033E5F033248CD313FDE492E7FE7F007C50
:100C80003F758302ECC0E0F8EDC0E0F9EEC0E0FA99
:100C9000EFC0E0FBAC27AD28AE29AF2A120204D08A
:100CA000E0FBD0E0FAD0E0F9D0E0F812000AED6401
:100CB00080FD30E7011CD583CBED33CC33F8D0E099
:0A0CC000A2E71328C313CC13FD2292
:100DC9008F2A8E298D288C27AB2EAA2DA92CA82BEA
:100DD900120204120A128F2A8E298D288C27E52BDC
:100DE90030E747ECC0E0EDC0E0EEC0E0EFC0E0E482
:100DF900FFFEFDFCAB2AAA29A928A8271203607BBC
:100E0900DB600250087A0F7949784080067A0F79B9
:100E19004978C0D0E0FFD0E0FED0E0FDD0E0FC1280
:100E2900000A8F2A8E298D288C27AF2AAE29AD2852
:030E3900AC2722C1
:100884003A70FA83BCAAE9E43E81E0F8BF9DE9E648
:100894003F80000039283C1ABB9969663DA335E3C3
:1008A400BF255DE73FC90FDB418DDBCCC44936EE84
:1008B40045C9913FC5B0F83D3F800000C317F534EA
:1008C400452FFA73C60AFDDD12097304A2E19200F2
:1008D4001420E01590088474041203CD80261209B4
:1008E4007330E102B20020E0EB8C278D288E298F33
:1008F4002A90089874041203CDA827A928AA29AB22
:100904002A1200FBED4C6007300004EC6480FC22EA
:10091400120973C0E08C278D288E298F2A9008BC79
:1009240074031203CDA827A928AA29AB2A1200FB15
:10093400ECC527FCEDC528FDEEC529FEEFC52AFF51
:100944009008AC74031203CDD082A827A928AA2941
:10095400AB2AE58230E007120204B20080A6EFCB96
:10096400FFEECAFEEDC9FDECC8FC1202048095ED51
:1009740033EC547FCC33920024605007D0E0D0E0B5
:1009840002034B7B837AF97922783E1200FBEDF95E
:1009940033ECF83324815011EFFBEEFA1202DF122C
:1009A40002A1ECB2E7FC12000AED33EC33602F2411
:1009B40003F8C313FCED92E7FDE82481E4501FEC37
:1009C400F8EDF9EEFAEFFB1202DFEF04C2E0FCF5FA
:1009D400821202ABECB2E7FC12000AE58203FAEDE4
:0E09E40033EC3360071413FCED92E7FDEA22BA
:10031600E9D2E7C933E833F892D5EDD2E7CD33EC2D
:0703260033FC5002B2D522A6
:10032D00EC30E7100FBF000C0EBE00080DBD000431
:10033D000BEB6014A2D5EB13FCED92E7FD2274FFDD
:10034D00FCFDFEFF22E480F8A2D574FF13FC7D8036
:03035D00E480EF4A
:1003600074F8CC6480CCC86480C8F582046043C350
:10037000EB9FF5F0EA9E42F0E99D42F0E89C45F0E3
:1003800060305018E5825FFFE582F42B5582FB5008
:10039000210ABA001D09B90019088016E5825BFB25
:1003A000E582F42F5582FF50090EBE00050DBD00F9
:1003B000010CC3EB9FF5F0EA9E42F0E99D42F0E8A4
:0D03C0009C45F06007CC4820E701B3EC221B
:1003CD00C0E0EFFBEEFAEDF9ECF81200FBD0E0F532
:1003DD00F0EFFBEEFAEDF9ECF812053FA3A3A3A3A2
:1003ED00E8C0E0E9C0E0EAC0E0EBC0E0C0F0120018
:1003FD00FB12055CA3A3A3A312000AD0F0D0E0FB6F
:0D040D00D0E0FAD0E0F9D0E0F8D5F0D4222C
:1009F200BE1249253E4CCCCDBEAAAAAB3F80000018
:100A02003E7ADBB03EED63383F24BC7D3F490FDBCD
:100A1200ED33ECC2E7CC339200B4FF13ED547F60A8
:100A22000302034B7FDB7E0F7DC97C3F020B0DC2AD
:100A320001C3947F401E7007EDD2E794904015EFFA
:100A4200FBEEFAEDF9ECF87F007E007D807C3F1230
:100A52000204D201ED33EC33248430E705E4C0E034
:100A6200806D04FAEDD2E754F0C333DAFD54073453
:100A7200002323C0E0CCC0E0F8EDC0E0F9EEC0E016
:100A8200FAEFC0E0FBE41202ABEC24FEFC8C2F8DEB
:100A9200308E318F321200FB7B007A007980783FF2
:100AA20012000AECC52FB2E7FCEDC530FDEEC531F0
:100AB200FEEFC532FFD0E0FBD0E0FAD0E0F9D0E0A3
:100AC200F812000AA82FA930AA31AB321202048C04
:100AD2002F8D308E318F329009F274031203CDA81C
:100AE2002FA930AA31AB321200FBD0E0600F24FEF6
:100AF200F582E43409F58312055C12000A30010B19
:100B02007BDB7A0F79C978BF12000AED33EC3360D0
:080B120006ECA20092E7FC22B0
:03000000020CCA25
:0C0CCA00787FE4F6D8FD758155020D110D
:10041A00C2D5EC30E709B2D5E4C39DFDE49CFCEEFD
:10042A0030E715B2D5E4C39FFFE49EFE120578C3F8
:10043A00E49DFDE49CFC800312057830D507C3E4F3
:06044A009FFFE49EFE226C
:1004500075F008758200EF2FFFEE33FECD33CDCC63
:1004600033CCC58233C5829BED9AEC99E5829840E6
:100470000CF582EE9BFEED9AFDEC99FC0FD5F0D6C3
:10048000E4CEFBE4CDFAE4CCF9A88222B800C1B9ED
:100490000059BA002DEC8BF084CFCECDFCE5F0CB2B
:1004A000F97818EF2FFFEE33FEED33FDEC33FCEB64
:1004B00033FB10D703994004EB99FB0FD8E5E4F91F
:1004C000FA227818EF2FFFEE33FEED33FDEC33FC0C
:1004D000C933C910D7059BE99A4007EC9BFCE99A00
:1004E000F90FD8E0E4C9FAE4CCFB2275F010EF2F45
:1004F000FFEE33FEED33FDCC33CCC833C810D70745
:100500009BEC9AE899400AED9BFDEC9AFCE899F87F
:0E0510000FD5F0DAE4CDFBE4CCFAE4C8F92212
:0E051E00C3E49FFFE49EFEE49DFDE49CFC22EE
:10052C00E8600FECC313FCED13FDEE13FEEF13FFAD
:03053C00D8F122D1
:10053F00E493FC740193FD740293FE740393FF2202
:0D054F00E6FB08E6F908E6FA08E6CBF8221C
:10055C00E493F8740193F9740293FA740393FB22F5
:0C056C00ECF608EDF608EEF608EFF622BB
:100CD6000213A4E493A3F8E493A34003F68001F27D
:100CE60008DFF48029E493A3F85407240CC8C3331F
:100CF600C4540F4420C8834004F456800146F6DFEE
:100D0600E4800B01020408102040809012D7E47E94
:100D1600019360BCA3FF543F30E509541FFEE493E2
:100D2600A360010ECF54C025E060A840B8E493A3A9
:100D3600FAE493A3F8E493A3C8C582C8CAC583CAD4
:100D4600F0A3C8C582C8CAC583CADFE9DEE780BE8C
:0112E7000006
:10057800BC000BBE0029EF8DF084FFADF022E4CC67
:10058800F875F008EF2FFFEE33FEEC33FCEE9DEC30
:10059800984005FCEE9DFE0FD5F0E9E4CEFD22ED76
:1005A800F8F5F0EE8420D21CFEADF075F008EF2FC0
:1005B800FFED33FD4007985006D5F0F222C398FDB1
:0505C8000FD5F0EA224E
:00000001FF
