:10140D008F1E8D1F1216247F1A1215E612162DAF80
:10141D001E1215E612162DAF1F1215E612162D020D
:02142D00163671
:10142F008F7D1216247F1A1215E612162D7FB01219
:10143F0015E612162DAF7D1215E612162D02163671
:10148D0012142F1216247F1B1215E612162D12158B
:0B149D00B98F7E1215C8121636AF7E04
:0114A8002221
:030C8E00017600EC
:06167200759850021531CD
:081663008F993099FDC2992214
:08131C008F548E538D528C5149
:10132400E4FBEBC39555501DAF54121663AF54AE96
:1013340053AD52AC51780812059A8F548E538D5286
:051344008C510B80DD5F
:011349002281
:06167800759A5002161ADB
:0B160F008F9BE59A30E1FB539AFD220F
:10151E0012041AFF600C12160F740129F9E43AFA3C
:03152E0080EE222A
:10157900E59A30E009539AFE859B75AF75227F0085
:01158900223F
:0F159B0075BAB090FE8074E0F090FE82E4F0220A
:0F15AA0090FE82E030E6F990FE82E054BFF0221E
:0916240090FE817401F00215AA88
:0E15E60090FE86EFF090FE817402F00215AACE
:09162D0090FE817403F00215AA7D
:0F15B90090FE817404F01215AA90FE87E0FF22C5
:0E15F40090FE82E4F090FE817405F00215AACC
:0F15C80090FE827401F090FE817405F00215AA66
:0916360090FE817406F00215AA71
:10153100538EFE53890F438E40758DFD758B8FD26F
:021541008E22F8
:0A161A00438E1475D6FD75D78E229D
:0C1602007F867E0C7D49DDFEDEFADFF6FF
:01160E0022B9
:1013C400EF1FAC0670011E4C601A00000000000004
:1013D4000000000000000000000000000000000009
:0513E400000080DC2286
:101543007FCD7EE67DFDDDFEDEFADFF67F0EDFFE7C
:011553000097
:011554002274
:08163F007F78AE071FEE70FA80
:011647002280
:10144F00E4FDFCC3ED9FEC9E5015E4FBFA0BBB00D3
:0F145F00010ABA5DF8BBC0F50DBD00010C80E4B9
:01146E00225B
:07166B00759124E4F59222C1
:1013E90075DE2FEF4480F5BC43BC400000E5BC30FE
:1013F900E5FB53BCDFAFBDEFFEADBE7C00E42DFFC6
:03140900EC3EFEB8
:01140C0022BD
:06167E0075AF01D2AF229E
:10146F00D2947F0A7E001213C4C2947F207E03128F
:0E147F0013C4D2947F587E021213C47F012240
:021245008F72A6
:10124700E4F573E5725401F574C2947F0F7E0012C2
:1012570013C4E5721392947F2D7E001213C4D294A7
:101267007F0A7E001213C4E572C313F5720573E596
:0612770073C3940840CD92
:01127D00224E
:10127E00E4F577E578C313F578C2947F027E001209
:10128E0013C4D2947F047E001213C4309408E57800
:10129E004480F578F5787F1E7E001213C40577E53D
:0812AE0077C3940840CDAF782E
:0112B6002215
:1014DD0012146FEF600D7FCC1212457F441212452E
:0514ED007F01227F00D9
:0114F20022D7
:100FB300E4F559F558F557F55612146FEF60167F9F
:100FC300CC1212457FBE12124512127E8F5C121292
:100FD3007E8F5DD294755A00855D5BE55B755B0022
:100FE300F55AE55C425BAC5AAD5BEC1202A6E4FB3E
:100FF300FA7980783D1200FB8F598E588D578C56A5
:10100300E4FFFE7D207C41AB59AA58A957A856128C
:1010130000FBE4FBFAF9783F12000A1202DF8E5A52
:021023008F5BE1
:0110250022A8
:101099007D0E7F8212140D7DA67F8312140DE4FD4F
:1010A9007F8412140DE4FD7F8512140DE4FD7F8603
:1010B90012140D7D647F8712140DE4FD7F881214CC
:1010C9000D7D647F8912140DE4FD7F8A12140D7D54
:1010D900647F8B12140D7DB17F8012140DE4FD7FA6
:1010E9008112140D7D117F8012140D1216027D21BB
:0510F9007F8002140DD0
:10115C007D937F8012140D7F8F12148DEF30E0F78A
:10116C007F9212148DEF7F00FEC006C0077F931292
:10117C00148DEFFDD0E02DFFD0E03400FEEF7802AF
:10118C00C333CE33CED8F98E0EF50F7802CEA2E74C
:10119C0013CE13D8F8FF7C007D201204728E0E8FB4
:0111AC000F33
:0111AD00221F
:10063B001210997F8F12148DEF30E1F77F94121403
:10064B008DEF7F00FEC006C0077F9512148DEFFD66
:10065B00D0E02DF509D0E03400F5087F9612148D0B
:10066B00EF7F00FEC006C0077F9712148DEFFDD001
:10067B00E02DF51DD0E03400F51CFCAD1D1202A6DB
:10068B00C004C005C006C007AC1CAD1DEC1202A611
:10069B00D003D002D001D0001200FBC004C005C0B3
:1006AB0006C007AC08AD09EC1202A6C004C005C019
:1006BB0006C007AC08AD09EC1202A6D003D002D0DD
:1006CB0001D0001200FBD003D002D001D0001200E9
:1006DB000A120D7C8F178E168D158C14D3E5099489
:1006EB0000E508648094804050D3E51D9400E51C20
:1006FB00648094804043AC1CAD1DEC1202A6C00478
:10070B00C005C006C007AC08AD09EC1202A68F4AA3
:10071B008E498D488C47D007D006D005D0041210D7
:10072B0026E4FBFA793478431200FB7BDA7A0F79F3
:10073B00497840120204020863C3E5086480948080
:10074B005059E51D9400E51C64809480404DAC1C11
:10075B00AD1DEC1202A6C004C005C006C007AC0854
:10076B00AD09EC1202A68F4A8E498D488C47D007F3
:10077B00D006D005D004121026E4FBFA7934784366
:10078B001200FB7BDA7A0F79497840120204E4FB02
:10079B00FA7934784312000A020863C3E5086480CF
:1007AB0094805055C3E51C64809480504CAC1CADB8
:1007BB001DEC1202A6C004C005C006C007AC08ADF4
:1007CB0009EC1202A68F4A8E498D488C47D007D070
:1007DB0006D005D004121026E4FBFA7934784312C4
:1007EB0000FB7BDA7A0F79497840120204E4FBFABA
:1007FB007934784312000A805FD3E5099400E50849
:10080B0064809480405AE51C648094805052AC1CE8
:10081B00AD1DEC1202A6C004C005C006C007AC0893
:10082B00AD09EC1202A68F4A8E498D488C47D00732
:10083B00D006D005D004121026E4FBFA79347843A5
:10084B001200FB7BDA7A0F79497840120204E4FB41
:10085B00FA79B4784312000A8F0D8E0C8D0B8C0A2B
:10086B00AB17AA16A915A8147FF87E137D647C4AD2
:10087B001202048F1B8E1A8D198C187FB87E9E7DE9
:10088B00917CC3AB0DAA0CA90BA80A12000A7BDA48
:10089B007A0F794978401200FBE4FBFA79347843FC
:1008AB0012020412093AAB1BAA1AA919A8181200B2
:1008BB00FB7B5C7A8F79D278C012000AA804A90559
:1008CB00AA06AB077F807E1A7D837C491202048FB8
:1008DB00138E128D118C107DA17F8012140DAF130E
:0608EB00AE12AD11AC10CD
:0108F10022E4
:0F15D700D286D28712163FC28612163FC28722D3
:10158A00C286D28712163FD28612163FC287021629
:01159A003F11
:1014F300EF30E004D2868002C286D28712163FC242
:0615030087D28602163FAC
:1014C500E4F571D286D28712163FA286E4334271C3
:0714D50012163FC287AF7140
:0114DC0022ED
:0212ED008F6F01
:1012EF00E4F570E56F30E704D2868002C2861216ED
:1012FF003FD28712163FC28712163FE56F25E0F5E2
:0D130F006F0570E570C3940840D90214C545
:10134A00E4F579F57AD286F579D28712163FA28624
:10135A00E433427AC28712163FE57A25E0F57A0528
:0A136A0079E579C3940840E1AF7AF9
:011374002256
:101555008F6E1215D77F461212EDAF6E1212ED0285
:02156500158AE5
:1012B7001215D77F471212EDE4F57F12134A743BDC
:1012C700257FF8A607E57FB403047F018002E4FFCA
:1012D7001214F3057FE57FC3940340DF12158A7F5D
:0612E700057E0002144F19
:05168A007F010215556F
:1010FE007F011215557F101215557FC87E001214F0
:10110E004F1212B7E4FF121555753900853B3AE5BB
:10111E003AFE7C00E4253CF53AEC3EF539FCAD3A5E
:10112E00E41202A67B9A7A997999783F1202048F7B
:10113E00618E608D5F8C5E7F337E337DB37C3FAB83
:0D114E0061AA60A95FA85E1200FB1202DF1B
:01115B002271
:1014A9007F021213E9AD07AC06E41202A67BE67AC5
:0B14B9003F791C78401200FB1202DF9C
:0114C4002205
:100C9100028800000484C126C083048046DDC97730
:100B88009001087407F0A37432F090010C7423F0FC
:100B9800A374DCF090010A7409F0A37425F09001A5
:100BA8000E740FF0A374A0F07432642570047407F7
:100BB80064097003020C8D90010EE0FEA3E0FFD3E0
:100BC80090010DE09FEE6480F890010CE06480983D
:100BD8004033900108E0FEA3E0FF90010BE09FFD89
:100BE80090010AE09EFC1202A6C004C005C006C01F
:100BF8000790010CE0FEA3E0FFC390010FE09FFD0A
:100C080090010E803290010AE0FEA3E0FFC390013C
:100C180009E09FFD900108E09EFC1202A6C004C0F6
:100C280005C006C00790010EE0FEA3E0FFC39001D7
:100C38000DE09FFD90010CE09EFC1202A6D003D0AF
:100C480002D001D00012020478841205DA9001085B
:100C5800E0FCA3E0FDEC1202A678841205BD1200A8
:100C6800FBC004C005C006C00790010CE0FCA3E06F
:100C7800FDEC1202A6D003D002D001D0001200066B
:060C880078801205DA225B
:0211AE008F4B65
:1011B000E4F550F54FF54EF54DF54CAF4B1213E9F4
:1011C000E4FCFDE5502FF550E54F3EF54FED354E73
:1011D000F54EEC354DF54DE4FFFE0FBF00010EBEA0
:1011E00003F8BFE8F5054CE54CC3946440CDE47BBF
:0F11F00064FAF9F8AF50AE4FAD4EAC4D1204FAA1
:0111FF0022CD
:101375007F051211AEAD07AC06E41202A678841201
:1013850005BD1200FB78801205BD12000A1202DFAE
:071395007888EEF608EFF680
:01139C00222E
:100CA100606E00407B2274223A20312C22646576EA
:100CB100696365223A2022426C75654265727279D8
:100CC100222C226B6579223A2264396238643534E8
:100CD100393637376534326439383966333534302B
:100CE100316236633037393066222C2276657222C2
:100CF1003A2276312E30227D0000000000000000F3
:100D010000000000000000000000000000000000E2
:100D11000000605000B87B2274223A20332C2264F8
:100D210061746174797065223A312C226461746155
:100D310073223A7B225068223A32322E357D2C22A0
:100D41006D73676964223A203137337D00000000FA
:100D51000000000000000000000000000000000092
:100D61000000000000004700B124234154230D007E
:060D71004300AE0100008A
:10120000E4F57BF57C121579EF7016057CE57C70B2
:1012100002057BD3942CE57B6480948140EA7F00B7
:10122000229000AEE0FBA3E0FAA3E0F9EF12046025
:101230009000AEE0FBA3E475F0011204A845F04B6A
:0412400070EE7F01CC
:011244002287
:060EAE008B218A2289233A
:100EB4008B308A3189329000AEE0FBA3E0FAA3E0E4
:100EC400F9120F318B278A288929AB21AA22A92359
:100ED400121509EF3395E0FEE5292FF9E5283E8543
:100EE400272AF52B892CAB27AA28A929AE02AF0102
:100EF400EF4E603490FFFF1204336422702AAB2A51
:100F0400AA2BA92C12041AB4221E90000112043335
:100F1400B43A15900002120433B4220CE92402F905
:0C0F2400E43A8B24F5258926AE25AF2683
:010F3000229E
:091648007B017A00794002151EB5
:091651007B017A0079B102151E3B
:09165A007B017A0079B802151E2B
:1015670012159B12167212168A12166B120B88022C
:021577001678E4
:10139D00C2A6121543121543121543121543121608
:1013AD004812154312154312165A121543121543BE
:0713BD00121651B2A680E1F7
:0616840012156702139D20
:1000030002034BE86480F8E933E83360110460F0DD
:10001300ED33EC337009E8FCE9FDEAFEEBFF220463
:1000230060DED3EB9FEA9EE99DE8C2E78CF0C2F75E
:1000330095F0400CE8CCF8E9CDF9EACEFAEBCFFB2A
:1000430012031685D0F05804700320D5B3E804706A
:10005300075002B2D502035592D5EC0460F7E4CC05
:10006300C0E0C398F8603B94186008400DD0E0FBF3
:1000730002032DE4FBFAC9FC8028E830E406E4C956
:10008300FBE4CAFCE830E305E4C9CACBFCE8540747
:100093006010F8C3E913F9EA13FAEB13FBEC13FC52
:1000A300D8F130F52FC3E49CFCEF9BFFEE9AFEEDF5
:1000B30099FDD0E0FBEF4E4D4C701222DB0302039F
:1000C30052EC2CFCEF33FFEE33FEED33FDED30E766
:1000D300EB02032DEF2BFFEE3AFEED39FDD0E0FBF3
:1000E30050130BBB0003020355ED13FDEE13FEEF9C
:0800F30013FFEC13FC02032DC6
:1000FB00EC4D6011E8497017ED33EC3304600DE4FF
:10010B00FCFFFEFD22E933E8330470F802034B12C7
:10011B00031658046009E4CC2481500628500902C8
:10012B000355284003020352C0E0EB4A7044B980E8
:10013B0006D0E0FB020341EF4E701CBD8008EBFFC5
:10014B00EAFEE9FD80EBE98DF0A4FEE5F00201E4A7
:10015B00E9CDF9EAFEEBFFEF89F0A4FCE5F0CE89DF
:10016B00F0A42EFFE435F0CD89F0A42DFEE435F09C
:10017B008067EF4E7005BD80D780C3EF8BF0A4ACCA
:10018B00F0EE8BF0A42CFCE435F0F8EF8AF0A42C05
:10019B00E5F038FCE433CB8DF0A42CFCE5F03BF818
:1001AB00EE8AF0A42CFCE5F038F8E433CF89F0A408
:1001BB002CFCE5F038CF3400CE89F0A42FFFE5F00E
:1001CB003EFEE433C98DF0A42EFEE5F039CD8AF066
:1001DB00A42FFFE5F03EFEE43DFD33D0E0FB5007DE
:1001EB000BBB000F020355EC2CFCEF33FFEE33FE81
:0601FB00ED33FD02032DAF
:10020100020355EC5D046005E85904700302034BD9
:10021100120316580460F6EC4860F2EC7004FDFE1F
:10022100FF22C860DB2481C85009C39860025006D0
:100231000203529850CAF582E9294B4A7005AB82F4
:1002410002034175F0007C1A7880C3EF9BEE9AEDB2
:1002510099400DC3EF9BFFEE9AFEED99FDE842F048
:10026100DC23ACF0D0E0FFD0E0FED0E0FDAB82209B
:10027100E7101BEB60BAEC2CFCEF33FFEE33FEED25
:1002810033FD02032DE803F830E705C0F075F000F7
:10029100EF2FFFEE33FEED33FD40B830E7C280AA09
:1002A10075F020800E75F010800575F0087D007ED8
:1002B100007F003392D530D50312058CEC3340100A
:1002C100EF33FFEE33FEED33FDEC33FCD5F0ED22E1
:0E02D100E5F0247EA2D513CC92E7CDCEFF221D
:1002DF00EDD2E7CD33EC3392D524814006E4FFFE17
:1002EF00FDFC22FCE4CFCECDCC24E0501174FF8076
:1002FF00EDC3CC13CCCD13CDCE13CECF13CF047013
:07030F00F030D5DE02058C81
:100D780002034B22EDA2E7D2E7F9EC3340F260F32D
:100D8800B4FF08ED547F70E8020355F82481C2E0EF
:100D9800C0E0F40428FAC313FCED92E7FD8C628DE1
:100DA800638E648F65EEA2E7E9BA7F02C31334004D
:100DB8009400FA75F091A4E5F013F494FE8AF0A477
:100DC80033E5F033248CD313FDE492E7FE7F007CF7
:100DD8003F758302ECC0E0F8EDC0E0F9EEC0E0FA40
:100DE800EFC0E0FBAC62AD63AE64AF65120204D045
:100DF800E0FBD0E0FAD0E0F9D0E0F812000AED64A8
:100E080080FD30E7011CD583CBED33CC33F8D0E03F
:0A0E1800A2E71328C313CC13FD2238
:101026008F468E458D448C43AB4AAA49A948A847AA
:10103600120204120A808F468E458D448C43E54782
:1010460030E747ECC0E0EDC0E0EEC0E0EFC0E0E422
:10105600FFFEFDFCAB46AA45A944A8431203607BEC
:10106600DB600250087A0F7949784080067A0F795A
:101076004978C0D0E0FFD0E0FED0E0FDD0E0FC1221
:10108600000A8F468E458D448C43AF46AE45AD442F
:03109600AC432246
:1008F2003A70FA83BCAAE9E43E81E0F8BF9DE9E6DA
:100902003F80000039283C1ABB9969663DA335E354
:10091200BF255DE73FC90FDB418DDBCCC44936EE15
:1009220045C9913FC5B0F83D3F800000C317F5347B
:10093200452FFA73C60AFDDD1209E104A2E1920213
:100942001420E0159008F274041203CD80261209D7
:10095200E130E102B20220E0EB8C668D678E688F97
:100962006990090674041203CDA866A967AA68AB48
:10097200691200FBED4C6007300204EC6480FC223B
:100982001209E1C0E08C668D678E688F6990092A32
:1009920074031203CDA866A967AA68AB691200FBAB
:1009A200ECC566FCEDC567FDEEC568FEEFC569FFE7
:1009B20090091A74031203CDD082A866A967AA68A7
:1009C200AB69E58230E007120204B20280A6EFCBE7
:1009D200FFEECAFEEDC9FDECC8FC1202048095EDE3
:1009E20033EC547FCC33920224605007D0E0D0E045
:1009F20002034B7B837AF97922783E1200FBEDF9F0
:100A020033ECF83324815011EFFBEEFA1202DF12BD
:100A120002A1ECB2E7FC12000AED33EC33602F24A2
:100A220003F8C313FCED92E7FDE82481E4501FECC8
:100A3200F8EDF9EEFAEFFB1202DFEF04C2E0FCF58B
:100A4200821202ABECB2E7FC12000AE58203FAED75
:0E0A520033EC3360071413FCED92E7FDEA224B
:10031600E9D2E7C933E833F892D5EDD2E7CD33EC2D
:0703260033FC5002B2D522A6
:10032D00EC30E7100FBF000C0EBE00080DBD000431
:10033D000BEB6014A2D5EB13FCED92E7FD2274FFDD
:10034D00FCFDFEFF22E480F8A2D574FF13FC7D8036
:03035D00E480EF4A
:1003600074F8CC6480CCC86480C8F582046043C350
:10037000EB9FF5F0EA9E42F0E99D42F0E89C45F0E3
:1003800060305018E5825FFFE582F42B5582FB5008
:10039000210ABA001D09B90019088016E5825BFB25
:1003A000E582F42F5582FF50090EBE00050DBD00F9
:1003B000010CC3EB9FF5F0EA9E42F0E99D42F0E8A4
:0D03C0009C45F06007CC4820E701B3EC221B
:1003CD00C0E0EFFBEEFAEDF9ECF81200FBD0E0F532
:1003DD00F0EFFBEEFAEDF9ECF81205ADA3A3A3A334
:1003ED00E8C0E0E9C0E0EAC0E0EBC0E0C0F0120018
:1003FD00FB1205CAA3A3A3A312000AD0F0D0E0FB01
:0D040D00D0E0FAD0E0F9D0E0F8D5F0D4222C
:100A6000BE1249253E4CCCCDBEAAAAAB3F800000A9
:100A70003E7ADBB03EED63383F24BC7D3F490FDB5F
:100A8000ED33ECC2E7CC339200B4FF13ED547F603A
:100A90000302034B7FDB7E0F7DC97C3F020B7BC2D1
:100AA00001C3947F401E7007EDD2E794904015EF8C
:100AB000FBEEFAEDF9ECF87F007E007D807C3F12C2
:100AC0000204D201ED33EC33248430E705E4C0E0C6
:100AD000806D04FAEDD2E754F0C333DAFD540734E5
:100AE000002323C0E0CCC0E0F8EDC0E0F9EEC0E0A8
:100AF000FAEFC0E0FBE41202ABEC24FEFC8C6A8D42
:100B00006B8E6C8F6D1200FB7B007A007980783FD2
:100B100012000AECC56AB2E7FCEDC56BFDEEC56CD0
:100B2000FEEFC56DFFD0E0FBD0E0FAD0E0F9D0E0F9
:100B3000F812000AA86AA96BAA6CAB6D1202048CA9
:100B40006A8D6B8E6C8F6D900A6074031203CDA852
:100B50006AA96BAA6CAB6D1200FBD0E0600F246C2D
:100B6000F582E4340AF5831205CA12000A30010B3B
:100B70007BDB7A0F79C978BF12000AED33EC336062
:080B800006ECA20092E7FC2242
:03000000020E22CB
:0C0E2200787FE4F6D8FD758189020E6926
:10041A00BB010689828A83E0225002E722BBFE02E0
:09042A00E32289828A83E4932213
:10043300BB010CE58229F582E5833AF583E022507E
:1004430006E92582F8E622BBFE06E92582F8E222C8
:0D045300E58229F582E5833AF583E49322E2
:10046000BB010689828A83F0225002F722BBFE017B
:02047000F32275
:10047200C2D5EC30E709B2D5E4C39DFDE49CFCEEA5
:1004820030E715B2D5E4C39FFFE49EFE1205E6C332
:10049200E49DFDE49CFC80031205E630D507C3E42D
:0604A2009FFFE49EFE2214
:1004A800A3F8E0C5F025F0F0E58215827002158307
:0604B800E0C838F0E82264
:1004BE0075F008758200EF2FFFEE33FECD33CDCCF5
:1004CE0033CCC58233C5829BED9AEC99E582984078
:1004DE000CF582EE9BFEED9AFDEC99FC0FD5F0D655
:1004EE00E4CEFBE4CDFAE4CCF9A88222B800C1B97F
:1004FE000059BA002DEC8BF084CFCECDFCE5F0CBBD
:10050E00F97818EF2FFFEE33FEED33FDEC33FCEBF5
:10051E0033FB10D703994004EB99FB0FD8E5E4F9B0
:10052E00FA227818EF2FFFEE33FEED33FDEC33FC9D
:10053E00C933C910D7059BE99A4007EC9BFCE99A91
:10054E00F90FD8E0E4C9FAE4CCFB2275F010EF2FD6
:10055E00FFEE33FEED33FDCC33CCC833C810D707D6
:10056E009BEC9AE899400AED9BFDEC9AFCE899F811
:0E057E000FD5F0DAE4CDFBE4CCFAE4C8F922A4
:0E058C00C3E49FFFE49EFEE49DFDE49CFC2280
:10059A00E8600FECC313FCED13FDEE13FEEF13FF3F
:0305AA00D8F12263
:1005AD00E493FC740193FD740293FE740393FF2294
:0D05BD00E6FB08E6F908E6FA08E6CBF822AE
:1005CA00E493F8740193F9740293FA740393FB2287
:0C05DA00ECF608EDF608EEF608EFF6224D
:10150900E4FFFE12041A600C0FEF70010E09E97076
:05151900F20A80EF2240
:100F31008B2D8A2E892FAB30AA31A93212041A6067
:100F410063AB2DAA2EA92F12041A605F8530338559
:100F510031348532358B368A378938AB33AA34A997
:100F61003512041AFF6023AB36AA37A93812041AC6
:100F71006F7017042535F535E43534F534740125E2
:100F810038F538E43537F53780D1AB33AA34A93594
:100F910012041A7002800D7401252FF52FE4352EED
:100FA100F52E809DAB2DAA2EA92F227B007A0079E8
:020FB10000221C
:100E2E00021684E493A3F8E493A34003F68001F240
:100E3E0008DFF48029E493A3F85407240CC8C333C5
:100E4E00C4540F4420C8834004F456800146F6DF94
:100E5E00E4800B0102040810204080900C8EE47E8A
:100E6E00019360BCA3FF543F30E509541FFEE49389
:100E7E00A360010ECF54C025E060A840B8E493A350
:100E8E00FAE493A3F8E493A3C8C582C8CAC583CA7B
:100E9E00F0A3C8C582C8CAC583CADFE9DEE780BE33
:010D7700007B
:1005E600BC000BBE0029EF8DF084FFADF022E4CCF9
:1005F600F875F008EF2FFFEE33FEEC33FCEE9DECC2
:10060600984005FCEE9DFE0FD5F0E9E4CEFD22ED07
:10061600F8F5F0EE8420D21CFEADF075F008EF2F51
:10062600FFED33FD4007985006D5F0F222C398FD42
:050636000FD5F0EA22DF
:00000001FF
