:060EDD00759850020E2A78
:080ED5008F993099FDC29922AA
:080D45008F268E258D248C23DE
:100D4D00E4FBEBC39527501DAF26120ED5AF26AE93
:100D5D0025AD24AC2378081204708F268E258D24A2
:050D6D008C230B80DD6A
:010D7200225E
:100D98008F238D24120EB17F1A120E8A120EBAAF4B
:100DA80023120E8A120EBAAF24120E8A120EBA023B
:020DB8000EC368
:100DBA008F24120EB17F1A120E8A120EBA7FB01247
:100DCA000E8A120EBAAF24120E8A120EBA020EC37D
:100DF800120DBA120EB17F1B120E8A120EBA120E03
:0B0E08006C8F23120E7B120EC3AF2371
:010E130022BC
:0F0E4E0043BA3090FE8074E0F090FE82E4F02210
:0F0E5D0090FE82E030E6F990FE82E054BFF02272
:090EB10090FE817401F0020E5D57
:0E0E8A0090FE86EFF090FE817402F0020E5D85
:090EBA0090FE817403F0020E5D4C
:0F0E6C0090FE817404F0120E5D90FE87E0FF226D
:0F0E7B0090FE827401F090FE817405F0020E5D0E
:090EC30090FE817406F0020E5D40
:100E2A00538EFE53890F438E40758DFD758B8FD27D
:020E3A008E2206
:0C0E98007F867E0C7D49DDFEDEFADFF671
:010EA400222B
:100D7300EF1FAC0670011E4C601A0000000000005B
:100D83000000000000000000000000000000000060
:050D9300000080DC22DD
:100E3C007FCD7EE67DFDDDFEDEFADFF67F0EDFFE8A
:010E4C0000A5
:010E4D002282
:100DDA00D2947F0A7E00120D73C2947F207E031282
:0E0DEA000D73D2947F587E02120D737F01228A
:020CA4008F2798
:100CA600E4F528E5275401F529C2947F0F7E00124A
:100CB6000D73E5271392947F2D7E00120D73D29447
:100CC6007F0A7E00120D73E527C313F5270528E575
:060CD60028C3940840CD84
:010CDC0022F5
:100CDD00E4F527E528C313F528C2947F027E0012A0
:100CED000D73D2947F047E00120D73309408E528A5
:100CFD004480F528F5287F1E7E00120D730527E52B
:080D0D0027C3940840CDAF2874
:010D150022BB
:100E1400120DDAEF600D7FCC120CA47F44120CA4E7
:050E24007F01227F00A8
:010E290022A6
:100B0700E4F526F525F524F523120DDAEF60167FB7
:100B1700CC120CA47FBE120CA4120CDD8F31120C68
:100B2700DD8F32D294752F00853230E53075300075
:100B3700F52FE5314230AC2FAD30EC1202A6E4FBC5
:100B4700FA7980783D1200FB8F268E258D248C2321
:100B5700E4FFFE7D207C41AB26AA25A924A8231209
:100B670000FBE4FBFAF9783F12000A1202DF8E2F2E
:020B77008F30BD
:010B79002259
:100BED007D0E7F82120D987DA67F83120D98E4FDF8
:100BFD007F84120D98E4FD7F85120D98E4FD7F86AC
:100C0D00120D987D647F87120D98E4FD7F88120D7B
:100C1D00987D647F89120D98E4FD7F8A120D987D71
:100C2D00647F8B120D987DB17F80120D98E4FD7F4E
:100C3D0081120D987D117F80120D98120E987D21D5
:050C4D007F80020D98FC
:100C52007D937F80120D987F8F120DF8EF30E0F7B1
:100C62007F92120DF8EF7F00FEC006C0077F93123D
:100C72000DF8EFFDD0E02DFFD0E03400FEEF78025A
:100C8200C333CE33CED8F98E0EF50F7802CEA2E75B
:100C920013CE13D8F8FF7C007D2012042C8E0E8F09
:010CA2000F42
:010CA300222E
:1004F800120BED7F8F120DF8EF30E1F77F94120D9C
:10050800F8EF7F00FEC006C0077F95120DF8EFFDDB
:10051800D0E02DF509D0E03400F5087F96120DF8EB
:10052800EF7F00FEC006C0077F97120DF8EFFDD0E1
:10053800E02DF51DD0E03400F51CFCAD1D1202A61F
:10054800C004C005C006C007AC1CAD1DEC1202A655
:10055800D003D002D001D0001200FBC004C005C0F7
:1005680006C007AC08AD09EC1202A6C004C005C05D
:1005780006C007AC08AD09EC1202A6D003D002D021
:1005880001D0001200FBD003D002D001D00012002D
:100598000A120A618F178E168D158C14D3E50994EB
:1005A80000E508648094804050D3E51D9400E51C64
:1005B800648094804043AC1CAD1DEC1202A6C004BC
:1005C800C005C006C007AC08AD09EC1202A68F2A08
:1005D8008E298D288C27D007D006D005D004120B81
:1005E8007AE4FBFA793478431200FB7BDA7A0F79E4
:1005F800497840120204020720C3E5086480948009
:100608005059E51D9400E51C64809480404DAC1C55
:10061800AD1DEC1202A6C004C005C006C007AC0898
:10062800AD09EC1202A68F2A8E298D288C27D007B7
:10063800D006D005D004120B7AE4FBFA793478435B
:100648001200FB7BDA7A0F79497840120204E4FB46
:10065800FA7934784312000A020720C3E508648057
:1006680094805055C3E51C64809480504CAC1CADFC
:100678001DEC1202A6C004C005C006C007AC08AD38
:1006880009EC1202A68F2A8E298D288C27D007D034
:1006980006D005D004120B7AE4FBFA7934784312B9
:1006A80000FB7BDA7A0F79497840120204E4FBFAFE
:1006B8007934784312000A805FD3E5099400E5088D
:1006C80064809480405AE51C648094805052AC1C2D
:1006D800AD1DEC1202A6C004C005C006C007AC08D8
:1006E800AD09EC1202A68F2A8E298D288C27D007F7
:1006F800D006D005D004120B7AE4FBFA793478439B
:100708001200FB7BDA7A0F79497840120204E4FB85
:10071800FA79B4784312000A8F0D8E0C8D0B8C0A6F
:10072800E50F24EAFFE50E34FFFE7C017D9D1204EF
:100738001AEE3395E0FDFCEF24FEFFEE3404FEEDE7
:100748003439FDE43CFC1202A1AB17AA16A915A87E
:10075800141202048F1B8E1A8D198C187FB87E9E76
:100768007D917CC3AB0DAA0CA90BA80A12000A7BC9
:10077800DA7A0F794978401200FBE4FBFA79347889
:100788004312020412080FAB1BAA1AA919A81812BF
:1007980000FB7B5C7A8F79D278C012000AA804A982
:1007A80005AA06AB077F007E957D767C4912020478
:0F07B8008F138E128D118C107DA17F80020D98F2
:090ECC00120E4E120EDD020BEDB8
:100D1600120E14120C521204F8120E14120E3C1279
:100D26000E3C120B078E218F22AF13AE12AD11AC03
:0F0D3600101202DF752704120D45120BED80D746
:060EE300120ECC020D16F8
:1000030002034BE86480F8E933E83360110460F0DD
:10001300ED33EC337009E8FCE9FDEAFEEBFF220463
:1000230060DED3EB9FEA9EE99DE8C2E78CF0C2F75E
:1000330095F0400CE8CCF8E9CDF9EACEFAEBCFFB2A
:1000430012031685D0F05804700320D5B3E804706A
:10005300075002B2D502035592D5EC0460F7E4CC05
:10006300C0E0C398F8603B94186008400DD0E0FBF3
:1000730002032DE4FBFAC9FC8028E830E406E4C956
:10008300FBE4CAFCE830E305E4C9CACBFCE8540747
:100093006010F8C3E913F9EA13FAEB13FBEC13FC52
:1000A300D8F130F52FC3E49CFCEF9BFFEE9AFEEDF5
:1000B30099FDD0E0FBEF4E4D4C701222DB0302039F
:1000C30052EC2CFCEF33FFEE33FEED33FDED30E766
:1000D300EB02032DEF2BFFEE3AFEED39FDD0E0FBF3
:1000E30050130BBB0003020355ED13FDEE13FEEF9C
:0800F30013FFEC13FC02032DC6
:1000FB00EC4D6011E8497017ED33EC3304600DE4FF
:10010B00FCFFFEFD22E933E8330470F802034B12C7
:10011B00031658046009E4CC2481500628500902C8
:10012B000355284003020352C0E0EB4A7044B980E8
:10013B0006D0E0FB020341EF4E701CBD8008EBFFC5
:10014B00EAFEE9FD80EBE98DF0A4FEE5F00201E4A7
:10015B00E9CDF9EAFEEBFFEF89F0A4FCE5F0CE89DF
:10016B00F0A42EFFE435F0CD89F0A42DFEE435F09C
:10017B008067EF4E7005BD80D780C3EF8BF0A4ACCA
:10018B00F0EE8BF0A42CFCE435F0F8EF8AF0A42C05
:10019B00E5F038FCE433CB8DF0A42CFCE5F03BF818
:1001AB00EE8AF0A42CFCE5F038F8E433CF89F0A408
:1001BB002CFCE5F038CF3400CE89F0A42FFFE5F00E
:1001CB003EFEE433C98DF0A42EFEE5F039CD8AF066
:1001DB00A42FFFE5F03EFEE43DFD33D0E0FB5007DE
:1001EB000BBB000F020355EC2CFCEF33FFEE33FE81
:0601FB00ED33FD02032DAF
:10020100020355EC5D046005E85904700302034BD9
:10021100120316580460F6EC4860F2EC7004FDFE1F
:10022100FF22C860DB2481C85009C39860025006D0
:100231000203529850CAF582E9294B4A7005AB82F4
:1002410002034175F0007C1A7880C3EF9BEE9AEDB2
:1002510099400DC3EF9BFFEE9AFEED99FDE842F048
:10026100DC23ACF0D0E0FFD0E0FED0E0FDAB82209B
:10027100E7101BEB60BAEC2CFCEF33FFEE33FEED25
:1002810033FD02032DE803F830E705C0F075F000F7
:10029100EF2FFFEE33FEED33FD40B830E7C280AA09
:1002A10075F020800E75F010800575F0087D007ED8
:1002B100007F003392D530D503120462EC33401035
:1002C100EF33FFEE33FEED33FDEC33FCD5F0ED22E1
:0E02D100E5F0247EA2D513CC92E7CDCEFF221D
:1002DF00EDD2E7CD33EC3392D524814006E4FFFE17
:1002EF00FDFC22FCE4CFCECDCC24E0501174FF8076
:1002FF00EDC3CC13CCCD13CDCE13CECF13CF047013
:07030F00F030D5DE020462AC
:100A5D0002034B22EDA2E7D2E7F9EC3340F260F34B
:100A6D00B4FF08ED547F70E8020355F82481C2E00D
:100A7D00C0E0F40428FAC313FCED92E7FD8C238D3E
:100A8D00248E258F26EEA2E7E9BA7F02C313340028
:100A9D009400FA75F091A4E5F013F494FE8AF0A495
:100AAD0033E5F033248CD313FDE492E7FE7F007C15
:100ABD003F758302ECC0E0F8EDC0E0F9EEC0E0FA5E
:100ACD00EFC0E0FBAC23AD24AE25AF26120204D05F
:100ADD00E0FBD0E0FAD0E0F9D0E0F812000AED64C6
:100AED0080FD30E7011CD583CBED33CC33F8D0E05E
:0A0AFD00A2E71328C313CC13FD2257
:100B7A008F268E258D248C23AB2AAA29A928A8275B
:100B8A001202041209558F268E258D248C23E527FF
:100B9A0030E747ECC0E0EDC0E0EEC0E0EFC0E0E4D3
:100BAA00FFFEFDFCAB26AA25A924A8231203607B1D
:100BBA00DB600250087A0F7949784080067A0F790B
:100BCA004978C0D0E0FFD0E0FED0E0FDD0E0FC12D2
:100BDA00000A8F268E258D248C23AF26AE25AD24C0
:030BEA00AC232217
:1007C7003A70FA83BCAAE9E43E81E0F8BF9DE9E606
:1007D7003F80000039283C1ABB9969663DA335E381
:1007E700BF255DE73FC90FDB418DDBCCC44936EE42
:1007F70045C9913FC5B0F83D3F800000C317F534A8
:10080700452FFA73C60AFDDD1208B604A2E192006D
:100817001420E0159007C774041203CD8026120830
:10082700B630E102B20020E0EB8C238D248E258FB9
:10083700269007DB74041203CDA823A924AA25ABAD
:10084700261200FBED4C6007300004EC6480FC22AC
:100857001208B6C0E08C238D248E258F269007FFC3
:1008670074031203CDA823A924AA25AB261200FBE3
:10087700ECC523FCEDC524FDEEC525FEEFC526FF1F
:100887009007EF74031203CDD082A823A924AA25C9
:10089700AB26E58230E007120204B20080A6EFCB58
:1008A700FFEECAFEEDC9FDECC8FC1202048095ED0F
:1008B70033EC547FCC33920024605007D0E0D0E073
:1008C70002034B7B837AF97922783E1200FBEDF91C
:1008D70033ECF83324815011EFFBEEFA1202DF12EA
:1008E70002A1ECB2E7FC12000AED33EC33602F24CF
:1008F70003F8C313FCED92E7FDE82481E4501FECF5
:10090700F8EDF9EEFAEFFB1202DFEF04C2E0FCF5B7
:10091700821202ABECB2E7FC12000AE58203FAEDA1
:0E09270033EC3360071413FCED92E7FDEA2277
:10031600E9D2E7C933E833F892D5EDD2E7CD33EC2D
:0703260033FC5002B2D522A6
:10032D00EC30E7100FBF000C0EBE00080DBD000431
:10033D000BEB6014A2D5EB13FCED92E7FD2274FFDD
:10034D00FCFDFEFF22E480F8A2D574FF13FC7D8036
:03035D00E480EF4A
:1003600074F8CC6480CCC86480C8F582046043C350
:10037000EB9FF5F0EA9E42F0E99D42F0E89C45F0E3
:1003800060305018E5825FFFE582F42B5582FB5008
:10039000210ABA001D09B90019088016E5825BFB25
:1003A000E582F42F5582FF50090EBE00050DBD00F9
:1003B000010CC3EB9FF5F0EA9E42F0E99D42F0E8A4
:0D03C0009C45F06007CC4820E701B3EC221B
:1003CD00C0E0EFFBEEFAEDF9ECF81200FBD0E0F532
:1003DD00F0EFFBEEFAEDF9ECF8120483A3A3A3A35F
:1003ED00E8C0E0E9C0E0EAC0E0EBC0E0C0F0120018
:1003FD00FB120493A3A3A3A312000AD0F0D0E0FB39
:0D040D00D0E0FAD0E0F9D0E0F8D5F0D4222C
:10093500BE1249253E4CCCCDBEAAAAAB3F800000D5
:100945003E7ADBB03EED63383F24BC7D3F490FDB8B
:10095500ED33ECC2E7CC339200B4FF13ED547F6066
:100965000302034B7FDB7E0F7DC97C3F020A50C229
:1009750001C3947F401E7007EDD2E794904015EFB8
:10098500FBEEFAEDF9ECF87F007E007D807C3F12EE
:100995000204D201ED33EC33248430E705E4C0E0F2
:1009A500806D04FAEDD2E754F0C333DAFD54073411
:1009B500002323C0E0CCC0E0F8EDC0E0F9EEC0E0D4
:1009C500FAEFC0E0FBE41202ABEC24FEFC8C2B8DAD
:1009D5002C8E2D8F2E1200FB7B007A007980783FBC
:1009E50012000AECC52BB2E7FCEDC52CFDEEC52DBA
:1009F500FEEFC52EFFD0E0FBD0E0FAD0E0F9D0E065
:100A0500F812000AA82BA92CAA2DAB2E1202048CD1
:100A15002B8D2C8E2D8F2E90093574031203CDA8A6
:100A25002BA92CAA2DAB2E1200FBD0E0600F244180
:100A3500F582E43409F58312049312000A30010BA0
:100A45007BDB7A0F79C978BF12000AED33EC33608E
:080A550006ECA20092E7FC226E
:03000000020EA548
:0C0EA500787FE4F6D8FD758132020EE380
:10041A00EF8DF0A4A8F0CF8CF0A428CE8DF0A42EF6
:02042A00FE22B0
:10042C00C2D5EC30E709B2D5E4C39DFDE49CFCEEEB
:10043C0030E715B2D5E4C39FFFE49EFE1204A3C3BC
:10044C00E49DFDE49CFC80031204A330D507C3E4B7
:06045C009FFFE49EFE225A
:0E046200C3E49FFFE49EFEE49DFDE49CFC22AB
:10047000E8600FECC313FCED13FDEE13FEEF13FF6A
:03048000D8F1228E
:10048300E493FC740193FD740293FE740393FF22BF
:10049300E493F8740193F9740293FA740393FB22BF
:1004A300BC000BBE0029EF8DF084FFADF022E4CC3D
:1004B300F875F008EF2FFFEE33FEEC33FCEE9DEC06
:1004C300984005FCEE9DFE0FD5F0E9E4CEFD22ED4C
:1004D300F8F5F0EE8420D21CFEADF075F008EF2F96
:1004E300FFED33FD4007985006D5F0F222C398FD87
:0504F3000FD5F0EA2224
:00000001FF
