:1022A00090024CEFF0A3EDF01225B07F1A122571C9
:1022B0001225B990024CE0FF1225711225B9900247
:0C22C0004DE0FF1225711225B90225C265
:10231B0090024DEFF01225B07F1A1225711225B9DC
:10232B007FB01225711225B990024DE0FF12257175
:06233B001225B90225C2C3
:1023D20012231B1225B07F1B1225711225B912255B
:1023E2004490024CEFF01225531225C290024CE0A9
:0123F200FFEB
:0123F30022C7
:081158004102E4004102E20043
:0625F5007598500224E27B
:0825E6008F993099FDC2992282
:0621A30090024C12080539
:1021A900E4FB900250E0FFEBC39F502890024CA340
:1021B900A3A3E0FAFF1225E690024CE0FCA3E0FDA0
:1021C900A3E0FEA3E0FF78081207A190024C1208D1
:0421D900050B80CEA4
:0121DD0022DF
:1024BC0012060FFF600C1225E6740129F9E43AFAB2
:0324CC0080EE227D
:0625FB00759A500225A6AE
:0F2517008F9B9002E47401F09002E4E070FA22CE
:1024CF0012060FFF600C122517740129F9E43AFA6E
:0324DF0080EE226A
:102215009002E2E06027E4F0A3E59BF0E0120655AA
:1022250012060F600D9002E27401F029F9E43AFA02
:1022350080DEE49002E2F01206557F01227F002243
:0F25260075BAB090FE8074E0F090FE82E4F0226F
:0F25350090FE82E030E6F990FE82E054BFF02283
:0925B00090FE817401F002253552
:0E25710090FE86EFF090FE817402F002253598
:0925B90090FE817403F002253547
:0F25440090FE817404F012253590FE87E0FF228F
:0E257F0090FE82E4F090FE817405F002253596
:0F25530090FE827401F090FE817405F002253530
:0925C20090FE817406F00225353B
:1024E200538EFE53890F438E40758DFD758B8FD2AF
:0224F2008E2238
:0A25A600438E1475D6FD75D78E2202
:0C258D007F867E0C7D49DDFEDEFADFF665
:01259900221F
:10234100EF1FAC0670011E4C601A00000000000077
:10235100000000000000000000000000000000007C
:05236100000080DC22F9
:1024F4007FCD7EE67DFDDDFEDEFADFF67F0EDFFEBC
:0125040000D6
:0125050022B3
:0825CB007F78AE071FEE70FAE5
:0125D30022E5
:1023F400E4FDFCC3ED9FEC9E5015E4FBFA0BBB001F
:0F240400010ABA5DF8BBC0F50DBD00010C80E404
:0124130022A6
:0725EE00759124E4F592222F
:1023660075DE2FEF4480F5BC43BC400000E5BC3071
:10237600E5FB53BCDFAFBDEFFEADBE7C00E42DFF39
:03238600EC3EFE2C
:012389002231
:0626010075AF01D2AF220B
:0300430002224551
:10224500C0E0C083C082E59A30E108539AFD900250
:10225500E4E4F0E59A30E00F539AFE9002E274014F
:0E226500F09002E3E59BF0D082D083D0E0320F
:10241400D2947F0A7E00122341C2947F207E03124D
:0E2424002341D2947F587E021223417F012271
:05209900900250EFF081
:10209E00E4A3F0900250E05401900252F0C2947FFB
:1020AE000F7E00122341900250E01392947F2D7EFA
:1020BE0000122341D2947F0A7E00122341900250D7
:0E20CE00E0C313F0A3E004F0E0C3940840C5A3
:0120DC0022E1
:10212000E4900250F0900251E0C313F0C2947F0299
:102130007E00122341D2947F047E0012234130940A
:1021400008900251E04480F0F07F1E7E001223418F
:10215000900250E004F0E0C3940840C9900251E0BE
:01216000FF7F
:01216100225B
:10246600122414EF600D7FCC1220997F441220991C
:052476007F01227F0040
:01247B00223E
:101CFD0090024C12081100000000122414EF601C19
:101D0D007FCC1220997FBE1220991221209002E0E3
:101D1D00EFF01221209002E1EFF0D2949002E1E079
:101D2D00FF9002DEE4F0A3EFF0E07F00FE9002DE14
:101D3D00F0A3EFF0A3E0FDEDFF9002DEEEF0A3EFD8
:101D4D00F0AC06EC1202E9E4FBFA7980783D120161
:101D5D003E90024C120805E4FFFE7D207C4190026E
:101D6D004CE0F8A3E0F9A3E0FAA3E0FB12013EE496
:101D7D00FBFAF9783F12004D1203229002DEEEF0CD
:031D8D00A3EFF0D1
:011D90002230
:101F79007D0E7F821222A07DA67F831222A0E4FD1E
:101F89007F841222A0E4FD7F851222A0E4FD7F86D2
:101F99001222A07D647F871222A0E4FD7F8812228D
:101FA900A07D647F891222A0E4FD7F8A1222A07D90
:101FB900647F8B1222A07DB17F801222A0E4FD7F75
:101FC900811222A07D117F801222A012258D7D21F0
:051FD9007F800222A040
:101FDE007D937F801222A07F8F1223D2EF30E0F705
:101FEE007F921223D2EF7F00FEC006C0077F9312AE
:101FFE0023D2EFFDD0E02DFFD0E03400FEEF7802CB
:10200E00C333CE33CED8F9FF900288EEF0A3EFF0B3
:10201E00900288E0FEA3E07802CEA2E713CE13D89A
:10202E00F8FF7C007D20120679900288EEF0A3EF77
:01203E00F0B1
:01203F00227E
:100E5F00121F797F8F1223D2EF30E1F77F94122385
:100E6F00D2EF7F00FEC006C0077F951223D2EFFDA1
:100E7F00D0E02DFED0E03400900282F0A3CEF07FC0
:100E8F00961223D2EF7F00FEC006C0077F97122372
:100E9F00D2EFFDD0E02DFFD0E03400FE900296F0AF
:100EAF00A3EFF0FDAC06EC1202E9C004C005C006CA
:100EBF00C007900296E0FCA3E0FDEC1202E9D0031C
:100ECF00D002D001D00012013EC004C005C006C040
:100EDF0007900282E0FCA3E0FDEC1202E9C004C01F
:100EEF0005C006C007900282E0FCA3E0FDEC1202F1
:100EFF00E9D003D002D001D00012013ED003D002BE
:100F0F00D001D00012004D121BB890028E120805AE
:100F1F00D3900283E09400900282E064809480403A
:100F2F0053900296E0FCA3E0FDD39400EC64809410
:100F3F00804041EC1202E9C004C005C006C0079012
:100F4F000282E0FCA3E0FDEC1202E99002501208CD
:100F5F0005D007D006D005D004121C60E4FBFA7947
:100F6F0034784312013E7BDA7A0F794978401202C6
:100F7F00470210B7C3900282E064809480505C9067
:100F8F000296E0FCA3E0FD9400EC64809480404B5B
:100F9F00EC1202E9C004C005C006C007900282E04F
:100FAF00FCA3E0FDEC1202E9900250120805D007F5
:100FBF00D006D005D004121C60E4FBFA79347843D4
:100FCF0012013E7BDA7A0F79497840120247E4FB2F
:100FDF00FA7934784312004D0210B7C3900282E0C1
:100FEF0064809480505A900296E0FCA3E0FDC3EC1D
:100FFF0064809480504AEC1202E9C004C005C00618
:10100F00C007900282E0FCA3E0FDEC1202E990021F
:10101F0050120805D007D006D005D004121C60E48A
:10102F00FBFA7934784312013E7BDA7A0F794978EB
:10103F0040120247E4FBFA7934784312004D80687E
:10104F00D3900283E09400900282E0648094804009
:10105F005D900296E0FCA3E0FDEC64809480504E1E
:10106F00EC1202E9C004C005C006C007900282E07E
:10107F00FCA3E0FDEC1202E9900250120805D00724
:10108F00D006D005D004121C60E4FBFA7934784303
:10109F0012013E7BDA7A0F79497840120247E4FB5E
:1010AF00FA79B4784312004D900284120805900229
:1010BF008EE0F8A3E0F9A3E0FAA3E0FB7FF87E133C
:1010CF007D647C4A1202479002921208057FB87E17
:1010DF009E7D917CC3900284E0F8A3E0F9A3E0FA2F
:1010EF00A3E0FB12004D7BDA7A0F794978401201A9
:1010FF003EE4FBFA793478431202471213ED900263
:10110F0092E0F8A3E0F9A3E0FAA3E0FB12013E7B23
:10111F005C7A8F79D278C012004DA804A905AA066F
:10112F00AB077F807E1A7D837C4912024790028A2B
:10113F001208057DA17F801222A090028AE0FCA3F5
:08114F00E0FDA3E0FEA3E0FFB8
:011157002275
:0F256200D286D2871225CBC2861225CBC2872202
:10250600C286D2871225CBD2861225CBC287022558
:01251600CBF9
:10247C00EF30E004D2868002C286D2871225CBC20E
:06248C0087D2860225CB79
:10238A00E4900253F0D286D2871225CB900253E012
:10239A00FFA286E433FEEF4EF01225CBC2879002ED
:0323AA0053E0FFFE
:0123AD00220D
:0521DE00900251EFF03A
:1021E300E4A3F0900251E030E704D2868002C28675
:1021F3001225CBD2871225CBC2871225CB90025151
:10220300E0FF25E0F0A3E004F0E0C3940840D4022B
:02221300238A1C
:10000300E4900251F0A3F0D286900251F0D287120D
:1000130025CB900252E0FFA286E433FEEF4EF0C2FE
:10002300871225CB900252E025E0F0900251E004C4
:0C003300F0E0C3940840D6900252E0FFB9
:01003F00229E
:10244E00900250EFF01225627F461221DE9002506C
:08245E00E0FF1221DE02250659
:1020DD001225627F471221DEE4900250F0120003B8
:1020ED00900250E0FE24C2F582E43402F583EFF055
:1020FD00EEB403047F018002E4FF12247C900250B1
:10210D00E004F0E0C3940340D41225067F057E0061
:03211D000223F4A6
:05260D007F0102244ED4
:101E9E007F0112244E7F1012244E7FC87E00122323
:101EAE00F41220DDE4FF12244E9002C2E0FF9002F5
:101EBE00C0E4F0A3EFF0E0FE9002C3E07C0024004B
:101ECE00FFEC3EFE9002C0F0A3EFF0FDAC06E41274
:101EDE0002E97B9A7A997999783F12024790024CDF
:101EEE001208057F337E337DB37C3F90024CE0F8C1
:0F1EFE00A3E0F9A3E0FAA3E0FB12013E120322D6
:011F0D0022B1
:102432007F02122366AD07AC06E41202E97BE67A5C
:0B2442003F791C784012013E1203227B
:01244D00226C
:10116000021500000411C126C083040D46DDC977B5
:101932009002CA7407F0A37432F09002CE7423F0BE
:10194200A374DCF09002CC7409F0A37425F0900229
:10195200D0740FF0A374A0F074326425700474077D
:1019620064097003021A379002D0E0FEA3E0FFD3AD
:101972009002CFE09FEE6480F89002CEE0648098FF
:1019820040339002CAE0FEA3E0FF9002CDE09FFD4B
:101992009002CCE09EFC1202E9C004C005C006C061
:1019A200079002CEE0FEA3E0FFC39002D1E09FFDCC
:1019B2009002D080329002CCE0FEA3E0FFC39002FE
:1019C200CBE09FFD9002CAE09EFC1202E9C004C077
:1019D20005C006C0079002D0E0FEA3E0FFC390025C
:1019E200CFE09FFD9002CEE09EFC1202E9D003D030
:1019F20002D001D00012024778111207F99002CAF0
:101A0200E0FCA3E0FDEC1202E978111207D012010A
:101A12003EC004C005C006C0079002CEE0FCA3E0B1
:101A2200FDEC1202E9D003D002D001D0001200492D
:061A3200780D1207F922F5
:051E1D0090024CEFF003
:101E220090024E12081100000000E490024DF09062
:101E3200024EE0F8A3E0F9A3E0FAA3E0FBC000C081
:101E420001C002C00390024CE0FF122366E4FCFDD5
:101E5200D003D002D001D000EB2FFFEA3EFEED39D5
:101E6200FDEC38FC90024E120805E4FFFE0FBF00A5
:101E7200010EBE03F8BFE8F590024DE004F0E0C3A6
:101E8200946440ABE47B64FAF9F890024EE0FCA360
:0B1E9200E0FDA3E0FEA3E0FF1207014B
:011E9D002222
:1022CC007F05121E1DAD07AC06E41202E97811124F
:1022DC0007D012013E780D1207D012004D120322C6
:0722EC007815EEF608EFF68D
:0122F30022C8
:0300400025640034
:10117000606E016C7B2274223A20312C22646576E9
:10118000696365223A2022426C7565426572727904
:10119000222C226B6579223A226439623864353414
:1011A0003936373765343264393839663335343057
:1011B000316236633037393066222C2276657222EE
:1011C0003A2276312E30227D00000000000000001F
:1011D000000000000000000000000000000000000F
:1011E0000000612C00007B2274223A332C226461BF
:1011F000746174797065223A312C22646174617370
:10120000223A7B225068000000000000000000002D
:1012100000000000000000000000000000000000CE
:1012200000000000000000000000000000000000BE
:1012300000000000000000000000000000000000AE
:10124000000000000000000000000000000000009E
:10125000000000000000000000000000000000008E
:10126000000000000000000000000000000000007E
:10127000000000000000000000000000000000006E
:10128000000000000000000000000000000000005E
:10129000000000000000000000000000000000004E
:1012A000000000000000000000000000000000003E
:1012B000000000000000000000000000000000002E
:1012C000000000000000000000000000000000001E
:1012D000000000000000000000000000000000000E
:1012E00000000000000000000000000000000000FE
:1012F00000000000000000000000000000000000EE
:1013000000000000000000000000000000000000DD
:1013100000004A022A223A30000000000000004A81
:1013200002342C2200000000000000004E023E7D2E
:101330002C226D73676964223A317D000047021CDC
:1013400024234154230D00603F01DD50680000005C
:10135000000000004C697175696454000048756DA7
:101360006964697479004C757800000000000054CD
:10137000656D7000000000004543000000000000A3
:1013800000434F320000000000004702230207081C
:0A139000030402034301DA01012CFB
:10204000E49002E5F0A3F07B017A01792C122215CD
:10205000EF70229002E6E004F070069002E5E004E2
:10206000F0D39002E6E0942C9002E5E06480948145
:1020700040DE7F00229001DAE0FBA3E0FAA3E0F962
:10208000EF1206559001DAE0FBA3E475F0011206A9
:08209000AF45F04B70EE7F013B
:012098002225
:0B1AF7009002A8EBF0A3EAF0A3E9F0D6
:101B02009002A8E0F9A3E0FAA3E09002B7C9F0A31B
:101B1200EAF0A3E9F09001DAE0FBA3E0FAA3E0F92E
:101B2200121A389002AEEBF0A3EAF0A3E9F09002A9
:101B3200A8E0FBA3E0FAA3E0F91224A79002AEE02A
:101B4200FBA3E0FAA3E0F9EF3395E0FEE92FF9EA0F
:101B52003EFAA3EBF0A3EAF0A3E9F09002AEA3E011
:101B6200FAA3E0F94A603F90FFFF12062864227050
:101B7200359002B1E0FBA3E0FAA3E0F912060FB43C
:101B82002224900001120628B43A1B900002120689
:101B920028B42212E92402F9E43AFA9002ABEBF0FB
:101BA200A3EAF0A3E9F09002ABA3E0FAA3E0AE024D
:011BB200FF33
:011BB300220F
:0925D4007B017A01796C0224CF2D
:0925DD007B017A02791C0224CF73
:1016B4009002D7741EF0EFB4070040030217AD90F8
:1016C40016CAF82828730216DF0216FD02171B0239
:1016D400173802175502177202178F9002D7E0FFCE
:1016E4003395E0FE74002FF974003EA801FC7D01DF
:1016F4007B017A0179DD0217AA9002D7E0FF3395C6
:10170400E0FE74002FF974003EA801FC7D017B010A
:101714007A0179E60217AA9002D7E0FF3395E0FE3A
:1017240074002FF974003EA801FC7D017B017A014D
:1017340079EF80729002D7E0FF3395E0FE74002FBA
:10174400F974003EA801FC7D017B017A0179F880DF
:10175400559002D7E0FF3395E0FE74002FF9740032
:101764003EA801FC7D017B017A0279018038900258
:10177400D7E0FF3395E0FE74002FF974003EA80112
:10178400FC7D017B017A02790A801B9002D7E0FF7D
:101794003395E0FE74002FF974003EA801FC7D012E
:1017A4007B017A02791312095490025574FFF0A355
:1017B4007400F0A37440F09002D3E0FCA3E0FDA316
:1017C400E0FEA3E0FF9002581208057B017A02793B
:1017D4002C120A419002D8EFF09002557401F0A344
:1017E4007402F0A3742AF07B017A007900121F0EB0
:1017F4009002557401F0A37402F0A3743EF07B01CF
:0B1804007A007900121F0E7E007F00AA
:01180F0022B6
:10152D00E490024CF0A3F0A3F0A3F0A37400F0A399
:10153D00741EF0E490024FF090024FE0FFC3648000
:10154D0094874003021698EF3395E0FE7C007D09E9
:10155D0012066774DD2FF974013EFA7B01C002A3F8
:10156D00E0FEA3E0AA06F8AC027D01D002120954F8
:10157D0090024FE0FFFD3395E0FC74232DF582744E
:10158D00023CF583E0FD3395E0FC900251E02DF037
:10159D00900250E03CF0E0FCA3E0F5828C83E4F097
:1015AD00EFB40700504B9015BAF82828730215CFE9
:1015BD000215D40215D90215DE0215E50215EA024F
:1015CD0015EF90029C801E9002A280199002A680B9
:1015DD001490029EA3A3800D900298800890029A09
:1015ED0080039002A4E0FFA3E090024DCFF0A3EFA3
:1015FD00F090025574FFF0A37400F0A37440F090C6
:10160D00024DE0FFA3E0900258CFF0A3EFF07B0175
:10161D007A02792C120A4190024CEFF09002557427
:10162D0001F0A37402F0A3742AF07B017A00790013
:10163D00121F0E90024CE0FF900251E02FFF90021E
:10164D0050E03400CF2402CF3400FEF0A3EFF0F5CC
:10165D00828E83E4F090024FE0640660259002557F
:10166D007401F0A37402F0A37434F07B017A007955
:10167D0000121F0E900251E02402F0900250E0344F
:10168D0000F090024FE004F00215459002557401F0
:10169D00F0A37402F0A3743EF07B017A007900127E
:0616AD001F0E7E007F000D
:0116B3002214
:1023AE00C0079002DAE0FCA3E0FDA3E0FEA3E0FF8D
:1023BE009002D3120805D0071216B47B017A007969
:0423CE00000224CF16
:0C259A0012152D7B017A0079000224CF7D
:0A139A004202A60000420298000083
:1024920012252612260D1225EE1219321225F512D8
:0524A20025FB022601EC
:10216200122466121FDE120E5F12032290029AEEF2
:10217200F0A3EFF0121CFD9002A2EEF0A3EFF0121A
:102182001E9E90029E1208051224329002A4EEF0C6
:10219200A3EFF01222CC90029CEEF0A3EFF0022506
:0121A2009AA2
:10227300C2A61224F41225D47F327E001223F41254
:1022830021621224F41225DDB2A69002507401F0EB
:0D2293007F117E007D007C001221A380D50C
:062607001224920222736E
:1000460002038EE86480F8E933E83360110460F057
:10005600ED33EC337009E8FCE9FDEAFEEBFF220420
:1000660060DED3EB9FEA9EE99DE8C2E78CF0C2F71B
:1000760095F0400CE8CCF8E9CDF9EACEFAEBCFFBE7
:1000860012035985D0F05804700320D5B3E80470E4
:10009600075002B2D502039892D5EC0460F7E4CC7F
:1000A600C0E0C398F8603B94186008400DD0E0FBB0
:1000B600020370E4FBFAC9FC8028E830E406E4C9D0
:1000C600FBE4CAFCE830E305E4C9CACBFCE8540704
:1000D6006010F8C3E913F9EA13FAEB13FBEC13FC0F
:1000E600D8F130F52FC3E49CFCEF9BFFEE9AFEEDB2
:1000F60099FDD0E0FBEF4E4D4C701222DB0302035C
:1001060095EC2CFCEF33FFEE33FEED33FDED30E7DF
:10011600EB020370EF2BFFEE3AFEED39FDD0E0FB6C
:1001260050130BBB0003020398ED13FDEE13FEEF15
:0801360013FFEC13FC0203703F
:10013E00EC4D6011E8497017ED33EC3304600DE4BB
:10014E00FCFFFEFD22E933E8330470F802038E1241
:10015E00035958046009E4CC248150062850090242
:10016E000398284003020395C0E0EB4A7044B9801F
:10017E0006D0E0FB020384EF4E701CBD8008EBFF3F
:10018E00EAFEE9FD80EBE98DF0A4FEE5F002022720
:10019E00E9CDF9EAFEEBFFEF89F0A4FCE5F0CE899C
:1001AE00F0A42EFFE435F0CD89F0A42DFEE435F059
:1001BE008067EF4E7005BD80D780C3EF8BF0A4AC87
:1001CE00F0EE8BF0A42CFCE435F0F8EF8AF0A42CC2
:1001DE00E5F038FCE433CB8DF0A42CFCE5F03BF8D5
:1001EE00EE8AF0A42CFCE5F038F8E433CF89F0A4C5
:1001FE002CFCE5F038CF3400CE89F0A42FFFE5F0CB
:10020E003EFEE433C98DF0A42EFEE5F039CD8AF022
:10021E00A42FFFE5F03EFEE43DFD33D0E0FB50079A
:10022E000BBB000F020398EC2CFCEF33FFEE33FEFA
:06023E00ED33FD02037028
:10024400020398EC5D046005E85904700302038E10
:10025400120359580460F6EC4860F2EC7004FDFE99
:10026400FF22C860DB2481C85009C398600250068D
:100274000203959850CAF582E9294B4A7005AB826E
:1002840002038475F0007C1A7880C3EF9BEE9AED2C
:1002940099400DC3EF9BFFEE9AFEED99FDE842F005
:1002A400DC23ACF0D0E0FFD0E0FED0E0FDAB822058
:1002B400E7101BEB60BAEC2CFCEF33FFEE33FEEDE2
:1002C40033FD020370E803F830E705C0F075F00071
:1002D400EF2FFFEE33FEED33FD40B830E7C280AAC6
:1002E40075F020800E75F010800575F0087D007E95
:1002F400007F003392D530D503120793EC334010BE
:10030400EF33FFEE33FEED33FDEC33FCD5F0ED229D
:0E031400E5F0247EA2D513CC92E7CDCEFF22D9
:10032200EDD2E7CD33EC3392D524814006E4FFFED3
:10033200FDFC22FCE4CFCECDCC24E0501174FF8032
:10034200EDC3CC13CCCD13CDCE13CECF13CF0470CF
:07035200F030D5DE02079335
:1009DC00E5082455F582E43402F583E005082290FD
:1009EC000252300703900255E475F00112084202DE
:1009FC00060F2000E97F2ED2008018EF540F2490B0
:100A0C00D43440D4FF30040BEF24BFB41A0050038D
:100A1C002461FFE50960021509050CE50C7002055F
:100A2C000B30070E900252E475F001120842EF02EF
:100A3C0006550222F47403D2078003E4C207F508BA
:100A4C00900252120859E4F509F50BF50CE5096012
:100A5C00077F20120A1F80F5750AFFC201C200C26F
:100A6C0002C203C205C206C2081209EBFF700D30A8
:100A7C0007057F00120A30AF0CAE0B22B4255FC203
:100A8C00D5C2041209EBFF24D0B40A00501A75F039
:100A9C000A780930D50508B6FF0106C6A426F6204B
:100AAC00D5047002D20380D924CFB41A00EF5004BD
:100ABC00C2E5D204020D22D20180C6D20080C0D27F
:100ACC000280BCD2D580BAD20580B47F20120A1F16
:100ADC002002077401B5090040F11209DCFF120A6B
:100AEC001F020A59D208D20680951209DCFB1209A2
:100AFC00DCFA1209DCF94A4B700679207A0E7BFF7E
:100B0C0020022EE509602A7E008E82758300120673
:100B1C002860060EEE650A70F0C2D5EBC0E0EAC0A4
:100B2C00E0E9C0E0EE120D83D0E0F9D0E0FAD0E0BD
:100B3C00FB12060FFF60AAEBC0E0EAC0E0E9C0E0E0
:100B4C00120A1FD0E02401F9D0E03400FAD0E0FB07
:100B5C00E50A0460DCD50AD98087D20280A2120D86
:100B6C006560F7E50A700104120410A90A600DE52E
:100B7C000A600914F50A120E0DEF60F3EA30E70271
:100B8C00F404C3995079EAF4250A0430E701E4042B
:100B9C00F50A800D120D6560C1EA050A250A1204DA
:100BAC0010EA900281F030E701E4250A04D50A042A
:100BBC0020050114120D83E4C0E0120E0D90028189
:100BCC00E0601320E70714F0120A07802204F0D02B
:100BDC00E014C0E07F00120A07E50A60071209FE64
:100BEC00150A800B3005031209FED0E0020A59D019
:100BFC00E00480C4120D65609EE50A041204109096
:100C0C000281EAF0E50A2005026001042404120DB9
:010C1C008354
:100C1D0074FF04C0E0120E0D120A07E50A2005024A
:100C2D0060031209FED0E0B50AE87F45120A119063
:100C3D000281E07F2B30E7047F2DF404C0E0120A1F
:100C4D001FD0E075F00A84C0F0120A08D0E0120A35
:100C5D0008020A59791080027908C206C208800874
:100C6D00D2D5790A8004790AC2D5E50A047002F555
:100C7D000AE4FAFDFEFF1209DCFC7B0820011312C9
:100C8D0009DCFD7B1030000A1209DCFE1209DCFFC5
:100C9D007B20EC3382D592D55013C3E43000069FF0
:100CAD00FFE49EFEE42001039DFDE49CFCE4CBF8F3
:100CBD00C201EC700CCFCECDCCE824F8F870F380E7
:100CCD0017C3EF33FFEE33FEED33FDEC33FCEB33A7
:100CDD00FB994002FB0FD8E9EB300105F8D0E0C4D9
:100CED0048B201C0E00AEC4D4E4F78207B0070C237
:100CFD00EAB50A0040BCC0E0120D85D0F0D0E0206E
:100D0D000104C4C0E0C4B201C0F0120A08D0F0D58D
:100D1D00F0EB020A591208620AF6530C61580AC721
:100D2D004C0AC3420C654F0C6D440C6D490ADC43F3
:100D3D000C73550BA0460C00450B6A470E40500A2C
:100D4D00CB2D0ACF2E0AF22B0AD3230AF0200E291F
:100D5D002A0A8B4800000AEAE50AB4FF03750A0661
:100D6D001209DCFC1209DCFD1209DCFE1209DCFFA4
:100D7D0090027A02044D790AA2D520031430050998
:100D8D00B910020404B9080104A2D52006025001CD
:100D9D00042002689202B509005034C0E07F203073
:100DAD0003197F30A20272067205500F120DDCC2BC
:100DBD0002C206C205C2087F30800F300503E9C0AC
:100DCD00E0120A1F300503D0E0F9D0E0B509CC30B0
:100DDD0005177F30B9100C120A1F7F583004077F9A
:100DED00788003B90803120A1F3002057F2D020A0D
:100DFD001F7F202008F87F2B2006F322920280CF40
:100E0D007F00B40700500B247AF582E43402F58399
:100E1D00E0FF22286E756C6C2900D2011209DC30BE
:100E2D0001F8C201780930D50108F6020A8B2D5060
:100E3D004349581209DC2403B405004001E4900E27
:100E4D003B93120A10743A120A10D2037509040268
:020E5D000C6126
:101BB40002038E22EDA2E7D2E7F9EC3340F260F3A0
:101BC400B4FF08ED547F70E8020398F82481C2E062
:101BD400C0E0F40428FAC313FCED92E7FD90024C34
:101BE400120805EEA2E7E9BA7F02C3133400940099
:101BF400FA75F091A4E5F013F494FE8AF0A433E5A9
:101C0400F033248CD313FDE492E7FE7F007C3F7510
:101C14008302ECC0E0F8EDC0E0F9EEC0E0FAEFC0FA
:101C2400E0FB8583F090024C1207B485F083120226
:101C340047D0E0FBD0E0FAD0E0F9D0E0F812004D54
:101C4400ED6480FD30E7011CD583C7ED33CC33F858
:0C1C5400D0E0A2E71328C313CC13FD223C
:101C600090024C120805900250E0F8A3E0F9A3E0BE
:101C7000FAA3E0FB90024CE0FCA3E0FDA3E0FEA38E
:101C8000E0FF12024712183090024C120805900231
:101C900050E030E75990024CE0FCA3E0FDA3E0FEE9
:101CA000A3E0FFECC0E0EDC0E0EEC0E0EFC0E0E498
:101CB000FFFEFDFC90024CE0F8A3E0F9A3E0FAA3DC
:101CC000E0FB1203A37BDB600250087A0F794978AE
:101CD0004080067A0F794978C0D0E0FFD0E0FED08E
:101CE000E0FDD0E0FC12004D90024C12080590027D
:0D1CF0004CE0FCA3E0FDA3E0FEA3E0FF221A
:1013A5003A70FA83BCAAE9E43E81E0F8BF9DE9E61C
:1013B5003F80000039283C1ABB9969663DA335E397
:1013C500BF255DE73FC90FDB418DDBCCC44936EE58
:1013D50045C9913FC5B0F83D3F800000C317F534BE
:1013E500452FFA73C60AFDDD1214AE04A2E1920080
:1013F5001420E0159013A5740412055280301214C0
:10140500AE30E102B20020E0EBA883A98290024C45
:10141500120805898288839013B9740412055285D0
:1014250082F090024C1207DD85F08212013EED4CF0
:101435006007300004EC6480FC221214AEC0E0A802
:1014450083A98290024C120805898288839013DD56
:1014550074031205528582F090024C1207DD85F067
:101465008212013E90024CE0CCF0A3E0CDF0A3E067
:10147500CEF0A3E0CFF09013CD7403120552D082C5
:101485008582F090024C1207DD85F082E58230E01E
:1014950007120247B2008096EFCBFFEECAFEEDC9F8
:1014A500FDECC8FC1202478085ED33EC547FCC334C
:1014B500920024605007D0E0D0E002038E7B837A4F
:1014C500F97922783E12013EEDF933ECF8332481A7
:1014D5005011EFFBEEFA1203221202E4ECB2E7FC24
:1014E50012004DED33EC33602F2403F8C313FCEDEC
:1014F50092E7FDE82481E4501FECF8EDF9EEFAEFF0
:10150500FB120322EF04C2E0FCF5821202EEECB2FC
:10151500E7FC12004DE58203FAED33EC3360071466
:0815250013FCED92E7FDEA2240
:10035900E9D2E7C933E833F892D5EDD2E7CD33ECEA
:0703690033FC5002B2D52263
:10037000EC30E7100FBF000C0EBE00080DBD0004EE
:100380000BEB6014A2D5EB13FCED92E7FD2274FF9A
:10039000FCFDFEFF22E480F8A2D574FF13FC7D80F3
:0303A000E480EF07
:1003A30074F8CC6480CCC86480C8F582046043C30D
:1003B300EB9FF5F0EA9E42F0E99D42F0E89C45F0A0
:1003C30060305018E5825FFFE582F42B5582FB50C5
:1003D300210ABA001D09B90019088016E5825BFBE2
:1003E300E582F42F5582FF50090EBE00050DBD00B6
:1003F300010CC3EB9FF5F0EA9E42F0E99D42F0E861
:0D0403009C45F06007CC4820E701B3EC22D7
:10041000F920E73624F950037907E4F42402FBE5D8
:1004200082158270021583DBF6E024FB501BE96025
:1004300014E4F0E582158270021583E004F0B40A3A
:0D04400008E4F0D9EE7401F00A22C2D522C2
:10044D00ED33EC3392D5FA602AB4FF33EDC2E77B7E
:10045D00FF60067A047972E4227A04797B20D50450
:10046D007A047976224E614E002B494E46002D4975
:10047D004E4600E47A08F0A3DAFC7B00740722C034
:10048D0083C082ECC0E0EDC0E0EEC0E0EFC0E0EA7A
:10049D0075F010A4CAABF075F04DA42BFBE435F04C
:1004AD00FCEA2410FAEB34C5FBEC34D9FCEDC2E7C1
:1004BD00FF75F056A4F42411C5F0F434C58FF0A4E3
:1004CD002AE5F03BE43CF020E7141205CFD0E0FF25
:1004DD00D0E0FED0E0FDD0E0FC1202478014F40421
:1004ED001205CFD0E0FFD0E0FED0E0FDD0E0FC1251
:1004FD00013ED082D083E0FAEDD2E7CD33EC332448
:10050D0082FBE4C3CF33CFCE33CECD33CD33DBF34C
:10051D007B0775F00A846004F0A31B0AE5F0F0A3D5
:10052D008FF0740AA4FFACF08EF0740AA42CFEAC0C
:10053D00F050010C8DF0740AA42CFDE435F0F0A3FD
:05054D00DBDE74072253
:10055200C0E0EFFBEEFAEDF9ECF812013ED0E0F567
:10056200F0EFFBEEFAEDF9ECF81207C0A3A3A3A398
:10057200E8C0E0E9C0E0EAC0E0EBC0E0C0F0120190
:100582003E1207E9A3A3A3A312004DD0F0D0E0FBD3
:0D059200D0E0FAD0E0F9D0E0F8D5F0D422A6
:10181000BE1249253E4CCCCDBEAAAAAB3F800000EB
:101820003E7ADBB03EED63383F24BC7D3F490FDBA1
:10183000ED33ECC2E7CC339200B4FF13ED547F607C
:101840000302038E7FDB7E0F7DC97C3F021925C218
:1018500001C3947F401E7007EDD2E794904015EFCE
:10186000FBEEFAEDF9ECF87F007E007D807C3F1204
:101870000247D201ED33EC33248430E705E4C0E0C5
:10188000806B04FAEDD2E754F0C333DAFD54073429
:10189000002323C0E0CCC0E0F8EDC0E0F9EEC0E0EA
:1018A000FAEFC0E0FBE41202EEEC24FEFC900254DE
:1018B00012080512013E7B007A007980783F120001
:1018C0004D900254E0B2E7CCF0A3E0CDF0A3E0CE1F
:1018D000F0A3E0CFF0D0E0FBD0E0FAD0E0F9D0E028
:1018E000F812004D9002541207DD12024790025484
:1018F0001208059018107403120552900254120732
:10190000DD12013ED0E0600F241CF582E43418F5AE
:10191000831207E912004D30010B7BDB7A0F79C986
:1019200078BF12004DED33EC336006ECA20092E775
:02193000FC2297
:10059F003F8000004120000042C80000447A000064
:1005AF00461C400047C35000497424004B189680E6
:1005BF004CBEBC205A0E1BCA6753C21C749DC5AEDD
:1005CF00FB60065407601C23231205FDEB543860B3
:1005DF00091205E91205F812013EECF8EDF9EEFAF1
:1005EF00EFCB22EB1205F880F1543803241C900551
:1005FF009FFE93FC0EEE93FD0EEE930ECE93FF2215
:03000000021D914D
:0C1D9100787FE4F6D8FD758121021DD892
:10060F00BB010689828A83E0225002E722BBFE02E9
:09061F00E32289828A83E493221C
:10062800BB010CE58229F582E5833AF583E0225087
:1006380006E92582F8E622BBFE06E92582F8E222D1
:0D064800E58229F582E5833AF583E49322EB
:10065500BB010689828A83F0225002F722BBFE0184
:02066500F3227E
:10066700EF8DF0A4A8F0CF8CF0A428CE8DF0A42EA7
:02067700FE2261
:10067900C2D5EC30E709B2D5E4C39DFDE49CFCEE9C
:1006890030E715B2D5E4C39FFFE49EFE120971C39A
:10069900E49DFDE49CFC800312097130D507C3E495
:0606A9009FFFE49EFE220B
:1006AF00A3F8E0C5F025F0F0E582158270021583FE
:0606BF00E0C838F0E8225B
:1006C50075F008758200EF2FFFEE33FECD33CDCCEC
:1006D50033CCC58233C5829BED9AEC99E58298406F
:1006E5000CF582EE9BFEED9AFDEC99FC0FD5F0D64C
:1006F500E4CEFBE4CDFAE4CCF9A88222B800C1B976
:100705000059BA002DEC8BF084CFCECDFCE5F0CBB3
:10071500F97818EF2FFFEE33FEED33FDEC33FCEBEC
:1007250033FB10D703994004EB99FB0FD8E5E4F9A7
:10073500FA227818EF2FFFEE33FEED33FDEC33FC94
:10074500C933C910D7059BE99A4007EC9BFCE99A88
:10075500F90FD8E0E4C9FAE4CCFB2275F010EF2FCD
:10076500FFEE33FEED33FDCC33CCC833C810D707CD
:100775009BEC9AE899400AED9BFDEC9AFCE899F808
:0E0785000FD5F0DAE4CDFBE4CCFAE4C8F9229B
:0E079300C3E49FFFE49EFEE49DFDE49CFC2277
:1007A100E8600FECC313FCED13FDEE13FEEF13FF36
:0307B100D8F1225A
:0C07B400E0FCA3E0FDA3E0FEA3E0FF22B8
:1007C000E493FC740193FD740293FE740393FF227F
:0D07D000E6FB08E6F908E6FA08E6CBF82299
:0C07DD00E0F8A3E0F9A3E0FAA3E0FB229F
:1007E900E493F8740193F9740293FA740393FB2266
:0C07F900ECF608EDF608EEF608EFF6222C
:0C080500ECF0A3EDF0A3EEF0A3EFF02266
:10081100A8828583F0D083D082120828120828127A
:100821000828120828E473E493A3C583C5F0C5839F
:10083100C8C582C8F0A3C583C5F0C583C8C582C831
:010841002294
:10084200F8E0FBA3A3E0F925F0F0E582158270023F
:070852001583E0FA38F022E3
:09085900EBF0A3EAF0A3E9F022A0
:10086200D083D082F8E4937012740193700DA3A325
:1008720093F8740193F5828883E473740293686039
:06088200EFA3A3A380DF39
:1022F400EFB40A07740D1222FF740A309811A899DA
:10230400B8130CC2983098FDA899C298B811F63049
:0723140099FDC299F5992221
:101F0E00900252EBF0A3EAF0A3E9F0900258EBF046
:101F1E00A3EAF0A3E9F0900252E0FBA3E475F0010E
:101F2E001206AFA9F0FA12060F70EB90025374FF6F
:101F3E00F5F01209C6900255E0FBA3E475F001120C
:101F4E0006AFA9F0FA12060FFF900252E0FBA3E4CF
:101F5E0075F0011206AFA9F0FAEF12065570D69081
:0B1F6E000258E0FBA3E0FAA3E0F92218
:10088800E709F60870FA8046E709F20870FA803E30
:1008980088828C83E709F0A370FA807EE309F60862
:1008A80070FA8076E309F20870FA806E88828C8389
:1008B800E309F0A370FA806289828A83E0A3F608CC
:1008C80070FA805689828A83E0A3F20870FA804A17
:1008D80080D280FA80C680D4806580F28031801012
:1008E80080A680EA809A80A880DA80E280CA803177
:1008F80089828A83ECFAE493A3C8C582C8CCC583ED
:10090800CCF0A3C8C582C8CCC583CC70E9800D895A
:10091800828A83E493A3F60870F9ECFAA9F0EDFB58
:100928002289828A83ECFAE0A3C8C582C8CCC58331
:10093800CCF0A3C8C582C8CCC583CC70EA80DD8959
:10094800828A83E493A3F20870F980CE88F0ED24BC
:1009580002B4040050C4F582EB2402B4040050BA77
:0909680023234582239008D87373
:1024A700E4FFFE12060F600C0FEF70010E09E970D2
:0524B700F20A80EF2293
:101A38009002B4EBF0A3EAF0A3E9F0A3E0FBA3E083
:101A4800FAA3E0F912060F7003021AE49002B4E058
:101A5800FBA3E0FAA3E0F912060F7003021AF09054
:101A680002B7E0F9A3E0FAA3E0A3C9F0A3EAF0A360
:101A7800E9F09002B4A3E0FAA3E0F99002BDEBF01C
:101A8800A3EAF0A3E9F09002BAE0FBA3E0FAA3E02E
:101A9800F912060FFF60269002BDE0FBA3E0FAA34F
:101AA800E0F912060F6F70159002BB75F00112096C
:101AB800C69002BEE475F0011209C680C99002BA48
:101AC800E0FBA3E0FAA3E0F912060F7002800D9084
:101AD80002B5E475F0011209C6021A549002B4E086
:0F1AE800FBA3E0FAA3E0F9227B007A0079002249
:101D9D00022607E493A3F8E493A34003F68001F22F
:101DAD0008DFF48029E493A3F85407240CC8C33347
:101DBD00C4540F4420C8834004F456800146F6DF16
:101DCD00E4800B0102040810204080901158E47E3D
:101DDD00019360BCA3FF543F30E509541FFEE4930B
:101DED00A360010ECF54C025E060A840B8E493A3D2
:101DFD00FAE493A3F8E493A3C8C582C8CAC583CAFD
:101E0D00F0A3C8C582C8CAC583CADFE9DEE780BEB4
:0113A4000048
:10097100BC000BBE0029EF8DF084FFADF022E4CC6A
:10098100F875F008EF2FFFEE33FEEC33FCEE9DEC33
:10099100984005FCEE9DFE0FD5F0E9E4CEFD22ED79
:1009A100F8F5F0EE8420D21CFEADF075F008EF2FC3
:1009B100FFED33FD4007985006D5F0F222C398FDB4
:0509C1000FD5F0EA2251
:1009C600C5F0F8A3E028F0C5F0F8E58215827002BC
:0609D6001583E038F02259
:00000001FF
