:06102B00759850020F2F22
:081023008F993099FDC299225A
:080D74008F368E358D348C336F
:100D7C00E4FBEBC39537501DAF36121023AF36AEE4
:100D8C0035AD34AC3378081204708F368E358D3413
:050D9C008C330B80DD2B
:010DA100222F
:100E1A008F1E8D1F120FF67F1A120FC1120FFFAF0E
:100E2A001E120FC1120FFFAF1F120FC1120FFF02C6
:020E3A0010089E
:100E3C008F50120FF67F1A120FC1120FFF7FB012D4
:100E4C000FC1120FFFAF50120FC1120FFF0210088B
:100EBA00120E3C120FF67F1B120FC1120FFF120FF8
:0B0ECA00948F51120FA3121008AF51BB
:010ED50022FA
:0F0F760043BA3090FE8074E0F090FE82E4F022E7
:0F0F850090FE82E030E6F990FE82E054BFF02249
:090FF60090FE817401F0020F85E8
:0E0FC10090FE86EFF090FE817402F0020F8524
:090FFF0090FE817403F0020F85DD
:0F0F940090FE817404F0120F8590FE87E0FF221B
:0E0FCF0090FE82E4F090FE817405F0020F8522
:0F0FA30090FE827401F090FE817405F0020F85BC
:0910080090FE817406F0020F85D0
:100F2F00538EFE53890F438E40758DFD758B8FD277
:020F3F008E2200
:0C0FDD007F867E0C7D49DDFEDEFADFF62B
:010FE90022E5
:100DF500EF1FAC0670011E4C601A000000000000D9
:100E050000000000000000000000000000000000DD
:050E1500000080DC225A
:100F41007FCD7EE67DFDDDFEDEFADFF67F0EDFFE84
:010F5100009F
:010F5200227C
:100E9C00D2947F0A7E00120DF5C2947F207E03123D
:0E0EAC000DF5D2947F587E02120DF57F0122C3
:020D02008F332D
:100D0400E4F534E5335401F535C2947F0F7E0012C7
:100D14000DF5E5331392947F2D7E00120DF5D294D8
:100D24007F0A7E00120DF5E533C313F5330534E570
:060D340034C3940840CD19
:010D3A002296
:100D3B00E4F54CE54DC313F54DC2947F027E0012D2
:100D4B000DF5D2947F047E00120DF5309408E54D1D
:100D5B004480F54DF54D7F1E7E00120DF5054CE5DB
:080D6B004CC3940840CDAF4DCC
:010D7300225D
:100EED00120E9CEF600D7FCC120D027F44120D028D
:050EFD007F01227F00CF
:010F020022CC
:100B0700E4F53BF53AF539F538120E9CEF60167FA0
:100B1700CC120D027FBE120D02120D3B8F3E120D3D
:100B27003B8F3FD294753C00853F3DE53D753D00C9
:100B3700F53CE53E423DAC3CAD3DEC1202A6E4FB84
:100B4700FA7980783D1200FB8F3B8E3A8D398C38CD
:100B5700E4FFFE7D207C41AB3BAA3AA939A83812B5
:100B670000FBE4FBFAF9783F12000A1202DF8E3C21
:020B77008F3DB0
:010B79002259
:100BED007D0E7F82120E1A7DA67F83120E1AE4FDF2
:100BFD007F84120E1AE4FD7F85120E1AE4FD7F86A6
:100C0D00120E1A7D647F87120E1AE4FD7F88120E74
:100C1D001A7D647F89120E1AE4FD7F8A120E1A7DE9
:100C2D00647F8B120E1A7DB17F80120E1AE4FD7F48
:100C3D0081120E1A7D117F80120E1A120FDD7D2189
:050C4D007F80020E1A79
:100CB0007D937F80120E1A7F8F120EBAEF30E0F70D
:100CC0007F92120EBAEF7F00FEC006C0077F93121C
:100CD0000EBAEFFDD0E02DFFD0E03400FEEF780239
:100CE000C333CE33CED8F98E0EF50F7802CEA2E7FD
:100CF00013CE13D8F8FF7C007D2012042C8E0E8FAB
:010D00000FE3
:010D010022CF
:1004F800120BED7F8F120EBAEF30E1F77F94120ED8
:10050800BAEF7F00FEC006C0077F95120EBAEFFD56
:10051800D0E02DF509D0E03400F5087F96120EBA28
:10052800EF7F00FEC006C0077F97120EBAEFFDD01E
:10053800E02DF51DD0E03400F51CFCAD1D1202A61F
:10054800C004C005C006C007AC1CAD1DEC1202A655
:10055800D003D002D001D0001200FBC004C005C0F7
:1005680006C007AC08AD09EC1202A6C004C005C05D
:1005780006C007AC08AD09EC1202A6D003D002D021
:1005880001D0001200FBD003D002D001D00012002D
:100598000A120A618F178E168D158C14D3E50994EB
:1005A80000E508648094804050D3E51D9400E51C64
:1005B800648094804043AC1CAD1DEC1202A6C004BC
:1005C800C005C006C007AC08AD09EC1202A68F3200
:1005D8008E318D308C2FD007D006D005D004120B69
:1005E8007AE4FBFA793478431200FB7BDA7A0F79E4
:1005F800497840120204020720C3E5086480948009
:100608005059E51D9400E51C64809480404DAC1C55
:10061800AD1DEC1202A6C004C005C006C007AC0898
:10062800AD09EC1202A68F328E318D308C2FD00797
:10063800D006D005D004120B7AE4FBFA793478435B
:100648001200FB7BDA7A0F79497840120204E4FB46
:10065800FA7934784312000A020720C3E508648057
:1006680094805055C3E51C64809480504CAC1CADFC
:100678001DEC1202A6C004C005C006C007AC08AD38
:1006880009EC1202A68F328E318D308C2FD007D014
:1006980006D005D004120B7AE4FBFA7934784312B9
:1006A80000FB7BDA7A0F79497840120204E4FBFAFE
:1006B8007934784312000A805FD3E5099400E5088D
:1006C80064809480405AE51C648094805052AC1C2D
:1006D800AD1DEC1202A6C004C005C006C007AC08D8
:1006E800AD09EC1202A68F328E318D308C2FD007D7
:1006F800D006D005D004120B7AE4FBFA793478439B
:100708001200FB7BDA7A0F79497840120204E4FB85
:10071800FA79B4784312000A8F0D8E0C8D0B8C0A6F
:10072800E50F24EAFFE50E34FFFE7C017D9D1204EF
:100738001AEE3395E0FDFCEF24FEFFEE3404FEEDE7
:100748003439FDE43CFC1202A1AB17AA16A915A87E
:10075800141202048F1B8E1A8D198C187FB87E9E76
:100768007D917CC3AB0DAA0CA90BA80A12000A7BC9
:10077800DA7A0F794978401200FBE4FBFA79347889
:100788004312020412080FAB1BAA1AA919A81812BF
:1007980000FB7B5C7A8F79D278C012000AA804A982
:1007A80005AA06AB077F007E957D767C4912020478
:0F07B8008F138E128D118C107DA17F80020E1A6F
:081011007F78AE071FEE70FAB4
:0110190022B4
:100E5C00E4FDFCC3ED9FEC9E5015E4FBFA0BBB00CC
:0F0E6C00010ABA5DF8BBC0F50DBD00010C80E4B2
:010E7B002254
:0F0FB200D286D287121011C286121011C2872266
:100F6500C286D287121011D286121011C2870210C2
:010F7500116A
:100F0300EF30E004D2868002C286D287121011C26B
:060F130087D286021011D6
:100F1900E4FDD286D287121011A286E433FD1210A5
:050F290011C287AF05B5
:010F2E0022A0
:020DCF00AD076E
:100DD100E4FCED30E704D2868002C286121011D203
:100DE10087121011C287121011ED25E0FD0CBC080D
:040DF100E1020F19F3
:100E7C00E4FDFCD286D287121011A286E433420420
:0F0E8C00C287121011EC25E0FC0DBD08E8AF0481
:010E9B002234
:100F5300AB07120FB27F46120DCFAF03120DCF02B4
:020F63000F6518
:100DA200120FB27F47120DCFE4FB120E7C74232B7D
:100DB200F8A607BB03047F018002E4FF120F030BB6
:0D0DC200BB03E7120F657F057E00020E5C8B
:051037007F01020F53D0
:100C52007F01120F537F10120F537FC87E00120EB6
:100C62005C120DA2E4FF120F53752100852322E5C9
:100C720022FE7C00E42524F522EC3EF521FCAD2287
:100C8200E41202A67B9A7A997999783F1202048F2C
:100C9200368E358D348C337F337E337DB37C3FABE0
:0D0CA20036AA35A934A8331200FB1202DF78
:010CAF002222
:09101A00120F7612102B021037A0
:100ED600120EED120EED120F41120F41120C527549
:070EE6003704120D7480ECCB
:0610310012101A020ED697
:1000030002034BE86480F8E933E83360110460F0DD
:10001300ED33EC337009E8FCE9FDEAFEEBFF220463
:1000230060DED3EB9FEA9EE99DE8C2E78CF0C2F75E
:1000330095F0400CE8CCF8E9CDF9EACEFAEBCFFB2A
:1000430012031685D0F05804700320D5B3E804706A
:10005300075002B2D502035592D5EC0460F7E4CC05
:10006300C0E0C398F8603B94186008400DD0E0FBF3
:1000730002032DE4FBFAC9FC8028E830E406E4C956
:10008300FBE4CAFCE830E305E4C9CACBFCE8540747
:100093006010F8C3E913F9EA13FAEB13FBEC13FC52
:1000A300D8F130F52FC3E49CFCEF9BFFEE9AFEEDF5
:1000B30099FDD0E0FBEF4E4D4C701222DB0302039F
:1000C30052EC2CFCEF33FFEE33FEED33FDED30E766
:1000D300EB02032DEF2BFFEE3AFEED39FDD0E0FBF3
:1000E30050130BBB0003020355ED13FDEE13FEEF9C
:0800F30013FFEC13FC02032DC6
:1000FB00EC4D6011E8497017ED33EC3304600DE4FF
:10010B00FCFFFEFD22E933E8330470F802034B12C7
:10011B00031658046009E4CC2481500628500902C8
:10012B000355284003020352C0E0EB4A7044B980E8
:10013B0006D0E0FB020341EF4E701CBD8008EBFFC5
:10014B00EAFEE9FD80EBE98DF0A4FEE5F00201E4A7
:10015B00E9CDF9EAFEEBFFEF89F0A4FCE5F0CE89DF
:10016B00F0A42EFFE435F0CD89F0A42DFEE435F09C
:10017B008067EF4E7005BD80D780C3EF8BF0A4ACCA
:10018B00F0EE8BF0A42CFCE435F0F8EF8AF0A42C05
:10019B00E5F038FCE433CB8DF0A42CFCE5F03BF818
:1001AB00EE8AF0A42CFCE5F038F8E433CF89F0A408
:1001BB002CFCE5F038CF3400CE89F0A42FFFE5F00E
:1001CB003EFEE433C98DF0A42EFEE5F039CD8AF066
:1001DB00A42FFFE5F03EFEE43DFD33D0E0FB5007DE
:1001EB000BBB000F020355EC2CFCEF33FFEE33FE81
:0601FB00ED33FD02032DAF
:10020100020355EC5D046005E85904700302034BD9
:10021100120316580460F6EC4860F2EC7004FDFE1F
:10022100FF22C860DB2481C85009C39860025006D0
:100231000203529850CAF582E9294B4A7005AB82F4
:1002410002034175F0007C1A7880C3EF9BEE9AEDB2
:1002510099400DC3EF9BFFEE9AFEED99FDE842F048
:10026100DC23ACF0D0E0FFD0E0FED0E0FDAB82209B
:10027100E7101BEB60BAEC2CFCEF33FFEE33FEED25
:1002810033FD02032DE803F830E705C0F075F000F7
:10029100EF2FFFEE33FEED33FD40B830E7C280AA09
:1002A10075F020800E75F010800575F0087D007ED8
:1002B100007F003392D530D503120462EC33401035
:1002C100EF33FFEE33FEED33FDEC33FCD5F0ED22E1
:0E02D100E5F0247EA2D513CC92E7CDCEFF221D
:1002DF00EDD2E7CD33EC3392D524814006E4FFFE17
:1002EF00FDFC22FCE4CFCECDCC24E0501174FF8076
:1002FF00EDC3CC13CCCD13CDCE13CECF13CF047013
:07030F00F030D5DE020462AC
:100A5D0002034B22EDA2E7D2E7F9EC3340F260F34B
:100A6D00B4FF08ED547F70E8020355F82481C2E00D
:100A7D00C0E0F40428FAC313FCED92E7FD8C408D21
:100A8D00418E428F43EEA2E7E9BA7F02C3133400D1
:100A9D009400FA75F091A4E5F013F494FE8AF0A495
:100AAD0033E5F033248CD313FDE492E7FE7F007C15
:100ABD003F758302ECC0E0F8EDC0E0F9EEC0E0FA5E
:100ACD00EFC0E0FBAC40AD41AE42AF43120204D0EB
:100ADD00E0FBD0E0FAD0E0F9D0E0F812000AED64C6
:100AED0080FD30E7011CD583CBED33CC33F8D0E05E
:0A0AFD00A2E71328C313CC13FD2257
:100B7A008F2E8E2D8D2C8C2BAB32AA31A930A82F1B
:100B8A001202041209558F2E8E2D8D2C8C2BE52FD7
:100B9A0030E747ECC0E0EDC0E0EEC0E0EFC0E0E4D3
:100BAA00FFFEFDFCAB2EAA2DA92CA82B1203607BFD
:100BBA00DB600250087A0F7949784080067A0F790B
:100BCA004978C0D0E0FFD0E0FED0E0FDD0E0FC12D2
:100BDA00000A8F2E8E2D8D2C8C2BAF2EAE2DAD2C88
:030BEA00AC2B220F
:1007C7003A70FA83BCAAE9E43E81E0F8BF9DE9E606
:1007D7003F80000039283C1ABB9969663DA335E381
:1007E700BF255DE73FC90FDB418DDBCCC44936EE42
:1007F70045C9913FC5B0F83D3F800000C317F534A8
:10080700452FFA73C60AFDDD1208B604A2E192026B
:100817001420E0159007C774041203CD8026120830
:10082700B630E102B20220E0EB8C448D458E468F54
:10083700479007DB74041203CDA844A945AA46AB29
:10084700471200FBED4C6007300204EC6480FC2289
:100857001208B6C0E08C448D458E468F479007FF3F
:1008670074031203CDA844A945AA46AB471200FB5F
:10087700ECC544FCEDC545FDEEC546FEEFC547FF9B
:100887009007EF74031203CDD082A844A945AA4666
:10089700AB47E58230E007120204B20280A6EFCB35
:1008A700FFEECAFEEDC9FDECC8FC1202048095ED0F
:1008B70033EC547FCC33920224605007D0E0D0E071
:1008C70002034B7B837AF97922783E1200FBEDF91C
:1008D70033ECF83324815011EFFBEEFA1202DF12EA
:1008E70002A1ECB2E7FC12000AED33EC33602F24CF
:1008F70003F8C313FCED92E7FDE82481E4501FECF5
:10090700F8EDF9EEFAEFFB1202DFEF04C2E0FCF5B7
:10091700821202ABECB2E7FC12000AE58203FAEDA1
:0E09270033EC3360071413FCED92E7FDEA2277
:10031600E9D2E7C933E833F892D5EDD2E7CD33EC2D
:0703260033FC5002B2D522A6
:10032D00EC30E7100FBF000C0EBE00080DBD000431
:10033D000BEB6014A2D5EB13FCED92E7FD2274FFDD
:10034D00FCFDFEFF22E480F8A2D574FF13FC7D8036
:03035D00E480EF4A
:1003600074F8CC6480CCC86480C8F582046043C350
:10037000EB9FF5F0EA9E42F0E99D42F0E89C45F0E3
:1003800060305018E5825FFFE582F42B5582FB5008
:10039000210ABA001D09B90019088016E5825BFB25
:1003A000E582F42F5582FF50090EBE00050DBD00F9
:1003B000010CC3EB9FF5F0EA9E42F0E99D42F0E8A4
:0D03C0009C45F06007CC4820E701B3EC221B
:1003CD00C0E0EFFBEEFAEDF9ECF81200FBD0E0F532
:1003DD00F0EFFBEEFAEDF9ECF8120483A3A3A3A35F
:1003ED00E8C0E0E9C0E0EAC0E0EBC0E0C0F0120018
:1003FD00FB120493A3A3A3A312000AD0F0D0E0FB39
:0D040D00D0E0FAD0E0F9D0E0F8D5F0D4222C
:10093500BE1249253E4CCCCDBEAAAAAB3F800000D5
:100945003E7ADBB03EED63383F24BC7D3F490FDB8B
:10095500ED33ECC2E7CC339200B4FF13ED547F6066
:100965000302034B7FDB7E0F7DC97C3F020A50C229
:1009750001C3947F401E7007EDD2E794904015EFB8
:10098500FBEEFAEDF9ECF87F007E007D807C3F12EE
:100995000204D201ED33EC33248430E705E4C0E0F2
:1009A500806D04FAEDD2E754F0C333DAFD54073411
:1009B500002323C0E0CCC0E0F8EDC0E0F9EEC0E0D4
:1009C500FAEFC0E0FBE41202ABEC24FEFC8C488D90
:1009D500498E4A8F4B1200FB7B007A007980783F65
:1009E50012000AECC548B2E7FCEDC549FDEEC54A63
:1009F500FEEFC54BFFD0E0FBD0E0FAD0E0F9D0E048
:100A0500F812000AA848A949AA4AAB4B1202048C5D
:100A1500488D498E4A8F4B90093574031203CDA832
:100A250048A949AA4AAB4B1200FBD0E0600F24410C
:100A3500F582E43409F58312049312000A30010BA0
:100A45007BDB7A0F79C978BF12000AED33EC33608E
:080A550006ECA20092E7FC226E
:03000000020FEA02
:0C0FEA00787FE4F6D8FD758151021031CB
:10041A00EF8DF0A4A8F0CF8CF0A428CE8DF0A42EF6
:02042A00FE22B0
:10042C00C2D5EC30E709B2D5E4C39DFDE49CFCEEEB
:10043C0030E715B2D5E4C39FFFE49EFE1204A3C3BC
:10044C00E49DFDE49CFC80031204A330D507C3E4B7
:06045C009FFFE49EFE225A
:0E046200C3E49FFFE49EFEE49DFDE49CFC22AB
:10047000E8600FECC313FCED13FDEE13FEEF13FF6A
:03048000D8F1228E
:10048300E493FC740193FD740293FE740393FF22BF
:10049300E493F8740193F9740293FA740393FB22BF
:1004A300BC000BBE0029EF8DF084FFADF022E4CC3D
:1004B300F875F008EF2FFFEE33FEEC33FCEE9DEC06
:1004C300984005FCEE9DFE0FD5F0E9E4CEFD22ED4C
:1004D300F8F5F0EE8420D21CFEADF075F008EF2F96
:1004E300FFED33FD4007985006D5F0F222C398FD87
:0504F3000FD5F0EA2224
:00000001FF
