:1023580090024CEFF0A3EDF01226687F1A1226299E
:1023680012267190024CE0FF122629122671900263
:0C2378004DE0FF12262912267102267A81
:1023D30090024DEFF01226687F1A122629122671F9
:1023E3007FB012262912267190024DE0FF12262992
:0623F30012267102267A99
:10248A001223D31226687F1B1226291226711225BF
:10249A00FC90024CEFF012260B12267A90024CE0C6
:0124AA00FF32
:0124AB00220E
:081146004102EA004102E80049
:0626AD0075985002259A09
:08269E008F993099FDC29922C9
:06225B0090024C1207F393
:10226100E4FB900250E0FFEBC39F502890024CA387
:10227100A3A3E0FAFF12269E90024CE0FCA3E0FD2E
:10228100A3E0FEA3E0FF780812078F90024C12072B
:04229100F30B80CEFD
:012295002226
:1025740012060FFF600C12269E740129F9E43AFA40
:0325840080EE22C4
:0626B300759A5002265E3C
:0F25CF008F9B9002EA7401F09002EAE070FA220A
:1025870012060FFF600C1225CF740129F9E43AFAFD
:0325970080EE22B1
:1022CD009002E8E06027E4F0A3E59BF0E0120655EC
:1022DD0012060F600D9002E87401F029F9E43AFA44
:1022ED0080DEE49002E8F01206557F01227F002285
:0F25DE0075BAB090FE8074E0F090FE82E4F022B7
:0F25ED0090FE82E030E6F990FE82E054BFF022CB
:0926680090FE817401F00225EDE1
:0E26290090FE86EFF090FE817402F00225ED27
:0926710090FE817403F00225EDD6
:0F25FC0090FE817404F01225ED90FE87E0FF221F
:0E26370090FE82E4F090FE817405F00225ED25
:0F260B0090FE827401F090FE817405F00225EDBF
:09267A0090FE817406F00225EDCA
:10259A00538EFE53890F438E40758DFD758B8FD2F6
:0225AA008E227F
:0A265E00438E1475D6FD75D78E2249
:0C2645007F867E0C7D49DDFEDEFADFF6AC
:012651002266
:1023F900EF1FAC0670011E4C601A000000000000BF
:1024090000000000000000000000000000000000C3
:05241900000080DC2240
:1025AC007FCD7EE67DFDDDFEDEFADFF67F0EDFFE03
:0125BC00001E
:0125BD0022FB
:082683007F78AE071FEE70FA2C
:01268B00222C
:1024AC00E4FDFCC3ED9FEC9E5015E4FBFA0BBB0066
:0F24BC00010ABA5DF8BBC0F50DBD00010C80E44C
:0124CB0022EE
:0726A600759124E4F5922276
:10241E0075DE2FEF4480F5BC43BC400000E5BC30B8
:10242E00E5FB53BCDFAFBDEFFEADBE7C00E42DFF80
:03243E00EC3EFE73
:012441002278
:0626B90075AF01D2AF2253
:030043000222FD99
:1022FD00C0E0C083C082E59A30E108539AFD900298
:10230D00EAE4F0E59A30E00F539AFE9002E874018A
:0E231D00F09002E9E59BF0D082D083D0E03250
:1024CC00D2947F0A7E001223F9C2947F207E0312DD
:0E24DC0023F9D2947F587E021223F97F012249
:05215500900250EFF0C4
:10215A00E4A3F0900250E05401900252F0C2947F3E
:10216A000F7E001223F9900250E01392947F2D7E85
:10217A00001223F9D2947F0A7E001223F9900250AA
:0E218A00E0C313F0A3E004F0E0C3940840C5E6
:012198002224
:1021DC00E4900250F0900251E0C313F0C2947F02DD
:1021EC007E001223F9D2947F047E001223F93094DE
:1021FC0008900251E04480F0F07F1E7E001223F91B
:10220C00900250E004F0E0C3940840C9900251E001
:01221C00FFC2
:01221D00229E
:10251E001224CCEF600D7FCC1221557F4412215531
:05252E007F01227F0087
:012533002285
:101DB90090024C1207FF000000001224CCEF601CB7
:101DC9007FCC1221557FBE1221551221DC9002E6EB
:101DD900EFF01221DC9002E7EFF0D2949002E7E0F5
:101DE900FF9002E4E4F0A3EFF0E07F00FE9002E44C
:101DF900F0A3EFF0A3E0FDEDFF9002E4EEF0A3EF16
:101E0900F0AC06EC1202E9E4FBFA7980783D1201A4
:101E19003E90024C1207F3E4FFFE7D207C419002C4
:101E29004CE0F8A3E0F9A3E0FAA3E0FB12013EE4D9
:101E3900FBFAF9783F12004D1203229002E4EEF00A
:031E4900A3EFF014
:011E4C002273
:102035007D0E7F821223587DA67F83122358E4FDEF
:102045007F84122358E4FD7F85122358E4FD7F86A3
:102055001223587D647F87122358E4FD7F8812235D
:10206500587D647F89122358E4FD7F8A1223587DA9
:10207500647F8B1223587DB17F80122358E4FD7F46
:10208500811223587D117F801223581226457D2108
:052095007F80022358CA
:10209A007D937F801223587F8F12248AEF30E0F7D6
:1020AA007F9212248AEF7F00FEC006C0077F931238
:1020BA00248AEFFDD0E02DFFD0E03400FEEF780255
:1020CA00C333CE33CED8F9FF90028CEEF0A3EFF0F3
:1020DA0090028CE0FEA3E07802CEA2E713CE13D8DA
:1020EA00F8FF7C007D2012066790028CEEF0A3EFC9
:0120FA00F0F5
:0120FB0022C2
:100E4D001220357F8F12248AEF30E1F77F94122420
:100E5D008AEF7F00FEC006C0077F9512248AEFFD42
:100E6D00D0E02DFED0E03400900286F0A3CEF07FCE
:100E7D009612248AEF7F00FEC006C0077F971224CA
:100E8D008AEFFDD0E02DFFD0E03400FE90029AF005
:100E9D00A3EFF0FDAC06EC1202E9C004C005C006DC
:100EAD00C00790029AE0FCA3E0FDEC1202E9D0032A
:100EBD00D002D001D00012013EC004C005C006C052
:100ECD0007900286E0FCA3E0FDEC1202E9C004C02D
:100EDD0005C006C007900286E0FCA3E0FDEC1202FF
:100EED00E9D003D002D001D00012013ED003D002D0
:100EFD00D001D00012004D121C749002921207F313
:100F0D00D3900287E09400900286E0648094804044
:100F1D005390029AE0FCA3E0FDD39400EC6480941E
:100F2D00804041EC1202E9C004C005C006C0079024
:100F3D000286E0FCA3E0FDEC1202E99002501207DC
:100F4D00F3D007D006D005D004121D1CE4FBFA79AE
:100F5D0034784312013E7BDA7A0F794978401202D8
:100F6D00470210A5C3900286E064809480505C9087
:100F7D00029AE0FCA3E0FD9400EC64809480404B69
:100F8D00EC1202E9C004C005C006C007900286E05D
:100F9D00FCA3E0FDEC1202E99002501207F3D0071A
:100FAD00D006D005D004121D1CE4FBFA7934784329
:100FBD0012013E7BDA7A0F79497840120247E4FB41
:100FCD00FA7934784312004D0210A5C3900286E0E1
:100FDD0064809480505A90029AE0FCA3E0FDC3EC2B
:100FED0064809480504AEC1202E9C004C005C0062A
:100FFD00C007900286E0FCA3E0FDEC1202E990022E
:10100D00501207F3D007D006D005D004121D1CE4F2
:10101D00FBFA7934784312013E7BDA7A0F794978FD
:10102D0040120247E4FBFA7934784312004D806890
:10103D00D3900287E09400900286E0648094804013
:10104D005D90029AE0FCA3E0FDEC64809480504E2C
:10105D00EC1202E9C004C005C006C007900286E08C
:10106D00FCA3E0FDEC1202E99002501207F3D00749
:10107D00D006D005D004121D1CE4FBFA7934784358
:10108D0012013E7BDA7A0F79497840120247E4FB70
:10109D00FA79B4784312004D9002881207F390024A
:1010AD0092E0F8A3E0F9A3E0FAA3E0FB7FF87E134A
:1010BD007D647C4A1202479002961207F37FB87E38
:1010CD009E7D917CC3900288E0F8A3E0F9A3E0FA3D
:1010DD00A3E0FB12004D7BDA7A0F794978401201BB
:1010ED003EE4FBFA79347843120247121617900248
:1010FD0096E0F8A3E0F9A3E0FAA3E0FB12013E7B32
:10110D005C7A8F79D278C012004DA804A905AA0681
:10111D00AB077F807E1A7D837C4912024790028E39
:10112D001207F37DA17F8012235890028EE0FCA35D
:08113D00E0FDA3E0FEA3E0FFCA
:011145002287
:0F261A00D286D287122683C286122683C28722D7
:1025BE00C286D287122683D286122683C28702262D
:0125CE008389
:10253400EF30E004D2868002C286D287122683C29C
:0625440087D28602268307
:10244200E4900253F0D286D287122683900253E0A0
:10245200FFA286E433FEEF4EF0122683C28790027B
:0324620053E0FF45
:012465002254
:05229600900251EFF081
:10229B00E4A3F0900251E030E704D2868002C286BC
:1022AB00122683D287122683C2871226839002516D
:1022BB00E0FF25E0F0A3E004F0E0C3940840D40273
:0222CB002442AB
:10221E00E4900251F0A3F0D286900251F0D28712D0
:10222E002683900252E0FFA286E433FEEF4EF0C208
:10223E0087122683900252E025E0F0900251E004CE
:0C224E00F0E0C3940840D6900252E0FF7C
:01225A002261
:10250600900250EFF012261A7F4612229690025041
:08251600E0FF1222960225BE2F
:1021990012261A7F47122296E4900250F012221E4C
:1021A900900250E0FE24C8F582E43402F583EFF092
:1021B900EEB403047F018002E4FF1225349002503B
:1021C900E004F0E0C3940340D41225BE7F057E00ED
:0321D9000224AC31
:0526CB007F010225065D
:101F5A007F011225067F101225067FC87E001224F3
:101F6A00AC122199E4FF1225069002C8E0FF900204
:101F7A00C6E4F0A3EFF0E0FE9002C9E07C00240082
:101F8A00FFEC3EFE9002C6F0A3EFF0FDAC06E412B1
:101F9A0002E97B9A7A997999783F12024790024C22
:101FAA001207F37F337E337DB37C3F90024CE0F817
:0F1FBA00A3E0F9A3E0FAA3E0FB12013E12032219
:011FC90022F5
:1024EA007F0212241EAD07AC06E41202E97BE67AEB
:0B24FA003F791C784012013E120322C3
:0125050022B3
:10114E00021500000411C126C083040D46DDC977C7
:1019EE009002D07407F0A37432F09002D47423F0F6
:1019FE00A374DCF09002D27409F0A37425F0900267
:101A0E00D6740FF0A374A0F07432642570047407BA
:101A1E0064097003021AF39002D6E0FEA3E0FFD32E
:101A2E009002D5E09FEE6480F89002D4E064809836
:101A3E0040339002D0E0FEA3E0FF9002D3E09FFD82
:101A4E009002D2E09EFC1202E9C004C005C006C09E
:101A5E00079002D4E0FEA3E0FFC39002D7E09FFD03
:101A6E009002D680329002D2E0FEA3E0FFC3900235
:101A7E00D1E09FFD9002D0E09EFC1202E9C004C0AE
:101A8E0005C006C0079002D6E0FEA3E0FFC3900299
:101A9E00D5E09FFD9002D4E09EFC1202E9D003D067
:101AAE0002D001D00012024778111207E79002D03F
:101ABE00E0FCA3E0FDEC1202E978111207BE120160
:101ACE003EC004C005C006C0079002D4E0FCA3E0EF
:101ADE00FDEC1202E9D003D002D001D00012004971
:061AEE00780D1207E7224B
:051ED90090024CEFF047
:101EDE0090024E1207FF00000000E490024DF090B9
:101EEE00024EE0F8A3E0F9A3E0FAA3E0FBC000C0C5
:101EFE0001C002C00390024CE0FF12241EE4FCFD60
:101F0E00D003D002D001D000EB2FFFEA3EFEED3918
:101F1E00FDEC38FC90024E1207F3E4FFFE0FBF00FB
:101F2E00010EBE03F8BFE8F590024DE004F0E0C3E9
:101F3E00946440ABE47B64FAF9F890024EE0FCA3A3
:0B1F4E00E0FDA3E0FEA3E0FF1206EFA1
:011F59002265
:102384007F05121ED9AD07AC06E41202E9781112DA
:1023940007BE12013E780D1207BE12004D12032231
:0723A4007815EEF608EFF6D4
:0123AB00220F
:0626BF0025640025660001
:10115E00606E016C7B2274223A20312C22646576FB
:10116E00696365223A2022426C7565426572727916
:10117E00222C226B6579223A226439623864353426
:10118E003936373765343264393839663335343069
:10119E00316236633037393066222C227665722200
:1011AE003A2276312E30227D000000000000000031
:1011BE000000000000000000000000000000000021
:1011CE000000612C00007B2274223A332C226461D1
:1011DE00746174797065223A312C22646174617382
:1011EE00223A7B2250680000000000000000000040
:1011FE0000000000000000000000000000000000E1
:10120E0000000000000000000000000000000000D0
:10121E0000000000000000000000000000000000C0
:10122E0000000000000000000000000000000000B0
:10123E0000000000000000000000000000000000A0
:10124E000000000000000000000000000000000090
:10125E000000000000000000000000000000000080
:10126E000000000000000000000000000000000070
:10127E000000000000000000000000000000000060
:10128E000000000000000000000000000000000050
:10129E000000000000000000000000000000000040
:1012AE000000000000000000000000000000000030
:1012BE000000000000000000000000000000000020
:1012CE000000000000000000000000000000000010
:1012DE000000000000000000000000000000000000
:1012EE0000000000000000000000000000000000F0
:1012FE0000004A022A223A30000000000000004A94
:10130E0002347D2C7B220000000000004E023E7D48
:10131E002C226D73676964223A317D000047021CEE
:10132E0024234154230D00603F01DD50680000006E
:10133E00000000004C697175696454000048756DB9
:10134E006964697479004C757800000000000054DF
:10135E00656D7000000000004543000000000000B5
:10136E0000434F320000000000004702230207082E
:0A137E00030402034301DA01012C0D
:1020FC00E49002EBF0A3F07B017A01792C1222CD53
:10210C00EF70229002ECE004F070069002EBE00419
:10211C00F0D39002ECE0942C9002EBE0648094817C
:10212C0040DE7F00229001DAE0FBA3E0FAA3E0F9A5
:10213C00EF1206559001DAE0FBA3E475F0011206EC
:08214C009D45F04B70EE7F0190
:012154002268
:0B1BB3009002AEEBF0A3EAF0A3E9F013
:101BBE009002AEE0F9A3E0FAA3E09002BDC9F0A353
:101BCE00EAF0A3E9F09001DAE0FBA3E0FAA3E0F972
:101BDE00121AF49002B4EBF0A3EAF0A3E9F090022B
:101BEE00AEE0FBA3E0FAA3E0F912255F9002B4E0A9
:101BFE00FBA3E0FAA3E0F9EF3395E0FEE92FF9EA53
:101C0E003EFAA3EBF0A3EAF0A3E9F09002B4A3E04E
:101C1E00FAA3E0F94A603F90FFFF12062864227093
:101C2E00359002B7E0FBA3E0FAA3E0F912060FB479
:101C3E002224900001120628B43A1B9000021206CC
:101C4E0028B42212E92402F9E43AFA9002B1EBF038
:101C5E00A3EAF0A3E9F09002B1A3E0FAA3E0AE028A
:011C6E00FF76
:011C6F002252
:09268C007B017A01796C022587BB
:092695007B017A02791C02258701
:051757009002D8EFF044
:10175C009002DD741EF0EFB40700400302185590A0
:10176C001772F82828730217870217A50217C302ED
:10177C0017E00217FD02181A0218379002DDE0FF7D
:10178C003395E0FE74002FF974003EA801FC7D0136
:10179C007B017A0179DD0218529002DDE0FF33956E
:1017AC00E0FE74002FF974003EA801FC7D017B0162
:1017BC007A0179E60218529002DDE0FF3395E0FEE3
:1017CC0074002FF974003EA801FC7D017B017A01A5
:1017DC0079EF80729002DDE0FF3395E0FE74002F0C
:1017EC00F974003EA801FC7D017B017A0179F88037
:1017FC00559002DDE0FF3395E0FE74002FF9740084
:10180C003EA801FC7D017B017A02790180389002AF
:10181C00DDE0FF3395E0FE74002FF974003EA80163
:10182C00FC7D017B017A02790A801B9002DDE0FFCE
:10183C003395E0FE74002FF974003EA801FC7D0185
:10184C007B017A0279131209429002D8E064059068
:10185C000259600C74FFF0A37426F0A374BF800AC5
:10186C0074FFF0A37426F0A374C2F09002D9E0FCCC
:10187C00A3E0FDA3E0FEA3E0FF90025C1207F37B64
:10188C00017A02792C120A2F9002DEEFF0900259A5
:10189C007401F0A37402F0A3742AF07B017A00792E
:1018AC0000121FCA9002597401F0A37402F0A374C1
:0F18BC003EF07B017A007900121FCA7E007F0088
:0118CB0022FA
:10139300E490024DF0A3F0A31207FF0000000090B9
:1013A30002547400F0A3741EF0E4900253F0900210
:1013B30053E0FFC36480948740030215B3EFB4077F
:1013C3000040030214819013D0F82828730213E518
:1013D3000213FC02141202142802143E02145402D3
:1013E300146A900254E0FEA3E0AA06F8AC027D0161
:1013F3007B017A0179DD02147E900254E0FEA3E0C2
:10140300AA06F8AC027D017B017A0179E6806C9033
:101413000254E0FEA3E0AA06F8AC027D017B017A48
:101423000179EF8056900254E0FEA3E0AA06F8ACDF
:10143300027D017B017A0179F88040900254E0FE3D
:10144300A3E0AA06F8AC027D017B017A0279018050
:101453002A900254E0FEA3E0AA06F8AC027D017BC9
:10146300017A02790A8014900254E0FEA3E0AA06EE
:10147300F8AC027D017B017A0279131209429002D2
:1014830053E0FBB40700505C901492F828287302D1
:1014930014A70214AC0214B10214B60214BD021450
:1014A300C20214D89002A2802F9002A8802A900230
:1014B300AC80259002A4A3A3801E90029C80199067
:1014C300029EE0FCA3E0FDA3E0FEA3E0FF90024F39
:1014D3001207F3800F9002AAE0FFA3E090024DCF22
:1014E300F0A3EFF0EB6405900259601C74FFF0A3C6
:1014F3007426F0A374BFF090024DE0FFA3E09002C6
:101503005CCFF0A3EFF0801F74FFF0A37426F0A369
:1015130074C2F090024FE0FCA3E0FDA3E0FEA3E061
:10152300FF90025C1207F37B017A02792C120A2FD7
:1015330090024CEFF09002597401F0A37402F0A3EF
:10154300742AF07B017A007900121FCA900253E0DB
:10155300640660539002597401F0A37402F0A374FB
:1015630034F07B017A007900121FCA900253E0FF26
:101573003395E0FE74232FF58274023EF583E0FF7A
:101583003395E0FE900255E02FFF900254E03EFEBB
:1015930090024CE07C002FFFEC3ECF2406CF3400BA
:1015A300900254F0A3EFF0900253E004F00213B161
:1015B3009002597401F0A37402F0A3743EF07B010E
:0B15C3007A007900121FCA7E007F0032
:0115CE0022FA
:10246600C0079002E0E0FCA3E0FDA3E0FEA3E0FFCE
:102476009002D91207F3D0071217577B017A007919
:0424860000022587A4
:0C2652001213937B017A007900022587A7
:0A1388004202AC000042029C00008B
:10254A001225DE1226CB1226A61219EE1226AD127B
:05255A0026B30226B9C2
:1000030012251E12209A120E4D12032290029E12E6
:1000130007F3121DB99002A8EEF0A3EFF0121F5AD6
:100023009002A41207F31224EA9002AAEEF0A3EFBF
:0F003300F01223849002A2EEF0A3EFF002265207
:10232B00C2A61225AC12268C7F327E001224AC1270
:10233B0000031225AC122695B2A69002507401F040
:0D234B007F117E007D007C0012225B80D59A
:0626C50012254A02232B3E
:1000460002038EE86480F8E933E83360110460F057
:10005600ED33EC337009E8FCE9FDEAFEEBFF220420
:1000660060DED3EB9FEA9EE99DE8C2E78CF0C2F71B
:1000760095F0400CE8CCF8E9CDF9EACEFAEBCFFBE7
:1000860012035985D0F05804700320D5B3E80470E4
:10009600075002B2D502039892D5EC0460F7E4CC7F
:1000A600C0E0C398F8603B94186008400DD0E0FBB0
:1000B600020370E4FBFAC9FC8028E830E406E4C9D0
:1000C600FBE4CAFCE830E305E4C9CACBFCE8540704
:1000D6006010F8C3E913F9EA13FAEB13FBEC13FC0F
:1000E600D8F130F52FC3E49CFCEF9BFFEE9AFEEDB2
:1000F60099FDD0E0FBEF4E4D4C701222DB0302035C
:1001060095EC2CFCEF33FFEE33FEED33FDED30E7DF
:10011600EB020370EF2BFFEE3AFEED39FDD0E0FB6C
:1001260050130BBB0003020398ED13FDEE13FEEF15
:0801360013FFEC13FC0203703F
:10013E00EC4D6011E8497017ED33EC3304600DE4BB
:10014E00FCFFFEFD22E933E8330470F802038E1241
:10015E00035958046009E4CC248150062850090242
:10016E000398284003020395C0E0EB4A7044B9801F
:10017E0006D0E0FB020384EF4E701CBD8008EBFF3F
:10018E00EAFEE9FD80EBE98DF0A4FEE5F002022720
:10019E00E9CDF9EAFEEBFFEF89F0A4FCE5F0CE899C
:1001AE00F0A42EFFE435F0CD89F0A42DFEE435F059
:1001BE008067EF4E7005BD80D780C3EF8BF0A4AC87
:1001CE00F0EE8BF0A42CFCE435F0F8EF8AF0A42CC2
:1001DE00E5F038FCE433CB8DF0A42CFCE5F03BF8D5
:1001EE00EE8AF0A42CFCE5F038F8E433CF89F0A4C5
:1001FE002CFCE5F038CF3400CE89F0A42FFFE5F0CB
:10020E003EFEE433C98DF0A42EFEE5F039CD8AF022
:10021E00A42FFFE5F03EFEE43DFD33D0E0FB50079A
:10022E000BBB000F020398EC2CFCEF33FFEE33FEFA
:06023E00ED33FD02037028
:10024400020398EC5D046005E85904700302038E10
:10025400120359580460F6EC4860F2EC7004FDFE99
:10026400FF22C860DB2481C85009C398600250068D
:100274000203959850CAF582E9294B4A7005AB826E
:1002840002038475F0007C1A7880C3EF9BEE9AED2C
:1002940099400DC3EF9BFFEE9AFEED99FDE842F005
:1002A400DC23ACF0D0E0FFD0E0FED0E0FDAB822058
:1002B400E7101BEB60BAEC2CFCEF33FFEE33FEEDE2
:1002C40033FD020370E803F830E705C0F075F00071
:1002D400EF2FFFEE33FEED33FD40B830E7C280AAC6
:1002E40075F020800E75F010800575F0087D007E95
:1002F400007F003392D530D503120781EC334010D0
:10030400EF33FFEE33FEED33FDEC33FCD5F0ED229D
:0E031400E5F0247EA2D513CC92E7CDCEFF22D9
:10032200EDD2E7CD33EC3392D524814006E4FFFED3
:10033200FDFC22FCE4CFCECDCC24E0501174FF8032
:10034200EDC3CC13CCCD13CDCE13CECF13CF0470CF
:07035200F030D5DE02078147
:1009CA00E5082459F582E43402F583E0050822900B
:1009DA000256300703900259E475F00112083002FA
:1009EA00060F2000E97F2ED2008018EF540F2490C2
:1009FA00D43440D4FF30040BEF24BFB41A005003A0
:100A0A002461FFE50960021509050CE50C70020571
:100A1A000B30070E900256E475F001120830EF020F
:100A2A0006550223AC7403D2078003E4C207F50813
:100A3A00900256120847E4F509F50BF50CE5096032
:100A4A00077F20120A0D80F5750AFFC201C200C293
:100A5A0002C203C205C206C2081209D9FF700D30CC
:100A6A0007057F00120A1EAF0CAE0B22B4255FC227
:100A7A00D5C2041209D9FF24D0B40A00501A75F05D
:100A8A000A780930D50508B6FF0106C6A426F6205D
:100A9A00D5047002D20380D924CFB41A00EF5004CF
:100AAA00C2E5D204020D10D20180C6D20080C0D2A3
:100ABA000280BCD2D580BAD20580B47F20120A0D3A
:100ACA002002077401B5090040F11209CAFF120A8F
:100ADA000D020A47D208D20680951209CAFB1209EA
:100AEA00CAFA1209CAF94A4B7006790E7A0E7BFFC6
:100AFA0020022EE509602A7E008E82758300120686
:100B0A002860060EEE650A70F0C2D5EBC0E0EAC0B6
:100B1A00E0E9C0E0EE120D71D0E0F9D0E0FAD0E0E1
:100B2A00FB12060FFF60AAEBC0E0EAC0E0E9C0E0F2
:100B3A00120A0DD0E02401F9D0E03400FAD0E0FB2B
:100B4A00E50A0460DCD50AD98087D20280A2120D98
:100B5A005360F7E50A700104120410A90A600DE552
:100B6A000A600914F50A120DFBEF60F3EA30E70296
:100B7A00F404C3995079EAF4250A0430E701E4043D
:100B8A00F50A800D120D5360C1EA050A250A1204FE
:100B9A0010EA900285F030E701E4250A04D50A0438
:100BAA0020050114120D71E4C0E0120DFB900285BC
:100BBA00E0601320E70714F01209F5802204F0D050
:100BCA00E014C0E07F001209F5E50A60071209EC9B
:100BDA00150A800B3005031209ECD0E0020A47D04F
:100BEA00E00480C4120D53609EE50A0412041090BA
:100BFA000285EAF0E50A2005026001042404120DC8
:010C0A007178
:100C0B0074FF04C0E0120DFB1209F5E50A20050282
:100C1B0060031209ECD0E0B50AE87F451209FF909A
:100C2B000285E07F2B30E7047F2DF404C0E0120A2D
:100C3B000DD0E075F00A84C0F01209F6D0E012096D
:100C4B00F6020A47791080027908C206C2088008AA
:100C5B00D2D5790A8004790AC2D5E50A047002F567
:100C6B000AE4FAFDFEFF1209CAFC7B0820011312ED
:100C7B0009CAFD7B1030000A1209CAFE1209CAFF0D
:100C8B007B20EC3382D592D55013C3E43000069F02
:100C9B00FFE49EFEE42001039DFDE49CFCE4CBF805
:100CAB00C201EC700CCFCECDCCE824F8F870F380F9
:100CBB0017C3EF33FFEE33FEED33FDEC33FCEB33B9
:100CCB00FB994002FB0FD8E9EB300105F8D0E0C4EB
:100CDB0048B201C0E00AEC4D4E4F78207B0070C249
:100CEB00EAB50A0040BCC0E0120D73D0F0D0E02092
:100CFB000104C4C0E0C4B201C0F01209F6D0F0D5B3
:100D0B00F0EB020A471208500AE4530C4F580AB58D
:100D1B004C0AB1420C534F0C5B440C5B490ACA435F
:100D2B000C61550B8E460BEE450B58470E2E500A99
:100D3B00B92D0ABD2E0AE02B0AC1230ADE200E179D
:100D4B002A0A794800000AD8E50AB4FF03750A0697
:100D5B001209CAFC1209CAFD1209CAFE1209CAFFFE
:100D6B0090027E02044D790AA2D5200314300509A6
:100D7B00B910020404B9080104A2D52006025001DF
:100D8B00042002689202B509005034C0E07F203085
:100D9B0003197F30A20272067205500F120DCAC2E0
:100DAB0002C206C205C2087F30800F300503E9C0BE
:100DBB00E0120A0D300503D0E0F9D0E0B509CC30D4
:100DCB0005177F30B9100C120A0D7F583004077FBE
:100DDB00788003B90803120A0D3002057F2D020A31
:100DEB000D7F202008F87F2B2006F322920280CF64
:100DFB007F00B40700500B247EF582E43402F583A8
:100E0B00E0FF22286E756C6C2900D2011209CA30E2
:100E1B0001F8C201780930D50108F6020A792D5084
:100E2B004349581209CA2403B405004001E4900E4B
:100E3B0029931209FE743A1209FED20375090402B2
:020E4B000C4F4A
:101C700002038E22EDA2E7D2E7F9EC3340F260F3E3
:101C8000B4FF08ED547F70E8020398F82481C2E0A5
:101C9000C0E0F40428FAC313FCED92E7FD90024C77
:101CA0001207F3EEA2E7E9BA7F02C31334009400EF
:101CB000FA75F091A4E5F013F494FE8AF0A433E5EC
:101CC000F033248CD313FDE492E7FE7F007C3F7554
:101CD0008302ECC0E0F8EDC0E0F9EEC0E0FAEFC03E
:101CE000E0FB8583F090024C1207A285F08312027C
:101CF00047D0E0FBD0E0FAD0E0F9D0E0F812004D98
:101D0000ED6480FD30E7011CD583C7ED33CC33F89B
:0C1D1000D0E0A2E71328C313CC13FD227F
:101D1C0090024C1207F3900250E0F8A3E0F9A3E014
:101D2C00FAA3E0FB90024CE0FCA3E0FDA3E0FEA3D1
:101D3C00E0FF1202471218EC90024C1207F39002CB
:101D4C0050E030E75990024CE0FCA3E0FDA3E0FE2C
:101D5C00A3E0FFECC0E0EDC0E0EEC0E0EFC0E0E4DB
:101D6C00FFFEFDFC90024CE0F8A3E0F9A3E0FAA31F
:101D7C00E0FB1203A37BDB600250087A0F794978F1
:101D8C004080067A0F794978C0D0E0FFD0E0FED0D1
:101D9C00E0FDD0E0FC12004D90024C1207F39002D3
:0D1DAC004CE0FCA3E0FDA3E0FEA3E0FF225D
:1015CF003A70FA83BCAAE9E43E81E0F8BF9DE9E6F0
:1015DF003F80000039283C1ABB9969663DA335E36B
:1015EF00BF255DE73FC90FDB418DDBCCC44936EE2C
:1015FF0045C9913FC5B0F83D3F800000C317F53492
:10160F00452FFA73C60AFDDD1216D804A2E1920027
:10161F001420E0159015CF74041205528030121665
:10162F00D830E102B20020E0EBA883A98290024CEF
:10163F001207F3898288839015E37404120552858B
:10164F0082F090024C1207CB85F08212013EED4CD6
:10165F006007300004EC6480FC221216D8C0E0A8AA
:10166F0083A98290024C1207F38982888390160710
:10167F0074031205528582F090024C1207CB85F04D
:10168F008212013E90024CE0CCF0A3E0CDF0A3E03B
:10169F00CEF0A3E0CFF09015F77403120552D0826D
:1016AF008582F090024C1207CB85F082E58230E004
:1016BF0007120247B2008096EFCBFFEECAFEEDC9CC
:1016CF00FDECC8FC1202478085ED33EC547FCC3320
:1016DF00920024605007D0E0D0E002038E7B837A23
:1016EF00F97922783E12013EEDF933ECF83324817B
:1016FF005011EFFBEEFA1203221202E4ECB2E7FCF8
:10170F0012004DED33EC33602F2403F8C313FCEDBF
:10171F0092E7FDE82481E4501FECF8EDF9EEFAEFC3
:10172F00FB120322EF04C2E0FCF5821202EEECB2D0
:10173F00E7FC12004DE58203FAED33EC336007143A
:08174F0013FCED92E7FDEA2214
:10035900E9D2E7C933E833F892D5EDD2E7CD33ECEA
:0703690033FC5002B2D52263
:10037000EC30E7100FBF000C0EBE00080DBD0004EE
:100380000BEB6014A2D5EB13FCED92E7FD2274FF9A
:10039000FCFDFEFF22E480F8A2D574FF13FC7D80F3
:0303A000E480EF07
:1003A30074F8CC6480CCC86480C8F582046043C30D
:1003B300EB9FF5F0EA9E42F0E99D42F0E89C45F0A0
:1003C30060305018E5825FFFE582F42B5582FB50C5
:1003D300210ABA001D09B90019088016E5825BFBE2
:1003E300E582F42F5582FF50090EBE00050DBD00B6
:1003F300010CC3EB9FF5F0EA9E42F0E99D42F0E861
:0D0403009C45F06007CC4820E701B3EC22D7
:10041000F920E73624F950037907E4F42402FBE5D8
:1004200082158270021583DBF6E024FB501BE96025
:1004300014E4F0E582158270021583E004F0B40A3A
:0D04400008E4F0D9EE7401F00A22C2D522C2
:10044D00ED33EC3392D5FA602AB4FF33EDC2E77B7E
:10045D00FF60067A047972E4227A04797B20D50450
:10046D007A047976224E614E002B494E46002D4975
:10047D004E4600E47A08F0A3DAFC7B00740722C034
:10048D0083C082ECC0E0EDC0E0EEC0E0EFC0E0EA7A
:10049D0075F010A4CAABF075F04DA42BFBE435F04C
:1004AD00FCEA2410FAEB34C5FBEC34D9FCEDC2E7C1
:1004BD00FF75F056A4F42411C5F0F434C58FF0A4E3
:1004CD002AE5F03BE43CF020E7141205CFD0E0FF25
:1004DD00D0E0FED0E0FDD0E0FC1202478014F40421
:1004ED001205CFD0E0FFD0E0FED0E0FDD0E0FC1251
:1004FD00013ED082D083E0FAEDD2E7CD33EC332448
:10050D0082FBE4C3CF33CFCE33CECD33CD33DBF34C
:10051D007B0775F00A846004F0A31B0AE5F0F0A3D5
:10052D008FF0740AA4FFACF08EF0740AA42CFEAC0C
:10053D00F050010C8DF0740AA42CFDE435F0F0A3FD
:05054D00DBDE74072253
:10055200C0E0EFFBEEFAEDF9ECF812013ED0E0F567
:10056200F0EFFBEEFAEDF9ECF81207AEA3A3A3A3AA
:10057200E8C0E0E9C0E0EAC0E0EBC0E0C0F0120190
:100582003E1207D7A3A3A3A312004DD0F0D0E0FBE5
:0D059200D0E0FAD0E0F9D0E0F8D5F0D422A6
:1018CC00BE1249253E4CCCCDBEAAAAAB3F8000002F
:1018DC003E7ADBB03EED63383F24BC7D3F490FDBE5
:1018EC00ED33ECC2E7CC339200B4FF13ED547F60C0
:1018FC000302038E7FDB7E0F7DC97C3F0219E1C2A0
:10190C0001C3947F401E7007EDD2E794904015EF11
:10191C00FBEEFAEDF9ECF87F007E007D807C3F1247
:10192C000247D201ED33EC33248430E705E4C0E008
:10193C00806B04FAEDD2E754F0C333DAFD5407346C
:10194C00002323C0E0CCC0E0F8EDC0E0F9EEC0E02D
:10195C00FAEFC0E0FBE41202EEEC24FEFC90025421
:10196C001207F312013E7B007A007980783F120057
:10197C004D900254E0B2E7CCF0A3E0CDF0A3E0CE62
:10198C00F0A3E0CFF0D0E0FBD0E0FAD0E0F9D0E06B
:10199C00F812004D9002541207CB120247900254D9
:1019AC001207F39018CC74031205529002541207CC
:1019BC00CB12013ED0E0600F24D8F582E43418F548
:1019CC00831207D712004D30010B7BDB7A0F79C9DC
:1019DC0078BF12004DED33EC336006ECA20092E7B9
:0219EC00FC22DB
:10059F003F8000004120000042C80000447A000064
:1005AF00461C400047C35000497424004B189680E6
:1005BF004CBEBC205A0E1BCA6753C21C749DC5AEDD
:1005CF00FB60065407601C23231205FDEB543860B3
:1005DF00091205E91205F812013EECF8EDF9EEFAF1
:1005EF00EFCB22EB1205F880F1543803241C900551
:1005FF009FFE93FC0EEE93FD0EEE930ECE93FF2215
:03000000021E4D90
:0C1E4D00787FE4F6D8FD758121021E9418
:10060F00BB010689828A83E0225002E722BBFE02E9
:09061F00E32289828A83E493221C
:10062800BB010CE58229F582E5833AF583E0225087
:1006380006E92582F8E622BBFE06E92582F8E222D1
:0D064800E58229F582E5833AF583E49322EB
:10065500BB010689828A83F0225002F722BBFE0184
:02066500F3227E
:10066700C2D5EC30E709B2D5E4C39DFDE49CFCEEAE
:1006770030E715B2D5E4C39FFFE49EFE12095FC3BE
:10068700E49DFDE49CFC800312095F30D507C3E4B9
:060697009FFFE49EFE221D
:10069D00A3F8E0C5F025F0F0E58215827002158310
:0606AD00E0C838F0E8226D
:1006B30075F008758200EF2FFFEE33FECD33CDCCFE
:1006C30033CCC58233C5829BED9AEC99E582984081
:1006D3000CF582EE9BFEED9AFDEC99FC0FD5F0D65E
:1006E300E4CEFBE4CDFAE4CCF9A88222B800C1B988
:1006F3000059BA002DEC8BF084CFCECDFCE5F0CBC6
:10070300F97818EF2FFFEE33FEED33FDEC33FCEBFE
:1007130033FB10D703994004EB99FB0FD8E5E4F9B9
:10072300FA227818EF2FFFEE33FEED33FDEC33FCA6
:10073300C933C910D7059BE99A4007EC9BFCE99A9A
:10074300F90FD8E0E4C9FAE4CCFB2275F010EF2FDF
:10075300FFEE33FEED33FDCC33CCC833C810D707DF
:100763009BEC9AE899400AED9BFDEC9AFCE899F81A
:0E0773000FD5F0DAE4CDFBE4CCFAE4C8F922AD
:0E078100C3E49FFFE49EFEE49DFDE49CFC2289
:10078F00E8600FECC313FCED13FDEE13FEEF13FF48
:03079F00D8F1226C
:0C07A200E0FCA3E0FDA3E0FEA3E0FF22CA
:1007AE00E493FC740193FD740293FE740393FF2291
:0D07BE00E6FB08E6F908E6FA08E6CBF822AB
:0C07CB00E0F8A3E0F9A3E0FAA3E0FB22B1
:1007D700E493F8740193F9740293FA740393FB2278
:0C07E700ECF608EDF608EEF608EFF6223E
:0C07F300ECF0A3EDF0A3EEF0A3EFF02279
:1007FF00A8828583F0D083D08212081612081612B1
:10080F000816120816E473E493A3C583C5F0C583D5
:10081F00C8C582C8F0A3C583C5F0C583C8C582C843
:01082F0022A6
:10083000F8E0FBA3A3E0F925F0F0E5821582700251
:070840001583E0FA38F022F5
:09084700EBF0A3EAF0A3E9F022B2
:10085000D083D082F8E4937012740193700DA3A337
:1008600093F8740193F5828883E47374029368604B
:06087000EFA3A3A380DF4B
:1023AC00EFB40A07740D1223B7740A309811A89968
:1023BC00B8130CC2983098FDA899C298B811F63091
:0723CC0099FDC299F5992269
:101FCA00900256EBF0A3EAF0A3E9F090025CEBF082
:101FDA00A3EAF0A3E9F0900256E0FBA3E475F0014E
:101FEA0012069DA9F0FA12060F70EB90025774FFC1
:101FFA00F5F01209B4900259E0FBA3E475F001125E
:10200A00069DA9F0FA12060FFF900256E0FBA3E420
:10201A0075F00112069DA9F0FAEF12065570D690D6
:0B202A00025CE0FBA3E0FAA3E0F92257
:10087600E709F60870FA8046E709F20870FA803E42
:1008860088828C83E709F0A370FA807EE309F60874
:1008960070FA8076E309F20870FA806E88828C839B
:1008A600E309F0A370FA806289828A83E0A3F608DE
:1008B60070FA805689828A83E0A3F20870FA804A29
:1008C60080D280FA80C680D4806580F28031801024
:1008D60080A680EA809A80A880DA80E280CA803189
:1008E60089828A83ECFAE493A3C8C582C8CCC583FF
:1008F600CCF0A3C8C582C8CCC583CC70E9800D896D
:10090600828A83E493A3F60870F9ECFAA9F0EDFB6A
:100916002289828A83ECFAE0A3C8C582C8CCC58343
:10092600CCF0A3C8C582C8CCC583CC70EA80DD896B
:10093600828A83E493A3F20870F980CE88F0ED24CE
:1009460002B4040050C4F582EB2402B4040050BA89
:0909560023234582239008C67397
:10255F00E4FFFE12060F600C0FEF70010E09E97019
:05256F00F20A80EF22DA
:101AF4009002BAEBF0A3EAF0A3E9F0A3E0FBA3E0C1
:101B0400FAA3E0F912060F7003021BA09002BAE0D8
:101B1400FBA3E0FAA3E0F912060F7003021BAC90DA
:101B240002BDE0F9A3E0FAA3E0A3C9F0A3EAF0A39D
:101B3400E9F09002BAA3E0FAA3E0F99002C3EBF053
:101B4400A3EAF0A3E9F09002C0E0FBA3E0FAA3E06B
:101B5400F912060FFF60269002C3E0FBA3E0FAA38C
:101B6400E0F912060F6F70159002C175F0011209A9
:101B7400B49002C4E475F0011209B480C99002C0A3
:101B8400E0FBA3E0FAA3E0F912060F7002800D90C7
:101B940002BBE475F0011209B4021B109002BAE012
:0F1BA400FBA3E0FAA3E0F9227B007A007900228C
:101E59000226C5E493A3F8E493A34003F68001F2B4
:101E690008DFF48029E493A3F85407240CC8C3338A
:101E7900C4540F4420C8834004F456800146F6DF59
:101E8900E4800B0102040810204080901146E47E92
:101E9900019360BCA3FF543F30E509541FFEE4934E
:101EA900A360010ECF54C025E060A840B8E493A315
:101EB900FAE493A3F8E493A3C8C582C8CAC583CA40
:101EC900F0A3C8C582C8CAC583CADFE9DEE780BEF8
:01139200005A
:10095F00BC000BBE0029EF8DF084FFADF022E4CC7C
:10096F00F875F008EF2FFFEE33FEEC33FCEE9DEC45
:10097F00984005FCEE9DFE0FD5F0E9E4CEFD22ED8B
:10098F00F8F5F0EE8420D21CFEADF075F008EF2FD5
:10099F00FFED33FD4007985006D5F0F222C398FDC6
:0509AF000FD5F0EA2263
:1009B400C5F0F8A3E028F0C5F0F8E58215827002CE
:0609C4001583E038F0226B
:00000001FF
