:06137000759850021262A4
:081361008F993099FDC2992219
:08103F008F368E358D348C33A1
:10104700E4FBEBC39537501DAF36121361AF36AED5
:1010570035AD34AC33780812053E8F368E358D3476
:051067008C330B80DD5D
:01106C002261
:101131008F1E8D1F12133D7F1A121314121346AF07
:101141001E121314121346AF1F1213141213460268
:02115100134F3A
:101153008F5312133D7F1A1213141213467FB012CA
:101163001314121346AF5312131412134602134FE0
:1011D10012115312133D7F1B1213141213461212D4
:0B11E100D88F541212E712134FAF54C6
:0111EC0022E0
:0F12BA0043BA3090FE8074E0F090FE82E4F022A0
:0F12C90090FE82E030E6F990FE82E054BFF02202
:09133D0090FE817401F00212C956
:0E13140090FE86EFF090FE817402F00212C986
:0913460090FE817403F00212C94B
:0F12D80090FE817404F01212C990FE87E0FF228D
:0E13220090FE82E4F090FE817405F00212C984
:0F12E70090FE827401F090FE817405F00212C92E
:09134F0090FE817406F00212C93F
:10126200538EFE53890F438E40758DFD758B8FD241
:021272008E22CA
:0C1330007F867E0C7D49DDFEDEFADFF6D4
:01133C00228E
:1010E800EF1FAC0670011E4C601A000000000000E3
:1010F80000000000000000000000000000000000E8
:05110800000080DC2264
:101274007FCD7EE67DFDDDFEDEFADFF67F0EDFFE4E
:011284000069
:011285002246
:07136900759124E4F59222C6
:10110D0075DE2FEF4480F5BC43BC400000E5BC30DC
:10111D00E5FB53BCDFAFBDEFFEADBE7C00E42DFFA4
:03112D00EC3EFE97
:01113000229C
:1011B300D2947F0A7E001210E8C2947F207E03122D
:0E11C30010E8D2947F587E021210E87F0122BD
:020FCD008F3360
:100FCF00E4F534E5335401F535C2947F0F7E0012FA
:100FDF0010E8E5331392947F2D7E001210E8D2941F
:100FEF007F0A7E001210E8E533C313F5330534E5AD
:060FFF0034C3940840CD4C
:0110050022C8
:10100600E4F551E552C313F552C2947F027E0012F5
:1010160010E8D2947F047E001210E8309408E5525E
:101026004480F552F5527F1E7E001210E80551E508
:0810360051C3940840CDAF52F4
:01103E00228F
:101220001211B3EF600D7FCC120FCD7F44120FCDA2
:051230007F01227F0098
:011235002296
:100D8000E4F53CF53BF53AF5391211B3EF60167F07
:100D9000CC120FCD7FBE120FCD1210068F3F121056
:100DA000068F40D294753D0085403EE53E753E007D
:100DB000F53DE53F423EAC3DAD3EEC1202A6E4FB04
:100DC000FA7980783D1200FB8F3C8E3B8D3A8C394E
:100DD000E4FFFE7D207C41AB3CAA3BA93AA8391236
:100DE00000FBE4FBFAF9783F12000A1202DF8E3DA5
:020DF0008F3E34
:010DF20022DE
:100E66007D0E7F821211317DA67F83121131E4FD42
:100E76007F84121131E4FD7F85121131E4FD7F86F6
:100E86001211317D647F87121131E4FD7F881211C2
:100E9600317D647F89121131E4FD7F8A1211317D23
:100EA600647F8B1211317DB17F80121131E4FD7F99
:100EB600811211317D117F801211311213307D2183
:050EC6007F80021131E4
:100F29007D937F801211317F8F1211D1EF30E0F75D
:100F39007F921211D1EF7F00FEC006C0077F931286
:100F490011D1EFFDD0E02DFFD0E03400FEEF7802A3
:100F5900C333CE33CED8F98E0EF50F7802CEA2E781
:100F690013CE13D8F8FF7C007D2012042C8E0E8F2F
:010F79000F68
:010F7A002254
:1005DF00120E667F8F1211D1EF30E1F77F94121157
:1005EF00D1EF7F00FEC006C0077F951211D1EFFD3E
:1005FF00D0E02DF509D0E03400F5087F961211D127
:10060F00EF7F00FEC006C0077F971211D1EFFDD01C
:10061F00E02DF51DD0E03400F51CFCAD1D1202A637
:10062F00C004C005C006C007AC1CAD1DEC1202A66D
:10063F00D003D002D001D0001200FBC004C005C00F
:10064F0006C007AC08AD09EC1202A6C004C005C075
:10065F0006C007AC08AD09EC1202A6D003D002D039
:10066F0001D0001200FBD003D002D001D000120045
:10067F000A120C4E8F178E168D158C14D3E5099414
:10068F0000E508648094804050D3E51D9400E51C7C
:10069F00648094804043AC1CAD1DEC1202A6C004D4
:1006AF00C005C006C007AC08AD09EC1202A68F3218
:1006BF008E318D308C2FD007D006D005D004120D7F
:1006CF00F3E4FBFA793478431200FB7BDA7A0F7983
:1006DF00497840120204020807C3E5086480948039
:1006EF005059E51D9400E51C64809480404DAC1C6E
:1006FF00AD1DEC1202A6C004C005C006C007AC08B1
:10070F00AD09EC1202A68F328E318D308C2FD007AF
:10071F00D006D005D004120DF3E4FBFA79347843F8
:10072F001200FB7BDA7A0F79497840120204E4FB5E
:10073F00FA7934784312000A020807C3E508648087
:10074F0094805055C3E51C64809480504CAC1CAD14
:10075F001DEC1202A6C004C005C006C007AC08AD50
:10076F0009EC1202A68F328E318D308C2FD007D02C
:10077F0006D005D004120DF3E4FBFA793478431256
:10078F0000FB7BDA7A0F79497840120204E4FBFA16
:10079F007934784312000A805FD3E5099400E508A5
:1007AF0064809480405AE51C648094805052AC1C45
:1007BF00AD1DEC1202A6C004C005C006C007AC08F0
:1007CF00AD09EC1202A68F328E318D308C2FD007EF
:1007DF00D006D005D004120DF3E4FBFA7934784338
:1007EF001200FB7BDA7A0F79497840120204E4FB9E
:1007FF00FA79B4784312000A8F0D8E0C8D0B8C0A88
:10080F00E50F24EAFFE50E34FFFE7C017D9D120407
:10081F001AEE3395E0FDFCEF24FEFFEE3404FEEDFF
:10082F003439FDE43CFC1202A1AB17AA16A915A896
:10083F00141202048F1B8E1A8D198C187FB87E9E8E
:10084F007D917CC3AB0DAA0CA90BA80A12000A7BE1
:10085F00DA7A0F794978401200FBE4FBFA793478A1
:10086F00431202041208F6AB1BAA1AA919A81812F0
:10087F0000FB7B5C7A8F79D278C012000AA804A99A
:10088F0005AA06AB077F007E957D767C4912020490
:0F089F008F138E128D118C107DA17F800211316D
:081358007F78AE071FEE70FA6A
:01136000226A
:10117300E4FDFCC3ED9FEC9E5015E4FBFA0BBB00B2
:0F118300010ABA5DF8BBC0F50DBD00010C80E498
:01119200223A
:0F12F600D286D287121358C286121358C287228B
:10129800C286D287121358D286121358C2870213F5
:0112A80058ED
:10123600EF30E004D2868002C286D287121358C2EB
:0612460087D28602135856
:10124C00E4FDD286D287121358A286E433FD121322
:05125C0058C287AF0538
:01126100226A
:0210C200AD0778
:1010C400E4FCED30E704D2868002C286121358D2C3
:1010D40087121358C287121358ED25E0FD0CBC0883
:0410E400E102124CC7
:10119300E4FDFCD286D287121358A286E4334204BC
:0F11A300C287121358EC25E0FC0DBD08E8AF041D
:0111B200221A
:10128600AB071212F67F461210C2AF031210C2024B
:021296001298AC
:10106D001212F67F471210C2E4FB12119374232B58
:10107D00F8A607BB03047F018002E4FF1212360BB2
:0D108D00BB03E71212987F057E000211736D
:05137C007F0102128652
:100ECB007F011212867F101212867FC87E001211CC
:100EDB007312106DE4FF121286752100852322E533
:100EEB0022FE7C00E42524F522EC3EF521FCAD220C
:100EFB00E41202A67B9A7A997999783F1202048FB1
:100F0B00448E438D428C417F337E337DB37C3FAB2C
:0D0F1B0044AA43A942A8411200FB1202DFC4
:010F280022A6
:1011ED007F0212110DAD07AC06E41202A67BE67A62
:0B11FD003F791C78401200FB1202DF5B
:0112080022C3
:1012A900025D00000459C126C083045546DDC97793
:100B44009000007407F0A37432F09000047423F052
:100B5400A374DCF09000027409F0A37425F09000F3
:100B640006740FF0A374A0F0743264257004740743
:100B740064097003020C49900006E0FEA3E0FFD371
:100B8400900005E09FEE6480F8900004E064809893
:100B94004033900000E0FEA3E0FF900003E09FFDDF
:100BA400900002E09EFC1202A6C004C005C006C06C
:100BB40007900004E0FEA3E0FFC3900007E09FFD60
:100BC4009000068032900002E0FEA3E0FFC3900094
:100BD40001E09FFD900000E09EFC1202A6C004C04C
:100BE40005C006C007900006E0FEA3E0FFC3900026
:100BF40005E09FFD900004E09EFC1202A6D003D005
:100C040002D001D000120204785912057E9000002F
:100C1400E0FCA3E0FDEC1202A67859120561120073
:100C2400FBC004C005C006C007900004E0FCA3E0BC
:100C3400FDEC1202A6D003D002D001D000120006AF
:060C4400785512057E2226
:020F7B008F33B2
:100F7D00E4F538F537F536F535F534AF3312110D97
:100F8D00E4FCFDE5382FF538E5373EF537ED353620
:100F9D00F536EC3535F535E4FFFE0FBF00010EBE1D
:100FAD0003F8BFE8F50534E534C3946440CDE47B24
:0F0FBD0064FAF9F8AF38AE37AD36AC3512049E92
:010FCC002202
:10109A007F05120F7BAD07AC06E41202A67859123F
:1010AA0005611200FB785512056112000A1202DF6F
:0710BA00785DEEF608EFF689
:0110C100220C
:0F1305001212BA12137012137C121369020B44E6
:1012090012122012122012127412109AE4FCFD75A7
:07121900370212103F80ECC8
:061376001213050212092A
:1000030002034BE86480F8E933E83360110460F0DD
:10001300ED33EC337009E8FCE9FDEAFEEBFF220463
:1000230060DED3EB9FEA9EE99DE8C2E78CF0C2F75E
:1000330095F0400CE8CCF8E9CDF9EACEFAEBCFFB2A
:1000430012031685D0F05804700320D5B3E804706A
:10005300075002B2D502035592D5EC0460F7E4CC05
:10006300C0E0C398F8603B94186008400DD0E0FBF3
:1000730002032DE4FBFAC9FC8028E830E406E4C956
:10008300FBE4CAFCE830E305E4C9CACBFCE8540747
:100093006010F8C3E913F9EA13FAEB13FBEC13FC52
:1000A300D8F130F52FC3E49CFCEF9BFFEE9AFEEDF5
:1000B30099FDD0E0FBEF4E4D4C701222DB0302039F
:1000C30052EC2CFCEF33FFEE33FEED33FDED30E766
:1000D300EB02032DEF2BFFEE3AFEED39FDD0E0FBF3
:1000E30050130BBB0003020355ED13FDEE13FEEF9C
:0800F30013FFEC13FC02032DC6
:1000FB00EC4D6011E8497017ED33EC3304600DE4FF
:10010B00FCFFFEFD22E933E8330470F802034B12C7
:10011B00031658046009E4CC2481500628500902C8
:10012B000355284003020352C0E0EB4A7044B980E8
:10013B0006D0E0FB020341EF4E701CBD8008EBFFC5
:10014B00EAFEE9FD80EBE98DF0A4FEE5F00201E4A7
:10015B00E9CDF9EAFEEBFFEF89F0A4FCE5F0CE89DF
:10016B00F0A42EFFE435F0CD89F0A42DFEE435F09C
:10017B008067EF4E7005BD80D780C3EF8BF0A4ACCA
:10018B00F0EE8BF0A42CFCE435F0F8EF8AF0A42C05
:10019B00E5F038FCE433CB8DF0A42CFCE5F03BF818
:1001AB00EE8AF0A42CFCE5F038F8E433CF89F0A408
:1001BB002CFCE5F038CF3400CE89F0A42FFFE5F00E
:1001CB003EFEE433C98DF0A42EFEE5F039CD8AF066
:1001DB00A42FFFE5F03EFEE43DFD33D0E0FB5007DE
:1001EB000BBB000F020355EC2CFCEF33FFEE33FE81
:0601FB00ED33FD02032DAF
:10020100020355EC5D046005E85904700302034BD9
:10021100120316580460F6EC4860F2EC7004FDFE1F
:10022100FF22C860DB2481C85009C39860025006D0
:100231000203529850CAF582E9294B4A7005AB82F4
:1002410002034175F0007C1A7880C3EF9BEE9AEDB2
:1002510099400DC3EF9BFFEE9AFEED99FDE842F048
:10026100DC23ACF0D0E0FFD0E0FED0E0FDAB82209B
:10027100E7101BEB60BAEC2CFCEF33FFEE33FEED25
:1002810033FD02032DE803F830E705C0F075F000F7
:10029100EF2FFFEE33FEED33FD40B830E7C280AA09
:1002A10075F020800E75F010800575F0087D007ED8
:1002B100007F003392D530D503120530EC33401066
:1002C100EF33FFEE33FEED33FDEC33FCD5F0ED22E1
:0E02D100E5F0247EA2D513CC92E7CDCEFF221D
:1002DF00EDD2E7CD33EC3392D524814006E4FFFE17
:1002EF00FDFC22FCE4CFCECDCC24E0501174FF8076
:1002FF00EDC3CC13CCCD13CDCE13CECF13CF047013
:07030F00F030D5DE020530DD
:100C4A0002034B22EDA2E7D2E7F9EC3340F260F35C
:100C5A00B4FF08ED547F70E8020355F82481C2E01E
:100C6A00C0E0F40428FAC313FCED92E7FD8C458D2D
:100C7A00468E478F48EEA2E7E9BA7F02C3133400D3
:100C8A009400FA75F091A4E5F013F494FE8AF0A4A6
:100C9A0033E5F033248CD313FDE492E7FE7F007C26
:100CAA003F758302ECC0E0F8EDC0E0F9EEC0E0FA6F
:100CBA00EFC0E0FBAC45AD46AE47AF48120204D0E8
:100CCA00E0FBD0E0FAD0E0F9D0E0F812000AED64D7
:100CDA0080FD30E7011CD583CBED33CC33F8D0E06F
:0A0CEA00A2E71328C313CC13FD2268
:100DF3008F2E8E2D8D2C8C2BAB32AA31A930A82FA0
:100E0300120204120A3C8F2E8E2D8D2C8C2BE52F73
:100E130030E747ECC0E0EDC0E0EEC0E0EFC0E0E457
:100E2300FFFEFDFCAB2EAA2DA92CA82B1203607B81
:100E3300DB600250087A0F7949784080067A0F798F
:100E43004978C0D0E0FFD0E0FED0E0FDD0E0FC1256
:100E5300000A8F2E8E2D8D2C8C2BAF2EAE2DAD2C0C
:030E6300AC2B2293
:1008AE003A70FA83BCAAE9E43E81E0F8BF9DE9E61E
:1008BE003F80000039283C1ABB9969663DA335E399
:1008CE00BF255DE73FC90FDB418DDBCCC44936EE5A
:1008DE0045C9913FC5B0F83D3F800000C317F534C0
:1008EE00452FFA73C60AFDDD12099D04A2E192029C
:1008FE001420E0159008AE74041203CD8026120960
:10090E009D30E102B20220E0EB8C498D4A8E4B8F76
:10091E004C9008C274041203CDA849A94AAA4BAB45
:10092E004C1200FBED4C6007300204EC6480FC229C
:10093E0012099DC0E08C498D4A8E4B8F4C9008E673
:10094E0074031203CDA849A94AAA4BAB4C1200FB63
:10095E00ECC549FCEDC54AFDEEC54BFEEFC54CFF9F
:10096E009008D674031203CDD082A849A94AAA4B87
:10097E00AB4CE58230E007120204B20280A6EFCB48
:10098E00FFEECAFEEDC9FDECC8FC1202048095ED27
:10099E0033EC547FCC33920224605007D0E0D0E089
:1009AE0002034B7B837AF97922783E1200FBEDF934
:1009BE0033ECF83324815011EFFBEEFA1202DF1202
:1009CE0002A1ECB2E7FC12000AED33EC33602F24E7
:1009DE0003F8C313FCED92E7FDE82481E4501FEC0D
:1009EE00F8EDF9EEFAEFFB1202DFEF04C2E0FCF5D0
:1009FE00821202ABECB2E7FC12000AE58203FAEDBA
:0E0A0E0033EC3360071413FCED92E7FDEA228F
:10031600E9D2E7C933E833F892D5EDD2E7CD33EC2D
:0703260033FC5002B2D522A6
:10032D00EC30E7100FBF000C0EBE00080DBD000431
:10033D000BEB6014A2D5EB13FCED92E7FD2274FFDD
:10034D00FCFDFEFF22E480F8A2D574FF13FC7D8036
:03035D00E480EF4A
:1003600074F8CC6480CCC86480C8F582046043C350
:10037000EB9FF5F0EA9E42F0E99D42F0E89C45F0E3
:1003800060305018E5825FFFE582F42B5582FB5008
:10039000210ABA001D09B90019088016E5825BFB25
:1003A000E582F42F5582FF50090EBE00050DBD00F9
:1003B000010CC3EB9FF5F0EA9E42F0E99D42F0E8A4
:0D03C0009C45F06007CC4820E701B3EC221B
:1003CD00C0E0EFFBEEFAEDF9ECF81200FBD0E0F532
:1003DD00F0EFFBEEFAEDF9ECF8120551A3A3A3A390
:1003ED00E8C0E0E9C0E0EAC0E0EBC0E0C0F0120018
:1003FD00FB12056EA3A3A3A312000AD0F0D0E0FB5D
:0D040D00D0E0FAD0E0F9D0E0F8D5F0D4222C
:100A1C00BE1249253E4CCCCDBEAAAAAB3F800000ED
:100A2C003E7ADBB03EED63383F24BC7D3F490FDBA3
:100A3C00ED33ECC2E7CC339200B4FF13ED547F607E
:100A4C000302034B7FDB7E0F7DC97C3F020B37C259
:100A5C0001C3947F401E7007EDD2E794904015EFD0
:100A6C00FBEEFAEDF9ECF87F007E007D807C3F1206
:100A7C000204D201ED33EC33248430E705E4C0E00A
:100A8C00806D04FAEDD2E754F0C333DAFD54073429
:100A9C00002323C0E0CCC0E0F8EDC0E0F9EEC0E0EC
:100AAC00FAEFC0E0FBE41202ABEC24FEFC8C4D8DA3
:100ABC004E8E4F8F501200FB7B007A007980783F6E
:100ACC0012000AECC54DB2E7FCEDC54EFDEEC54F6C
:100ADC00FEEFC550FFD0E0FBD0E0FAD0E0F9D0E05B
:100AEC00F812000AA84DA94EAA4FAB501202048C62
:100AFC004D8D4E8E4F8F50900A1C74031203CDA84F
:100B0C004DA94EAA4FAB501200FBD0E0600F242829
:100B1C00F582E4340AF58312056E12000A30010BDB
:100B2C007BDB7A0F79C978BF12000AED33EC3360A6
:080B3C0006ECA20092E7FC2286
:03000000020CF4FB
:0C0CF400787FE4F6D8FD75815E020D3BB0
:10041A00EF8DF0A4A8F0CF8CF0A428CE8DF0A42EF6
:02042A00FE22B0
:10042C00C2D5EC30E709B2D5E4C39DFDE49CFCEEEB
:10043C0030E715B2D5E4C39FFFE49EFE12058AC3D4
:10044C00E49DFDE49CFC800312058A30D507C3E4CF
:06045C009FFFE49EFE225A
:1004620075F008758200EF2FFFEE33FECD33CDCC51
:1004720033CCC58233C5829BED9AEC99E5829840D4
:100482000CF582EE9BFEED9AFDEC99FC0FD5F0D6B1
:10049200E4CEFBE4CDFAE4CCF9A88222B800C1B9DB
:1004A2000059BA002DEC8BF084CFCECDFCE5F0CB19
:1004B200F97818EF2FFFEE33FEED33FDEC33FCEB52
:1004C20033FB10D703994004EB99FB0FD8E5E4F90D
:1004D200FA227818EF2FFFEE33FEED33FDEC33FCFA
:1004E200C933C910D7059BE99A4007EC9BFCE99AEE
:1004F200F90FD8E0E4C9FAE4CCFB2275F010EF2F33
:10050200FFEE33FEED33FDCC33CCC833C810D70732
:100512009BEC9AE899400AED9BFDEC9AFCE899F86D
:0E0522000FD5F0DAE4CDFBE4CCFAE4C8F92200
:0E053000C3E49FFFE49EFEE49DFDE49CFC22DC
:10053E00E8600FECC313FCED13FDEE13FEEF13FF9B
:03054E00D8F122BF
:10055100E493FC740193FD740293FE740393FF22F0
:0D056100E6FB08E6F908E6FA08E6CBF8220A
:10056E00E493F8740193F9740293FA740393FB22E3
:0C057E00ECF608EDF608EEF608EFF622A9
:100D0000021376E493A3F8E493A34003F68001F280
:100D100008DFF48029E493A3F85407240CC8C333F4
:100D2000C4540F4420C8834004F456800146F6DFC3
:100D3000E4800B01020408102040809012A9E47E98
:100D4000019360BCA3FF543F30E509541FFEE493B8
:100D5000A360010ECF54C025E060A840B8E493A37F
:100D6000FAE493A3F8E493A3C8C582C8CAC583CAAA
:100D7000F0A3C8C582C8CAC583CADFE9DEE780BE62
:0112B9000034
:10058A00BC000BBE0029EF8DF084FFADF022E4CC55
:10059A00F875F008EF2FFFEE33FEEC33FCEE9DEC1E
:1005AA00984005FCEE9DFE0FD5F0E9E4CEFD22ED64
:1005BA00F8F5F0EE8420D21CFEADF075F008EF2FAE
:1005CA00FFED33FD4007985006D5F0F222C398FD9F
:0505DA000FD5F0EA223C
:00000001FF
