:1025320090028BEFF0A3EDF01228C87F1A122889BF
:102542001228D190028BE0FF1228891228D1900222
:0C2552008CE0FF1228891228D10228DA40
:1025AD0090028CEFF01228C87F1A1228891228D1B8
:1025BD007FB01228891228D190028CE0FF12288951
:0625CD001228D10228DAF9
:102664001225AD1228C87F1B1228891228D11228DE
:102674004D90028BEFF012285C1228DA90028BE066
:01268400FF56
:012685002232
:1011A0004103230041031F004103240041032200A7
:06290D007598500227CC72
:0828FE008F993099FDC2992267
:0623980090028B12084DBB
:10239E00E4FB90028FE0FFEBC39F502890028BA3CB
:1023AE00A3A3E0FAFF1228FE90028BE0FCA3E0FD4F
:1023BE00A3E0FEA3E0FF78081207E990028B120853
:0423CE004D0B80CE65
:0123D20022E8
:10279300120657FF600C1228FE740129F9E43AFA75
:0327A30080EE22A3
:06291300759A500228BE77
:0F2811008F9B9003237401F0900323E070FA2251
:1027A600120657FF600C122811740129F9E43AFA4F
:0327B60080EE2290
:1024760090031FE06027E4F0A3E59BF0E012069DC1
:10248600120657600D90031F7401F029F9E43AFA19
:1024960080DEE490031FF012069D7F01227F00225A
:0629190043AC400228015E
:0F2820008FAD9003247401F0900324E070FA222E
:10244300900290EBF0A3EAF0A3E9F0900290E0FB96
:10245300A3E0FAA3E0F91206576017900290A3E4F1
:1024630075F0011206F7A9F0FA120657FF12282099
:0324730080D922EB
:0F282F0075BAB090FE8074E0F090FE82E4F02263
:0F283E0090FE82E030E6F990FE82E054BFF02277
:0928C80090FE817401F002283E2B
:0E28890090FE86EFF090FE817402F002283E71
:0928D10090FE817403F002283E20
:0F284D0090FE817404F012283E90FE87E0FF2277
:0E28970090FE82E4F090FE817405F002283E6F
:0F285C0090FE827401F090FE817405F002283E18
:0928DA0090FE817406F002283E14
:1027CC00538EFE53890F438E40758DFD758B8FD2C2
:0227DC008E224B
:0A28BE00438E1475D6FD75D78E22E7
:1028010075AC1043D10275D58F75D4FD43D1082223
:0C28A5007F867E0C7D49DDFEDEFADFF64A
:0128B1002204
:1025D300EF1FAC0670011E4C601A000000000000E3
:1025E30000000000000000000000000000000000E8
:0525F300000080DC2265
:1027DE007FCD7EE67DFDDDFEDEFADFF67F0EDFFECF
:0127EE0000EA
:0127EF0022C7
:0828E3007F78AE071FEE70FACA
:0128EB0022CA
:10268600E4FDFCC3ED9FEC9E5015E4FBFA0BBB008A
:0F269600010ABA5DF8BBC0F50DBD00010C80E470
:0126A5002212
:1027B900AD071FED600CE4FEEEC3941150F2000E5C
:0227C90080F698
:0127CB0022EB
:07290600759124E4F5922213
:1025F80075DE2FEF4480F5BC43BC400000E5BC30DD
:10260800E5FB53BCDFAFBDEFFEADBE7C00E42DFFA4
:03261800EC3EFE97
:01261B00229C
:06291F0075AF09D2AF22E2
:0300430002231481
:10231400C0E0C0F0C083C082C0D075D008E59A3058
:10232400E108539AFD900323E4F0E59A30E0185352
:102334009AFE90031F7401F09001DAE0FEA3E0AA74
:102344000EF97B01122476D0D0D082D083D0F0D085
:02235400E03275
:03008B0002250447
:10250400C0E0C083C082E5AC30E10853ACFD900369
:1025140024E4F0E5AC30E00F53ACFE9003227401E8
:0E252400F0900321E5ADF0D082D083D0E032FC
:1026C600D2947F0A7E001225D3C2947F207E031205
:0E26D60025D3D2947F587E021225D37F012295
:0500460090028FEFF0B5
:10004B00E4A3F090028FE05401900291F0C2947FF0
:10005B000F7E001225D390028FE01392947F2D7E9A
:10006B00001225D3D2947F0A7E001225D390028FE3
:0E007B00E0C313F0A3E004F0E0C3940840C516
:010089002254
:10235600E490028FF0900290E0C313F0C2947F02E3
:102366007E001225D3D2947F047E001225D33094AA
:1023760008900290E04480F0F07F1E7E001225D384
:1023860090028FE004F0E0C3940840C9900290E008
:01239600FF47
:012397002223
:102752001226C6EF600D7FCC1200467F441200465F
:052762007F01227F0051
:01276700224F
:101E800090028B120859000000001226C6EF601C59
:101E90007FCC1200467FBE12004612235690032CC0
:101EA000EFF012235690032DEFF0D29490032DE023
:101EB000FF90032AE4F0A3EFF0E07F00FE90032AF6
:101EC000F0A3EFF0A3E0FDEDFF90032AEEF0A3EF07
:101ED000F0AC06EC120331E4FBFA7980783D120194
:101EE0008690028B12084DE4FFFE7D207C4190021B
:101EF0008BE0F8A3E0F9A3E0FAA3E0FB120186E48B
:101F0000FBFAF9783F12009512036A90032AEEF06B
:031F1000A3EFF04C
:011F130022AB
:102173007D0E7F821225327DA67F83122532E4FDF8
:102183007F84122532E4FD7F85122532E4FD7F86AC
:102193001225327D647F87122532E4FD7F88122564
:1021A300327D647F89122532E4FD7F8A1225327DD8
:1021B300647F8B1225327DB17F80122532E4FD7F4F
:1021C300811225327D117F801225321228A57D21AF
:0521D3007F80022532AF
:1021D8007D937F801225327F8F122664EF30E0F7DF
:1021E8007F92122664EF7F00FEC006C0077F93121D
:1021F8002664EFFDD0E02DFFD0E03400FEEF78023A
:10220800C333CE33CED8F9FF9002C7EEF0A3EFF078
:102218009002C7E0FEA3E07802CEA2E713CE13D85F
:10222800F8FF7C007D201206C19002C7EEF0A3EFF4
:01223800F0B5
:012239002282
:100EA7001221737F8F122664EF30E1F77F941226A9
:100EB70064EF7F00FEC006C0077F95122664EFFD32
:100EC700D0E02DFED0E034009002C1F0A3CEF07F39
:100ED70096122664EF7F00FEC006C0077F97122692
:100EE70064EFFDD0E02DFFD0E03400FE9002D5F096
:100EF700A3EFF0FDAC06EC120331C004C005C00639
:100F0700C0079002D5E0FCA3E0FDEC120331D0034B
:100F1700D002D001D000120186C004C005C006C0AF
:100F2700079002C1E0FCA3E0FDEC120331C004C04E
:100F370005C006C0079002C1E0FCA3E0FDEC120368
:100F470031D003D002D001D000120186D003D002E5
:100F5700D001D000120095121C069002CD12084D48
:100F6700D39002C2E094009002C1E0648094804074
:100F7700539002D5E0FCA3E0FDD39400EC64809489
:100F8700804041EC120331C004C005C006C0079081
:100F970002C1E0FCA3E0FDEC12033190028F1208BE
:100FA7004DD007D006D005D004121D4EE4FBFA79C8
:100FB7003478431201867BDA7A0F79497840120236
:100FC7008F0210FFC39002C1E064809480505C9050
:100FD70002D5E0FCA3E0FD9400EC64809480404BD4
:100FE700EC120331C004C005C006C0079002C1E07F
:100FF700FCA3E0FDEC12033190028F12084DD007DD
:10100700D006D005D004121D4EE4FBFA793478439C
:101017001201867BDA7A0F7949784012028FE4FB56
:10102700FA793478431200950210FFC39002C1E0A9
:1010370064809480505A9002D5E0FCA3E0FDC3EC95
:1010470064809480504AEC120331C004C005C00686
:10105700C0079002C1E0FCA3E0FDEC12033190024F
:101067008F12084DD007D006D005D004121D4EE4CC
:10107700FBFA793478431201867BDA7A0F7949785B
:101087004012028FE4FBFA793478431200958068A6
:10109700D39002C2E094009002C1E0648094804043
:1010A7005D9002D5E0FCA3E0FDEC64809480504E97
:1010B700EC120331C004C005C006C0079002C1E0AE
:1010C700FCA3E0FDEC12033190028F12084DD0070C
:1010D700D006D005D004121D4EE4FBFA79347843CC
:1010E7001201867BDA7A0F7949784012028FE4FB86
:1010F700FA79B478431200959002C312084D900212
:10110700CDE0F8A3E0F9A3E0FAA3E0FB7FF87E13B4
:101117007D647C4A12028F9002D112084D7FB87EFF
:101127009E7D917CC39002C3E0F8A3E0F9A3E0FAA7
:10113700A3E0FB1200957BDA7A0F79497840120118
:1011470086E4FBFA7934784312028F121432900244
:10115700D1E0F8A3E0F9A3E0FAA3E0FB1201867B54
:101167005C7A8F79D278C0120095A804A905AA06DF
:10117700AB077F807E1A7D837C4912028F9002C95C
:1011870012084D7DA17F801225329002C9E0FCA391
:08119700E0FDA3E0FEA3E0FF70
:01119F00222D
:0F286B00D286D2871228E3C2861228E3C28722C0
:1027F000C286D2871228E3D2861228E3C287022833
:01280000E3F4
:10276800EF30E004D2868002C286D2871228E3C204
:0627780087D2860228E36F
:10261C00E4900292F0D286D2871228E3900292E0E4
:10262C00FFA286E433FEEF4EF01228E3C28790023D
:03263C0092E0FF2A
:01263F002278
:05240C00900290EFF0CA
:10241100E4A3F0900290E030E704D2868002C28605
:102421001228E3D2871228E3C2871228E390029090
:10243100E0FF25E0F0A3E004F0E0C3940840D402FB
:02244100261C57
:10000300E4900290F0A3F0D286900290F0D287128F
:1000130028E3900291E0FFA286E433FEEF4EF0C2A4
:10002300871228E3900291E025E0F0900290E0042B
:0C003300F0E0C3940840D6900291E0FF7A
:01003F00229E
:10273A0090028FEFF012286B7F4612240C90028FC2
:08274A00E0FF12240C0227F04D
:1022D10012286B7F4712240CE490028FF012000346
:1022E10090028FE0FE2401F582E43403F583EFF0E0
:1022F100EEB403047F018002E4FF12276890028F8D
:10230100E004F0E0C3940340D41227F07F057E007F
:032311000226861B
:05292B007F0102273AC4
:102098007F0112273A7F1012273A7FC87E00122646
:1020A800861222D1E4FF12273A900301E0FF900242
:1020B800FFE4F0A3EFF0E0FE900302E07C002400D0
:1020C800FFEC3EFE9002FFF0A3EFF0FDAC06E41239
:1020D80003317B9A7A997999783F12028F90028B13
:1020E80012084D7F337E337DB37C3F90028BE0F83E
:0F20F800A3E0F9A3E0FAA3E0FB12018612036A4A
:0121070022B5
:102702007F021225F8AD07AC06E41203317BE67AAC
:0B2712003F791C784012018612036A18
:01271D002299
:1011B000021D00000419C126C083041546DDC9774D
:101977009003097407F0A37432F090030D7423F0F9
:10198700A374DCF090030B7409F0A37425F09003A3
:101997000F740FF0A374A0F07432642570047407F9
:1019A70064097003021A7C90030FE0FEA3E0FFD3E3
:1019B70090030EE09FEE6480F890030DE06480983A
:1019C7004033900309E0FEA3E0FF90030CE09FFD86
:1019D70090030BE09EFC120331C004C005C006C093
:1019E7000790030DE0FEA3E0FFC3900310E09FFD07
:1019F70090030F803290030BE0FEA3E0FFC3900338
:101A07000AE09FFD900309E09EFC120331C004C069
:101A170005C006C00790030FE0FEA3E0FFC39003D5
:101A27000EE09FFD90030DE09EFC120331D003D022
:101A370002D001D00012028F7819120841900309D1
:101A4700E0FCA3E0FDEC120331781912081812012B
:101A570086C004C005C006C00790030DE0FCA3E0E4
:101A6700FDEC120331D003D002D001D00012009157
:061A77007815120841225F
:051FA00090028BEFF040
:101FA50090028D12085900000000E490028CF09018
:101FB500028DE0F8A3E0F9A3E0FAA3E0FBC000C0BE
:101FC50001C002C00390028BE0FF1225F8E4FCFD7E
:101FD500D003D002D001D000EB2FFFEA3EFEED3951
:101FE500FDEC38FC90028D12084DE4FFFE0FBF009A
:101FF500010EBE03F8BFE8F590028CE004F0E0C3E3
:10200500946440ABE47B64FAF9F890028DE0FCA39C
:0B201500E0FDA3E0FEA3E0FF1207497E
:01202000229D
:10255E007F05121FA0AD07AC06E4120331781912E5
:10256E000818120186781512081812009512036ABF
:07257E00781DEEF608EFF6F0
:012585002233
:0300400025640034
:1011C000606E016C7B2274223A20312C2264657699
:1011D000696365223A2022426C75654265727279B4
:1011E000222C226B6579223A2264396238643534C4
:1011F0003936373765343264393839663335343007
:10120000316236633037393066222C22766572229D
:101210003A2276312E30227D0000000000000000CE
:1012200000000000000000000000000000000000BE
:101230000000612C00007B2274223A332C2264616E
:10124000746174797065223A312C2264617461731F
:10125000223A7B22506800000000000000000000DD
:10126000000000000000000000000000000000007E
:10127000000000000000000000000000000000006E
:10128000000000000000000000000000000000005E
:10129000000000000000000000000000000000004E
:1012A000000000000000000000000000000000003E
:1012B000000000000000000000000000000000002E
:1012C000000000000000000000000000000000001E
:1012D000000000000000000000000000000000000E
:1012E00000000000000000000000000000000000FE
:1012F00000000000000000000000000000000000EE
:1013000000000000000000000000000000000000DD
:1013100000000000000000000000000000000000CD
:1013200000000000000000000000000000000000BD
:1013300000000000000000000000000000000000AD
:10134000000000000000000000000000000000009D
:10135000000000000000000000000000000000008D
:1013600000004A0229223A30000000000000004A32
:1013700002332C2200000000000000004E023D7DE0
:101380002C226D73676964223A317D000047021B8D
:1013900024234154230D00603F01DC50680000000D
:1013A000000000004C697175696454000048756D57
:1013B0006964697479004C7578000000000000547D
:1013C000656D700000000000454300000000000053
:1013D00000434F32000000000000470222020708CD
:0913E000030402034201DA012CAE
:10223A00E490032EF0A3F07B017A01792C12247624
:10224A00EF702290032FE004F0700690032EE00452
:10225A00F0D390032FE0942C90032EE064809481B5
:10226A0040DE7F00229001DAE0FCA3E0F5828C8355
:10227A00EFF09001DAE475F0011206F745F070F21A
:02228A007F01D2
:01228C00222F
:0B1A7D009002E7EBF0A3EAF0A3E9F011
:101A88009001DAE0FEA3E0AA06F97B01C002C001DA
:101A98009002E7E0F9A3E0FAA3E09002F6C9F0A308
:101AA800EAF0A3E9F0D001D002121B439002EDEB5B
:101AB800F0A3EAF0A3E9F09002E7E0FBA3E0FAA3C1
:101AC800E0F912277E9002EDE0FBA3E0FAA3E0F92B
:101AD800EF3395E0FEE92FF9EA3EFAA3EBF0A3EA2B
:101AE800F0A3E9F09002EDA3E0FAA3E0F94A603F21
:101AF80090FFFF120670642270359002F0E0FBA39D
:101B0800E0FAA3E0F9120657B42224900001120665
:101B180070B43A1B900002120670B42212E9240233
:101B2800F9E43AFA9002EAEBF0A3EAF0A3E9F090BC
:0A1B380002EAA3E0FAA3E0AE02FF08
:011B42002280
:0928EC007B017A01796C0227A638
:0928F5007B017A02791B0227A67F
:1016F900900316741EF0EFB4070040030217F2902E
:10170900170FF828287302172402174202176002DC
:10171900177D02179A0217B70217D4900316E0FF34
:101729003395E0FE74002FF974003EA801FC7D0199
:101739007B017A0179DC0217EF900316E0FF3395FC
:10174900E0FE74002FF974003EA801FC7D017B01C5
:101759007A0179E50217EF900316E0FF3395E0FE71
:1017690074002FF974003EA801FC7D017B017A0108
:1017790079EE8072900316E0FF3395E0FE74002F36
:10178900F974003EA801FC7D017B017A0179F7809B
:1017990055900316E0FF3395E0FE74002FF97400AD
:1017A9003EA801FC7D017B017A0279008038900313
:1017B90016E0FF3395E0FE74002FF974003EA8018E
:1017C900FC7D017B017A027909801B900316E0FFF9
:1017D9003395E0FE74002FF974003EA801FC7D01E9
:1017E9007B017A02791212099C90029474FFF0A38A
:1017F9007400F0A37440F0900312E0FCA3E0FDA391
:10180900E0FEA3E0FF90029712084D7B017A02796E
:101819002B120A89900317EFF09002947401F0A338
:101829007402F0A37429F07B017A0079001221086F
:101839009002947401F0A37402F0A3743DF07B014B
:0B1849007A0079001221087E007F0069
:011854002271
:10157200E490028BF0A3F0A3F0A3F0A37400F0A315
:10158200741EF0E490028EF090028EE0FFC364803D
:10159200948740030216DDEF3395E0FE7C007D095F
:1015A2001206AF74DC2FF974013EFA7B01C002A36C
:1015B200E0FEA3E0AA06F8AC027D01D00212099C6B
:1015C20090028EE0FFFD3395E0FC74222DF58274CB
:1015D200023CF583E0FD3395E0FC900290E02DF0B3
:1015E20090028FE03CF0E0FCA3E0F5828C83E4F013
:1015F200EFB40700504B9015FFF828287302161419
:1016020002161902161E02162302162A02162F02AB
:1016120016349002DB801E9002E180199002E58070
:10162200149002DDA3A3800D9002D780089002D906
:1016320080039002E3E0FFA3E090028CCFF0A3EFDF
:10164200F090029474FFF0A37400F0A37440F09041
:10165200028CE0FFA3E0900297CFF0A3EFF07B01B2
:101662007A02792B120A8990028BEFF0900294741D
:1016720001F0A37402F0A37429F07B017A007900CF
:1016820012210890028BE0FF900290E02FFF90025F
:101692008FE03400CF2402CF3400FEF0A3EFF0F548
:1016A200828E83E4F090028EE064066025900294BC
:1016B2007401F0A37402F0A37433F07B017A007911
:1016C20000122108900290E02402F090028FE03490
:1016D20000F090028EE004F002158A9002947401E8
:1016E200F0A37402F0A3743DF07B017A007900123A
:0616F20021087E007F00CC
:0116F80022CF
:10264000C007900326E0FCA3E0FDA3E0FEA3E0FFAB
:1026500090031212084DD0071216F97B017A007907
:04266000000227A6A7
:0C28B2001215727B017A0079000227A643
:10271E00C2937F067E00122686D2937F031227B9BC
:0C272E00D293E490031EF090031DF022F3
:1023D300E4FF90028CF0E4FE2093070EEEC394C852
:1023E30040F67F041227B9A293E433FFE4FE20935F
:1023F300070EEEC394C840F6EF25E0FF90028CE091
:0824030004F0E0C3940840CE90
:01240B0022AE
:1024A600900319E0FF900318E02FFFE433FE90033A
:1024B6001AE07C002FFFEC3EFEA3E02FFFEC3EFE71
:0F24C600A3E0B50707ECB506037F01227F0022D4
:1024D500120657FF90028CE4F0A3EFF0E0F8E4F069
:1024E500E890028CF0900001120670FF90028CE0DB
:0E24F500FEA3E04FFF90028CEEF0FEA3EFF08E
:0125030022B5
:101DEB0012271E20935690031E7401F0E4FF2093DC
:101DFB000D0FEFD3942C7480948140F28010E4FF8C
:101E0B003093140FEFD3942C7480948140F2900391
:101E1B001D7401F07F0022E490028BF01223D3900B
:101E2B00028BE02418F582E43403F583EFF0900283
:101E3B008BE004F0E0C3940540E28007E490031EBE
:101E4B00F0FF2290031EE060291224A6EF60237B93
:101E5B00017A0379181224D59002E5EEF0A3EFF086
:101E6B007A03791A1224D59002D7EEF0A3EFF07F04
:041E7B0001227F00C1
:011E7F002240
:05293000252E316600B8
:1020210090028BEFF07FEE1228207FB11228207FE3
:1020310010122820E4FF122820E4FF122820E4FFD8
:1020410012282090028BE0FF12282090029474FF46
:10205100F0A37429F0A37430F090028CE0FCA3E0AB
:10206100FDA3E0FEA3E0FFE412032C900297120807
:102071004D7B017A02794B120A897B017A02794BF5
:102081001224437FFF1228207FFC1228207FFF1299
:0720910028207FFF02282038
:0F287A00900322E06006900321E0FF227F0022FE
:1026E40012282F12292B12290612197712271E12CB
:0E26F400290D12291312291912291F0228EC90
:10228D001227521221D8120EA712036A9002D9EE0C
:10229D00F0A3EFF0121E809002E1EEF0A3EFF0122A
:1022AD0020989002DD12084D1227029002E3EEF005
:1022BD00A3EFF012255E9002DBEEF0A3EFF0121DFE
:0422CD00EB0228B246
:101CAE009002E1E0FEA3E0FFE4FCFD90028C12083E
:101CBE004D7F011220219002E3E0FEA3E0FFE4FC41
:101CCE00FD90028C12084D7F021220219002DBE063
:101CDE00FEA3E0FFE4FCFD90028C12084D7F031280
:101CEE0020219002E5E0FEA3E0FFE4FCFD90028CD3
:101CFE0012084D7F041220219002D7E0FEA3E0FFD0
:101D0E00E4FCFD90028C12084D7F051220219002FA
:101D1E00D9E0FEA3E0FFEE3395E0FDFC90028C12BD
:101D2E00084D7F061220219002DDE0FCA3E0FDA30A
:101D3E00E0FEA3E0FF90028C12084D7F07022021E7
:1026A600C2A612228D121CAE1228F5B2A690028F77
:1026B6007401F07F117E007D007C0012239880E279
:062925001226E40226A6C2
:10008E000203D6E86480F8E933E83360110460F0C7
:10009E00ED33EC337009E8FCE9FDEAFEEBFF2204D8
:1000AE0060DED3EB9FEA9EE99DE8C2E78CF0C2F7D3
:1000BE0095F0400CE8CCF8E9CDF9EACEFAEBCFFB9F
:1000CE001203A185D0F05804700320D5B3E8047054
:1000DE00075002B2D50203E092D5EC0460F7E4CCEF
:1000EE00C0E0C398F8603B94186008400DD0E0FB68
:1000FE000203B8E4FBFAC9FC8028E830E406E4C940
:10010E00FBE4CAFCE830E305E4C9CACBFCE85407BB
:10011E006010F8C3E913F9EA13FAEB13FBEC13FCC6
:10012E00D8F130F52FC3E49CFCEF9BFFEE9AFEED69
:10013E0099FDD0E0FBEF4E4D4C701222DB03020313
:10014E00DDEC2CFCEF33FFEE33FEED33FDED30E74F
:10015E00EB0203B8EF2BFFEE3AFEED39FDD0E0FBDC
:10016E0050130BBB00030203E0ED13FDEE13FEEF85
:08017E0013FFEC13FC0203B8AF
:10018600EC4D6011E8497017ED33EC3304600DE473
:10019600FCFFFEFD22E933E8330470F80203D612B1
:1001A60003A158046009E4CC2481500628500902B2
:1001B60003E02840030203DDC0E0EB4A7044B98047
:1001C60006D0E0FB0203CCEF4E701CBD8008EBFFAF
:1001D600EAFEE9FD80EBE98DF0A4FEE5F002026F90
:1001E600E9CDF9EAFEEBFFEF89F0A4FCE5F0CE8954
:1001F600F0A42EFFE435F0CD89F0A42DFEE435F011
:100206008067EF4E7005BD80D780C3EF8BF0A4AC3E
:10021600F0EE8BF0A42CFCE435F0F8EF8AF0A42C79
:10022600E5F038FCE433CB8DF0A42CFCE5F03BF88C
:10023600EE8AF0A42CFCE5F038F8E433CF89F0A47C
:100246002CFCE5F038CF3400CE89F0A42FFFE5F082
:100256003EFEE433C98DF0A42EFEE5F039CD8AF0DA
:10026600A42FFFE5F03EFEE43DFD33D0E0FB500752
:100276000BBB000F0203E0EC2CFCEF33FFEE33FE6A
:06028600ED33FD0203B898
:10028C000203E0EC5D046005E8590470030203D638
:10029C001203A1580460F6EC4860F2EC7004FDFE09
:1002AC00FF22C860DB2481C85009C3986002500645
:1002BC000203DD9850CAF582E9294B4A7005AB82DE
:1002CC000203CC75F0007C1A7880C3EF9BEE9AED9C
:1002DC0099400DC3EF9BFFEE9AFEED99FDE842F0BD
:1002EC00DC23ACF0D0E0FFD0E0FED0E0FDAB822010
:1002FC00E7101BEB60BAEC2CFCEF33FFEE33FEED9A
:10030C0033FD0203B8E803F830E705C0F075F000E0
:10031C00EF2FFFEE33FEED33FD40B830E7C280AA7D
:10032C0075F020800E75F010800575F0087D007E4C
:10033C00007F003392D530D5031207DBEC3340102D
:10034C00EF33FFEE33FEED33FDEC33FCD5F0ED2255
:0E035C00E5F0247EA2D513CC92E7CDCEFF2291
:10036A00EDD2E7CD33EC3392D524814006E4FFFE8B
:10037A00FDFC22FCE4CFCECDCC24E0501174FF80EA
:10038A00EDC3CC13CCCD13CDCE13CECF13CF047087
:07039A00F030D5DE0207DBA5
:100A2400E5102494F582E43402F583E00510229065
:100A34000291300703900294E475F00112088A02CF
:100A440006572000E97F2ED2008018EF540F24901F
:100A5400D43440D4FF30040BEF24BFB41A00500345
:100A64002461FFE511600215110514E514700205F7
:100A74001330070E900291E475F00112088AEF0218
:100A8400069D0225867403D2078003E4C207F5108D
:100A94009002911208A1E4F511F513F514E5116023
:100AA400077F20120A6780F57512FFC201C200C2D7
:100AB40002C203C205C206C208120A33FF700D3017
:100AC40007057F00120A78AF14AE1322B4255FC263
:100AD400D5C204120A33FF24D0B40A00501A75F0A8
:100AE4000A781130D50508B6FF0106C6A426F620FB
:100AF400D5047002D20380D924CFB41A00EF500475
:100B0400C2E5D204020D6AD20180C6D20080C0D2EE
:100B14000280BCD2D580BAD20580B47F20120A6785
:100B24002002077401B5110040F1120A24FF120AD1
:100B340067020AA1D208D2068095120A24FB120A7F
:100B440024FA120A24F94A4B700679687A0E7BFF5C
:100B540020022EE511602A7E008E82758300120623
:100B64007060060EEE651270F0C2D5EBC0E0EAC00C
:100B7400E0E9C0E0EE120DCBD0E0F9D0E0FAD0E02D
:100B8400FB120657FF60AAEBC0E0EAC0E0E9C0E050
:100B9400120A67D0E02401F9D0E03400FAD0E0FB77
:100BA400E5120460DCD512D98087D20280A2120D2E
:100BB400AD60F7E512700104120458A912600DE546
:100BC40012600914F512120E55EF60F3EA30E702D1
:100BD400F404C3995079EAF425120430E701E404DB
:100BE400F512800D120DAD60C1EA05122512120432
:100BF40058EA9002C0F030E701E4251204D512044B
:100C040020050114120DCBE4C0E0120E559002C071
:100C1400E0601320E70714F0120A4F802204F0D09A
:100C2400E014C0E07F00120A4FE5126007120A4682
:100C34001512800B300503120A46D0E0020AA1D037
:100C4400E00480C4120DAD609EE5120412045890B5
:100C540002C0EAF0E5122005026001042404120D2A
:010C6400CBC4
:100C650074FF04C0E0120E55120A4FE5122005026A
:100C75006003120A46D0E0B512E87F45120A599082
:100C850002C0E07F2B30E7047F2DF404C0E0120A98
:100C950067D0E075F00A84C0F0120A50D0E0120A5D
:100CA50050020AA1791080027908C206C20880089C
:100CB500D2D5790A8004790AC2D5E512047002F505
:100CC50012E4FAFDFEFF120A24FC7B082001131230
:100CD5000A24FD7B1030000A120A24FE120A24FFA2
:100CE5007B20EC3382D592D55013C3E43000069FA8
:100CF500FFE49EFEE42001039DFDE49CFCE4CBF8AB
:100D0500C201EC700CCFCECDCCE824F8F870F3809E
:100D150017C3EF33FFEE33FEED33FDEC33FCEB335E
:100D2500FB994002FB0FD8E9EB300105F8D0E0C490
:100D350048B201C0E00AEC4D4E4F78207B0070C2EE
:100D4500EAB5120040BCC0E0120DCDD0F0D0E020D5
:100D55000104C4C0E0C4B201C0F0120A50D0F0D5FD
:100D6500F0EB020AA11208AA0B3E530CA9580B0F6F
:100D75004C0B0B420CAD4F0CB5440CB5490B244341
:100D85000CBB550BE8460C48450BB2470E88500B7B
:100D9500132D0B172E0B3A2B0B1B230B38200E7123
:100DA5002A0AD34800000B32E512B4FF0375120678
:100DB500120A24FC120A24FD120A24FE120A24FF38
:100DC5009002B9020495790AA2D5200314300509C9
:100DD500B910020404B9080104A2D5200602500185
:100DE500042002689202B511005034C0E07F203023
:100DF50003197F30A20272067205500F120E24C22B
:100E050002C206C205C2087F30800F300503E9C063
:100E1500E0120A67300503D0E0F9D0E0B511CC3017
:100E250005177F30B9100C120A677F583004077F09
:100E3500788003B90803120A673002057F2D020A7C
:100E4500677F202008F87F2B2006F322920280CFAF
:100E55007F00B40700500B24B9F582E43402F58312
:100E6500E0FF22286E756C6C2900D201120A24302D
:100E750001F8C201781130D50108F6020AD32D50C8
:100E8500434958120A242403B405004001E4900E96
:100E95008393120A58743A120A58D2037511040240
:020EA5000CA996
:101C02000203D622EDA2E7D2E7F9EC3340F260F309
:101C1200B4FF08ED547F70E80203E0F82481C2E0CB
:101C2200C0E0F40428FAC313FCED92E7FD90028BA6
:101C320012084DEEA2E7E9BA7F02C3133400940002
:101C4200FA75F091A4E5F013F494FE8AF0A433E55A
:101C5200F033248CD313FDE492E7FE7F007C3F75C2
:101C62008302ECC0E0F8EDC0E0F9EEC0E0FAEFC0AC
:101C7200E0FB8583F090028B1207FC85F083120251
:101C82008FD0E0FBD0E0FAD0E0F9D0E0F812009576
:101C9200ED6480FD30E7011CD583C7ED33CC33F80A
:0C1CA200D0E0A2E71328C313CC13FD22EE
:101D4E0090028B12084D90028FE0F8A3E0F9A3E009
:101D5E00FAA3E0FB90028BE0FCA3E0FDA3E0FEA360
:101D6E00E0FF12028F12187590028B12084D90022E
:101D7E008FE030E75990028BE0FCA3E0FDA3E0FE7C
:101D8E00A3E0FFECC0E0EDC0E0EEC0E0EFC0E0E4A9
:101D9E00FFFEFDFC90028BE0F8A3E0F9A3E0FAA3AE
:101DAE00E0FB1203EB7BDB600250087A0F79497877
:101DBE004080067A0F794978C0D0E0FFD0E0FED09F
:101DCE00E0FDD0E0FC12009590028B12084D9002BF
:0D1DDE008BE0FCA3E0FDA3E0FEA3E0FF22EC
:1013EA003A70FA83BCAAE9E43E81E0F8BF9DE9E6D7
:1013FA003F80000039283C1ABB9969663DA335E352
:10140A00BF255DE73FC90FDB418DDBCCC44936EE12
:10141A0045C9913FC5B0F83D3F800000C317F53478
:10142A00452FFA73C60AFDDD1214F304A2E19200F5
:10143A001420E0159013EA740412059A80301214ED
:10144A00F330E102B20020E0EBA883A98290028B7C
:10145A0012084D898288839013FE740412059A85B6
:10146A0082F090028B12082585F082120186ED4CDB
:10147A006007300004EC6480FC221214F3C0E0A878
:10148A0083A98290028B12084D8982888390142244
:10149A00740312059A8582F090028B12082585F052
:1014AA008212018690028BE0CCF0A3E0CDF0A3E09B
:1014BA00CEF0A3E0CFF0901412740312059AD082F2
:1014CA008582F090028B12082585F082E58230E051
:1014DA000712028FB2008096EFCBFFEECAFEEDC96B
:1014EA00FDECC8FC12028F8085ED33EC547FCC33BF
:1014FA00920024605007D0E0D0E00203D67B837AC2
:10150A00F97922783E120186EDF933ECF833248119
:10151A005011EFFBEEFA12036A12032CECB2E7FC4D
:10152A00120095ED33EC33602F2403F8C313FCED5E
:10153A0092E7FDE82481E4501FECF8EDF9EEFAEFAA
:10154A00FB12036AEF04C2E0FCF582120336ECB226
:10155A00E7FC120095E58203FAED33EC33600714D9
:08156A0013FCED92E7FDEA22FB
:1003A100E9D2E7C933E833F892D5EDD2E7CD33ECA2
:0703B10033FC5002B2D5221B
:1003B800EC30E7100FBF000C0EBE00080DBD0004A6
:1003C8000BEB6014A2D5EB13FCED92E7FD2274FF52
:1003D800FCFDFEFF22E480F8A2D574FF13FC7D80AB
:0303E800E480EFBF
:1003EB0074F8CC6480CCC86480C8F582046043C3C5
:1003FB00EB9FF5F0EA9E42F0E99D42F0E89C45F058
:10040B0060305018E5825FFFE582F42B5582FB507C
:10041B00210ABA001D09B90019088016E5825BFB99
:10042B00E582F42F5582FF50090EBE00050DBD006D
:10043B00010CC3EB9FF5F0EA9E42F0E99D42F0E818
:0D044B009C45F06007CC4820E701B3EC228F
:10045800F920E73624F950037907E4F42402FBE590
:1004680082158270021583DBF6E024FB501BE960DD
:1004780014E4F0E582158270021583E004F0B40AF2
:0D04880008E4F0D9EE7401F00A22C2D5227A
:10049500ED33EC3392D5FA602AB4FF33EDC2E77B36
:1004A500FF60067A0479BAE4227A0479C320D50478
:1004B5007A0479BE224E614E002B494E46002D49E5
:1004C5004E4600E47A08F0A3DAFC7B00740722C0EC
:1004D50083C082ECC0E0EDC0E0EEC0E0EFC0E0EA32
:1004E50075F010A4CAABF075F04DA42BFBE435F004
:1004F500FCEA2410FAEB34C5FBEC34D9FCEDC2E779
:10050500FF75F056A4F42411C5F0F434C58FF0A49A
:100515002AE5F03BE43CF020E714120617D0E0FF93
:10052500D0E0FED0E0FDD0E0FC12028F8014F40490
:10053500120617D0E0FFD0E0FED0E0FDD0E0FC12BF
:100545000186D082D083E0FAEDD2E7CD33EC3324B7
:1005550082FBE4C3CF33CFCE33CECD33CD33DBF304
:100565007B0775F00A846004F0A31B0AE5F0F0A38D
:100575008FF0740AA4FFACF08EF0740AA42CFEACC4
:10058500F050010C8DF0740AA42CFDE435F0F0A3B5
:05059500DBDE7407220B
:10059A00C0E0EFFBEEFAEDF9ECF8120186D0E0F5D7
:1005AA00F0EFFBEEFAEDF9ECF8120808A3A3A3A307
:1005BA00E8C0E0E9C0E0EAC0E0EBC0E0C0F0120148
:1005CA0086120831A3A3A3A3120095D0F0D0E0FBB2
:0D05DA00D0E0FAD0E0F9D0E0F8D5F0D4225E
:10185500BE1249253E4CCCCDBEAAAAAB3F800000A6
:101865003E7ADBB03EED63383F24BC7D3F490FDB5C
:10187500ED33ECC2E7CC339200B4FF13ED547F6037
:10188500030203D67FDB7E0F7DC97C3F02196AC246
:1018950001C3947F401E7007EDD2E794904015EF89
:1018A500FBEEFAEDF9ECF87F007E007D807C3F12BF
:1018B500028FD201ED33EC33248430E705E4C0E038
:1018C500806B04FAEDD2E754F0C333DAFD540734E4
:1018D500002323C0E0CCC0E0F8EDC0E0F9EEC0E0A5
:1018E500FAEFC0E0FBE4120336EC24FEFC90029311
:1018F50012084D1201867B007A007980783F12002C
:1019050095900293E0B2E7CCF0A3E0CDF0A3E0CE52
:10191500F0A3E0CFF0D0E0FBD0E0FAD0E0F9D0E0E2
:10192500F812009590029312082512028F900293E7
:1019350012084D901855740312059A9002931208D7
:1019450025120186D0E0600F2461F582E43418F594
:101955008312083112009530010B7BDB7A0F79C9B0
:1019650078BF120095ED33EC336006ECA20092E7E8
:02197500FC2252
:1005E7003F8000004120000042C80000447A00001C
:1005F700461C400047C35000497424004B1896809E
:100607004CBEBC205A0E1BCA6753C21C749DC5AE94
:10061700FB60065407601C2323120645EB54386021
:1006270009120631120640120186ECF8EDF9EEFACE
:10063700EFCB22EB12064080F1543803241C9005BF
:10064700E7FE93FC0EEE93FD0EEE930ECE93FF2284
:03000000021F14C8
:0C1F1400787FE4F6D8FD758121021F5B88
:10065700BB010689828A83E0225002E722BBFE02A1
:09066700E32289828A83E49322D4
:10067000BB010CE58229F582E5833AF583E022503F
:1006800006E92582F8E622BBFE06E92582F8E22289
:0D069000E58229F582E5833AF583E49322A3
:10069D00BB010689828A83F0225002F722BBFE013C
:0206AD00F32236
:1006AF00EF8DF0A4A8F0CF8CF0A428CE8DF0A42E5F
:0206BF00FE2219
:1006C100C2D5EC30E709B2D5E4C39DFDE49CFCEE54
:1006D10030E715B2D5E4C39FFFE49EFE1209B9C30A
:1006E100E49DFDE49CFC80031209B930D507C3E405
:0606F1009FFFE49EFE22C3
:1006F700A3F8E0C5F025F0F0E582158270021583B6
:06070700E0C838F0E82212
:10070D0075F008758200EF2FFFEE33FECD33CDCCA3
:10071D0033CCC58233C5829BED9AEC99E582984026
:10072D000CF582EE9BFEED9AFDEC99FC0FD5F0D603
:10073D00E4CEFBE4CDFAE4CCF9A88222B800C1B92D
:10074D000059BA002DEC8BF084CFCECDFCE5F0CB6B
:10075D00F97818EF2FFFEE33FEED33FDEC33FCEBA4
:10076D0033FB10D703994004EB99FB0FD8E5E4F95F
:10077D00FA227818EF2FFFEE33FEED33FDEC33FC4C
:10078D00C933C910D7059BE99A4007EC9BFCE99A40
:10079D00F90FD8E0E4C9FAE4CCFB2275F010EF2F85
:1007AD00FFEE33FEED33FDCC33CCC833C810D70785
:1007BD009BEC9AE899400AED9BFDEC9AFCE899F8C0
:0E07CD000FD5F0DAE4CDFBE4CCFAE4C8F92253
:0E07DB00C3E49FFFE49EFEE49DFDE49CFC222F
:1007E900E8600FECC313FCED13FDEE13FEEF13FFEE
:0307F900D8F12212
:0C07FC00E0FCA3E0FDA3E0FEA3E0FF2270
:10080800E493FC740193FD740293FE740393FF2236
:0D081800E6FB08E6F908E6FA08E6CBF82250
:0C082500E0F8A3E0F9A3E0FAA3E0FB2256
:10083100E493F8740193F9740293FA740393FB221D
:0C084100ECF608EDF608EEF608EFF622E3
:0C084D00ECF0A3EDF0A3EEF0A3EFF0221E
:10085900A8828583F0D083D08212087012087012A2
:100869000870120870E473E493A3C583C5F0C583C7
:10087900C8C582C8F0A3C583C5F0C583C8C582C8E9
:01088900224C
:10088A00F8E0FBA3A3E0F925F0F0E58215827002F7
:07089A001583E0FA38F0229B
:0908A100EBF0A3EAF0A3E9F02258
:1008AA00D083D082F8E4937012740193700DA3A3DD
:1008BA0093F8740193F5828883E4737402936860F1
:0608CA00EFA3A3A380DFF1
:10258600EFB40A07740D122591740A309811A899B0
:10259600B8130CC2983098FDA899C298B811F630B5
:0725A60099FDC299F599228D
:10210800900291EBF0A3EAF0A3E9F0900297EBF0CC
:10211800A3EAF0A3E9F0900291E0FBA3E475F001D3
:102128001206F7A9F0FA12065770EB90029274FFA4
:10213800F5F0120A0E900294E0FBA3E475F0011288
:1021480006F7A9F0FA120657FF900291E0FBA3E404
:1021580075F0011206F7A9F0FAEF12069D70D690F5
:0B2168000297E0FBA3E0FAA3E0F922DD
:1008D000E709F60870FA8046E709F20870FA803EE8
:1008E00088828C83E709F0A370FA807EE309F6081A
:1008F00070FA8076E309F20870FA806E88828C8341
:10090000E309F0A370FA806289828A83E0A3F60883
:1009100070FA805689828A83E0A3F20870FA804ACE
:1009200080D280FA80C680D4806580F280318010C9
:1009300080A680EA809A80A880DA80E280CA80312E
:1009400089828A83ECFAE493A3C8C582C8CCC583A4
:10095000CCF0A3C8C582C8CCC583CC70E9800D8912
:10096000828A83E493A3F60870F9ECFAA9F0EDFB10
:100970002289828A83ECFAE0A3C8C582C8CCC583E9
:10098000CCF0A3C8C582C8CCC583CC70EA80DD8911
:10099000828A83E493A3F20870F980CE88F0ED2474
:1009A00002B4040050C4F582EB2402B4040050BA2F
:0909B000232345822390092073E2
:10277E00E4FFFE120657600C0FEF70010E09E970B0
:05278E00F20A80EF22B9
:101B43009002F3EBF0A3EAF0A3E9F0A3E0FBA3E038
:101B5300FAA3E0F91206577003021BEF9002F3E0B9
:101B6300FBA3E0FAA3E0F91206577003021BFB90F4
:101B730002F6E0F9A3E0FAA3E0A3C9F0A3EAF0A315
:101B8300E9F09002F3A3E0FAA3E0F99002FCEBF092
:101B9300A3EAF0A3E9F09002F9E0FBA3E0FAA3E0E3
:101BA300F9120657FF60269002FCE0FBA3E0FAA3BC
:101BB300E0F91206576F70159002FA75F001120AD8
:101BC3000E9002FDE475F001120A0E80C99002F92D
:101BD300E0FBA3E0FAA3E0F91206577002800D9030
:101BE30002F4E475F001120A0E021B5F9002F3E0A7
:0F1BF300FBA3E0FAA3E0F9227B007A007900223D
:101F2000022925E493A3F8E493A34003F68001F289
:101F300008DFF48029E493A3F85407240CC8C333C2
:101F4000C4540F4420C8834004F456800146F6DF91
:101F5000E4800B01020408102040809011A0E47E70
:101F6000019360BCA3FF543F30E509541FFEE49386
:101F7000A360010ECF54C025E060A840B8E493A34D
:101F8000FAE493A3F8E493A3C8C582C8CAC583CA78
:101F9000F0A3C8C582C8CAC583CADFE9DEE780BE30
:0113E9000003
:1009B900BC000BBE0029EF8DF084FFADF022E4CC22
:1009C900F875F008EF2FFFEE33FEEC33FCEE9DECEB
:1009D900984005FCEE9DFE0FD5F0E9E4CEFD22ED31
:1009E900F8F5F0EE8420D21CFEADF075F008EF2F7B
:1009F900FFED33FD4007985006D5F0F222C398FD6C
:050A09000FD5F0EA2208
:100A0E00C5F0F8A3E028F0C5F0F8E5821582700273
:060A1E001583E038F02210
:00000001FF
