:103351009003B0EFF0A3EDF01237687F1A1237082F
:103361001237719003B0E0FF1237081237719003E2
:0C337100B1E0FF12370812377102377A02
:1033CC009003B1EFF01237687F1A12370812377179
:1033DC007FB01237081237719003B1E0FF12370833
:0633EC0012377102377A6E
:1034A7001233CC1237687F1B123708123771123666
:1034B700DB9003B0EFF01236EA12377A9003B0E0F0
:0134C700FF05
:0134C80022E1
:100F9D004104270041042A004104260041042B008E
:080FAD00410429004104280061
:0637B30075985002365C1F
:080003008F993099FDC299228A
:063281009003BE12099843
:10328700E4FB9003C2E0FFEBC39F50289003BEA36B
:10329700A3A3E0FAFF1200039003BEE0FCA3E0FD46
:1032A700A3E0FEA3E0FF78081209349003BE1209D9
:0432B700980B80CE22
:0132BB0022F0
:1036100012074DFF600C120003740129F9E43AFA15
:0336200080EE2217
:0637B900759A500237541E
:0F369F008F9B90042A7401F090042AE070FA22A5
:1036230012074DFF600C12369F740129F9E43AFA30
:0336330080EE2204
:0737A50012367F43AC402205
:0F36AE008FAD90042B7401F090042BE070FA2282
:10000E009003B5EBF0A3EAF0A3E9F09003B5E0FBA3
:10001E00A3E0FAA3E0F912074D60179003B5A3E42D
:10002E0075F001120842A9F0FA12074DFF1236AE12
:03003E0080D92244
:0F36BD0075BAB090FE8074E0F090FE82E4F022C7
:0F36CC0090FE82E030E6F990FE82E054BFF022DB
:0937680090FE817401F00236CCE0
:0E37080090FE86EFF090FE817402F00236CC47
:0937710090FE817403F00236CCD5
:0F36DB0090FE817404F01236CC90FE87E0FF223F
:0F36EA0090FE827401F090FE817405F00236CCE0
:09377A0090FE817406F00236CCC9
:10365C00538EFE53890F438E40758DFD758B8FD223
:02366C008E22AC
:0A375400438E1475D6FD75D78F2241
:10367F0075AC1043D10275D58F75D4FD43D1082297
:10368F00E4F589758CA2758A4043B80243B70222CC
:0C3716007F867E0C7D49DDFEDEFADFF6CA
:013722002284
:1033F200EF1FAC0670011E4C601A000000000000B6
:1034020000000000000000000000000000000000BA
:05341200000080DC2237
:083783007F78AE071FEE70FA1B
:01378B00221B
:1034C900E4FDFCC3ED9FEC9E5015E4FBFA0BBB0039
:0F34D900010ABA5DF8BBC0F50DBD00010C80E41F
:0134E80022C1
:10363600AD071FED600CE4FEEEC3941150F2000ED0
:0236460080F60C
:01364800225F
:0C35D1001235DD1235DD1235DD1235DD5E
:0835DD00E4FF000FEFB4B9FA9E
:0135E50022C3
:02364900AE07CA
:10364B00E4FDEDC39E50091235D11235D10D80F238
:01365B00224C
:0737AC00759124E4F592225F
:10343C0075DE2FEF4480F5BC43BC400000E5BC308A
:10344C00E5FB53BCDFAFBDEFFEADBE7C00E42DFF52
:03345C00EC3EFE45
:01345F00224A
:050FB5004204300000C1
:0837950075AF09D2A9D2AF22E1
:0300430002302068
:10302000C0E0C083C082C0D075D008E59A30E10806
:10303000539AFD90042AE4F0E59A30E026539AFE74
:103040009004267401F0900427E59BF0E0FF9002C5
:10305000C2E02459F582E43402F583EFF09002C215
:0C306000E004F0D0D0D082D083D0E03269
:03008B00022F320F
:102F3200C0E0C083C082C0D075D000C007E5AC300D
:102F4200E10853ACFD90042BE4F0E5AC30E02653ED
:102F5200ACFE9004297401F0900428E5ADF0E0FF86
:102F6200900355E02496F582E43403F583EFF09064
:102F72000355E004F0D007D0D0D082D083D0E03225
:03000B000219FCDB
:1019FC00C0E0C0F0C083C082C0D075D00890043164
:101A0C00E004F07006900430E004F0900430E0FA4A
:101A1C00A3E0FB7C007D55FFAE0A1207B7ED4C70BE
:101A2C003E900353E06038900342E004F07006905F
:101A3C000341E004F0900344E004F070069003438B
:101A4C00E004F0900349E004F07006900348E004D1
:101A5C00F090034DE004F0700690034CE004F0BAF3
:101A6C000348BB5245900430E4F0A3F0900353E0DC
:101A7C006038900346E004F07006900345E004F0F3
:101A8C0090034BE004F0700690034AE004F09003DE
:101A9C004FE004F0700690034EE004F0900351E028
:101AAC0004F07006900350E004F0900353E0FF70D4
:101ABC0003021BAE30E036900341E0FEA3E0FF9042
:101ACC00032DE0B50E0CA3E0B50F079002CAE0445D
:101ADC0001F0900345E0FEA3E0FF90032FE0B50E6C
:101AEC000CA3E0B50F079002CAE04410F09003532A
:101AFC00E030E136900343E0FEA3E0FF90032DE0DD
:101B0C00B50E0CA3E0B50F079002CAE04402F090AA
:101B1C00034AE0FEA3E0FF90032FE0B50E0CA3E018
:101B2C00B50F079002CAE04420F0900353E0FB305D
:101B3C00E236900348E0FCA3E0FD90032DE0B50CE9
:101B4C000CA3E0B50D079002CAE04404F090034EDC
:101B5C00E0FEA3E0FF90032FE0B50E0CA3E0B50F61
:101B6C00079002CAE04440F0EB30E33690034CE0BF
:101B7C00FEA3E0FF90032DE0B50E0CA3E0B50F071C
:101B8C009002CAE04408F0900350E0FEA3E0FF90FE
:101B9C00032FE0B50E0CA3E0B50F079002CAE0448A
:0D1BAC0080F0D0D0D082D083D0F0D0E032D5
:0D372300E4F5C7F5C5F5C675C380F5C422F1
:1035430075C78375C5028FC4EEFF8FC3AF058FC2E6
:0A35530075C65A75C6A5000237239D
:10358F0075C78375C5038FC4EEFF8FC375C65A7594
:06359F00C6A5000237235F
:0C373000AB07AA0612358FAF0302354329
:10350900D2947F0A7E001233F2C2947F207E031286
:0E35190033F2D2947F587E021233F27F0122E9
:0530B6009003B4EFF0EF
:1030BB00E4A3F09003B4E054019003B6F0C2947F04
:1030CB000F7E001233F29003B4E01392947F2D7EA7
:1030DB00001233F2D2947F0A7E001233F29003B4C3
:0E30EB00E0C313F0A3E004F0E0C3940840C576
:0130F90022B4
:10318000E49003B4F09003B5E0C313F0C2947F025F
:103190007E001233F2D2947F047E001233F2309418
:1031A000089003B5E04480F0F07F1E7E001233F2F9
:1031B0009003B4E004F0E0C3940840C99003B5E084
:0131C000FF0F
:0131C10022EB
:1035A500123509EF600D7FCC1230B67F441230B66C
:0535B5007F01227F00F0
:0135BA0022EE
:102919009003B01209A400000000123509EF601CF1
:102929007FCC1230B67FBE1230B612318090042EA1
:10293900EFF012318090042FEFF0D29490042FE041
:10294900FF90042CE4F0A3EFF0E07F00FE90042C4C
:10295900F0A3EFF0A3E0FDEDFF90042CEEF0A3EF60
:10296900F0AC06EC120331E4FBFA7980783D1201F0
:10297900869003B0120998E4FFFE7D207C41900304
:10298900B0E0F8A3E0F9A3E0FAA3E0FB120186E4C2
:10299900FBFAF9783F12009512036A90042CEEF0C5
:0329A900A3EFF0A9
:0129AC002208
:102E12007D0E7F821233517DA67F83123351E4FDF2
:102E22007F84123351E4FD7F851233517D7D7F868D
:102E32001233517D027F871233517D037F88123313
:102E4200517DE87F89123351E4FD7F8A1233517D2F
:102E5200647F8B1233517DB17F80123351E4FD7F49
:102E6200811233517D117F801233511237167D2129
:052E72007F80023351D6
:102E77007D937F801233517F8F1234A7EF30E0F7B5
:102E87007F921234A7EF7F00FEC006C0077F931220
:102E970034A7EFFDD0E02DFFD0E03400FEEF78023D
:102EA700C333CE33CED8F9FF9003ECEEF0A3EFF0A7
:102EB7009003ECE0FEA3E07802CEA2E713CE13D88E
:102EC700F8FF7C007D2012080C9003ECEEF0A3EFD6
:012ED700F00A
:012ED80022D7
:10133900122E127F8F1234A7EF30E1F77F94123407
:10134900A7EF7F00FEC006C0077F951234A7EFFD07
:10135900D0E02DFED0E034009003E6F0A3CEF07F7C
:10136900961234A7EF7F00FEC006C0077F9712349C
:10137900A7EFFDD0E02DFFD0E03400FE9003FAF096
:10138900A3EFF0FDAC06EC120331C004C005C006A2
:10139900C0079003FAE0FCA3E0FDEC120331D0038F
:1013A900D002D001D000120186C004C005C006C019
:1013B900079003E6E0FCA3E0FDEC120331C004C092
:1013C90005C006C0079003E6E0FCA3E0FDEC1203AC
:1013D90031D003D002D001D000120186D003D0024F
:1013E900D001D00012009512273F9003F2120998FC
:1013F900D39003E7E094009003E6E0648094804092
:10140900539003FAE0FCA3E0FDD39400EC648094CC
:10141900804041EC120331C004C005C006C00790EA
:1014290003E6E0FCA3E0FDEC1203319003B41209DA
:1014390098D007D006D005D0041227E7E4FBFA7943
:101449003478431201867BDA7A0F7949784012029F
:101459008F021591C39003E6E064809480505C90FC
:1014690003FAE0FCA3E0FD9400EC64809480404B17
:10147900EC120331C004C005C006C0079003E6E0C2
:10148900FCA3E0FDEC1203319003B4120998D007D4
:10149900D006D005D0041227E7E4FBFA7934784363
:1014A9001201867BDA7A0F7949784012028FE4FBC0
:1014B900FA79347843120095021591C39003E6E056
:1014C90064809480505A9003FAE0FCA3E0FDC3ECD9
:1014D90064809480504AEC120331C004C005C006F0
:1014E900C0079003E6E0FCA3E0FDEC120331900392
:1014F900B4120998D007D006D005D0041227E7E422
:10150900FBFA793478431201867BDA7A0F794978C4
:101519004012028FE4FBFA7934784312009580680F
:10152900D39003E7E094009003E6E0648094804060
:101539005D9003FAE0FCA3E0FDEC64809480504EDA
:10154900EC120331C004C005C006C0079003E6E0F1
:10155900FCA3E0FDEC1203319003B4120998D00703
:10156900D006D005D0041227E7E4FBFA7934784392
:101579001201867BDA7A0F7949784012028FE4FBEF
:10158900FA79B478431200959003E8120998900308
:10159900F2E0F8A3E0F9A3E0FAA3E0FB7F407E685C
:1015A9007D557C4A12028F9003F61209987FB87E06
:1015B9009E7D917CC39003E8E0F8A3E0F9A3E0FAEB
:1015C900A3E0FB1200957BDA7A0F79497840120182
:1015D90086E4FBFA7934784312028F121C019003D6
:1015E900F6E0F8A3E0F9A3E0FAA3E0FB1201867B99
:1015F9005C7A8F79D278C0120095A804A905AA0649
:10160900AB077F7F7EAF7D7C7C4912028F9003EE12
:101619001209987DA17F801233519003EEE0FCA35B
:08162900E0FDA3E0FEA3E0FFD9
:011631002296
:0F36F900D286D287123783C286123783C28722C6
:10366E00C286D287123783D286123783C287023739
:01367E0083C8
:1035BB00EF30E004D2868002C286D287123783C2F4
:0635CB0087D2860237835F
:10346000E49003B7F0D286D2871237839003B7E097
:10347000FFA286E433FEEF4EF0123783C28790033B
:03348000B7E0FFB3
:013483002226
:0532BC009003B5EFF0E6
:1032C100E4A3F09003B5E030E704D2868002C28621
:1032D100123783D287123783C2871237839003B59F
:1032E100E0FF25E0F0A3E004F0E0C3940840D4023D
:0232F100346047
:10324400E49003B5F0A3F0D2869003B5F0D28712D0
:1032540037839003B6E0FFA286E433FEEF4EF0C25C
:10326400871237839003B6E025E0F09003B5E004BD
:0C327400F0E0C3940840D69003B6E0FFE1
:01328000222B
:103577009003B4EFF01236F97F461232BC9003B4D1
:08358700E0FF1232BC02366EB7
:1030FA001236F97F471232BCE49003B4F01232441C
:10310A009003B4E0FE240FF582E43404F583EFF073
:10311A00EEB403047F018002E4FF1235BB9003B4CE
:10312A00E004F0E0C3940340D412366E7F057E00BB
:03313A000234C993
:0537CB007F01023577CB
:102D37007F011235777F101235777FC87E001234F6
:102D4700C91230FAE4FF12357790040FE0FF9004C0
:102D57000DE4F0A3EFF0E0FE900410E07C00240007
:102D6700FFEC3EFE90040DF0A3EFF0FDAC06E4127D
:102D770003317B9A7A997999783F12028F9003B041
:102D87001209987F337E337DB37C3F9003B0E0F820
:0F2D9700A3E0F9A3E0FAA3E0FB12018612036A9E
:012DA600220A
:103527007F0212343CAD07AC06E41203317BE67A26
:0B3537003F791C784012018612036AE5
:013542002266
:100FBA00021D00000419C126C083041546DDC97745
:102242009004177407F0A37432F090041B7423F007
:10225200A374DCF09004197409F0A37425F09004BF
:102262001D740FF0A374A0F0743264257004740717
:102272006409700302234790041DE0FEA3E0FFD32C
:1022820090041CE09FEE6480F890041BE064809848
:102292004033900417E0FEA3E0FF90041AE09FFD94
:1022A200900419E09EFC120331C004C005C006C0B0
:1022B2000790041BE0FEA3E0FFC390041EE09FFD15
:1022C20090041D8032900419E0FEA3E0FFC3900445
:1022D20018E09FFD900417E09EFC120331C004C079
:1022E20005C006C00790041DE0FEA3E0FFC39004F2
:1022F2001CE09FFD90041BE09EFC120331D003D032
:1023020002D001D00012028F781912098C900417A2
:10231200E0FCA3E0FDEC120331781912096312010B
:1023220086C004C005C006C00790041BE0FCA3E001
:10233200FDEC120331D003D002D001D00012009183
:06234200781512098C223F
:052B49009003B0EFF065
:102B4E009003B21209A400000000E49003B1F090CB
:102B5E0003B2E0F8A3E0F9A3E0FAA3E0FBC000C0E3
:102B6E0001C002C0039003B0E0FF12343CE4FCFD50
:102B7E00D003D002D001D000EB2FFFEA3EFEED399C
:102B8E00FDEC38FC9003B2120998E4FFFE0FBF0073
:102B9E00010EBE03F8BFE8F59003B1E004F0E0C308
:102BAE00946440ABE47B64FAF9F89003B2E0FCA3C2
:0B2BBE00E0FDA3E0FEA3E0FF1208947E
:012BC90022E9
:10337D007F05122B49AD07AC06E412033178191203
:10338D000963120186781512096312009512036AFA
:07339D00781DEEF608EFF6C3
:0133A4002206
:0337D50025640068
:100FCA00606E01A17B2274223A20312C226465765C
:100FDA00696365223A2022426C75654265727279AC
:100FEA00222C226B6579223A2264396238643534BC
:100FFA0039363737653432643938396633353430FF
:10100A00316236633037393066222C227665722295
:10101A003A2276312E30227D0000000000000000C6
:10102A0000000000000000000000000000000000B6
:10103A000000612C00007B2274223A332C22646166
:10104A00746174797065223A312C22646174617317
:10105A00223A7B22506800000000000000000000D5
:10106A000000000000000000000000000000000076
:10107A000000000000000000000000000000000066
:10108A000000000000000000000000000000000056
:10109A000000000000000000000000000000000046
:1010AA000000000000000000000000000000000036
:1010BA000000000000000000000000000000000026
:1010CA000000000000000000000000000000000016
:1010DA000000000000000000000000000000000006
:1010EA0000000000000000000000000000000000F6
:1010FA0000000000000000000000000000000000E6
:10110A0000000000000000000000000000000000D5
:10111A0000000000000000000000000000000000C5
:10112A0000000000000000000000000000000000B5
:10113A0000000000000000000000000000000000A5
:10114A000000000000000000000000000000000095
:10115A000000000000000000000000000000000085
:10116A0000004A02A0223A30000000000000004AB3
:10117A0002AA2C2200000000000000004E02B47DEA
:10118A002C226D73676964223A31327D004702521C
:10119A0024234154230D0047019A244F4B23230D46
:1011AA0000606E012C7B2274223A332C2264617413
:1011BA006174797065223A312C22646174617322F8
:1011CA003A7B225068436F6E74726F6C00000000A5
:1011DA000000000000000000000000000000000005
:1011EA0000000000000000000000000000000000F5
:1011FA0000000000000000000000000000000000E5
:10120A0000000000000000000000000000000000D4
:10121A00000000603F020F5068000000000000005C
:10122A004C697175696454000048756D6964697424
:10123A0079004C757800000000000054656D70005C
:10124A0000000000454300000000000000434F3248
:10125A000000000000004702990207080304020385
:0B126A0044024E09070C074102C200BD
:0B2688009003B9EBF0A3EAF0A3E9F027
:102693009003B9E0F9A3E0FAA3E09003CBC9F0A358
:1026A300EAF0A3E9F09003BCE0FBA3E0FAA3E0F9AE
:1026B3001225C99003C2EBF0A3EAF0A3E9F090035B
:1026C300B9E0FBA3E0FAA3E0F91235FB9003C2E003
:1026D300FBA3E0FAA3E0F9EF3395E0FEE92FF9EA73
:1026E3003EFAA3EBF0A3EAF0A3E9F09003C2A3E060
:1026F300FAA3E0F94A603590FFFF120766B4222C73
:102703009003C5E0FBA3E0FAA3E0F912074DB4225E
:102713001B900001120766B43A12E92403F9E43A64
:10272300FA9003BFEBF0A3EAF0A3E9F09003BFE054
:07273300FBA3E0FAA3E0F9AB
:01273A00227C
:0B2AC2009003B9EBF0A3EAF0A3E9F0E9
:102ACD00E49003C2F01235FB9003BCE0FBA3E0FAE7
:102ADD00A3E0F9EF3395E0FEE92FF9EA3EFAA3EB17
:102AED00F0A3EAF0A3E9F0E49003C3F09003C3E090
:102AFD00FFC364809484503E9003BCE0FBA3E0FAD6
:102B0D00A3E0F9EF3395E0FE8F82F583120766FDA2
:102B1D009003C2E02DFD9003B9E0FBA3E0FAA3E022
:102B2D00F98F828E83120766FFC3ED9F9003C2F06B
:0B2B3D00A3E004F080B69003C2E0FFAC
:012B4800226A
:09378C007B017A0179A1023623C8
:102A39009003B0E4F0A3F0A3F0F9A3C9F0A3F0A3C5
:102A4900E9F09003CB7401F0A37402F0A37452F07F
:102A59007B017A0279591225C99003B0EBF0A3EAF8
:102A6900F0A3E9F09003CB7401F0A37401F0A3740F
:102A79009AF07B017A0279591225C99003B3EBF0D8
:102A8900A3EAF0A3E9F09003B0E0FBA3E0FAA3E026
:102A9900F9EA494B60097B017A01799A1236239048
:102AA90003B3E0FBA3E0FAA3E0F9EA494B60097B31
:082AB900017A02795212362362
:012AC10022F2
:10182000E49003B0F0A3F0A3F0A3F0A37400F0A33E
:10183000741EF0E49003B3F09003B3E0FFC3648040
:10184000948740030219E0EF3395E0FE7C007D09A8
:101850001207A5740F2FF974023EFA7B01C002A390
:10186000E0FEA3E0AA06F8AC027D01D002120AE76E
:101870009003B3E0FFFD3395E0FC74992DF582747D
:10188000023CF583E0FD3395E0FC9003B5E02DF0DC
:101890009003B4E03CF0E0FCA3E0F5828C83E4F03C
:1018A000EFB4070040030219469018B0F8282873D7
:1018B0000218C50218DA0218EF02190402190B0205
:1018C000192A021937900401E0FCA3E0FDEC120391
:1018D00031E4FBFA797A78448044900407E0FCA371
:1018E000E0FDE4120331E4FBFA79207841802F9087
:1018F000040BE0FCA3E0FDE4120331E4FBFA7920E1
:101900007841801A900403A3A380229003FDE0FC99
:10191000A3E0FDE4120331E4FBFA792078411202DE
:101920008F12036A9003B1EE80189003FFE0FFA3CB
:10193000E09003B1CF800B900409E0FFA3E0900397
:10194000B1CFF0A3EFF09003B974FFF0A37437F0B8
:10195000A374D5F09003B1E0FFA3E09003BCCFF0F7
:10196000A3EFF07B017A0279A2120B7F9003B0EF14
:10197000F09003B97401F0A37402F0A374A0F07B9B
:10198000017A007900122DA79003B0E0FF9003B513
:10199000E02FFF9003B4E03400CF2402CF3400FEE8
:1019A000F0A3EFF0F5828E83E4F09003B3E06406D9
:1019B00060259003B97401F0A37402F0A374AAF037
:1019C0007B017A007900122DA79003B5E02402F084
:1019D0009003B4E03400F09003B3E004F002183850
:1019E0009003B97401F0A37402F0A374B4F07B0106
:0B19F0007A007900122DA77E007F0016
:0119FB0022C9
:0C373C001218207B017A0079000236236D
:101EB500E49003B0F0A3F0A3F0A3F0A37401F0A3A2
:101EC500744AF0E49003B3F09003B3E0FFC3648079
:101ED50094844003021FF9EF3395E0FE7C007D0FEB
:101EE5001207A574CB2FF974023EFA7B01C002A339
:101EF500E0FEA3E0AA06F8AC027D01D002120AE7D3
:101F05009003B3E0FFFD3395E0FC744E2DF582742C
:101F1500023CF583E0FD3395E0FC9003B5E02DF040
:101F25009003B4E03CF0E0FCA3E0F5828C83E4F0A0
:101F3500EF14600F1460111460132403701C9002D9
:101F4500C5800D9002C680089002C780039002C824
:101F5500E0FF9003B1E4F0A3EFF09003B974FFF054
:101F6500A37437F0A374D5F09003B1E0FFA3E0901C
:101F750003BCCFF0A3EFF07B017A0279A2120B7FAD
:101F85009003B0EFF09003B97401F0A37402F0A3CD
:101F950074A0F07B017A01792C122DA79003B0E093
:101FA500FF9003B5E02FFF9003B4E03400CF240287
:101FB500CF3400FEF0A3EFF0F5828E83E4F09003BA
:101FC500B3E0640360259003B97401F0A37402F0D3
:101FD500A374AAF07B017A01792C122DA79003B581
:101FE500E02402F09003B4E03400F09003B3E00481
:101FF500F0021ECD9003B97401F0A37402F0A3742E
:0F200500B4F07B017A01792C122DA77E017F2C7C
:0120140022A9
:10320400121820121EB57B017A0079007D7D122CE4
:103214004AE412079390012C742CF09003B97401C2
:10322400F0A37401F0A3742CF07B017A00790012EE
:0F3234002DA77B017A0079001236237E007F00E0
:013243002268
:08379D00000000000000000024
:1012750044033D000000004402C500000000410396
:101285005200410347004102C90144032700000001
:10129500004102CA00410354004102C400605A02E1
:1012A500CB5068436F6E74726F6C000000000000D5
:1012B500424E757441646400000000000000005750
:1012C5006174657243697263756C65000000414E17
:1012D50075744164640000000000000000646174DE
:1012E50061000000000000000000000061706974EA
:1012F500616700000000000000000042034100009B
:101305004203450000420343000042034A000042F5
:101315000348000042034E000042034C0000420314
:0B132500500000410353004102C300D0
:102F8200E0FDE4FF122F9BA3E0FD0F122F9BA3E0B5
:092F9200FD0F122F9BA3E0FD0FBF
:102F9B00EF14601414601B14602224037027ED706F
:102FAB0003C38001D392A322ED7003C38001D3929C
:102FBB00A022ED7003C38001D392A222ED7003C354
:062FCB008001D392A12257
:10250A00900352E0FFE4FCFDFE9003C204F0123295
:10251A0081900347E0FFE4FCFDFE9003C204F01241
:10252A0032819002C4E0FF3395E0FEFDFC9003C2C5
:10253A007401F0123281900352E0FE703890034722
:10254A00E060329002C4E0602CA3122F82E4900370
:10255A0047F09002C5E090033DF09002C6E0900378
:10256A003EF09002C7E090033FF09002C8E090036B
:10257A0040F07F0022900347E0FC5E603E90033DFE
:10258A00122F82E4900347F090033DE09002C5F0D9
:10259A0090033EE09002C6F090033FE09002C7F03D
:1025AA00900340E09002C8F09002C3E004F0E0B467
:0E25BA000206E4F0900352F07F0022EC7FFF57
:0125C80022F0
:1035E60090032B7413F0A37488F09003257403F0F2
:0535F600A374E8F022BF
:1016320078B37C037D017BFF7A37799D7E007F043E
:1016420012072712375E9003B7EFF07003021729D3
:10165200900355E02496F582E43403F583E4F01216
:1016620037BF9003B8EFF01209F5169410169A11CD
:10167200169F2016A52116AA3016B03116B54016AF
:10168200BC4116C9F116D8F21708F316D1F40000BE
:10169200170FE490033D801F90033D8020E49003E8
:1016A2003E801490033E8015E490033F800990032E
:1016B2003F800AE4900340F080079003407401F0F9
:1016C200E49003B7F0804C9003547401F08044E43A
:1016D200900354F0803D9002C47401F0E4900352F0
:1016E200F0900354F0900353F0900347F004F07F1E
:1016F20003900327E4F0A3DFFC7F03C28CE4900491
:1017020030F0A3F0800DE49002C4F080069003B79D
:1017120074FFF0E4900397F09003B7E07009900330
:101722005204F0900347F0900427E0700302181F60
:101732009003BC7401F0A37402F0A37459F07B010E
:101742007A0379161226889003B0EBF0A3EAF0A38D
:10175200E9F0E49003B7F09003B7E0FFC36480942C
:1017620084400302181AEF3395E0FE7C007D0F12CD
:1017720007A574CB2FF974023EFA7B01C002C001A7
:101782009003B0E0F9A3E0FAA3E09003BCC9F0A390
:10179200EAF0A3E9F0D001D002122AC29003B8EF16
:1017A200F070047F0180027F009003B7E0FD339563
:1017B200E0FC74B32DF58274033CF583EFF074B34F
:1017C2002DF58274033CF583E060449003BC740100
:1017D200F0A37402F0A37459F07B017A0379071223
:1017E2002688E924FFF9EA34FFFA12074D24D0FFD4
:1017F2009003B7E0FD3395E0FC743D2DF582740350
:101802003CF583EFF09003527401F0900347F0909F
:0D18120003B7E004F0021759E4900427F03A
:01181F0022A6
:102ED900900327E0FF3395E0FEFDFC9003C27401E7
:102EE900F0123281E49003B0F09003B0E0FFC364C4
:102EF9008094835033EF3395E0FE74272FF5827465
:102F0900033EF583E070191223489003B0E0FF33C4
:102F190095E0FE74272FF58274033EF583E004F0F3
:082F29009003B0E004F080C148
:012F3100227D
:1023480078B17C037D017BFF7A3779A17E007F0419
:1023580012072790032BE0FEA3E0FFC3900402E0DE
:102368009FFF900401E09EFE1237489003B6EEF0FE
:10237800A3EFF0C394F4EE940140349003B6E0FE6A
:10238800A3E0FF7C017DF41207B79003B1EFF0E4FE
:102398009003C3F0121D469002C57401F0900347E4
:1023A800F0E0FFE4FCFDFE9003C204F012328190DD
:1023B8000325E0FEA3E0FFC3900400E09FFF900325
:1023C800FFE09EFE1237489003B8EEF0A3EFF0C38B
:1023D8009490EE940140239003B8E0FEA3E0FF7CC4
:1023E800017D901207B79003B2EFF07401121D41FE
:1023F8009002C67401F0900347F09003B2E0FF909A
:1024080003B1E0FEC3EF6480F8EE6480984004AF47
:102418000680009003B3EFF0601E900329E0701867
:102428009003B3E075F00AA4FF7402121D419002F4
:08243800C77401F0900347F0A6
:012440002279
:091D41009003C3F0E4FBFAFDFC81
:101D4A009003BEEFF0A3ECF0A3EDF0A3EAF0A3EB4F
:101D5A00F0A3E014605E147003021E1014700302F4
:101D6A001E6124036003021EB4900353E04401F091
:101D7A00D28C9003BFE0FEA3E0FF7C007D3C1207FB
:101D8A00A59003BEE02FFFEC3EFE90032DF0A3EFDB
:101D9A00F07D0A1207B7AA06AB079003C1E0FEA3BB
:101DAA00E0FF7C017D681207A5EF2BFFEE3A900356
:101DBA002F021EB0900353E04402F0D28C9003BF6E
:101DCA00E0FEA3E0FF7C007D3C1207A59003BEE085
:101DDA002FFFEC3E900331F0A3EFF090032DE0FECD
:101DEA00A3E0FF7D0A1207B7AA06AB079003C1E07A
:101DFA00FEA3E0FF7C017D681207A5EF2BFFEE3AF8
:101E0A00900333021EB0900353E04404F0D28C9046
:101E1A0003BFE0FEA3E0FF7C007D3C1207A5900310
:101E2A00BEE02FFFEC3E900335F0A3EFF090032DB8
:101E3A00E0FEA3E0FF7D0A1207B7AA06AB079003EC
:101E4A00C1E0FEA3E0FF7C017D681207A5EF2BFF2E
:101E5A00EE3A900337804F900353E04408F0D28C57
:101E6A009003BFE0FEA3E0FF7C007D3C1207A59033
:101E7A0003BEE02FFFEC3E900339F0A3EFF090038E
:101E8A002DE0FEA3E0FF7D0A1207B7AA06AB079072
:101E9A0003C1E0FEA3E0FF7C017D681207A5EF2BDA
:0B1EAA00FFEE3A90033BF0A3EFF022A4
:102BCA00900353E0607930E0169002CAE030E00FDB
:102BDA0030E40C900353E04410F0E49002CAF09001
:102BEA000353E0FF30E1169002CAE030E10F30E50E
:102BFA000CEF4420900353F0E49002CAF090035380
:102C0A00E0FF30E2169002CAE030E20F30E60CEF45
:102C1A004440900353F0E49002CAF0900353E0FF5B
:102C2A0030E31C9002CAE030E3155480FD3395E08E
:102C3A004D600CEF4480900353F0E49002CAF022F6
:10244100122BCA900353E0700302250930E429E4FA
:102451009002C5F0900353E054EEFFF0E490034185
:10246100F0A3F0900345F0A3F0EF30E605E490030C
:1024710027F09003477401F0900353E0FF30E52902
:10248100E49002C6F0EF54DDFF900353F0E49003B3
:1024910043F0A3F090034AF0A3F0EF30E605E49097
:1024A1000328F09003477401F0900353E0FF30E6F6
:1024B10022E49002C7F0EF54BB900353F0E4900381
:1024C10048F0A3F090034EF0A3F0900329F090039D
:1024D1004704F0900353E0FF30E722E49002C8F094
:1024E100EF5477900353F0E490034CF0A3F0900382
:1024F10050F0A3F090032AF090034704F0900353A7
:09250100E07005C28CA304F02275
:1034E9009002C9E060081235E6E49002C9F01216AC
:1034F900329002C4E06006122ED912244102250A34
:10355D00C2937F05123649D2937F03123636D2932A
:0A356D00E4900425F0900424F022FD
:102FD100E49003B2F09003B1F0E4FF2093070FEF08
:102FE100C394C840F67F04123636A293E4339003AB
:102FF100B3F0E4FF3093070FEFC394C840F690039A
:10300100B2E025E0FFF0A3E04F9003B2F09003B1EE
:0E301100E004F0E0C3940840C09003B2E0FF7A
:01301F00228E
:1032F300900420E0FF90041FE02FFFE433FE9004CE
:1033030021E07C002FFFEC3EFEA3E02FFFEC3EFE0E
:0F331300A3E0B50707ECB506037F01227F002278
:1033220012074DFF9003B1E4F0A3EFF0E0F8E4F0F0
:10333200E89003B1F0900001120766FF9003B1E03C
:0E334200FEA3E04FFF9003B1EEF0FEA3EFF00C
:01335000225A
:1028840012355D2093569004257401F0E4FF2093E3
:102894000D0FEFD3942C7480948140F28010E4FFE8
:1028A4003093140FEFD3942C7480948140F29004ED
:1028B400247401F07F0022E49003B0F0122FD19031
:1028C40003B0E0241FF582E43404F583EFF09003B1
:1028D400B0E004F0E0C3940540E28007E4900425EE
:1028E400F0FF22900425E060291232F3EF60237B8D
:1028F400017A04791F12332290040BEEF0A3EFF057
:102904007A0479211233229003FDEEF0A3EFF07FD5
:0429140001227F001D
:01291800229C
:0537D000252E3166000A
:041330004103550020
:102CC4009003B0EFF07FEE1236AE7FB11236AE7FD6
:102CD400101236AEE4FF1236AE7F011236AEE4FFB8
:102CE4001236AE9003B0E0FF1236AE9003B974FF13
:102CF400F0A37437F0A374D0F09003B1E0FCA3E028
:102D0400FDA3E0FEA3E0FF9003BC1209987B017AC7
:102D1400037956120B7F7B017A03795612000E7FDA
:102D2400FF1236AE7FFC1236AE7FFF1236AE7FFF47
:032D34000236AEB6
:09375E00E4FF900397E060010F05
:01376700223F
:0537BF00900397E0FFFC
:0137C40022E2
:10306C009003B0EFF0A3EDF07FEE1236AE7FB1120D
:10307C0036AE7F101236AEE4FF1236AE7F0112363A
:10308C00AEE4FF1236AE9003B0E0FF1236AE900302
:10309C00B1E0FF1236AE7FFF1236AE7FFC1236AEB9
:0A30AC007FFF1236AE7FFF0236AE42
:10004600900432EFF0A3EDF07FEE1236AE7FB112E0
:1000560036AE7F111236AEE4FF1236AE900432E0B1
:10006600FF1236AEE4FF1236AE900433E0FF1236CE
:10007600AE7FFF1236AE7FFC1236AE7FFF1236AE73
:050086007FFF0236AE11
:041334004103FC0174
:10348400C2A3C2A0C2A2C2A11236BD1237CB123748
:10349400AC1222421237B31237B91237A51237953C
:0334A40002368F5E
:1031C2001228841235A5122E7712133912036A902F
:1031D20003FFEEF0A3EFF0122919900407EEF0A31B
:1031E200EFF0122D3790040312099812352790043C
:1031F20009EEF0A3EFF012337D900401EEF0A3EF9D
:02320200F022B8
:10213700900407E0FCA3E0FDE4120331E4FBFA7925
:1021470020784112028F9003B11209987F2A122C2E
:10215700C4900409E0FCA3E0FDE41203319003B14D
:102167001209987F0A122CC4900401E0FCA3E0FD39
:10217700EC120331E4FBFA797A784412028F900368
:10218700B11209987F0B122CC490040BE0FCA3E05A
:10219700FDE4120331E4FBFA7920784112028F90B3
:1021A70003B11209987F08122CC49003FDE0FCA329
:1021B700E0FDE4120331E4FBFA7920784112028F43
:1021C7009003B11209987F07122CC49003FFE0FC1B
:1021D700A3E0FDEC1203319003B11209987F0C12B2
:1021E7002CC4900403E0FCA3E0FDA3E0FEA3E0FF02
:1021F700E412032C9003B11209987F09122CC490A2
:1022070002C5E0FD7F1112306C9002C6E0FD7F131E
:1022170012306C9002C7E0FD7F1412306C9002C838
:10222700E0FD7F1512306C900354E0FD7F251230DE
:0B2237006C9002C4E0FD7F2302306CBD
:10313D009003FCE0FF75F0C884E5F06006EFC394E2
:10314D0009500312378C122A399003FCE075F003F5
:10315D0084E5F0700312373C9003FCE054037003D8
:10316D001232049003FCE004F0E0D394FA400374AF
:02317D0001F05F
:01317F00222D
:10341700E49003AFF0C2A690035404F012313D12BA
:1034270031C21221371234E9E49002C2F0900355F9
:05343700F0B2A680E7E1
:0637C500123484023417E7
:10008E000203D6E86480F8E933E83360110460F0C7
:10009E00ED33EC337009E8FCE9FDEAFEEBFF2204D8
:1000AE0060DED3EB9FEA9EE99DE8C2E78CF0C2F7D3
:1000BE0095F0400CE8CCF8E9CDF9EACEFAEBCFFB9F
:1000CE001203A185D0F05804700320D5B3E8047054
:1000DE00075002B2D50203E092D5EC0460F7E4CCEF
:1000EE00C0E0C398F8603B94186008400DD0E0FB68
:1000FE000203B8E4FBFAC9FC8028E830E406E4C940
:10010E00FBE4CAFCE830E305E4C9CACBFCE85407BB
:10011E006010F8C3E913F9EA13FAEB13FBEC13FCC6
:10012E00D8F130F52FC3E49CFCEF9BFFEE9AFEED69
:10013E0099FDD0E0FBEF4E4D4C701222DB03020313
:10014E00DDEC2CFCEF33FFEE33FEED33FDED30E74F
:10015E00EB0203B8EF2BFFEE3AFEED39FDD0E0FBDC
:10016E0050130BBB00030203E0ED13FDEE13FEEF85
:08017E0013FFEC13FC0203B8AF
:10018600EC4D6011E8497017ED33EC3304600DE473
:10019600FCFFFEFD22E933E8330470F80203D612B1
:1001A60003A158046009E4CC2481500628500902B2
:1001B60003E02840030203DDC0E0EB4A7044B98047
:1001C60006D0E0FB0203CCEF4E701CBD8008EBFFAF
:1001D600EAFEE9FD80EBE98DF0A4FEE5F002026F90
:1001E600E9CDF9EAFEEBFFEF89F0A4FCE5F0CE8954
:1001F600F0A42EFFE435F0CD89F0A42DFEE435F011
:100206008067EF4E7005BD80D780C3EF8BF0A4AC3E
:10021600F0EE8BF0A42CFCE435F0F8EF8AF0A42C79
:10022600E5F038FCE433CB8DF0A42CFCE5F03BF88C
:10023600EE8AF0A42CFCE5F038F8E433CF89F0A47C
:100246002CFCE5F038CF3400CE89F0A42FFFE5F082
:100256003EFEE433C98DF0A42EFEE5F039CD8AF0DA
:10026600A42FFFE5F03EFEE43DFD33D0E0FB500752
:100276000BBB000F0203E0EC2CFCEF33FFEE33FE6A
:06028600ED33FD0203B898
:10028C000203E0EC5D046005E8590470030203D638
:10029C001203A1580460F6EC4860F2EC7004FDFE09
:1002AC00FF22C860DB2481C85009C3986002500645
:1002BC000203DD9850CAF582E9294B4A7005AB82DE
:1002CC000203CC75F0007C1A7880C3EF9BEE9AED9C
:1002DC0099400DC3EF9BFFEE9AFEED99FDE842F0BD
:1002EC00DC23ACF0D0E0FFD0E0FED0E0FDAB822010
:1002FC00E7101BEB60BAEC2CFCEF33FFEE33FEED9A
:10030C0033FD0203B8E803F830E705C0F075F000E0
:10031C00EF2FFFEE33FEED33FD40B830E7C280AA7D
:10032C0075F020800E75F010800575F0087D007E4C
:10033C00007F003392D530D503120926EC334010E0
:10034C00EF33FFEE33FEED33FDEC33FCD5F0ED2255
:0E035C00E5F0247EA2D513CC92E7CDCEFF2291
:10036A00EDD2E7CD33EC3392D524814006E4FFFE8B
:10037A00FDFC22FCE4CFCECDCC24E0501174FF80EA
:10038A00EDC3CC13CCCD13CDCE13CECF13CF047087
:07039A00F030D5DE02092658
:100B1A00E51024B9F582E43403F583E00510229048
:100B2A0003B63007039003B9E475F0011209D50240
:100B3A00074D2000E97F2ED2008018EF540F249031
:100B4A00D43440D4FF30040BEF24BFB41A0050034E
:100B5A002461FFE511600215110514E51470020500
:100B6A001330070E9003B6E475F0011209D5EF02AF
:100B7A0007930233A57403D2078003E4C207F51072
:100B8A009003B61209ECE4F511F513F514E51160BA
:100B9A00077F20120B5D80F57512FFC201C200C2E9
:100BAA0002C203C205C206C208120B29FF700D3029
:100BBA0007057F00120B6EAF14AE1322B4255FC275
:100BCA00D5C204120B29FF24D0B40A00501A75F0BA
:100BDA000A781130D50508B6FF0106C6A426F62004
:100BEA00D5047002D20380D924CFB41A00EF50047E
:100BFA00C2E5D204020E60D20180C6D20080C0D201
:100C0A000280BCD2D580BAD20580B47F20120B5D97
:100C1A002002077401B5110040F1120B1AFF120BE2
:100C2A005D020B97D208D2068095120B1AFB120BA3
:100C3A001AFA120B1AF94A4B7006795E7A0F7BFF81
:100C4A0020022EE511602A7E008E8275830012072B
:100C5A006660060EEE651270F0C2D5EBC0E0EAC01F
:100C6A00E0E9C0E0EE120EC1D0E0F9D0E0FAD0E03F
:100C7A00FB12074DFF60AAEBC0E0EAC0E0E9C0E062
:100C8A00120B5DD0E02401F9D0E03400FAD0E0FB89
:100C9A00E5120460DCD512D98087D20280A2120E36
:100CAA00A360F7E512700104120458A912600DE559
:100CBA0012600914F512120F4BEF60F3EA30E702E3
:100CCA00F404C3995079EAF425120430E701E404E4
:100CDA00F512800D120EA360C1EA05122512120444
:100CEA0058EA9003E5F030E701E4251204D512042E
:100CFA0020050114120EC1E4C0E0120F4B9003E567
:100D0A00E0601320E70714F0120B45802204F0D0AC
:100D1A00E014C0E07F00120B45E5126007120B3C9D
:100D2A001512800B300503120B3CD0E0020B97D052
:100D3A00E00480C4120EA3609EE5120412045890C7
:100D4A0003E5EAF0E5122005026001042404120E0C
:010D5A00C1D7
:100D5B0074FF04C0E0120F4B120B45E51220050285
:100D6B006003120B3CD0E0B512E87F45120B4F909D
:100D7B0003E5E07F2B30E7047F2DF404C0E0120B7A
:100D8B005DD0E075F00A84C0F0120B46D0E0120B78
:100D9B0046020B97791080027908C206C2088008B8
:100DAB00D2D5790A8004790AC2D5E512047002F50E
:100DBB0012E4FAFDFEFF120B1AFC7B082001131242
:100DCB000B1AFD7B1030000A120B1AFE120B1AFFC6
:100DDB007B20EC3382D592D55013C3E43000069FB1
:100DEB00FFE49EFEE42001039DFDE49CFCE4CBF8B4
:100DFB00C201EC700CCFCECDCCE824F8F870F380A8
:100E0B0017C3EF33FFEE33FEED33FDEC33FCEB3367
:100E1B00FB994002FB0FD8E9EB300105F8D0E0C499
:100E2B0048B201C0E00AEC4D4E4F78207B0070C2F7
:100E3B00EAB5120040BCC0E0120EC3D0F0D0E020E7
:100E4B000104C4C0E0C4B201C0F0120B46D0F0D50F
:100E5B00F0EB020B971209F50C34530D9F580C0550
:100E6B004C0C01420DA34F0DAB440DAB490C1A4377
:100E7B000DB1550CDE460D3E450CA8470F7E500CB0
:100E8B00092D0C0D2E0C302B0C11230C2E200F6763
:100E9B002A0BC94800000C28E512B4FF0375120693
:100EAB00120B1AFC120B1AFD120B1AFE120B1AFF65
:100EBB009003DE020495790AA2D5200314300509AC
:100ECB00B910020404B9080104A2D520060250018E
:100EDB00042002689202B511005034C0E07F20302C
:100EEB0003197F30A20272067205500F120F1AC23D
:100EFB0002C206C205C2087F30800F300503E9C06D
:100F0B00E0120B5D300503D0E0F9D0E0B511CC3029
:100F1B0005177F30B9100C120B5D7F583004077F1B
:100F2B00788003B90803120B5D3002057F2D020B8D
:100F3B005D7F202008F87F2B2006F322920280CFC2
:100F4B007F00B40700500B24DEF582E43403F583F5
:100F5B00E0FF22286E756C6C2900D201120B1A303F
:100F6B0001F8C201781130D50108F6020BC92D50DA
:100F7B00434958120B1A2403B405004001E4900FA7
:100F8B007993120B4E743A120B4ED2037511040265
:020F9B000D9FA8
:10273B000203D622EDA2E7D2E7F9EC3340F260F3C5
:10274B00B4FF08ED547F70E80203E0F82481C2E087
:10275B00C0E0F40428FAC313FCED92E7FD9003B03C
:10276B00120998EEA2E7E9BA7F02C3133400940072
:10277B00FA75F091A4E5F013F494FE8AF0A433E516
:10278B00F033248CD313FDE492E7FE7F007C3F757E
:10279B008302ECC0E0F8EDC0E0F9EEC0E0FAEFC068
:1027AB00E0FB8583F09003B012094785F08312029A
:1027BB008FD0E0FBD0E0FAD0E0F9D0E0F812009532
:1027CB00ED6480FD30E7011CD583C7ED33CC33F8C6
:0C27DB00D0E0A2E71328C313CC13FD22AA
:1027E7009003B01209989003B4E0F8A3E0F9A3E0CE
:1027F700FAA3E0FB9003B0E0FCA3E0FDA3E0FEA397
:10280700E0FF12028F1220359003B012099890034F
:10281700B4E030E7599003B0E0FCA3E0FDA3E0FE8D
:10282700A3E0FFECC0E0EDC0E0EEC0E0EFC0E0E405
:10283700FFFEFDFC9003B0E0F8A3E0F9A3E0FAA3E4
:10284700E0FB1203EB7BDB600250087A0F794978D3
:102857004080067A0F794978C0D0E0FFD0E0FED0FB
:10286700E0FDD0E0FC1200959003B01209989003A8
:0D287700B0E0FCA3E0FDA3E0FEA3E0FF2223
:101BB9003A70FA83BCAAE9E43E81E0F8BF9DE9E600
:101BC9003F80000039283C1ABB9969663DA335E37B
:101BD900BF255DE73FC90FDB418DDBCCC44936EE3C
:101BE90045C9913FC5B0F83D3F800000C317F534A2
:101BF900452FFA73C60AFDDD121CC204A2E1920048
:101C09001420E015901BB9740412059A8030121C37
:101C1900C230E102B20020E0EBA883A9829003B0B0
:101C290012099889828883901BCD740412059A85BC
:101C390082F09003B012097085F082120186ED4C92
:101C49006007300004EC6480FC22121CC2C0E0A8CA
:101C590083A9829003B012099889828883901BF125
:101C6900740312059A8582F09003B012097085F009
:101C7900821201869003B0E0CCF0A3E0CDF0A3E09E
:101C8900CEF0A3E0CFF0901BE1740312059AD08245
:101C99008582F09003B012097085F082E58230E008
:101CA9000712028FB2008096EFCBFFEECAFEEDC994
:101CB900FDECC8FC12028F8085ED33EC547FCC33E8
:101CC900920024605007D0E0D0E00203D67B837AEB
:101CD900F97922783E120186EDF933ECF833248143
:101CE9005011EFFBEEFA12036A12032CECB2E7FC77
:101CF900120095ED33EC33602F2403F8C313FCED88
:101D090092E7FDE82481E4501FECF8EDF9EEFAEFD3
:101D1900FB12036AEF04C2E0FCF582120336ECB24F
:101D2900E7FC120095E58203FAED33EC3360071402
:081D390013FCED92E7FDEA2224
:1003A100E9D2E7C933E833F892D5EDD2E7CD33ECA2
:0703B10033FC5002B2D5221B
:1003B800EC30E7100FBF000C0EBE00080DBD0004A6
:1003C8000BEB6014A2D5EB13FCED92E7FD2274FF52
:1003D800FCFDFEFF22E480F8A2D574FF13FC7D80AB
:0303E800E480EFBF
:1003EB0074F8CC6480CCC86480C8F582046043C3C5
:1003FB00EB9FF5F0EA9E42F0E99D42F0E89C45F058
:10040B0060305018E5825FFFE582F42B5582FB507C
:10041B00210ABA001D09B90019088016E5825BFB99
:10042B00E582F42F5582FF50090EBE00050DBD006D
:10043B00010CC3EB9FF5F0EA9E42F0E99D42F0E818
:0D044B009C45F06007CC4820E701B3EC228F
:10045800F920E73624F950037907E4F42402FBE590
:1004680082158270021583DBF6E024FB501BE960DD
:1004780014E4F0E582158270021583E004F0B40AF2
:0D04880008E4F0D9EE7401F00A22C2D5227A
:10049500ED33EC3392D5FA602AB4FF33EDC2E77B36
:1004A500FF60067A0479BAE4227A0479C320D50478
:1004B5007A0479BE224E614E002B494E46002D49E5
:1004C5004E4600E47A08F0A3DAFC7B00740722C0EC
:1004D50083C082ECC0E0EDC0E0EEC0E0EFC0E0EA32
:1004E50075F010A4CAABF075F04DA42BFBE435F004
:1004F500FCEA2410FAEB34C5FBEC34D9FCEDC2E779
:10050500FF75F056A4F42411C5F0F434C58FF0A49A
:100515002AE5F03BE43CF020E714120617D0E0FF93
:10052500D0E0FED0E0FDD0E0FC12028F8014F40490
:10053500120617D0E0FFD0E0FED0E0FDD0E0FC12BF
:100545000186D082D083E0FAEDD2E7CD33EC3324B7
:1005550082FBE4C3CF33CFCE33CECD33CD33DBF304
:100565007B0775F00A846004F0A31B0AE5F0F0A38D
:100575008FF0740AA4FFACF08EF0740AA42CFEACC4
:10058500F050010C8DF0740AA42CFDE435F0F0A3B5
:05059500DBDE7407220B
:10059A00C0E0EFFBEEFAEDF9ECF8120186D0E0F5D7
:1005AA00F0EFFBEEFAEDF9ECF8120953A3A3A3A3BB
:1005BA00E8C0E0E9C0E0EAC0E0EBC0E0C0F0120148
:1005CA008612097CA3A3A3A3120095D0F0D0E0FB66
:0D05DA00D0E0FAD0E0F9D0E0F8D5F0D4225E
:10201500BE1249253E4CCCCDBEAAAAAB3F800000DE
:102025003E7ADBB03EED63383F24BC7D3F490FDB94
:10203500ED33ECC2E7CC339200B4FF13ED547F606F
:10204500030203D67FDB7E0F7DC97C3F02212AC2B6
:1020550001C3947F401E7007EDD2E794904015EFC1
:10206500FBEEFAEDF9ECF87F007E007D807C3F12F7
:10207500028FD201ED33EC33248430E705E4C0E070
:10208500806B04FAEDD2E754F0C333DAFD5407341C
:10209500002323C0E0CCC0E0F8EDC0E0F9EEC0E0DD
:1020A500FAEFC0E0FBE4120336EC24FEFC9003B823
:1020B5001209981201867B007A007980783F120018
:1020C500959003B8E0B2E7CCF0A3E0CDF0A3E0CE65
:1020D500F0A3E0CFF0D0E0FBD0E0FAD0E0F9D0E01B
:1020E500F81200959003B812097012028F9003B888
:1020F500120998902015740312059A9003B81209D5
:1021050070120186D0E0600F2421F582E43420F5B9
:102115008312097C12009530010B7BDB7A0F79C99C
:1021250078BF120095ED33EC336006ECA20092E720
:02213500FC228A
:1005E7003F8000004120000042C80000447A00001C
:1005F700461C400047C35000497424004B1896809E
:100607004CBEBC205A0E1BCA6753C21C749DC5AE94
:10061700FB60065407601C2323120645EB54386021
:1006270009120631120640120186ECF8EDF9EEFACE
:10063700EFCB22EB12064080F1543803241C9005BF
:10064700E7FE93FC0EEE93FD0EEE930ECE93FF2284
:030000000229AD25
:0C29AD00787FE4F6D8FD7581210229F442
:10065700E709F608DFFA8046E709F208DFFA803E85
:1006670088828C83E709F0A3DFFA8032E309F60872
:10067700DFFA8078E309F208DFFA807088828C83DA
:10068700E309F0A3DFFA806489828A83E0A3F6088E
:10069700DFFA805889828A83E0A3F208DFFA804C68
:1006A70080D280FA80C680D4806980F2803380103F
:1006B70080A680EA809A80A880DA80E280CA8033A8
:1006C70089828A83ECFAE493A3C8C582C8CCC58320
:1006D700CCF0A3C8C582C8CCC583CCDFE9DEE780F0
:1006E7000D89828A83E493A3F608DFF9ECFAA9F06F
:1006F700EDFB2289828A83ECFAE0A3C8C582C8CCC5
:10070700C583CCF0A3C8C582C8CCC583CCDFEADEDD
:10071700E880DB89828A83E493A3F208DFF980CC3F
:1007270088F0EF60010E4E60C388F0ED2402B40438
:100737000050B9F582EB2402B4040050AF232345DF
:0607470082239006A77357
:10074D00BB010689828A83E0225002E722BBFE02AA
:09075D00E32289828A83E49322DD
:10076600BB010CE58229F582E5833AF583E0225048
:1007760006E92582F8E622BBFE06E92582F8E22292
:0D078600E58229F582E5833AF583E49322AC
:10079300BB010689828A83F0225002F722BBFE0145
:0207A300F3223F
:1007A500EF8DF0A4A8F0CF8CF0A428CE8DF0A42E68
:0207B500FE2222
:1007B700BC000BBE0029EF8DF084FFADF022E4CC26
:1007C700F875F008EF2FFFEE33FEEC33FCEE9DECEF
:1007D700984005FCEE9DFE0FD5F0E9E4CEFD22ED35
:1007E700F8F5F0EE8420D21CFEADF075F008EF2F7F
:1007F700FFED33FD4007985006D5F0F222C398FD70
:050807000FD5F0EA220C
:10080C00C2D5EC30E709B2D5E4C39DFDE49CFCEE07
:10081C0030E715B2D5E4C39FFFE49EFE1207B7C3C1
:10082C00E49DFDE49CFC80031207B730D507C3E4BC
:06083C009FFFE49EFE2276
:10084200A3F8E0C5F025F0F0E58215827002158369
:06085200E0C838F0E822C6
:1008580075F008758200EF2FFFEE33FECD33CDCC57
:1008680033CCC58233C5829BED9AEC99E5829840DA
:100878000CF582EE9BFEED9AFDEC99FC0FD5F0D6B7
:10088800E4CEFBE4CDFAE4CCF9A88222B800C1B9E1
:100898000059BA002DEC8BF084CFCECDFCE5F0CB1F
:1008A800F97818EF2FFFEE33FEED33FDEC33FCEB58
:1008B80033FB10D703994004EB99FB0FD8E5E4F913
:1008C800FA227818EF2FFFEE33FEED33FDEC33FC00
:1008D800C933C910D7059BE99A4007EC9BFCE99AF4
:1008E800F90FD8E0E4C9FAE4CCFB2275F010EF2F39
:1008F800FFEE33FEED33FDCC33CCC833C810D70739
:100908009BEC9AE899400AED9BFDEC9AFCE899F873
:0E0918000FD5F0DAE4CDFBE4CCFAE4C8F92206
:0E092600C3E49FFFE49EFEE49DFDE49CFC22E2
:10093400E8600FECC313FCED13FDEE13FEEF13FFA1
:03094400D8F122C5
:0C094700E0FCA3E0FDA3E0FEA3E0FF2223
:10095300E493FC740193FD740293FE740393FF22EA
:0D096300E6FB08E6F908E6FA08E6CBF82204
:0C097000E0F8A3E0F9A3E0FAA3E0FB220A
:10097C00E493F8740193F9740293FA740393FB22D1
:0C098C00ECF608EDF608EEF608EFF62297
:0C099800ECF0A3EDF0A3EEF0A3EFF022D2
:1009A400A8828583F0D083D0821209BB1209BB12BE
:1009B40009BB1209BBE473E493A3C583C5F0C583E3
:1009C400C8C582C8F0A3C583C5F0C583C8C582C89D
:0109D4002200
:1009D500F8E0FBA3A3E0F925F0F0E58215827002AB
:0709E5001583E0FA38F0224F
:0909EC00EBF0A3EAF0A3E9F0220C
:1009F500D083D082F8E4937012740193700DA3A391
:100A050093F8740193F5828883E4737402936860A4
:060A1500EFA3A3A380DFA4
:1033A500EFB40A07740D1233B0740A309811A89956
:1033B500B8130CC2983098FDA899C298B811F63088
:0733C50099FDC299F5992260
:0C374800EE30E707C3E49FFFE49EFE2282
:102DA7009003B6EBF0A3EAF0A3E9F09003BCEBF0D5
:102DB700A3EAF0A3E9F09003B6E0FBA3E475F00102
:102DC700120842A9F0FA12074D70EB9003B774FF8F
:102DD700F5F0120B049003B9E0FBA3E475F00112C0
:102DE7000842A9F0FA12074DFF9003B6E0FBA3E4EF
:102DF70075F001120842A9F0FAEF12079370D69006
:0B2E070003BCE0FBA3E0FAA3E0F9220B
:100A1B00E709F60870FA8046E709F20870FA803E9B
:100A2B0088828C83E709F0A370FA807EE309F608CD
:100A3B0070FA8076E309F20870FA806E88828C83F4
:100A4B00E309F0A370FA806289828A83E0A3F60837
:100A5B0070FA805689828A83E0A3F20870FA804A82
:100A6B0080D280FA80C680D4806580F2803180107D
:100A7B0080A680EA809A80A880DA80E280CA8031E2
:100A8B0089828A83ECFAE493A3C8C582C8CCC58358
:100A9B00CCF0A3C8C582C8CCC583CC70E9800D89C6
:100AAB00828A83E493A3F60870F9ECFAA9F0EDFBC4
:100ABB002289828A83ECFAE0A3C8C582C8CCC5839D
:100ACB00CCF0A3C8C582C8CCC583CC70EA80DD89C5
:100ADB00828A83E493A3F20870F980CE88F0ED2428
:100AEB0002B4040050C4F582EB2402B4040050BAE3
:090AFB002323458223900A6B734A
:1035FB00E4FFFE12074D600C0FEF70010E09E9702E
:05360B00F20A80EF222D
:102C4A009003B0EBF0A3EAF0A3E9F0A3EBF0A3EA58
:102C5A00F0A3E9F09003B3E0FBA3E0FAA3E0F912D2
:102C6A00074D600C9003B4E475F001120B0480E484
:102C7A009003B3E0FBA3E0FAA3E0F912074D6D70ED
:102C8A0001229003B0E0FBA3E0FAA3E0F9EBC0E075
:102C9A00EAC0E0E9C0E0A3E0FBA374FFF5F0120884
:102CAA0042FAD082D083D0E06B7009E5F065827079
:0A2CBA0003EA658370BAFBFAF92201
:1025C9009003C8EBF0A3EAF0A3E9F0A3E0FBA3E0D2
:1025D900FAA3E0F912074D70030226759003C8E0CB
:1025E900FBA3E0FAA3E0F912074D700302268190DC
:1025F90003CBE0F9A3E0FAA3E0A3C9F0A3EAF0A3AF
:10260900E9F09003C8A3E0FAA3E0F99003D1EBF055
:10261900A3EAF0A3E9F09003CEE0FBA3E0FAA3E07C
:10262900F912074DFF60269003D1E0FBA3E0FAA35E
:10263900E0F912074D6F70159003CF75F001120B79
:10264900049003D2E475F001120B0480C99003CE03
:10265900E0FBA3E0FAA3E0F912074D7002800D90A8
:1026690003C9E475F001120B040225E59003C8E0E3
:0F267900FBA3E0FAA3E0F9227B007A00790022AC
:1029B9000237C5E493A3F8E493A34003F68001F238
:1029C90008DFF48029E493A3F85407240CC8C3331F
:1029D900C4540F4420C8834004F456800146F6DFEE
:1029E900E4800B0102040810204080900F9DE47ED2
:1029F900019360BCA3FF543F30E509541FFEE493E3
:102A0900A360010ECF54C025E060A840B8E493A3A9
:102A1900FAE493A3F8E493A3C8C582C8CAC583CAD4
:102A2900F0A3C8C582C8CAC583CADFE9DEE780BE8C
:0113380000B4
:100B0400C5F0F8A3E028F0C5F0F8E582158270027C
:060B14001583E038F02219
:00000001FF
